{
  "transactions": [
    {
      "hash": "0xebce6ef3a11ca1fffd1c9aaf24c27312c6e6c56b1e2ca7b1eb9fe2f0b8ca6157",
      "transactionType": "CREATE",
      "contractName": "RumpelModule",
      "contractAddress": "0x28c3498b4956f4ad8d4549aca8f66260975d361a",
      "function": null,
      "arguments": [
        "0xA65387F16B013cf2Af4605Ad8aA5ec25a2cbA3a2"
      ],
      "transaction": {
        "from": "0x25e426b153e74ab36b2685c3a464272de60888ae",
        "gas": "0xbde37",
        "value": "0x0",
        "input": "0x60a060405234801561001057600080fd5b50604051610a6f380380610a6f83398101604081905261002f916100c0565b338061005557604051631e4fbdf760e01b81526000600482015260240160405180910390fd5b61005e81610070565b506001600160a01b03166080526100f0565b600080546001600160a01b038381166001600160a01b0319831681178455604051919092169283917f8be0079c531659141344cd1fd0a4f28419497f9722a3daafe3b4186f6b6457e09190a35050565b6000602082840312156100d257600080fd5b81516001600160a01b03811681146100e957600080fd5b9392505050565b60805161095e6101116000396000818160e1015261033a015261095e6000f3fe608060405234801561001057600080fd5b506004361061007d5760003560e01c80638da5cb5b1161005b5780638da5cb5b146100b2578063dfe274a9146100dc578063f2fde38b14610103578063ff3465131461011657600080fd5b806330fba6c91461008257806360d0825a14610097578063715018a6146100aa575b600080fd5b61009561009036600461064c565b610154565b005b6100956100a53660046106d6565b61050f565b61009561057d565b6000546001600160a01b03165b6040516001600160a01b0390911681526020015b60405180910390f35b6100bf7f000000000000000000000000000000000000000000000000000000000000000081565b61009561011136600461071c565b610591565b6101446101243660046106d6565b600160209081526000928352604080842090915290825290205460ff1681565b60405190151581526020016100d3565b61015c6105cf565b60005b8181101561050a573683838381811061017a5761017a610740565b905060200281019061018c9190610756565b905060006001816101a3604085016020860161071c565b6001600160a01b03166001600160a01b0316815260200190815260200160002060008380604001906101d59190610776565b6101de916107c4565b6001600160e01b0319168152602080820192909252604090810160009081205460ff1693509161021291850190850161071c565b6001600160a01b0316610228602085018561071c565b6001600160a01b031614905081806102a457508080156102a45750600080805260016020527fa6eef7e35abe7026729641147f7915573c7e97b47efa546f5f6e3230263bcb499061027c6040860186610776565b610285916107c4565b6001600160e01b031916815260208101919091526040016000205460ff165b15610308576102b9604084016020850161071c565b6102c66040850185610776565b6102cf916107c4565b60405163d9f5e14560e01b81526001600160a01b0390921660048301526001600160e01b03191660248201526044015b60405180910390fd5b600161031a608085016060860161080a565b600181111561032b5761032b6107f4565b03610388576001600160a01b037f00000000000000000000000000000000000000000000000000000000000000001661036a604085016020860161071c565b6001600160a01b031614610388576102b9604084016020850161071c565b6000610397602085018561071c565b6001600160a01b031663468721a76103b5604087016020880161071c565b60006103c46040890189610776565b6103d460808b0160608c0161080a565b6040518663ffffffff1660e01b81526004016103f4959493929190610854565b6020604051808303816000875af1158015610413573d6000803e3d6000fd5b505050506040513d601f19601f8201168201806040525081019061043791906108ac565b9050806104855761044b602085018561071c565b61045b604086016020870161071c565b6104686040870187610776565b60405163cfe2912d60e01b81526004016102ff94939291906108ce565b610495604085016020860161071c565b6001600160a01b03166104ab602086018661071c565b6001600160a01b03167f3eea0f8d20bb5211fdbae9b74a0eeb251db06ff99c584eff18d331d46c033d4460006104e46040890189610776565b6040516104f393929190610905565b60405180910390a38460010194505050505061015f565b505050565b6105176105cf565b6001600160a01b03821660008181526001602081815260408084206001600160e01b031987168086529252808420805460ff191690931790925590519092917fbd2ecf3a575dfdb98cf6475d8c68efb6cdcce886ac9db5f29a9fdc1b17cc3c8891a35050565b6105856105cf565b61058f60006105fc565b565b6105996105cf565b6001600160a01b0381166105c357604051631e4fbdf760e01b8152600060048201526024016102ff565b6105cc816105fc565b50565b6000546001600160a01b0316331461058f5760405163118cdaa760e01b81523360048201526024016102ff565b600080546001600160a01b038381166001600160a01b0319831681178455604051919092169283917f8be0079c531659141344cd1fd0a4f28419497f9722a3daafe3b4186f6b6457e09190a35050565b6000806020838503121561065f57600080fd5b823567ffffffffffffffff8082111561067757600080fd5b818501915085601f83011261068b57600080fd5b81358181111561069a57600080fd5b8660208260051b85010111156106af57600080fd5b60209290920196919550909350505050565b6001600160a01b03811681146105cc57600080fd5b600080604083850312156106e957600080fd5b82356106f4816106c1565b915060208301356001600160e01b03198116811461071157600080fd5b809150509250929050565b60006020828403121561072e57600080fd5b8135610739816106c1565b9392505050565b634e487b7160e01b600052603260045260246000fd5b60008235607e1983360301811261076c57600080fd5b9190910192915050565b6000808335601e1984360301811261078d57600080fd5b83018035915067ffffffffffffffff8211156107a857600080fd5b6020019150368190038213156107bd57600080fd5b9250929050565b6001600160e01b031981358181169160048510156107ec5780818660040360031b1b83161692505b505092915050565b634e487b7160e01b600052602160045260246000fd5b60006020828403121561081c57600080fd5b81356002811061073957600080fd5b81835281816020850137506000828201602090810191909152601f909101601f19169091010190565b60018060a01b038616815284602082015260806040820152600061087c60808301858761082b565b90506002831061089c57634e487b7160e01b600052602160045260246000fd5b8260608301529695505050505050565b6000602082840312156108be57600080fd5b8151801515811461073957600080fd5b6001600160a01b038581168252841660208201526060604082018190526000906108fb908301848661082b565b9695505050505050565b83815260406020820152600061091f60408301848661082b565b9594505050505056fea2646970667358221220b40edbafa7762e3c87c1dcb8407cc63764f433d085c6d156fe51880f9fd27e1a64736f6c63430008180033000000000000000000000000a65387f16b013cf2af4605ad8aa5ec25a2cba3a2",
        "nonce": "0x53",
        "chainId": "0x1"
      },
      "additionalContracts": [],
      "isFixedGasLimit": false
    },
    {
      "hash": "0x8187b2d074f089fad3297a5d4223c04ac23f1ef98787f598f9eb8ec3d54d2151",
      "transactionType": "CREATE",
      "contractName": "RumpelGuard",
      "contractAddress": "0x9000fef2846a5253fd2c6ed5241de0fddb404302",
      "function": null,
      "arguments": [
        "0xA65387F16B013cf2Af4605Ad8aA5ec25a2cbA3a2"
      ],
      "transaction": {
        "from": "0x25e426b153e74ab36b2685c3a464272de60888ae",
        "gas": "0xbeca7",
        "value": "0x0",
        "input": "0x60a060405234801561001057600080fd5b50604051610a7d380380610a7d83398101604081905261002f916100c0565b338061005557604051631e4fbdf760e01b81526000600482015260240160405180910390fd5b61005e81610070565b506001600160a01b03166080526100f0565b600080546001600160a01b038381166001600160a01b0319831681178455604051919092169283917f8be0079c531659141344cd1fd0a4f28419497f9722a3daafe3b4186f6b6457e09190a35050565b6000602082840312156100d257600080fd5b81516001600160a01b03811681146100e957600080fd5b9392505050565b60805161096b610112600039600081816101780152610339015261096b6000f3fe608060405234801561001057600080fd5b50600436106100935760003560e01c80638da5cb5b116100665780638da5cb5b146101015780639327136814610126578063b23ade8014610138578063dfe274a914610173578063f2fde38b1461019a57600080fd5b806301ffc9a7146100985780635534fa0c146100d1578063715018a6146100e657806375f0bb52146100ee575b600080fd5b6100bc6100a63660046105f0565b6001600160e01b03191663736bd41d60e11b1490565b60405190151581526020015b60405180910390f35b6100e46100df366004610632565b6101ad565b005b6100e46102b8565b6100e46100fc366004610731565b6102cc565b6000546001600160a01b03165b6040516001600160a01b0390911681526020016100c8565b6100e4610134366004610816565b5050565b61016661014636600461084b565b600160209081526000928352604080842090915290825290205460ff1681565b6040516100c89190610896565b61010e7f000000000000000000000000000000000000000000000000000000000000000081565b6100e46101a83660046108be565b610518565b6101b5610556565b60026001600160a01b03841660009081526001602090815260408083206001600160e01b03198716845290915290205460ff1660028111156101f9576101f9610880565b03610217576040516301a3c1f160e71b815260040160405180910390fd5b6001600160a01b03831660009081526001602081815260408084206001600160e01b0319871685529091529091208054839260ff199091169083600281111561026257610262610880565b0217905550816001600160e01b031916836001600160a01b03167f70785a9b51e0166fb561479b514223d6b27cc81df3c02b16292211b860842f73836040516102ab9190610896565b60405180910390a3505050565b6102c0610556565b6102ca6000610583565b565b600089511180156102de575060048951105b15610311578a6102ed8a6108db565b60405163805043f960e01b8152600401610308929190610912565b60405180910390fd5b600061031c8a6108db565b9050600189600181111561033257610332610880565b03610393577f00000000000000000000000000000000000000000000000000000000000000006001600160a01b03168c6001600160a01b031603610376575061050b565b8b8160405163805043f960e01b8152600401610308929190610912565b336001600160a01b038d16148015610419576001600160e01b0319821660009081527fa6eef7e35abe7026729641147f7915573c7e97b47efa546f5f6e3230263bcb49602052604081205460ff1660028111156103f2576103f2610880565b03610414578c8260405163805043f960e01b8152600401610308929190610912565b610508565b8a516000036104a45760008080527fa6eef7e35abe7026729641147f7915573c7e97b47efa546f5f6e3230263bcb496020527fe5d06582d467054dda5404b9e1ec93f72b608a4970ba970773776c69ca5664f75460ff16600281111561048157610481610880565b036104145760405163805043f960e01b8152610308906000908190600401610912565b6001600160a01b038d1660009081526001602090815260408083206001600160e01b03198616845290915281205460ff1660028111156104e6576104e6610880565b03610508578c8260405163805043f960e01b8152600401610308929190610912565b50505b5050505050505050505050565b610520610556565b6001600160a01b03811661054a57604051631e4fbdf760e01b815260006004820152602401610308565b61055381610583565b50565b6000546001600160a01b031633146102ca5760405163118cdaa760e01b8152336004820152602401610308565b600080546001600160a01b038381166001600160a01b0319831681178455604051919092169283917f8be0079c531659141344cd1fd0a4f28419497f9722a3daafe3b4186f6b6457e09190a35050565b80356001600160e01b0319811681146105eb57600080fd5b919050565b60006020828403121561060257600080fd5b61060b826105d3565b9392505050565b6001600160a01b038116811461055357600080fd5b80356105eb81610612565b60008060006060848603121561064757600080fd5b833561065281610612565b9250610660602085016105d3565b915060408401356003811061067457600080fd5b809150509250925092565b634e487b7160e01b600052604160045260246000fd5b600082601f8301126106a657600080fd5b813567ffffffffffffffff808211156106c1576106c161067f565b604051601f8301601f19908116603f011681019082821181831017156106e9576106e961067f565b8160405283815286602085880101111561070257600080fd5b836020870160208301376000602085830101528094505050505092915050565b8035600281106105eb57600080fd5b60008060008060008060008060008060006101608c8e03121561075357600080fd5b61075c8c610627565b9a5060208c0135995067ffffffffffffffff8060408e0135111561077f57600080fd5b61078f8e60408f01358f01610695565b995061079d60608e01610722565b985060808d0135975060a08d0135965060c08d013595506107c060e08e01610627565b94506107cf6101008e01610627565b9350806101208e013511156107e357600080fd5b506107f58d6101208e01358e01610695565b91506108046101408d01610627565b90509295989b509295989b9093969950565b6000806040838503121561082957600080fd5b823591506020830135801515811461084057600080fd5b809150509250929050565b6000806040838503121561085e57600080fd5b823561086981610612565b9150610877602084016105d3565b90509250929050565b634e487b7160e01b600052602160045260246000fd5b60208101600383106108b857634e487b7160e01b600052602160045260246000fd5b91905290565b6000602082840312156108d057600080fd5b813561060b81610612565b805160208201516001600160e01b0319808216929190600483101561090a5780818460040360031b1b83161693505b505050919050565b6001600160a01b039290921682526001600160e01b03191660208201526040019056fea2646970667358221220ff0c1b1e803d3039228b955b0add6ef1534cd8de03e54bcaf10762912eb0d76964736f6c63430008180033000000000000000000000000a65387f16b013cf2af4605ad8aa5ec25a2cba3a2",
        "nonce": "0x54",
        "chainId": "0x1"
      },
      "additionalContracts": [],
      "isFixedGasLimit": false
    },
    {
      "hash": "0xbbe8609c1b43b5d2844f3d4d06323a46dd1a7bb8665a1554cad3f13d1d639725",
      "transactionType": "CREATE",
      "contractName": "ValidationBeacon",
      "contractAddress": "0xdef5c382c13e546b839dfd7232cb6d32ba973904",
      "function": null,
      "arguments": null,
      "transaction": {
        "from": "0x25e426b153e74ab36b2685c3a464272de60888ae",
        "gas": "0x33fb5",
        "value": "0x0",
        "input": "0x608060405234801561001057600080fd5b50610200806100206000396000f3fe608060405234801561001057600080fd5b506004361061002b5760003560e01c80635859b26114610030575b600080fd5b61004361003e366004610119565b610057565b604051901515815260200160405180910390f35b604051635ae6bd3760e01b8152600481018590526000906001600160a01b03831690635ae6bd3790602401602060405180830381865afa15801561009f573d6000803e3d6000fd5b505050506040513d601f19601f820116820180604052508101906100c391906101b1565b1515979650505050505050565b60008083601f8401126100e257600080fd5b50813567ffffffffffffffff8111156100fa57600080fd5b60208301915083602082850101111561011257600080fd5b9250929050565b6000806000806000806080878903121561013257600080fd5b863567ffffffffffffffff8082111561014a57600080fd5b6101568a838b016100d0565b909850965060208901359550604089013591508082111561017657600080fd5b5061018389828a016100d0565b90945092505060608701356001600160a01b03811681146101a357600080fd5b809150509295509295509295565b6000602082840312156101c357600080fd5b505191905056fea264697066735822122009afba1150a246b90772dea0e38983b2c0c48ecaa382e179ed2c4ff0c958900164736f6c63430008180033",
        "nonce": "0x55",
        "chainId": "0x1"
      },
      "additionalContracts": [],
      "isFixedGasLimit": false
    },
    {
      "hash": "0x03bb6eb2c554e612ce578b1154de51b63c1ee5f06e6a1b4103515ff243b7f4d9",
      "transactionType": "CREATE",
      "contractName": "CompatibilityFallbackHandler",
      "contractAddress": "0x9fa5f5716a01f3754bfabefd507ab77782ac9f08",
      "function": null,
      "arguments": [
        "0x9D89745fD63Af482ce93a9AdB8B0BbDbb98D3e06",
        "0xDeF5c382C13E546b839dfd7232cB6D32bA973904"
      ],
      "transaction": {
        "from": "0x25e426b153e74ab36b2685c3a464272de60888ae",
        "gas": "0x123673",
        "value": "0x0",
        "input": "0x608060405234801561001057600080fd5b50604051610f8a380380610f8a83398101604081905261002f91610078565b600080546001600160a01b039384166001600160a01b031991821617909155600180549290931691161790556100b2565b6001600160a01b038116811461007557600080fd5b50565b6000806040838503121561008b57600080fd5b825161009681610060565b60208401519092506100a781610060565b809150509250929050565b610ec9806100c16000396000f3fe608060405234801561001057600080fd5b50600436106100f45760003560e01c80632303164011610097578063b2494df311610066578063b2494df31461023e578063bc197c8114610253578063bd61951d14610275578063f23a6e611461028857600080fd5b806323031640146101cd57806354dd349c146101ed5780636ac24784146102185780638da5cb5b1461022b57600080fd5b806311e1e042116100d357806311e1e0421461015c578063150b7a021461016f5780631626ba7e146101a757806320c13b0b146101ba57600080fd5b806223de29146100f957806301ffc9a7146101135780630a1028c41461013b575b600080fd5b6101116101073660046107b8565b5050505050505050565b005b610126610121366004610868565b6102a8565b60405190151581526020015b60405180910390f35b61014e610149366004610947565b6102fa565b604051908152602001610132565b61011161016a366004610983565b610306565b61018e61017d3660046109a0565b630a85bd0160e11b95945050505050565b6040516001600160e01b03199091168152602001610132565b61018e6101b5366004610a12565b610374565b61018e6101c8366004610a58565b61047c565b6101e06101db366004610ab1565b61055f565b6040516101329190610b30565b600154610200906001600160a01b031681565b6040516001600160a01b039091168152602001610132565b61014e610226366004610ab1565b610671565b600054610200906001600160a01b031681565b61024661068c565b6040516101329190610b43565b61018e610261366004610bd4565b63bc197c8160e01b98975050505050505050565b6101e0610283366004610c71565b610707565b61018e610296366004610cc5565b63f23a6e6160e01b9695505050505050565b60006001600160e01b03198216630271189760e51b14806102d957506001600160e01b03198216630a85bd0160e11b145b806102f457506001600160e01b031982166301ffc9a760e01b145b92915050565b60006102f43383610671565b6000546001600160a01b031633146103525760405162461bcd60e51b815260206004820152600a60248201526937b7363c9037bbb732b960b11b60448201526064015b60405180910390fd5b600180546001600160a01b0319166001600160a01b0392909216919091179055565b60008033905060006103a7828660405160200161039391815260200190565b60405160208183030381529060405261055f565b80516020820120600154604051635859b26160e01b815292935090916001600160a01b0390911690635859b261906103e990859085908a908990600401610d40565b602060405180830381865afa158015610406573d6000803e3d6000fd5b505050506040513d601f19601f8201168201806040525081019061042a9190610d85565b61046a5760405162461bcd60e51b8152602060048201526011602482015270496e76616c6964207369676e617475726560781b6044820152606401610349565b50630b135d3f60e11b95945050505050565b6000338161048a828661055f565b80516020820120600154604051635859b26160e01b815292935090916001600160a01b0390911690635859b261906104cc90859085908a908990600401610d40565b602060405180830381865afa1580156104e9573d6000803e3d6000fd5b505050506040513d601f19601f8201168201806040525081019061050d9190610d85565b61054d5760405162461bcd60e51b8152602060048201526011602482015270496e76616c6964207369676e617475726560781b6044820152606401610349565b506320c13b0b60e01b95945050505050565b606060007f60b3cbf8b4a223d68d641b3b6ddf9a298e7f33710cf3d3a9d1146b5a6150fbca60001b83805190602001206040516020016105a9929190918252602082015260400190565b604051602081830303815290604052805190602001209050601960f81b600160f81b856001600160a01b031663f698da256040518163ffffffff1660e01b8152600401602060405180830381865afa158015610609573d6000803e3d6000fd5b505050506040513d601f19601f8201168201806040525081019061062d9190610da7565b6040516001600160f81b0319938416602082015292909116602183015260228201526042810182905260620160405160208183030381529060405291505092915050565b600061067d838361055f565b80519060200120905092915050565b604051636617c22960e11b815260016004820152600a60248201526060903390600090829063cc2f845290604401600060405180830381865afa1580156106d7573d6000803e3d6000fd5b505050506040513d6000823e601f3d908101601f191682016040526106ff9190810190610dd0565b509392505050565b606060405163b4faba0960e01b8152600436036004808301376020600036836000335af1505060203d036040519150808201604052806020833e5060005161075157805160208201fd5b9392505050565b6001600160a01b038116811461076d57600080fd5b50565b60008083601f84011261078257600080fd5b5081356001600160401b0381111561079957600080fd5b6020830191508360208285010111156107b157600080fd5b9250929050565b60008060008060008060008060c0898b0312156107d457600080fd5b88356107df81610758565b975060208901356107ef81610758565b965060408901356107ff81610758565b95506060890135945060808901356001600160401b038082111561082257600080fd5b61082e8c838d01610770565b909650945060a08b013591508082111561084757600080fd5b506108548b828c01610770565b999c989b5096995094979396929594505050565b60006020828403121561087a57600080fd5b81356001600160e01b03198116811461075157600080fd5b634e487b7160e01b600052604160045260246000fd5b604051601f8201601f191681016001600160401b03811182821017156108d0576108d0610892565b604052919050565b600082601f8301126108e957600080fd5b81356001600160401b0381111561090257610902610892565b610915601f8201601f19166020016108a8565b81815284602083860101111561092a57600080fd5b816020850160208301376000918101602001919091529392505050565b60006020828403121561095957600080fd5b81356001600160401b0381111561096f57600080fd5b61097b848285016108d8565b949350505050565b60006020828403121561099557600080fd5b813561075181610758565b6000806000806000608086880312156109b857600080fd5b85356109c381610758565b945060208601356109d381610758565b93506040860135925060608601356001600160401b038111156109f557600080fd5b610a0188828901610770565b969995985093965092949392505050565b60008060408385031215610a2557600080fd5b8235915060208301356001600160401b03811115610a4257600080fd5b610a4e858286016108d8565b9150509250929050565b60008060408385031215610a6b57600080fd5b82356001600160401b0380821115610a8257600080fd5b610a8e868387016108d8565b93506020850135915080821115610aa457600080fd5b50610a4e858286016108d8565b60008060408385031215610ac457600080fd5b8235610acf81610758565b915060208301356001600160401b03811115610a4257600080fd5b6000815180845260005b81811015610b1057602081850181015186830182015201610af4565b506000602082860101526020601f19601f83011685010191505092915050565b6020815260006107516020830184610aea565b6020808252825182820181905260009190848201906040850190845b81811015610b845783516001600160a01b031683529284019291840191600101610b5f565b50909695505050505050565b60008083601f840112610ba257600080fd5b5081356001600160401b03811115610bb957600080fd5b6020830191508360208260051b85010111156107b157600080fd5b60008060008060008060008060a0898b031215610bf057600080fd5b8835610bfb81610758565b97506020890135610c0b81610758565b965060408901356001600160401b0380821115610c2757600080fd5b610c338c838d01610b90565b909850965060608b0135915080821115610c4c57600080fd5b610c588c838d01610b90565b909650945060808b013591508082111561084757600080fd5b600080600060408486031215610c8657600080fd5b8335610c9181610758565b925060208401356001600160401b03811115610cac57600080fd5b610cb886828701610770565b9497909650939450505050565b60008060008060008060a08789031215610cde57600080fd5b8635610ce981610758565b95506020870135610cf981610758565b9450604087013593506060870135925060808701356001600160401b03811115610d2257600080fd5b610d2e89828a01610770565b979a9699509497509295939492505050565b608081526000610d536080830187610aea565b8560208401528281036040840152610d6b8186610aea565b91505060018060a01b038316606083015295945050505050565b600060208284031215610d9757600080fd5b8151801515811461075157600080fd5b600060208284031215610db957600080fd5b5051919050565b8051610dcb81610758565b919050565b60008060408385031215610de357600080fd5b82516001600160401b0380821115610dfa57600080fd5b818501915085601f830112610e0e57600080fd5b8151602082821115610e2257610e22610892565b8160051b9250610e338184016108a8565b8281529284018101928181019089851115610e4d57600080fd5b948201945b84861015610e775785519350610e6784610758565b8382529482019490820190610e52565b9650610e869050878201610dc0565b945050505050925092905056fea264697066735822122073c6c30b9321ec96842c221912150d235b6912fda181400aba4e949230cae7fa64736f6c634300081800330000000000000000000000009d89745fd63af482ce93a9adb8b0bbdbb98d3e06000000000000000000000000def5c382c13e546b839dfd7232cb6d32ba973904",
        "nonce": "0x56",
        "chainId": "0x1"
      },
      "additionalContracts": [],
      "isFixedGasLimit": false
    },
    {
      "hash": "0x55b70b0a5778814ea54ce31113d097a5bea459e762af6dee4b94eeaf10c52aeb",
      "transactionType": "CREATE",
      "contractName": "InitializationScript",
      "contractAddress": "0x60570fc1e2c4637dd91dc0f08a205bb42e153fdf",
      "function": null,
      "arguments": null,
      "transaction": {
        "from": "0x25e426b153e74ab36b2685c3a464272de60888ae",
        "gas": "0x78bb6",
        "value": "0x0",
        "input": "0x608060405234801561001057600080fd5b506105ec806100206000396000f3fe608060405234801561001057600080fd5b506004361061002b5760003560e01c806336b08f5e14610030575b600080fd5b61004361003e3660046102da565b610045565b005b60405163610b592560e01b81526001600160a01b03841660048201523090819063610b592590602401600060405180830381600087803b15801561008857600080fd5b505af115801561009c573d6000803e3d6000fd5b505060405163e19a9dd960e01b81526001600160a01b0386811660048301528416925063e19a9dd99150602401600060405180830381600087803b1580156100e357600080fd5b505af11580156100f7573d6000803e3d6000fd5b5050505060005b825181101561024757600083828151811061011b5761011b610469565b6020026020010151600001519050600084838151811061013d5761013d610469565b6020026020010151602001519050856001600160a01b03166375f0bb52836000846000806000806000806040518060200160405280600081525060006040518c63ffffffff1660e01b815260040161019f9b9a999897969594939291906104c5565b60006040518083038186803b1580156101b757600080fd5b505afa1580156101cb573d6000803e3d6000fd5b5050505060008060008351602085016000876101f45a03f190508061020357604051630337323560e31b815260040160405180910390fd5b7f8fb51a6947faa42596fa0bdb9d6791b2f726b69e4f6204d5d1c542613fcbf313838360405161023492919061058a565b60405180910390a15050506001016100fe565b5050505050565b80356001600160a01b038116811461026557600080fd5b919050565b634e487b7160e01b600052604160045260246000fd5b6040805190810167ffffffffffffffff811182821017156102a3576102a361026a565b60405290565b604051601f8201601f1916810167ffffffffffffffff811182821017156102d2576102d261026a565b604052919050565b6000806000606084860312156102ef57600080fd5b6102f88461024e565b92506103066020850161024e565b915067ffffffffffffffff806040860135111561032257600080fd5b6040850135850186601f82011261033857600080fd5b81813511156103495761034961026a565b6103596020823560051b016102a9565b81358082526020808301929160051b8401018981111561037857600080fd5b602084015b8181101561045957858135111561039357600080fd5b80358501601f196040828e03820112156103ac57600080fd5b6103b4610280565b6103c06020840161024e565b815288604084013511156103d357600080fd5b6040830135830192508d603f8401126103eb57600080fd5b6020830135898111156104005761040061026a565b610411602084601f840116016102a9565b92508083528e604082860101111561042857600080fd5b806040850160208501376000602082850101525081602082015280875250505060208401935060208101905061037d565b5050809450505050509250925092565b634e487b7160e01b600052603260045260246000fd5b6000815180845260005b818110156104a557602081850181015186830182015201610489565b506000602082860101526020601f19601f83011685010191505092915050565b6001600160a01b038c168152602081018b9052610160604082018190526000906104f18382018d61047f565b905060028b1061051157634e487b7160e01b600052602160045260246000fd5b8a60608401528960808401528860a08401528760c084015261053e60e08401886001600160a01b03169052565b6001600160a01b038616610100840152828103610120840152610561818661047f565b91505061057a6101408301846001600160a01b03169052565b9c9b505050505050505050505050565b6001600160a01b03831681526040602082018190526000906105ae9083018461047f565b94935050505056fea264697066735822122026b2f229be8f8919978762cb2395ee2d69325ee31baf5dedb75fb1cb4719aaa464736f6c63430008180033",
        "nonce": "0x57",
        "chainId": "0x1"
      },
      "additionalContracts": [],
      "isFixedGasLimit": false
    },
    {
      "hash": "0xbffea5678df7739ab78f4d3a6886539ddd1833e264376b0413a62afd2f49f39a",
      "transactionType": "CREATE",
      "contractName": "RumpelWalletFactory",
      "contractAddress": "0x5774abcf415f34592514698eb075051e97db2937",
      "function": null,
      "arguments": [
        "0xa6B71E26C5e0845f74c812102Ca7114b6a896AB2",
        "0x9fA5f5716a01F3754BfABefd507AB77782Ac9F08",
        "0xd9Db270c1B5E3Bd161E8c8503c55cEABeE709552",
        "0x28c3498B4956f4aD8d4549ACA8F66260975D361a",
        "0x9000FeF2846A5253fD2C6ed5241De0fddb404302",
        "0x60570FC1e2C4637DD91dC0f08a205BB42e153FdF"
      ],
      "transaction": {
        "from": "0x25e426b153e74ab36b2685c3a464272de60888ae",
        "gas": "0x1588bc",
        "value": "0x0",
        "input": "0x60806040523480156200001157600080fd5b506040516200119c3803806200119c833981016040819052620000349162000150565b33806200005b57604051631e4fbdf760e01b81526000600482015260240160405180910390fd5b6200006681620000e7565b506000805460ff60a01b19169055600280546001600160a01b03199081166001600160a01b0398891617909155600380548216968816969096179095556004805486169487169490941790935560058054851692861692909217909155600680548416918516919091179055600780549092169216919091179055620001e4565b600080546001600160a01b038381166001600160a01b0319831681178455604051919092169283917f8be0079c531659141344cd1fd0a4f28419497f9722a3daafe3b4186f6b6457e09190a35050565b6001600160a01b03811681146200014d57600080fd5b50565b60008060008060008060c087890312156200016a57600080fd5b8651620001778162000137565b60208801519096506200018a8162000137565b60408801519095506200019d8162000137565b6060880151909450620001b08162000137565b6080880151909350620001c38162000137565b60a0880151909250620001d68162000137565b809150509295509295509295565b610fa880620001f46000396000f3fe608060405234801561001057600080fd5b50600436106101005760003560e01c8063ac7d146b11610097578063cd4cd4aa11610066578063cd4cd4aa1461020a578063d519c7bf1461021d578063edd1b0be14610230578063f2fde38b1461024357600080fd5b8063ac7d146b146101c9578063bb2a197e146101dc578063bd5646b4146101ef578063c10f1a75146101f757600080fd5b8063715018a6116100d3578063715018a6146101785780638da5cb5b1461018257806396bc38fc146101935780639e214fcb1461019b57600080fd5b8063291322131461010557806337b85087146101355780635c975abb146101485780636709b19e14610165575b600080fd5b600554610118906001600160a01b031681565b6040516001600160a01b0390911681526020015b60405180910390f35b600354610118906001600160a01b031681565b600054600160a01b900460ff16604051901515815260200161012c565b600754610118906001600160a01b031681565b610180610256565b005b6000546001600160a01b0316610118565b61018061026a565b6101bb6101a93660046109e9565b60016020526000908152604090205481565b60405190815260200161012c565b600454610118906001600160a01b031681565b6101186101ea366004610a7c565b61027a565b6101806103fa565b600254610118906001600160a01b031681565b610118610218366004610b65565b61040a565b600654610118906001600160a01b031681565b61018061023e366004610bdf565b610663565b6101806102513660046109e9565b61082c565b61025e61086a565b6102686000610897565b565b61027261086a565b6102686108e7565b600080848051906020012084846040516020016102b092919060609290921b6001600160601b0319168252601482015260340190565b60408051808303601f190181528282528051602091820120908301939093528101919091526060016040516020818303038152906040528051906020012090506000600260009054906101000a90046001600160a01b03166001600160a01b03166353e5d9356040518163ffffffff1660e01b8152600401600060405180830381865afa158015610345573d6000803e3d6000fd5b505050506040513d6000823e601f3d908101601f1916820160405261036d9190810190610c33565b60045460405161038a92916001600160a01b031690602001610caa565b60408051601f1981840301815282825260025481516020928301206001600160f81b03198386015260609190911b6001600160601b031916602185015260358401959095526055808401959095528151808403909501855260759092019052825192019190912095945050505050565b61040261086a565b61026861093c565b600061041461097f565b3360008181526001602052604081208054919291908361043383610ccc565b9091555060405160609290921b6001600160601b031916602083015260348201526054016040516020818303038152906040528051906020012060001c90506000600260009054906101000a90046001600160a01b03166001600160a01b0316631688f0b9600460009054906101000a90046001600160a01b031663b63e800d60e01b8b8b8b600760009054906101000a90046001600160a01b03166336b08f5e60e01b600560009054906101000a90046001600160a01b0316600660009054906101000a90046001600160a01b03168f8f6040516024016105189493929190610cf3565b60408051601f198184030181529181526020820180516001600160e01b03166001600160e01b031990941693909317909252600354915161057096959493926001600160a01b03169060009081908190602401610e1d565b60408051601f198184030181529181526020820180516001600160e01b03166001600160e01b03199485161790525160e085901b90921682526105b892918790600401610edf565b6020604051808303816000875af11580156105d7573d6000803e3d6000fd5b505050506040513d601f19601f820116820180604052508101906105fb9190610f13565b9050878760405161060d929190610f30565b6040518091039020816001600160a01b03167f41207aff95bbc089c92aec25d9e700518a46c1cc36c8d058c40e44018188a3fe8860405161065091815260200190565b60405180910390a3979650505050505050565b61066b61086a565b816c50524f58595f464143544f525960981b036106a257600280546001600160a01b0319166001600160a01b0383161790556107e7565b816d29a0a322afa9a4a723a622aa27a760911b036106da57600480546001600160a01b0319166001600160a01b0383161790556107e7565b816c52554d50454c5f4d4f44554c4560981b0361071157600580546001600160a01b0319166001600160a01b0383161790556107e7565b816b14955354115317d1d550549160a21b0361074757600680546001600160a01b0319166001600160a01b0383161790556107e7565b817412539255125053125690551253d397d4d0d4925415605a1b0361078657600780546001600160a01b0319166001600160a01b0383161790556107e7565b8175434f4d5041544942494c4954595f46414c4c4241434b60501b036107c657600380546001600160a01b0319166001600160a01b0383161790556107e7565b6040516335802fa360e01b8152600481018390526024015b60405180910390fd5b604080518381526001600160a01b03831660208201527fa732c61ad32bf32bfbf84fe12f5118319c3e0ec6afbacae92623da0b037f112b910160405180910390a15050565b61083461086a565b6001600160a01b03811661085e57604051631e4fbdf760e01b8152600060048201526024016107de565b61086781610897565b50565b6000546001600160a01b031633146102685760405163118cdaa760e01b81523360048201526024016107de565b600080546001600160a01b038381166001600160a01b0319831681178455604051919092169283917f8be0079c531659141344cd1fd0a4f28419497f9722a3daafe3b4186f6b6457e09190a35050565b6108ef6109aa565b6000805460ff60a01b191690557f5db9ee0a495bf2e6ff9c91a7834c1ba4fdd244a5e8aa4e537bd38aeae4b073aa335b6040516001600160a01b03909116815260200160405180910390a1565b61094461097f565b6000805460ff60a01b1916600160a01b1790557f62e78cea01bee320cd4e420270b5ea74000d11b0c9f74754ebdbfc544b05a25861091f3390565b600054600160a01b900460ff16156102685760405163d93c066560e01b815260040160405180910390fd5b600054600160a01b900460ff1661026857604051638dfc202b60e01b815260040160405180910390fd5b6001600160a01b038116811461086757600080fd5b6000602082840312156109fb57600080fd5b8135610a06816109d4565b9392505050565b634e487b7160e01b600052604160045260246000fd5b604051601f8201601f1916810167ffffffffffffffff81118282101715610a4c57610a4c610a0d565b604052919050565b600067ffffffffffffffff821115610a6e57610a6e610a0d565b50601f01601f191660200190565b600080600060608486031215610a9157600080fd5b833567ffffffffffffffff811115610aa857600080fd5b8401601f81018613610ab957600080fd5b8035610acc610ac782610a54565b610a23565b818152876020838501011115610ae157600080fd5b816020840160208301376000602083830101528095505050506020840135610b08816109d4565b929592945050506040919091013590565b60008083601f840112610b2b57600080fd5b50813567ffffffffffffffff811115610b4357600080fd5b6020830191508360208260051b8501011115610b5e57600080fd5b9250929050565b600080600080600060608688031215610b7d57600080fd5b853567ffffffffffffffff80821115610b9557600080fd5b610ba189838a01610b19565b9097509550602088013594506040880135915080821115610bc157600080fd5b50610bce88828901610b19565b969995985093965092949392505050565b60008060408385031215610bf257600080fd5b823591506020830135610c04816109d4565b809150509250929050565b60005b83811015610c2a578181015183820152602001610c12565b50506000910152565b600060208284031215610c4557600080fd5b815167ffffffffffffffff811115610c5c57600080fd5b8201601f81018413610c6d57600080fd5b8051610c7b610ac782610a54565b818152856020838501011115610c9057600080fd5b610ca1826020830160208601610c0f565b95945050505050565b60008351610cbc818460208801610c0f565b9190910191825250602001919050565b600060018201610cec57634e487b7160e01b600052601160045260246000fd5b5060010190565b6000606080830160018060a01b0380891685526020818916818701526040606060408801528388855260808801905060808960051b89010194508960005b8a811015610ddf57898703607f190183528135368d9003603e19018112610d5757600080fd5b8c018035610d64816109d4565b871688528086013536829003601e19018112610d7f57600080fd5b01858101903567ffffffffffffffff811115610d9a57600080fd5b803603821315610da957600080fd5b85878a015280868a015280828b8b013760008982018b0152601f01601f1916909701880196509184019190840190600101610d31565b50949c9b505050505050505050505050565b60008151808452610e09816020860160208601610c0f565b601f01601f19169290920160200192915050565b6101008082528101899052600061012082018b825b8c811015610e63578135610e45816109d4565b6001600160a01b031683526020928301929190910190600101610e32565b5050896020840152610e80604084018a6001600160a01b03169052565b8281036060840152610e928189610df1565b915050610eaa60808301876001600160a01b03169052565b6001600160a01b03851660a083015260ff841660c08301526001600160a01b03831660e08301529a9950505050505050505050565b6001600160a01b0384168152606060208201819052600090610f0390830185610df1565b9050826040830152949350505050565b600060208284031215610f2557600080fd5b8151610a06816109d4565b60008184825b85811015610f67578135610f49816109d4565b6001600160a01b031683526020928301929190910190600101610f36565b50909594505050505056fea26469706673582212207c143b8928f6086b376fbac71b9deaa488083056ca392530e8ebc17ad5332e8564736f6c63430008180033000000000000000000000000a6b71e26c5e0845f74c812102ca7114b6a896ab20000000000000000000000009fa5f5716a01f3754bfabefd507ab77782ac9f08000000000000000000000000d9db270c1b5e3bd161e8c8503c55ceabee70955200000000000000000000000028c3498b4956f4ad8d4549aca8f66260975d361a0000000000000000000000009000fef2846a5253fd2c6ed5241de0fddb40430200000000000000000000000060570fc1e2c4637dd91dc0f08a205bb42e153fdf",
        "nonce": "0x58",
        "chainId": "0x1"
      },
      "additionalContracts": [],
      "isFixedGasLimit": false
    },
    {
      "hash": "0x6c39e579839eaebcedd4faa20985e204ffcef8ddf19f42cbdbdb83cb73480797",
      "transactionType": "CALL",
      "contractName": "RumpelModule",
      "contractAddress": "0x28c3498b4956f4ad8d4549aca8f66260975d361a",
      "function": "addBlockedModuleCall(address,bytes4)",
      "arguments": [
        "0x0000000000000000000000000000000000000000",
        "0x610b5925"
      ],
      "transaction": {
        "from": "0x25e426b153e74ab36b2685c3a464272de60888ae",
        "to": "0x28c3498b4956f4ad8d4549aca8f66260975d361a",
        "gas": "0x101b5",
        "value": "0x0",
        "input": "0x60d0825a0000000000000000000000000000000000000000000000000000000000000000610b592500000000000000000000000000000000000000000000000000000000",
        "nonce": "0x59",
        "chainId": "0x1"
      },
      "additionalContracts": [],
      "isFixedGasLimit": false
    },
    {
      "hash": "0x72ffcf5e68471560c2bf4255a60def6d9cf89e3a4567b9e044809a7d903a0f0f",
      "transactionType": "CALL",
      "contractName": "RumpelModule",
      "contractAddress": "0x28c3498b4956f4ad8d4549aca8f66260975d361a",
      "function": "addBlockedModuleCall(address,bytes4)",
      "arguments": [
        "0x0000000000000000000000000000000000000000",
        "0xe009cfde"
      ],
      "transaction": {
        "from": "0x25e426b153e74ab36b2685c3a464272de60888ae",
        "to": "0x28c3498b4956f4ad8d4549aca8f66260975d361a",
        "gas": "0x101b5",
        "value": "0x0",
        "input": "0x60d0825a0000000000000000000000000000000000000000000000000000000000000000e009cfde00000000000000000000000000000000000000000000000000000000",
        "nonce": "0x5a",
        "chainId": "0x1"
      },
      "additionalContracts": [],
      "isFixedGasLimit": false
    },
    {
      "hash": "0x6365d08ee79b59a66f5f39234a4369a1a68ccb1b396d21bdb969ccc0b9b90754",
      "transactionType": "CALL",
      "contractName": "RumpelGuard",
      "contractAddress": "0x9000fef2846a5253fd2c6ed5241de0fddb404302",
      "function": "setCallAllowed(address,bytes4,uint8)",
      "arguments": [
        "0xe47F9Dbbfe98d6930562017ee212C1A1Ae45ba61",
        "0x17b4560a",
        "1"
      ],
      "transaction": {
        "from": "0x25e426b153e74ab36b2685c3a464272de60888ae",
        "to": "0x9000fef2846a5253fd2c6ed5241de0fddb404302",
        "gas": "0x10853",
        "value": "0x0",
        "input": "0x5534fa0c000000000000000000000000e47f9dbbfe98d6930562017ee212c1a1ae45ba6117b4560a000000000000000000000000000000000000000000000000000000000000000000000000000000000000000000000000000000000000000000000001",
        "nonce": "0x5b",
        "chainId": "0x1"
      },
      "additionalContracts": [],
      "isFixedGasLimit": false
    },
    {
      "hash": "0x189675916f4c9ab5b69219f888618b636324b031f4f60976730352e4b803a830",
      "transactionType": "CALL",
      "contractName": "RumpelGuard",
      "contractAddress": "0x9000fef2846a5253fd2c6ed5241de0fddb404302",
      "function": "setCallAllowed(address,bytes4,uint8)",
      "arguments": [
        "0x4095F064B8d3c3548A3bebfd0Bbfd04750E30077",
        "0xac9650d8",
        "1"
      ],
      "transaction": {
        "from": "0x25e426b153e74ab36b2685c3a464272de60888ae",
        "to": "0x9000fef2846a5253fd2c6ed5241de0fddb404302",
        "gas": "0x117cf",
        "value": "0x0",
        "input": "0x5534fa0c0000000000000000000000004095f064b8d3c3548a3bebfd0bbfd04750e30077ac9650d8000000000000000000000000000000000000000000000000000000000000000000000000000000000000000000000000000000000000000000000001",
        "nonce": "0x5c",
        "chainId": "0x1"
      },
      "additionalContracts": [],
      "isFixedGasLimit": false
    },
    {
      "hash": "0x0bb34604890c9c7fcf4be18a22ff300d5d572d7ad6c04d13f4c5cc4684d83aed",
      "transactionType": "CALL",
      "contractName": "RumpelGuard",
      "contractAddress": "0x9000fef2846a5253fd2c6ed5241de0fddb404302",
      "function": "setCallAllowed(address,bytes4,uint8)",
      "arguments": [
        "0xF047ab4c75cebf0eB9ed34Ae2c186f3611aEAfa6",
        "0xb3db428b",
        "1"
      ],
      "transaction": {
        "from": "0x25e426b153e74ab36b2685c3a464272de60888ae",
        "to": "0x9000fef2846a5253fd2c6ed5241de0fddb404302",
        "gas": "0x10853",
        "value": "0x0",
        "input": "0x5534fa0c000000000000000000000000f047ab4c75cebf0eb9ed34ae2c186f3611aeafa6b3db428b000000000000000000000000000000000000000000000000000000000000000000000000000000000000000000000000000000000000000000000001",
        "nonce": "0x5d",
        "chainId": "0x1"
      },
      "additionalContracts": [],
      "isFixedGasLimit": false
    },
    {
      "hash": "0x29c1f8bd4cd98f1d8f6be32bb038bb105995520f0b9cb7630e80e122ae539ec0",
      "transactionType": "CALL",
      "contractName": "RumpelGuard",
      "contractAddress": "0x9000fef2846a5253fd2c6ed5241de0fddb404302",
      "function": "setCallAllowed(address,bytes4,uint8)",
      "arguments": [
        "0xF047ab4c75cebf0eB9ed34Ae2c186f3611aEAfa6",
        "0xf3fef3a3",
        "1"
      ],
      "transaction": {
        "from": "0x25e426b153e74ab36b2685c3a464272de60888ae",
        "to": "0x9000fef2846a5253fd2c6ed5241de0fddb404302",
        "gas": "0x10853",
        "value": "0x0",
        "input": "0x5534fa0c000000000000000000000000f047ab4c75cebf0eb9ed34ae2c186f3611aeafa6f3fef3a3000000000000000000000000000000000000000000000000000000000000000000000000000000000000000000000000000000000000000000000001",
        "nonce": "0x5e",
        "chainId": "0x1"
      },
      "additionalContracts": [],
      "isFixedGasLimit": false
    },
    {
      "hash": "0xaa99b84ed5ab66d0bcb373c88af3c1453b007bc460d1b595706e30f2c0e8d4fc",
      "transactionType": "CALL",
      "contractName": "RumpelGuard",
      "contractAddress": "0x9000fef2846a5253fd2c6ed5241de0fddb404302",
      "function": "setCallAllowed(address,bytes4,uint8)",
      "arguments": [
        "0xC329400492c6ff2438472D4651Ad17389fCb843a",
        "0x47e7ef24",
        "1"
      ],
      "transaction": {
        "from": "0x25e426b153e74ab36b2685c3a464272de60888ae",
        "to": "0x9000fef2846a5253fd2c6ed5241de0fddb404302",
        "gas": "0x10853",
        "value": "0x0",
        "input": "0x5534fa0c000000000000000000000000c329400492c6ff2438472d4651ad17389fcb843a47e7ef24000000000000000000000000000000000000000000000000000000000000000000000000000000000000000000000000000000000000000000000001",
        "nonce": "0x5f",
        "chainId": "0x1"
      },
      "additionalContracts": [],
      "isFixedGasLimit": false
    },
    {
      "hash": "0x42d15afd5211581cfb83eade1d7e4f67509d485aa9652f07f6dbcff9085b5d25",
      "transactionType": "CALL",
      "contractName": "RumpelGuard",
      "contractAddress": "0x9000fef2846a5253fd2c6ed5241de0fddb404302",
      "function": "setCallAllowed(address,bytes4,uint8)",
      "arguments": [
        "0xC329400492c6ff2438472D4651Ad17389fCb843a",
        "0xf3fef3a3",
        "1"
      ],
      "transaction": {
        "from": "0x25e426b153e74ab36b2685c3a464272de60888ae",
        "to": "0x9000fef2846a5253fd2c6ed5241de0fddb404302",
        "gas": "0x10853",
        "value": "0x0",
        "input": "0x5534fa0c000000000000000000000000c329400492c6ff2438472d4651ad17389fcb843af3fef3a3000000000000000000000000000000000000000000000000000000000000000000000000000000000000000000000000000000000000000000000001",
        "nonce": "0x60",
        "chainId": "0x1"
      },
      "additionalContracts": [],
      "isFixedGasLimit": false
    },
    {
      "hash": "0x0dd692f8d2342027cb252ee0fc5a70deb4c2b76989a1babfb53776155a4725c9",
      "transactionType": "CALL",
      "contractName": "RumpelGuard",
      "contractAddress": "0x9000fef2846a5253fd2c6ed5241de0fddb404302",
      "function": "setCallAllowed(address,bytes4,uint8)",
      "arguments": [
        "0x19d0D8e6294B7a04a2733FE433444704B791939A",
        "0x47e7ef24",
        "1"
      ],
      "transaction": {
        "from": "0x25e426b153e74ab36b2685c3a464272de60888ae",
        "to": "0x9000fef2846a5253fd2c6ed5241de0fddb404302",
        "gas": "0x10853",
        "value": "0x0",
        "input": "0x5534fa0c00000000000000000000000019d0d8e6294b7a04a2733fe433444704b791939a47e7ef24000000000000000000000000000000000000000000000000000000000000000000000000000000000000000000000000000000000000000000000001",
        "nonce": "0x61",
        "chainId": "0x1"
      },
      "additionalContracts": [],
      "isFixedGasLimit": false
    },
    {
      "hash": "0x26f44b8a009036d419c45572ebac03dca8e2676ee36a5e5531b87c3a7174b1d7",
      "transactionType": "CALL",
      "contractName": "RumpelGuard",
      "contractAddress": "0x9000fef2846a5253fd2c6ed5241de0fddb404302",
      "function": "setCallAllowed(address,bytes4,uint8)",
      "arguments": [
        "0x19d0D8e6294B7a04a2733FE433444704B791939A",
        "0xf3fef3a3",
        "1"
      ],
      "transaction": {
        "from": "0x25e426b153e74ab36b2685c3a464272de60888ae",
        "to": "0x9000fef2846a5253fd2c6ed5241de0fddb404302",
        "gas": "0x10853",
        "value": "0x0",
        "input": "0x5534fa0c00000000000000000000000019d0d8e6294b7a04a2733fe433444704b791939af3fef3a3000000000000000000000000000000000000000000000000000000000000000000000000000000000000000000000000000000000000000000000001",
        "nonce": "0x62",
        "chainId": "0x1"
      },
      "additionalContracts": [],
      "isFixedGasLimit": false
    },
    {
      "hash": "0x35007ca7d11294b3cab05880baf68bad16a8f9f67e9c82d85d5c57f15a91b6c1",
      "transactionType": "CALL",
      "contractName": "RumpelGuard",
      "contractAddress": "0x9000fef2846a5253fd2c6ed5241de0fddb404302",
      "function": "setCallAllowed(address,bytes4,uint8)",
      "arguments": [
        "0x54e44DbB92dBA848ACe27F44c0CB4268981eF1CC",
        "0x0efe6a8b",
        "1"
      ],
      "transaction": {
        "from": "0x25e426b153e74ab36b2685c3a464272de60888ae",
        "to": "0x9000fef2846a5253fd2c6ed5241de0fddb404302",
        "gas": "0x10853",
        "value": "0x0",
        "input": "0x5534fa0c00000000000000000000000054e44dbb92dba848ace27f44c0cb4268981ef1cc0efe6a8b000000000000000000000000000000000000000000000000000000000000000000000000000000000000000000000000000000000000000000000001",
        "nonce": "0x63",
        "chainId": "0x1"
      },
      "additionalContracts": [],
      "isFixedGasLimit": false
    },
    {
      "hash": "0x64a16d642218efda5888a41f8b43661cfa7550dfd83edcefe864727d7d60b77e",
      "transactionType": "CALL",
      "contractName": "RumpelGuard",
      "contractAddress": "0x9000fef2846a5253fd2c6ed5241de0fddb404302",
      "function": "setCallAllowed(address,bytes4,uint8)",
      "arguments": [
        "0x54e44DbB92dBA848ACe27F44c0CB4268981eF1CC",
        "0x7fb2a0a1",
        "1"
      ],
      "transaction": {
        "from": "0x25e426b153e74ab36b2685c3a464272de60888ae",
        "to": "0x9000fef2846a5253fd2c6ed5241de0fddb404302",
        "gas": "0x10853",
        "value": "0x0",
        "input": "0x5534fa0c00000000000000000000000054e44dbb92dba848ace27f44c0cb4268981ef1cc7fb2a0a1000000000000000000000000000000000000000000000000000000000000000000000000000000000000000000000000000000000000000000000001",
        "nonce": "0x64",
        "chainId": "0x1"
      },
      "additionalContracts": [],
      "isFixedGasLimit": false
    },
    {
      "hash": "0x902f73b353713289c9ded2dcb54fae2e49c92fd1a641abc2e2c7e57ba2def883",
      "transactionType": "CALL",
      "contractName": "RumpelGuard",
      "contractAddress": "0x9000fef2846a5253fd2c6ed5241de0fddb404302",
      "function": "setCallAllowed(address,bytes4,uint8)",
      "arguments": [
        "0x54e44DbB92dBA848ACe27F44c0CB4268981eF1CC",
        "0x8b198025",
        "1"
      ],
      "transaction": {
        "from": "0x25e426b153e74ab36b2685c3a464272de60888ae",
        "to": "0x9000fef2846a5253fd2c6ed5241de0fddb404302",
        "gas": "0x10853",
        "value": "0x0",
        "input": "0x5534fa0c00000000000000000000000054e44dbb92dba848ace27f44c0cb4268981ef1cc8b198025000000000000000000000000000000000000000000000000000000000000000000000000000000000000000000000000000000000000000000000001",
        "nonce": "0x65",
        "chainId": "0x1"
      },
      "additionalContracts": [],
      "isFixedGasLimit": false
    },
    {
      "hash": "0xabeaa61376c63ad7054e3feb605bcd6da2661097d84bf004e52069ebd9f79c6d",
      "transactionType": "CALL",
      "contractName": "RumpelGuard",
      "contractAddress": "0x9000fef2846a5253fd2c6ed5241de0fddb404302",
      "function": "setCallAllowed(address,bytes4,uint8)",
      "arguments": [
        "0x54e44DbB92dBA848ACe27F44c0CB4268981eF1CC",
        "0x17070f02",
        "1"
      ],
      "transaction": {
        "from": "0x25e426b153e74ab36b2685c3a464272de60888ae",
        "to": "0x9000fef2846a5253fd2c6ed5241de0fddb404302",
        "gas": "0x10853",
        "value": "0x0",
        "input": "0x5534fa0c00000000000000000000000054e44dbb92dba848ace27f44c0cb4268981ef1cc17070f02000000000000000000000000000000000000000000000000000000000000000000000000000000000000000000000000000000000000000000000001",
        "nonce": "0x66",
        "chainId": "0x1"
      },
      "additionalContracts": [],
      "isFixedGasLimit": false
    },
    {
      "hash": "0xb03615cdc17781b2d6c8dde2590994e78f35cb57ffece69fec04ac7f3194b4ad",
      "transactionType": "CALL",
      "contractName": "RumpelGuard",
      "contractAddress": "0x9000fef2846a5253fd2c6ed5241de0fddb404302",
      "function": "setCallAllowed(address,bytes4,uint8)",
      "arguments": [
        "0xAfa904152E04aBFf56701223118Be2832A4449E0",
        "0x92dca407",
        "1"
      ],
      "transaction": {
        "from": "0x25e426b153e74ab36b2685c3a464272de60888ae",
        "to": "0x9000fef2846a5253fd2c6ed5241de0fddb404302",
        "gas": "0x10853",
        "value": "0x0",
        "input": "0x5534fa0c000000000000000000000000afa904152e04abff56701223118be2832a4449e092dca407000000000000000000000000000000000000000000000000000000000000000000000000000000000000000000000000000000000000000000000001",
        "nonce": "0x67",
        "chainId": "0x1"
      },
      "additionalContracts": [],
      "isFixedGasLimit": false
    },
    {
      "hash": "0x9085a2bd38a21293cd93fc3a6f0c9320e38878098422400a61c995aae5fc5879",
      "transactionType": "CALL",
      "contractName": "RumpelGuard",
      "contractAddress": "0x9000fef2846a5253fd2c6ed5241de0fddb404302",
      "function": "setCallAllowed(address,bytes4,uint8)",
      "arguments": [
        "0xAfa904152E04aBFf56701223118Be2832A4449E0",
        "0x86e9a1f7",
        "1"
      ],
      "transaction": {
        "from": "0x25e426b153e74ab36b2685c3a464272de60888ae",
        "to": "0x9000fef2846a5253fd2c6ed5241de0fddb404302",
        "gas": "0x10853",
        "value": "0x0",
        "input": "0x5534fa0c000000000000000000000000afa904152e04abff56701223118be2832a4449e086e9a1f7000000000000000000000000000000000000000000000000000000000000000000000000000000000000000000000000000000000000000000000001",
        "nonce": "0x68",
        "chainId": "0x1"
      },
      "additionalContracts": [],
      "isFixedGasLimit": false
    },
    {
      "hash": "0x8f6b22b14479b9c5a4e32c51a536c3545554f7be8df5dd164acc1e406b8ca06a",
      "transactionType": "CALL",
      "contractName": "RumpelGuard",
      "contractAddress": "0x9000fef2846a5253fd2c6ed5241de0fddb404302",
      "function": "setCallAllowed(address,bytes4,uint8)",
      "arguments": [
        "0x82f5104b23FF2FA54C2345F821dAc9369e9E0B26",
        "0x5f097d40",
        "1"
      ],
      "transaction": {
        "from": "0x25e426b153e74ab36b2685c3a464272de60888ae",
        "to": "0x9000fef2846a5253fd2c6ed5241de0fddb404302",
        "gas": "0x10853",
        "value": "0x0",
        "input": "0x5534fa0c00000000000000000000000082f5104b23ff2fa54c2345f821dac9369e9e0b265f097d40000000000000000000000000000000000000000000000000000000000000000000000000000000000000000000000000000000000000000000000001",
        "nonce": "0x69",
        "chainId": "0x1"
      },
      "additionalContracts": [],
      "isFixedGasLimit": false
    },
    {
      "hash": "0x29bb4edf406d5510714d84e98ba703ca4ece42d1eb184b62516da22cb92ae826",
      "transactionType": "CALL",
      "contractName": "RumpelGuard",
      "contractAddress": "0x9000fef2846a5253fd2c6ed5241de0fddb404302",
      "function": "setCallAllowed(address,bytes4,uint8)",
      "arguments": [
        "0x82f5104b23FF2FA54C2345F821dAc9369e9E0B26",
        "0x2e3d46dc",
        "1"
      ],
      "transaction": {
        "from": "0x25e426b153e74ab36b2685c3a464272de60888ae",
        "to": "0x9000fef2846a5253fd2c6ed5241de0fddb404302",
        "gas": "0x10853",
        "value": "0x0",
        "input": "0x5534fa0c00000000000000000000000082f5104b23ff2fa54c2345f821dac9369e9e0b262e3d46dc000000000000000000000000000000000000000000000000000000000000000000000000000000000000000000000000000000000000000000000001",
        "nonce": "0x6a",
        "chainId": "0x1"
      },
      "additionalContracts": [],
      "isFixedGasLimit": false
    },
    {
      "hash": "0x100fce442640978194ddbd5359a2a3b3cd6f95ca9e98679da1c7d01c67442b77",
      "transactionType": "CALL",
      "contractName": "RumpelGuard",
      "contractAddress": "0x9000fef2846a5253fd2c6ed5241de0fddb404302",
      "function": "setCallAllowed(address,bytes4,uint8)",
      "arguments": [
        "0xe1B4d34E8754600962Cd944B535180Bd758E6c2e",
        "0x6e553f65",
        "1"
      ],
      "transaction": {
        "from": "0x25e426b153e74ab36b2685c3a464272de60888ae",
        "to": "0x9000fef2846a5253fd2c6ed5241de0fddb404302",
        "gas": "0x10853",
        "value": "0x0",
        "input": "0x5534fa0c000000000000000000000000e1b4d34e8754600962cd944b535180bd758e6c2e6e553f65000000000000000000000000000000000000000000000000000000000000000000000000000000000000000000000000000000000000000000000001",
        "nonce": "0x6b",
        "chainId": "0x1"
      },
      "additionalContracts": [],
      "isFixedGasLimit": false
    },
    {
      "hash": "0x5733f5650131f337780520f22d860dc0a35a3851390675eed0bbd2b4dfcf7624",
      "transactionType": "CALL",
      "contractName": "RumpelGuard",
      "contractAddress": "0x9000fef2846a5253fd2c6ed5241de0fddb404302",
      "function": "setCallAllowed(address,bytes4,uint8)",
      "arguments": [
        "0xe1B4d34E8754600962Cd944B535180Bd758E6c2e",
        "0x94bf804d",
        "1"
      ],
      "transaction": {
        "from": "0x25e426b153e74ab36b2685c3a464272de60888ae",
        "to": "0x9000fef2846a5253fd2c6ed5241de0fddb404302",
        "gas": "0x10853",
        "value": "0x0",
        "input": "0x5534fa0c000000000000000000000000e1b4d34e8754600962cd944b535180bd758e6c2e94bf804d000000000000000000000000000000000000000000000000000000000000000000000000000000000000000000000000000000000000000000000001",
        "nonce": "0x6c",
        "chainId": "0x1"
      },
      "additionalContracts": [],
      "isFixedGasLimit": false
    },
    {
      "hash": "0x84ecec268de39b6933dec242f1556bfdf41a8f52477555538e7aef969c389d0e",
      "transactionType": "CALL",
      "contractName": "RumpelGuard",
      "contractAddress": "0x9000fef2846a5253fd2c6ed5241de0fddb404302",
      "function": "setCallAllowed(address,bytes4,uint8)",
      "arguments": [
        "0xe1B4d34E8754600962Cd944B535180Bd758E6c2e",
        "0xb460af94",
        "1"
      ],
      "transaction": {
        "from": "0x25e426b153e74ab36b2685c3a464272de60888ae",
        "to": "0x9000fef2846a5253fd2c6ed5241de0fddb404302",
        "gas": "0x10853",
        "value": "0x0",
        "input": "0x5534fa0c000000000000000000000000e1b4d34e8754600962cd944b535180bd758e6c2eb460af94000000000000000000000000000000000000000000000000000000000000000000000000000000000000000000000000000000000000000000000001",
        "nonce": "0x6d",
        "chainId": "0x1"
      },
      "additionalContracts": [],
      "isFixedGasLimit": false
    },
    {
      "hash": "0x27e31a190757c8b383f73e1a98601558a06a28eda77c304bb9ce2812eafbae51",
      "transactionType": "CALL",
      "contractName": "RumpelGuard",
      "contractAddress": "0x9000fef2846a5253fd2c6ed5241de0fddb404302",
      "function": "setCallAllowed(address,bytes4,uint8)",
      "arguments": [
        "0xe1B4d34E8754600962Cd944B535180Bd758E6c2e",
        "0xba087652",
        "1"
      ],
      "transaction": {
        "from": "0x25e426b153e74ab36b2685c3a464272de60888ae",
        "to": "0x9000fef2846a5253fd2c6ed5241de0fddb404302",
        "gas": "0x10853",
        "value": "0x0",
        "input": "0x5534fa0c000000000000000000000000e1b4d34e8754600962cd944b535180bd758e6c2eba087652000000000000000000000000000000000000000000000000000000000000000000000000000000000000000000000000000000000000000000000001",
        "nonce": "0x6e",
        "chainId": "0x1"
      },
      "additionalContracts": [],
      "isFixedGasLimit": false
    },
    {
      "hash": "0x9cc9078a7502cdc6fc1ffe28a001e2cf3928402a70d334ab8e5b4a2d6cf7baaf",
      "transactionType": "CALL",
      "contractName": "RumpelGuard",
      "contractAddress": "0x9000fef2846a5253fd2c6ed5241de0fddb404302",
      "function": "setCallAllowed(address,bytes4,uint8)",
      "arguments": [
        "0x9D39A5DE30e57443BfF2A8307A4256c8797A3497",
        "0xf2888dbb",
        "1"
      ],
      "transaction": {
        "from": "0x25e426b153e74ab36b2685c3a464272de60888ae",
        "to": "0x9000fef2846a5253fd2c6ed5241de0fddb404302",
        "gas": "0x10853",
        "value": "0x0",
        "input": "0x5534fa0c0000000000000000000000009d39a5de30e57443bff2a8307a4256c8797a3497f2888dbb000000000000000000000000000000000000000000000000000000000000000000000000000000000000000000000000000000000000000000000001",
        "nonce": "0x6f",
        "chainId": "0x1"
      },
      "additionalContracts": [],
      "isFixedGasLimit": false
    },
    {
      "hash": "0x80d22f43f25838201b69da322cab07c61236729f165f86bb3edcc68a9863db01",
      "transactionType": "CALL",
      "contractName": "RumpelGuard",
      "contractAddress": "0x9000fef2846a5253fd2c6ed5241de0fddb404302",
      "function": "setCallAllowed(address,bytes4,uint8)",
      "arguments": [
        "0x9D39A5DE30e57443BfF2A8307A4256c8797A3497",
        "0xcdac52ed",
        "1"
      ],
      "transaction": {
        "from": "0x25e426b153e74ab36b2685c3a464272de60888ae",
        "to": "0x9000fef2846a5253fd2c6ed5241de0fddb404302",
        "gas": "0x10853",
        "value": "0x0",
        "input": "0x5534fa0c0000000000000000000000009d39a5de30e57443bff2a8307a4256c8797a3497cdac52ed000000000000000000000000000000000000000000000000000000000000000000000000000000000000000000000000000000000000000000000001",
        "nonce": "0x70",
        "chainId": "0x1"
      },
      "additionalContracts": [],
      "isFixedGasLimit": false
    },
    {
      "hash": "0xbebee7af9fdaf5c102d9674dab10e9c811f7eef9549c65e4ee2f88efd53f6d5d",
      "transactionType": "CALL",
      "contractName": "RumpelGuard",
      "contractAddress": "0x9000fef2846a5253fd2c6ed5241de0fddb404302",
      "function": "setCallAllowed(address,bytes4,uint8)",
      "arguments": [
        "0x9D39A5DE30e57443BfF2A8307A4256c8797A3497",
        "0x9343d9e1",
        "1"
      ],
      "transaction": {
        "from": "0x25e426b153e74ab36b2685c3a464272de60888ae",
        "to": "0x9000fef2846a5253fd2c6ed5241de0fddb404302",
        "gas": "0x10853",
        "value": "0x0",
        "input": "0x5534fa0c0000000000000000000000009d39a5de30e57443bff2a8307a4256c8797a34979343d9e1000000000000000000000000000000000000000000000000000000000000000000000000000000000000000000000000000000000000000000000001",
        "nonce": "0x71",
        "chainId": "0x1"
      },
      "additionalContracts": [],
      "isFixedGasLimit": false
    },
    {
      "hash": "0x53456346b437d06ddd927e9fb7e655c2c3a42893cb72e9a0c4b04a15b5260549",
      "transactionType": "CALL",
      "contractName": "RumpelGuard",
      "contractAddress": "0x9000fef2846a5253fd2c6ed5241de0fddb404302",
      "function": "setCallAllowed(address,bytes4,uint8)",
      "arguments": [
        "0x9D39A5DE30e57443BfF2A8307A4256c8797A3497",
        "0x6e553f65",
        "1"
      ],
      "transaction": {
        "from": "0x25e426b153e74ab36b2685c3a464272de60888ae",
        "to": "0x9000fef2846a5253fd2c6ed5241de0fddb404302",
        "gas": "0x10853",
        "value": "0x0",
        "input": "0x5534fa0c0000000000000000000000009d39a5de30e57443bff2a8307a4256c8797a34976e553f65000000000000000000000000000000000000000000000000000000000000000000000000000000000000000000000000000000000000000000000001",
        "nonce": "0x72",
        "chainId": "0x1"
      },
      "additionalContracts": [],
      "isFixedGasLimit": false
    },
    {
      "hash": "0x381a9337042fb969549d336c44232ce41dd73e3ed1f61f8db2e998e4a09bd1ea",
      "transactionType": "CALL",
      "contractName": "RumpelGuard",
      "contractAddress": "0x9000fef2846a5253fd2c6ed5241de0fddb404302",
      "function": "setCallAllowed(address,bytes4,uint8)",
      "arguments": [
        "0x9D39A5DE30e57443BfF2A8307A4256c8797A3497",
        "0x94bf804d",
        "1"
      ],
      "transaction": {
        "from": "0x25e426b153e74ab36b2685c3a464272de60888ae",
        "to": "0x9000fef2846a5253fd2c6ed5241de0fddb404302",
        "gas": "0x10853",
        "value": "0x0",
        "input": "0x5534fa0c0000000000000000000000009d39a5de30e57443bff2a8307a4256c8797a349794bf804d000000000000000000000000000000000000000000000000000000000000000000000000000000000000000000000000000000000000000000000001",
        "nonce": "0x73",
        "chainId": "0x1"
      },
      "additionalContracts": [],
      "isFixedGasLimit": false
    },
    {
      "hash": "0xe5e89a4ef9e898f8107bc6ab6407622311311944e0ed50127d63c57b6ebcf9b2",
      "transactionType": "CALL",
      "contractName": "RumpelGuard",
      "contractAddress": "0x9000fef2846a5253fd2c6ed5241de0fddb404302",
      "function": "setCallAllowed(address,bytes4,uint8)",
      "arguments": [
        "0x9D39A5DE30e57443BfF2A8307A4256c8797A3497",
        "0xb460af94",
        "1"
      ],
      "transaction": {
        "from": "0x25e426b153e74ab36b2685c3a464272de60888ae",
        "to": "0x9000fef2846a5253fd2c6ed5241de0fddb404302",
        "gas": "0x10853",
        "value": "0x0",
        "input": "0x5534fa0c0000000000000000000000009d39a5de30e57443bff2a8307a4256c8797a3497b460af94000000000000000000000000000000000000000000000000000000000000000000000000000000000000000000000000000000000000000000000001",
        "nonce": "0x74",
        "chainId": "0x1"
      },
      "additionalContracts": [],
      "isFixedGasLimit": false
    },
    {
      "hash": "0xe2b23a7127e860291c9d6d39644d9441332a43d05ba93ecc600c59afcb201673",
      "transactionType": "CALL",
      "contractName": "RumpelGuard",
      "contractAddress": "0x9000fef2846a5253fd2c6ed5241de0fddb404302",
      "function": "setCallAllowed(address,bytes4,uint8)",
      "arguments": [
        "0x9D39A5DE30e57443BfF2A8307A4256c8797A3497",
        "0xba087652",
        "1"
      ],
      "transaction": {
        "from": "0x25e426b153e74ab36b2685c3a464272de60888ae",
        "to": "0x9000fef2846a5253fd2c6ed5241de0fddb404302",
        "gas": "0x10853",
        "value": "0x0",
        "input": "0x5534fa0c0000000000000000000000009d39a5de30e57443bff2a8307a4256c8797a3497ba087652000000000000000000000000000000000000000000000000000000000000000000000000000000000000000000000000000000000000000000000001",
        "nonce": "0x75",
        "chainId": "0x1"
      },
      "additionalContracts": [],
      "isFixedGasLimit": false
    },
    {
      "hash": "0x99a44cb4218241391a76cc506594eee57a7d161e131936c1101514ec9a25e52b",
      "transactionType": "CALL",
      "contractName": "RumpelGuard",
      "contractAddress": "0x9000fef2846a5253fd2c6ed5241de0fddb404302",
      "function": "setCallAllowed(address,bytes4,uint8)",
      "arguments": [
        "0x8707f238936c12c309bfc2B9959C35828AcFc512",
        "0xb3dd411d",
        "1"
      ],
      "transaction": {
        "from": "0x25e426b153e74ab36b2685c3a464272de60888ae",
        "to": "0x9000fef2846a5253fd2c6ed5241de0fddb404302",
        "gas": "0x10853",
        "value": "0x0",
        "input": "0x5534fa0c0000000000000000000000008707f238936c12c309bfc2b9959c35828acfc512b3dd411d000000000000000000000000000000000000000000000000000000000000000000000000000000000000000000000000000000000000000000000001",
        "nonce": "0x76",
        "chainId": "0x1"
      },
      "additionalContracts": [],
      "isFixedGasLimit": false
    },
    {
      "hash": "0x00221cda97731d906a31638b87f8c6e1b08dcac58fc9a5194a7b99662023a6f4",
      "transactionType": "CALL",
      "contractName": "RumpelGuard",
      "contractAddress": "0x9000fef2846a5253fd2c6ed5241de0fddb404302",
      "function": "setCallAllowed(address,bytes4,uint8)",
      "arguments": [
        "0x8707f238936c12c309bfc2B9959C35828AcFc512",
        "0x21ec52b4",
        "1"
      ],
      "transaction": {
        "from": "0x25e426b153e74ab36b2685c3a464272de60888ae",
        "to": "0x9000fef2846a5253fd2c6ed5241de0fddb404302",
        "gas": "0x10853",
        "value": "0x0",
        "input": "0x5534fa0c0000000000000000000000008707f238936c12c309bfc2b9959c35828acfc51221ec52b4000000000000000000000000000000000000000000000000000000000000000000000000000000000000000000000000000000000000000000000001",
        "nonce": "0x77",
        "chainId": "0x1"
      },
      "additionalContracts": [],
      "isFixedGasLimit": false
    },
    {
      "hash": "0xfa03d966ebb175dec5e33350ce1fbd1cb6b3d2122e9bbab483836a6a59fa35c7",
      "transactionType": "CALL",
      "contractName": "RumpelGuard",
      "contractAddress": "0x9000fef2846a5253fd2c6ed5241de0fddb404302",
      "function": "setCallAllowed(address,bytes4,uint8)",
      "arguments": [
        "0x9D39A5DE30e57443BfF2A8307A4256c8797A3497",
        "0xa9059cbb",
        "1"
      ],
      "transaction": {
        "from": "0x25e426b153e74ab36b2685c3a464272de60888ae",
        "to": "0x9000fef2846a5253fd2c6ed5241de0fddb404302",
        "gas": "0x10853",
        "value": "0x0",
        "input": "0x5534fa0c0000000000000000000000009d39a5de30e57443bff2a8307a4256c8797a3497a9059cbb000000000000000000000000000000000000000000000000000000000000000000000000000000000000000000000000000000000000000000000001",
        "nonce": "0x78",
        "chainId": "0x1"
      },
      "additionalContracts": [],
      "isFixedGasLimit": false
    },
    {
      "hash": "0x97157d2ae1e05dfc4654827a9caaef0c5eaab1e405a55b5fa2a22d1313ab0e2e",
      "transactionType": "CALL",
      "contractName": "RumpelGuard",
      "contractAddress": "0x9000fef2846a5253fd2c6ed5241de0fddb404302",
      "function": "setCallAllowed(address,bytes4,uint8)",
      "arguments": [
        "0x9D39A5DE30e57443BfF2A8307A4256c8797A3497",
        "0x095ea7b3",
        "1"
      ],
      "transaction": {
        "from": "0x25e426b153e74ab36b2685c3a464272de60888ae",
        "to": "0x9000fef2846a5253fd2c6ed5241de0fddb404302",
        "gas": "0x10853",
        "value": "0x0",
        "input": "0x5534fa0c0000000000000000000000009d39a5de30e57443bff2a8307a4256c8797a3497095ea7b3000000000000000000000000000000000000000000000000000000000000000000000000000000000000000000000000000000000000000000000001",
        "nonce": "0x79",
        "chainId": "0x1"
      },
      "additionalContracts": [],
      "isFixedGasLimit": false
    },
    {
      "hash": "0xff16be8451d79609a87226c8c3f79f2e8ea276de132c8fe5d885d0cd40aa0e1f",
      "transactionType": "CALL",
      "contractName": "RumpelGuard",
      "contractAddress": "0x9000fef2846a5253fd2c6ed5241de0fddb404302",
      "function": "setCallAllowed(address,bytes4,uint8)",
      "arguments": [
        "0x4c9EDD5852cd905f086C759E8383e09bff1E68B3",
        "0xa9059cbb",
        "1"
      ],
      "transaction": {
        "from": "0x25e426b153e74ab36b2685c3a464272de60888ae",
        "to": "0x9000fef2846a5253fd2c6ed5241de0fddb404302",
        "gas": "0x10853",
        "value": "0x0",
        "input": "0x5534fa0c0000000000000000000000004c9edd5852cd905f086c759e8383e09bff1e68b3a9059cbb000000000000000000000000000000000000000000000000000000000000000000000000000000000000000000000000000000000000000000000001",
        "nonce": "0x7a",
        "chainId": "0x1"
      },
      "additionalContracts": [],
      "isFixedGasLimit": false
    },
    {
      "hash": "0x7a687548fbdb9b0debbf0f349dc3b8205d30b686eb67b34f0c39f7b93472296a",
      "transactionType": "CALL",
      "contractName": "RumpelGuard",
      "contractAddress": "0x9000fef2846a5253fd2c6ed5241de0fddb404302",
      "function": "setCallAllowed(address,bytes4,uint8)",
      "arguments": [
        "0x4c9EDD5852cd905f086C759E8383e09bff1E68B3",
        "0x095ea7b3",
        "1"
      ],
      "transaction": {
        "from": "0x25e426b153e74ab36b2685c3a464272de60888ae",
        "to": "0x9000fef2846a5253fd2c6ed5241de0fddb404302",
        "gas": "0x10853",
        "value": "0x0",
        "input": "0x5534fa0c0000000000000000000000004c9edd5852cd905f086c759e8383e09bff1e68b3095ea7b3000000000000000000000000000000000000000000000000000000000000000000000000000000000000000000000000000000000000000000000001",
        "nonce": "0x7b",
        "chainId": "0x1"
      },
      "additionalContracts": [],
      "isFixedGasLimit": false
    },
    {
      "hash": "0x07a2d6cdaccf84753f2bf844993b238e01578d6913d217acf9db8b96cb5488a4",
      "transactionType": "CALL",
      "contractName": "RumpelGuard",
      "contractAddress": "0x9000fef2846a5253fd2c6ed5241de0fddb404302",
      "function": "setCallAllowed(address,bytes4,uint8)",
      "arguments": [
        "0x7f39C581F595B53c5cb19bD0b3f8dA6c935E2Ca0",
        "0xa9059cbb",
        "1"
      ],
      "transaction": {
        "from": "0x25e426b153e74ab36b2685c3a464272de60888ae",
        "to": "0x9000fef2846a5253fd2c6ed5241de0fddb404302",
        "gas": "0x10853",
        "value": "0x0",
        "input": "0x5534fa0c0000000000000000000000007f39c581f595b53c5cb19bd0b3f8da6c935e2ca0a9059cbb000000000000000000000000000000000000000000000000000000000000000000000000000000000000000000000000000000000000000000000001",
        "nonce": "0x7c",
        "chainId": "0x1"
      },
      "additionalContracts": [],
      "isFixedGasLimit": false
    },
    {
      "hash": "0xf88249c3857755361ec477fdee4e07f896c5f1309ae966e2cb2181fa6c91df0a",
      "transactionType": "CALL",
      "contractName": "RumpelGuard",
      "contractAddress": "0x9000fef2846a5253fd2c6ed5241de0fddb404302",
      "function": "setCallAllowed(address,bytes4,uint8)",
      "arguments": [
        "0x7f39C581F595B53c5cb19bD0b3f8dA6c935E2Ca0",
        "0x095ea7b3",
        "1"
      ],
      "transaction": {
        "from": "0x25e426b153e74ab36b2685c3a464272de60888ae",
        "to": "0x9000fef2846a5253fd2c6ed5241de0fddb404302",
        "gas": "0x10853",
        "value": "0x0",
        "input": "0x5534fa0c0000000000000000000000007f39c581f595b53c5cb19bd0b3f8da6c935e2ca0095ea7b3000000000000000000000000000000000000000000000000000000000000000000000000000000000000000000000000000000000000000000000001",
        "nonce": "0x7d",
        "chainId": "0x1"
      },
      "additionalContracts": [],
      "isFixedGasLimit": false
    },
    {
      "hash": "0x3455b996006ca944d2c8eec3b17286068b95b8b4f2b368910deb36ecc833f81e",
      "transactionType": "CALL",
      "contractName": "RumpelGuard",
      "contractAddress": "0x9000fef2846a5253fd2c6ed5241de0fddb404302",
      "function": "setCallAllowed(address,bytes4,uint8)",
      "arguments": [
        "0xBE3cA34D0E877A1Fc889BD5231D65477779AFf4e",
        "0xa9059cbb",
        "1"
      ],
      "transaction": {
        "from": "0x25e426b153e74ab36b2685c3a464272de60888ae",
        "to": "0x9000fef2846a5253fd2c6ed5241de0fddb404302",
        "gas": "0x10853",
        "value": "0x0",
        "input": "0x5534fa0c000000000000000000000000be3ca34d0e877a1fc889bd5231d65477779aff4ea9059cbb000000000000000000000000000000000000000000000000000000000000000000000000000000000000000000000000000000000000000000000001",
        "nonce": "0x7e",
        "chainId": "0x1"
      },
      "additionalContracts": [],
      "isFixedGasLimit": false
    },
    {
      "hash": "0xd92d762f0d86a196a99899167eca448beb295af565b552c2fafb4a22f25bbde1",
      "transactionType": "CALL",
      "contractName": "RumpelGuard",
      "contractAddress": "0x9000fef2846a5253fd2c6ed5241de0fddb404302",
      "function": "setCallAllowed(address,bytes4,uint8)",
      "arguments": [
        "0xBE3cA34D0E877A1Fc889BD5231D65477779AFf4e",
        "0x095ea7b3",
        "1"
      ],
      "transaction": {
        "from": "0x25e426b153e74ab36b2685c3a464272de60888ae",
        "to": "0x9000fef2846a5253fd2c6ed5241de0fddb404302",
        "gas": "0x10853",
        "value": "0x0",
        "input": "0x5534fa0c000000000000000000000000be3ca34d0e877a1fc889bd5231d65477779aff4e095ea7b3000000000000000000000000000000000000000000000000000000000000000000000000000000000000000000000000000000000000000000000001",
        "nonce": "0x7f",
        "chainId": "0x1"
      },
      "additionalContracts": [],
      "isFixedGasLimit": false
    },
    {
      "hash": "0x96b91270adc8fdd14ea3a84504e473a19f741decb2705146b98b6dc93c9c2e3c",
      "transactionType": "CALL",
      "contractName": "RumpelGuard",
      "contractAddress": "0x9000fef2846a5253fd2c6ed5241de0fddb404302",
      "function": "setCallAllowed(address,bytes4,uint8)",
      "arguments": [
        "0x2DABcea55a12d73191AeCe59F508b191Fb68AdaC",
        "0xa9059cbb",
        "1"
      ],
      "transaction": {
        "from": "0x25e426b153e74ab36b2685c3a464272de60888ae",
        "to": "0x9000fef2846a5253fd2c6ed5241de0fddb404302",
        "gas": "0x10853",
        "value": "0x0",
        "input": "0x5534fa0c0000000000000000000000002dabcea55a12d73191aece59f508b191fb68adaca9059cbb000000000000000000000000000000000000000000000000000000000000000000000000000000000000000000000000000000000000000000000001",
        "nonce": "0x80",
        "chainId": "0x1"
      },
      "additionalContracts": [],
      "isFixedGasLimit": false
    },
    {
      "hash": "0xedd51a04e055aaac7074813d3287e716fb70d78113f60ec0de78fb755f11db5d",
      "transactionType": "CALL",
      "contractName": "RumpelGuard",
      "contractAddress": "0x9000fef2846a5253fd2c6ed5241de0fddb404302",
      "function": "setCallAllowed(address,bytes4,uint8)",
      "arguments": [
        "0x2DABcea55a12d73191AeCe59F508b191Fb68AdaC",
        "0x095ea7b3",
        "1"
      ],
      "transaction": {
        "from": "0x25e426b153e74ab36b2685c3a464272de60888ae",
        "to": "0x9000fef2846a5253fd2c6ed5241de0fddb404302",
        "gas": "0x10853",
        "value": "0x0",
        "input": "0x5534fa0c0000000000000000000000002dabcea55a12d73191aece59f508b191fb68adac095ea7b3000000000000000000000000000000000000000000000000000000000000000000000000000000000000000000000000000000000000000000000001",
        "nonce": "0x81",
        "chainId": "0x1"
      },
      "additionalContracts": [],
      "isFixedGasLimit": false
    },
    {
      "hash": "0x1eb05a93d8a03a613ca738d265f7a943706c32bf82e9f06005faf1a4d617302e",
      "transactionType": "CALL",
      "contractName": "RumpelGuard",
      "contractAddress": "0x9000fef2846a5253fd2c6ed5241de0fddb404302",
      "function": "setCallAllowed(address,bytes4,uint8)",
      "arguments": [
        "0xCd5fE23C85820F7B72D0926FC9b05b43E359b7ee",
        "0xa9059cbb",
        "1"
      ],
      "transaction": {
        "from": "0x25e426b153e74ab36b2685c3a464272de60888ae",
        "to": "0x9000fef2846a5253fd2c6ed5241de0fddb404302",
        "gas": "0x10853",
        "value": "0x0",
        "input": "0x5534fa0c000000000000000000000000cd5fe23c85820f7b72d0926fc9b05b43e359b7eea9059cbb000000000000000000000000000000000000000000000000000000000000000000000000000000000000000000000000000000000000000000000001",
        "nonce": "0x82",
        "chainId": "0x1"
      },
      "additionalContracts": [],
      "isFixedGasLimit": false
    },
    {
      "hash": "0x881b96a948129ebef6703bb3f573942d1e56bba590d20e68b336fdd79ad2376c",
      "transactionType": "CALL",
      "contractName": "RumpelGuard",
      "contractAddress": "0x9000fef2846a5253fd2c6ed5241de0fddb404302",
      "function": "setCallAllowed(address,bytes4,uint8)",
      "arguments": [
        "0xCd5fE23C85820F7B72D0926FC9b05b43E359b7ee",
        "0x095ea7b3",
        "1"
      ],
      "transaction": {
        "from": "0x25e426b153e74ab36b2685c3a464272de60888ae",
        "to": "0x9000fef2846a5253fd2c6ed5241de0fddb404302",
        "gas": "0x10853",
        "value": "0x0",
        "input": "0x5534fa0c000000000000000000000000cd5fe23c85820f7b72d0926fc9b05b43e359b7ee095ea7b3000000000000000000000000000000000000000000000000000000000000000000000000000000000000000000000000000000000000000000000001",
        "nonce": "0x83",
        "chainId": "0x1"
      },
      "additionalContracts": [],
      "isFixedGasLimit": false
    },
    {
      "hash": "0x4a8c0bc9079154d2a9e233f31061717dfbb94edecc5026a676c0478986fa2e4f",
      "transactionType": "CALL",
      "contractName": "RumpelGuard",
      "contractAddress": "0x9000fef2846a5253fd2c6ed5241de0fddb404302",
      "function": "setCallAllowed(address,bytes4,uint8)",
      "arguments": [
        "0x49446A0874197839D15395B908328a74ccc96Bc0",
        "0xa9059cbb",
        "1"
      ],
      "transaction": {
        "from": "0x25e426b153e74ab36b2685c3a464272de60888ae",
        "to": "0x9000fef2846a5253fd2c6ed5241de0fddb404302",
        "gas": "0x10853",
        "value": "0x0",
        "input": "0x5534fa0c00000000000000000000000049446a0874197839d15395b908328a74ccc96bc0a9059cbb000000000000000000000000000000000000000000000000000000000000000000000000000000000000000000000000000000000000000000000001",
        "nonce": "0x84",
        "chainId": "0x1"
      },
      "additionalContracts": [],
      "isFixedGasLimit": false
    },
    {
      "hash": "0x9ecb71b9845e31fccf780dc7eea5ed61fceb93a3de0adfe3094574eb34ca6a05",
      "transactionType": "CALL",
      "contractName": "RumpelGuard",
      "contractAddress": "0x9000fef2846a5253fd2c6ed5241de0fddb404302",
      "function": "setCallAllowed(address,bytes4,uint8)",
      "arguments": [
        "0x49446A0874197839D15395B908328a74ccc96Bc0",
        "0x095ea7b3",
        "1"
      ],
      "transaction": {
        "from": "0x25e426b153e74ab36b2685c3a464272de60888ae",
        "to": "0x9000fef2846a5253fd2c6ed5241de0fddb404302",
        "gas": "0x10853",
        "value": "0x0",
        "input": "0x5534fa0c00000000000000000000000049446a0874197839d15395b908328a74ccc96bc0095ea7b3000000000000000000000000000000000000000000000000000000000000000000000000000000000000000000000000000000000000000000000001",
        "nonce": "0x85",
        "chainId": "0x1"
      },
      "additionalContracts": [],
      "isFixedGasLimit": false
    },
    {
      "hash": "0x75be1d135b4bc0506702f35e77e33cfbcf2c06e3a1b436d425bdf80daa5a781d",
      "transactionType": "CALL",
      "contractName": "RumpelGuard",
      "contractAddress": "0x9000fef2846a5253fd2c6ed5241de0fddb404302",
      "function": "setCallAllowed(address,bytes4,uint8)",
      "arguments": [
        "0x82f5104b23FF2FA54C2345F821dAc9369e9E0B26",
        "0xa9059cbb",
        "1"
      ],
      "transaction": {
        "from": "0x25e426b153e74ab36b2685c3a464272de60888ae",
        "to": "0x9000fef2846a5253fd2c6ed5241de0fddb404302",
        "gas": "0x10853",
        "value": "0x0",
        "input": "0x5534fa0c00000000000000000000000082f5104b23ff2fa54c2345f821dac9369e9e0b26a9059cbb000000000000000000000000000000000000000000000000000000000000000000000000000000000000000000000000000000000000000000000001",
        "nonce": "0x86",
        "chainId": "0x1"
      },
      "additionalContracts": [],
      "isFixedGasLimit": false
    },
    {
      "hash": "0x426424955bb576e4a1f86dffed178f82965cc27fc43ba0806031121aa69ad2eb",
      "transactionType": "CALL",
      "contractName": "RumpelGuard",
      "contractAddress": "0x9000fef2846a5253fd2c6ed5241de0fddb404302",
      "function": "setCallAllowed(address,bytes4,uint8)",
      "arguments": [
        "0xe1B4d34E8754600962Cd944B535180Bd758E6c2e",
        "0xa9059cbb",
        "1"
      ],
      "transaction": {
        "from": "0x25e426b153e74ab36b2685c3a464272de60888ae",
        "to": "0x9000fef2846a5253fd2c6ed5241de0fddb404302",
        "gas": "0x10853",
        "value": "0x0",
        "input": "0x5534fa0c000000000000000000000000e1b4d34e8754600962cd944b535180bd758e6c2ea9059cbb000000000000000000000000000000000000000000000000000000000000000000000000000000000000000000000000000000000000000000000001",
        "nonce": "0x87",
        "chainId": "0x1"
      },
      "additionalContracts": [],
      "isFixedGasLimit": false
    },
    {
      "hash": "0x0e5a8a902712ab87072275c7b82b2b321b7250645ebb5ed8bf0c6496616de724",
      "transactionType": "CALL",
      "contractName": "RumpelGuard",
      "contractAddress": "0x9000fef2846a5253fd2c6ed5241de0fddb404302",
      "function": "setCallAllowed(address,bytes4,uint8)",
      "arguments": [
        "0xC329400492c6ff2438472D4651Ad17389fCb843a",
        "0xa9059cbb",
        "1"
      ],
      "transaction": {
        "from": "0x25e426b153e74ab36b2685c3a464272de60888ae",
        "to": "0x9000fef2846a5253fd2c6ed5241de0fddb404302",
        "gas": "0x10853",
        "value": "0x0",
        "input": "0x5534fa0c000000000000000000000000c329400492c6ff2438472d4651ad17389fcb843aa9059cbb000000000000000000000000000000000000000000000000000000000000000000000000000000000000000000000000000000000000000000000001",
        "nonce": "0x88",
        "chainId": "0x1"
      },
      "additionalContracts": [],
      "isFixedGasLimit": false
    },
    {
      "hash": "0x4061a933ea3fde791effb7526079be7f8afc8f992a24dbf15409c65eacb7d983",
      "transactionType": "CALL",
      "contractName": "RumpelGuard",
      "contractAddress": "0x9000fef2846a5253fd2c6ed5241de0fddb404302",
      "function": "setCallAllowed(address,bytes4,uint8)",
      "arguments": [
        "0x19d0D8e6294B7a04a2733FE433444704B791939A",
        "0xa9059cbb",
        "1"
      ],
      "transaction": {
        "from": "0x25e426b153e74ab36b2685c3a464272de60888ae",
        "to": "0x9000fef2846a5253fd2c6ed5241de0fddb404302",
        "gas": "0x10853",
        "value": "0x0",
        "input": "0x5534fa0c00000000000000000000000019d0d8e6294b7a04a2733fe433444704b791939aa9059cbb000000000000000000000000000000000000000000000000000000000000000000000000000000000000000000000000000000000000000000000001",
        "nonce": "0x89",
        "chainId": "0x1"
      },
      "additionalContracts": [],
      "isFixedGasLimit": false
    },
    {
      "hash": "0xf432681014cde0b1c26305913ca7f99f498a7c0be91fb0793725fe09f3ba2da8",
      "transactionType": "CALL",
      "contractName": "RumpelGuard",
      "contractAddress": "0x9000fef2846a5253fd2c6ed5241de0fddb404302",
      "function": "transferOwnership(address)",
      "arguments": [
        "0x9D89745fD63Af482ce93a9AdB8B0BbDbb98D3e06"
      ],
      "transaction": {
        "from": "0x25e426b153e74ab36b2685c3a464272de60888ae",
        "to": "0x9000fef2846a5253fd2c6ed5241de0fddb404302",
        "gas": "0x9a90",
        "value": "0x0",
        "input": "0xf2fde38b0000000000000000000000009d89745fd63af482ce93a9adb8b0bbdbb98d3e06",
        "nonce": "0x8a",
        "chainId": "0x1"
      },
      "additionalContracts": [],
      "isFixedGasLimit": false
    },
    {
      "hash": "0xd3b616a0d7291780dbe5ca284b432f109a0210990f1e3569c734ea1ab5fffbaf",
      "transactionType": "CALL",
      "contractName": "RumpelModule",
      "contractAddress": "0x28c3498b4956f4ad8d4549aca8f66260975d361a",
      "function": "transferOwnership(address)",
      "arguments": [
        "0x9D89745fD63Af482ce93a9AdB8B0BbDbb98D3e06"
      ],
      "transaction": {
        "from": "0x25e426b153e74ab36b2685c3a464272de60888ae",
        "to": "0x28c3498b4956f4ad8d4549aca8f66260975d361a",
        "gas": "0xa367",
        "value": "0x0",
        "input": "0xf2fde38b0000000000000000000000009d89745fd63af482ce93a9adb8b0bbdbb98d3e06",
        "nonce": "0x8b",
        "chainId": "0x1"
      },
      "additionalContracts": [],
      "isFixedGasLimit": false
    },
    {
      "hash": "0x74872cf48eb25895ad8db589024e0c10f0cc1b98fc4f12feb779959760a7b77e",
      "transactionType": "CALL",
      "contractName": "RumpelWalletFactory",
      "contractAddress": "0x5774abcf415f34592514698eb075051e97db2937",
      "function": "transferOwnership(address)",
      "arguments": [
        "0x9D89745fD63Af482ce93a9AdB8B0BbDbb98D3e06"
      ],
      "transaction": {
        "from": "0x25e426b153e74ab36b2685c3a464272de60888ae",
        "to": "0x5774abcf415f34592514698eb075051e97db2937",
        "gas": "0x9a90",
        "value": "0x0",
        "input": "0xf2fde38b0000000000000000000000009d89745fd63af482ce93a9adb8b0bbdbb98d3e06",
        "nonce": "0x8c",
        "chainId": "0x1"
      },
      "additionalContracts": [],
      "isFixedGasLimit": false
    }
  ],
  "receipts": [
    {
      "status": "0x1",
      "cumulativeGasUsed": "0xa56723",
      "logs": [
        {
          "address": "0x28c3498b4956f4ad8d4549aca8f66260975d361a",
          "topics": [
            "0x8be0079c531659141344cd1fd0a4f28419497f9722a3daafe3b4186f6b6457e0",
            "0x0000000000000000000000000000000000000000000000000000000000000000",
            "0x00000000000000000000000025e426b153e74ab36b2685c3a464272de60888ae"
          ],
          "data": "0x",
          "blockHash": "0x863863019032aaa3a78612448a88f2ab0573ea3143cfd15ae9fd437471455201",
          "blockNumber": "0x13bcc27",
          "transactionHash": "0xebce6ef3a11ca1fffd1c9aaf24c27312c6e6c56b1e2ca7b1eb9fe2f0b8ca6157",
          "transactionIndex": "0x60",
          "logIndex": "0x138",
          "removed": false
        }
      ],
      "logsBloom": "0x00000000000000000000000000000000080000000000000200800000000000400000000000000000000000000000000000000000000008000000000000000000000000000000000000000000000000000001000000000000000000000000000000000000020000000000000000000800000000000000000000000000000000400000000000000800000000000000000000000000000000000000000000000000000000000000000000000000000000000000000000000000000000000000000000000000000000000000000000000000000000000000000000000000000020000000000000000000000000000000000000000000000000000100000000000000",
      "type": "0x2",
      "transactionHash": "0xebce6ef3a11ca1fffd1c9aaf24c27312c6e6c56b1e2ca7b1eb9fe2f0b8ca6157",
      "transactionIndex": "0x60",
      "blockHash": "0x863863019032aaa3a78612448a88f2ab0573ea3143cfd15ae9fd437471455201",
      "blockNumber": "0x13bcc27",
      "gasUsed": "0x921c1",
      "effectiveGasPrice": "0x4c0b7f04",
      "from": "0x25e426b153e74ab36b2685c3a464272de60888ae",
      "to": null,
      "contractAddress": "0x28c3498b4956f4ad8d4549aca8f66260975d361a"
    },
    {
      "status": "0x1",
      "cumulativeGasUsed": "0xae0d01",
      "logs": [
        {
          "address": "0x9000fef2846a5253fd2c6ed5241de0fddb404302",
          "topics": [
            "0x8be0079c531659141344cd1fd0a4f28419497f9722a3daafe3b4186f6b6457e0",
            "0x0000000000000000000000000000000000000000000000000000000000000000",
            "0x00000000000000000000000025e426b153e74ab36b2685c3a464272de60888ae"
          ],
          "data": "0x",
          "blockHash": "0x2a9c808206d56db4881207bfd4eb6d4e1412d369261ef7e29626dacf5bb3899f",
          "blockNumber": "0x13bcc28",
          "transactionHash": "0x8187b2d074f089fad3297a5d4223c04ac23f1ef98787f598f9eb8ec3d54d2151",
          "transactionIndex": "0x46",
          "logIndex": "0x182",
          "removed": false
        }
      ],
      "logsBloom": "0x00000000000000000000000000000000000000000000000000800000000000400000010000000000000000000000000000000000000008000000000000000000000000000000000000000000000000000001000000000000000000000000000080000000020000000000000000000800000000000000000000000000000000400800000000000800000000000000000000000000000000000000000000000000000000000000000000000000000000000000000000000000000000000000000000000000000000000000000000000000000000000000000000000000000020000000000000000000000000000000000000000000000000000000000000000000",
      "type": "0x2",
      "transactionHash": "0x8187b2d074f089fad3297a5d4223c04ac23f1ef98787f598f9eb8ec3d54d2151",
      "transactionIndex": "0x46",
      "blockHash": "0x2a9c808206d56db4881207bfd4eb6d4e1412d369261ef7e29626dacf5bb3899f",
      "blockNumber": "0x13bcc28",
      "gasUsed": "0x92cdc",
      "effectiveGasPrice": "0x4aa1750f",
      "from": "0x25e426b153e74ab36b2685c3a464272de60888ae",
      "to": null,
      "contractAddress": "0x9000fef2846a5253fd2c6ed5241de0fddb404302"
    },
    {
      "status": "0x1",
      "cumulativeGasUsed": "0x16521da",
      "logs": [],
      "logsBloom": "0x00000000000000000000000000000000000000000000000000000000000000000000000000000000000000000000000000000000000000000000000000000000000000000000000000000000000000000000000000000000000000000000000000000000000000000000000000000000000000000000000000000000000000000000000000000000000000000000000000000000000000000000000000000000000000000000000000000000000000000000000000000000000000000000000000000000000000000000000000000000000000000000000000000000000000000000000000000000000000000000000000000000000000000000000000000000",
      "type": "0x2",
      "transactionHash": "0xbbe8609c1b43b5d2844f3d4d06323a46dd1a7bb8665a1554cad3f13d1d639725",
      "transactionIndex": "0x99",
      "blockHash": "0xbde86765f5eff926ceafa86a845055afa6ede7123bc7779240d2cc1cfbf9b589",
      "blockNumber": "0x13bcc29",
      "gasUsed": "0x27fe9",
      "effectiveGasPrice": "0x4c81f8d1",
      "from": "0x25e426b153e74ab36b2685c3a464272de60888ae",
      "to": null,
      "contractAddress": "0xdef5c382c13e546b839dfd7232cb6d32ba973904"
    },
    {
      "status": "0x1",
      "cumulativeGasUsed": "0xcd2ecb",
      "logs": [],
      "logsBloom": "0x00000000000000000000000000000000000000000000000000000000000000000000000000000000000000000000000000000000000000000000000000000000000000000000000000000000000000000000000000000000000000000000000000000000000000000000000000000000000000000000000000000000000000000000000000000000000000000000000000000000000000000000000000000000000000000000000000000000000000000000000000000000000000000000000000000000000000000000000000000000000000000000000000000000000000000000000000000000000000000000000000000000000000000000000000000000",
      "type": "0x2",
      "transactionHash": "0x03bb6eb2c554e612ce578b1154de51b63c1ee5f06e6a1b4103515ff243b7f4d9",
      "transactionIndex": "0x55",
      "blockHash": "0xd86da4688b5767b0b5fee73b338e2a30c2f7f9208d251aa1383bde1cd93b08e1",
      "blockNumber": "0x13bcc2a",
      "gasUsed": "0xe037e",
      "effectiveGasPrice": "0x52987126",
      "from": "0x25e426b153e74ab36b2685c3a464272de60888ae",
      "to": null,
      "contractAddress": "0x9fa5f5716a01f3754bfabefd507ab77782ac9f08"
    },
    {
      "status": "0x1",
      "cumulativeGasUsed": "0xf17e51",
      "logs": [],
      "logsBloom": "0x00000000000000000000000000000000000000000000000000000000000000000000000000000000000000000000000000000000000000000000000000000000000000000000000000000000000000000000000000000000000000000000000000000000000000000000000000000000000000000000000000000000000000000000000000000000000000000000000000000000000000000000000000000000000000000000000000000000000000000000000000000000000000000000000000000000000000000000000000000000000000000000000000000000000000000000000000000000000000000000000000000000000000000000000000000000",
      "type": "0x2",
      "transactionHash": "0x55b70b0a5778814ea54ce31113d097a5bea459e762af6dee4b94eeaf10c52aeb",
      "transactionIndex": "0x6a",
      "blockHash": "0x8c8e8f51221af2f48d9e1893b3bb7fe1eb7ac4c1c50851cb039d7efa334b8804",
      "blockNumber": "0x13bcc2b",
      "gasUsed": "0x5ce51",
      "effectiveGasPrice": "0x545dcefa",
      "from": "0x25e426b153e74ab36b2685c3a464272de60888ae",
      "to": null,
      "contractAddress": "0x60570fc1e2c4637dd91dc0f08a205bb42e153fdf"
    },
    {
      "status": "0x1",
      "cumulativeGasUsed": "0x9f0116",
      "logs": [
        {
          "address": "0x5774abcf415f34592514698eb075051e97db2937",
          "topics": [
            "0x8be0079c531659141344cd1fd0a4f28419497f9722a3daafe3b4186f6b6457e0",
            "0x0000000000000000000000000000000000000000000000000000000000000000",
            "0x00000000000000000000000025e426b153e74ab36b2685c3a464272de60888ae"
          ],
          "data": "0x",
          "blockHash": "0xa3739b87cd2fd7ea8c0e3cd541c92c86a3bcf496da65d457175877979a957a4f",
          "blockNumber": "0x13bcc2c",
          "transactionHash": "0xbffea5678df7739ab78f4d3a6886539ddd1833e264376b0413a62afd2f49f39a",
          "transactionIndex": "0x32",
          "logIndex": "0x14e",
          "removed": false
        }
      ],
      "logsBloom": "0x00000000000000000000000000000000000000000000000000800001000000400000000000000000000000000000000000000000000008000000000000000000000000000000000000000000000000000001000000000000000000000000000000000000020000000000000000000800000000000000000000000000000000400000000000000800000000000000000000000000000000000000000000000000000000000000000000000000000000000000000000000000000000000000000000000000000000002000000000000000000000000000000000000800000020000000000000000000000000000000000000000000000000000000000000000000",
      "type": "0x2",
      "transactionHash": "0xbffea5678df7739ab78f4d3a6886539ddd1833e264376b0413a62afd2f49f39a",
      "transactionIndex": "0x32",
      "blockHash": "0xa3739b87cd2fd7ea8c0e3cd541c92c86a3bcf496da65d457175877979a957a4f",
      "blockNumber": "0x13bcc2c",
      "gasUsed": "0x1091b7",
      "effectiveGasPrice": "0x56ce57a3",
      "from": "0x25e426b153e74ab36b2685c3a464272de60888ae",
      "to": null,
      "contractAddress": "0x5774abcf415f34592514698eb075051e97db2937"
    },
    {
      "status": "0x1",
      "cumulativeGasUsed": "0x94c1dc",
      "logs": [
        {
          "address": "0x28c3498b4956f4ad8d4549aca8f66260975d361a",
          "topics": [
            "0xbd2ecf3a575dfdb98cf6475d8c68efb6cdcce886ac9db5f29a9fdc1b17cc3c88",
            "0x0000000000000000000000000000000000000000000000000000000000000000",
            "0x610b592500000000000000000000000000000000000000000000000000000000"
          ],
          "data": "0x",
          "blockHash": "0x6c6afa06965ec3902f3bd62e62e418ddaf7b1f06096c456643e9beef3d6e36a7",
          "blockNumber": "0x13bcc2d",
          "transactionHash": "0x6c39e579839eaebcedd4faa20985e204ffcef8ddf19f42cbdbdb83cb73480797",
          "transactionIndex": "0x6b",
          "logIndex": "0x103",
          "removed": false
        }
      ],
      "logsBloom": "0x00000000000000000000000000000000080000000040000200000000000000000000000000000000000000000000000000000000000000000002000000000000000000000000000000000000000000000000000000040000000000000000000000000000020000000000000000000800008000000000000000000000000000000000000000000000000000000000000000000000000000000000000000000000000000000000000000000000000000000000000000000000000000000000000000000000000000000008000000000000000000000000000000000000000020000002000000000000000000000000000000000000000000000100000000000000",
      "type": "0x2",
      "transactionHash": "0x6c39e579839eaebcedd4faa20985e204ffcef8ddf19f42cbdbdb83cb73480797",
      "transactionIndex": "0x6b",
      "blockHash": "0x6c6afa06965ec3902f3bd62e62e418ddaf7b1f06096c456643e9beef3d6e36a7",
      "blockNumber": "0x13bcc2d",
      "gasUsed": "0xba94",
      "effectiveGasPrice": "0x58623297",
      "from": "0x25e426b153e74ab36b2685c3a464272de60888ae",
      "to": "0x28c3498b4956f4ad8d4549aca8f66260975d361a",
      "contractAddress": null
    },
    {
      "status": "0x1",
      "cumulativeGasUsed": "0xc7075b",
      "logs": [
        {
          "address": "0x28c3498b4956f4ad8d4549aca8f66260975d361a",
          "topics": [
            "0xbd2ecf3a575dfdb98cf6475d8c68efb6cdcce886ac9db5f29a9fdc1b17cc3c88",
            "0x0000000000000000000000000000000000000000000000000000000000000000",
            "0xe009cfde00000000000000000000000000000000000000000000000000000000"
          ],
          "data": "0x",
          "blockHash": "0x77679f9bd098ff5bc8e430aac10d200e63435fa51ede12b52f23a3dfa18ce7cc",
          "blockNumber": "0x13bcc2e",
          "transactionHash": "0x72ffcf5e68471560c2bf4255a60def6d9cf89e3a4567b9e044809a7d903a0f0f",
          "transactionIndex": "0x73",
          "logIndex": "0x15a",
          "removed": false
        }
      ],
      "logsBloom": "0x00000000000000000000000000000000080000000040000200000000000000000000000000000000000000000000000000000000000000000000000000000000000000004000000000000000000000000000000000000000000000000000000000000004020000000000000000000800000000000000000000000000000000000000000000000000000000000000000000000000000000000000000000000000000000000000000000000000000000000000000000000000000000000000000000000000200000000008000000000000000000000000000000000000000020000002000000000000000000000000000000000000000000000100000000000000",
      "type": "0x2",
      "transactionHash": "0x72ffcf5e68471560c2bf4255a60def6d9cf89e3a4567b9e044809a7d903a0f0f",
      "transactionIndex": "0x73",
      "blockHash": "0x77679f9bd098ff5bc8e430aac10d200e63435fa51ede12b52f23a3dfa18ce7cc",
      "blockNumber": "0x13bcc2e",
      "gasUsed": "0xba94",
      "effectiveGasPrice": "0x5500efd3",
      "from": "0x25e426b153e74ab36b2685c3a464272de60888ae",
      "to": "0x28c3498b4956f4ad8d4549aca8f66260975d361a",
      "contractAddress": null
    },
    {
      "status": "0x1",
      "cumulativeGasUsed": "0x395e0f",
      "logs": [
        {
          "address": "0x9000fef2846a5253fd2c6ed5241de0fddb404302",
          "topics": [
            "0x70785a9b51e0166fb561479b514223d6b27cc81df3c02b16292211b860842f73",
            "0x000000000000000000000000e47f9dbbfe98d6930562017ee212c1a1ae45ba61",
            "0x17b4560a00000000000000000000000000000000000000000000000000000000"
          ],
          "data": "0x0000000000000000000000000000000000000000000000000000000000000001",
          "blockHash": "0x2494b98417397144eb6c499867cf7ad1ed938d56c6bdf99dde62766db1d37a8b",
          "blockNumber": "0x13bcc2f",
          "transactionHash": "0x6365d08ee79b59a66f5f39234a4369a1a68ccb1b396d21bdb969ccc0b9b90754",
          "transactionIndex": "0x31",
          "logIndex": "0x77",
          "removed": false
        }
      ],
      "logsBloom": "0x00000004000000000000000000000000000000000000000000000800000000000000010000000000000000000000000000000000000000000000000000000000000000000000000000000000000000000000000000000000000000800000000080000000000000000000000000000000000000000000000000000000000000000800000000000000000000000000000000000000000000001000000040000000000080000000000000000000000000000000000000000000000000000000000000000000000000000000001000000000000000000000000400010000000000000000000000000000000000000000000000000000000000000000000000000000",
      "type": "0x2",
      "transactionHash": "0x6365d08ee79b59a66f5f39234a4369a1a68ccb1b396d21bdb969ccc0b9b90754",
      "transactionIndex": "0x31",
      "blockHash": "0x2494b98417397144eb6c499867cf7ad1ed938d56c6bdf99dde62766db1d37a8b",
      "blockNumber": "0x13bcc2f",
      "gasUsed": "0xbf5f",
      "effectiveGasPrice": "0x53f05845",
      "from": "0x25e426b153e74ab36b2685c3a464272de60888ae",
      "to": "0x9000fef2846a5253fd2c6ed5241de0fddb404302",
      "contractAddress": null
    },
    {
      "status": "0x1",
      "cumulativeGasUsed": "0x101c09e",
      "logs": [
        {
          "address": "0x9000fef2846a5253fd2c6ed5241de0fddb404302",
          "topics": [
            "0x70785a9b51e0166fb561479b514223d6b27cc81df3c02b16292211b860842f73",
            "0x0000000000000000000000004095f064b8d3c3548a3bebfd0bbfd04750e30077",
            "0xac9650d800000000000000000000000000000000000000000000000000000000"
          ],
          "data": "0x0000000000000000000000000000000000000000000000000000000000000001",
          "blockHash": "0xd9aa587041c248e4fd8100578fbd0b964ba6c817fc6505e299f81476dc2700ec",
          "blockNumber": "0x13bcc30",
          "transactionHash": "0x189675916f4c9ab5b69219f888618b636324b031f4f60976730352e4b803a830",
          "transactionIndex": "0x9e",
          "logIndex": "0x234",
          "removed": false
        }
      ],
      "logsBloom": "0x00000004000000000000000000000000000000000000000002000800000000000000010000000000000000000000000000020000000000000800000000000000000000000000000000000000000000000000000000000000000000000000000080000000000000200000000000000000000000200000000000000000000000000800000000000000000000000000000000000000000000000000000040000000000000000000000000000000000000000000000000000000000000000000000000000004000000000000000000000000000000000000000000000000000000000000000000000000000000000000000000000000000000000000000000000000",
      "type": "0x2",
      "transactionHash": "0x189675916f4c9ab5b69219f888618b636324b031f4f60976730352e4b803a830",
      "transactionIndex": "0x9e",
      "blockHash": "0xd9aa587041c248e4fd8100578fbd0b964ba6c817fc6505e299f81476dc2700ec",
      "blockNumber": "0x13bcc30",
      "gasUsed": "0xbf53",
      "effectiveGasPrice": "0x4f103b88",
      "from": "0x25e426b153e74ab36b2685c3a464272de60888ae",
      "to": "0x9000fef2846a5253fd2c6ed5241de0fddb404302",
      "contractAddress": null
    },
    {
      "status": "0x1",
      "cumulativeGasUsed": "0x4b8f06",
      "logs": [
        {
          "address": "0x9000fef2846a5253fd2c6ed5241de0fddb404302",
          "topics": [
            "0x70785a9b51e0166fb561479b514223d6b27cc81df3c02b16292211b860842f73",
            "0x000000000000000000000000f047ab4c75cebf0eb9ed34ae2c186f3611aeafa6",
            "0xb3db428b00000000000000000000000000000000000000000000000000000000"
          ],
          "data": "0x0000000000000000000000000000000000000000000000000000000000000001",
          "blockHash": "0x6feda3d8c7af8aef03f34d787a136eab306b62da4fff0521562463d574a128fb",
          "blockNumber": "0x13bcc31",
          "transactionHash": "0x0bb34604890c9c7fcf4be18a22ff300d5d572d7ad6c04d13f4c5cc4684d83aed",
          "transactionIndex": "0x48",
          "logIndex": "0x77",
          "removed": false
        }
      ],
      "logsBloom": "0x00000004000040000000000000000000000080000000000000000800000000000000010000000000000000000000000000000000000000000000000000000200000000000000000000000010000000000000000000000000000000000000000080000000000000000000000000000000200000000000000000000000000000000800000000000080000000000000000000000000000000000000000040000000000000000000000000000000000000000000000000000000000000000000000000000000000000000000000000000000000000000000000000000000000000000000000000000000000000000000000000000000000000000000000000000000",
      "type": "0x2",
      "transactionHash": "0x0bb34604890c9c7fcf4be18a22ff300d5d572d7ad6c04d13f4c5cc4684d83aed",
      "transactionIndex": "0x48",
      "blockHash": "0x6feda3d8c7af8aef03f34d787a136eab306b62da4fff0521562463d574a128fb",
      "blockNumber": "0x13bcc31",
      "gasUsed": "0xbf5f",
      "effectiveGasPrice": "0x50d30749",
      "from": "0x25e426b153e74ab36b2685c3a464272de60888ae",
      "to": "0x9000fef2846a5253fd2c6ed5241de0fddb404302",
      "contractAddress": null
    },
    {
      "status": "0x1",
      "cumulativeGasUsed": "0x174032c",
      "logs": [
        {
          "address": "0x9000fef2846a5253fd2c6ed5241de0fddb404302",
          "topics": [
            "0x70785a9b51e0166fb561479b514223d6b27cc81df3c02b16292211b860842f73",
            "0x000000000000000000000000f047ab4c75cebf0eb9ed34ae2c186f3611aeafa6",
            "0xf3fef3a300000000000000000000000000000000000000000000000000000000"
          ],
          "data": "0x0000000000000000000000000000000000000000000000000000000000000001",
          "blockHash": "0x717a3cf2284655a889afbb8e2a8e9cd7059bc1f06b969ed11b31e114a5db8f07",
          "blockNumber": "0x13bcc32",
          "transactionHash": "0x29c1f8bd4cd98f1d8f6be32bb038bb105995520f0b9cb7630e80e122ae539ec0",
          "transactionIndex": "0xcd",
          "logIndex": "0x2b5",
          "removed": false
        }
      ],
      "logsBloom": "0x00000004000000000000000000000000000080000000008000000800000000000000010000000000000000000000000000000000000000000000000000000200000000000000000000000010000000000000000000000000000000000000000080000000000000000000000000000000000000000000000000000000000000000800000000000000000000000000000000000000100000000000000040000000000000000000000000000000008000000000000000000000000000000000000000000000000000000000000000000000000000000000000000000000000000000000000000000000000000000000000000000000000000000000000000000000",
      "type": "0x2",
      "transactionHash": "0x29c1f8bd4cd98f1d8f6be32bb038bb105995520f0b9cb7630e80e122ae539ec0",
      "transactionIndex": "0xcd",
      "blockHash": "0x717a3cf2284655a889afbb8e2a8e9cd7059bc1f06b969ed11b31e114a5db8f07",
      "blockNumber": "0x13bcc32",
      "gasUsed": "0xbf5f",
      "effectiveGasPrice": "0x4b1994c8",
      "from": "0x25e426b153e74ab36b2685c3a464272de60888ae",
      "to": "0x9000fef2846a5253fd2c6ed5241de0fddb404302",
      "contractAddress": null
    },
    {
      "status": "0x1",
      "cumulativeGasUsed": "0xdb3856",
      "logs": [
        {
          "address": "0x9000fef2846a5253fd2c6ed5241de0fddb404302",
          "topics": [
            "0x70785a9b51e0166fb561479b514223d6b27cc81df3c02b16292211b860842f73",
            "0x000000000000000000000000c329400492c6ff2438472d4651ad17389fcb843a",
            "0x47e7ef2400000000000000000000000000000000000000000000000000000000"
          ],
          "data": "0x0000000000000000000000000000000000000000000000000000000000000001",
          "blockHash": "0x09c25c99527f17152738ed4292527b9adead259e42c36459533111792278fa56",
          "blockNumber": "0x13bcc33",
          "transactionHash": "0xaa99b84ed5ab66d0bcb373c88af3c1453b007bc460d1b595706e30f2c0e8d4fc",
          "transactionIndex": "0x98",
          "logIndex": "0x1c8",
          "removed": false
        }
      ],
      "logsBloom": "0x00000004000000000000000000100000000000000000000000000800000000000000010000000000000000000000000000000000000000000000000000000000000000000000000000800000000000000000000000000001000000000000000080000000000000000000000000000000000000000000000000000000000000000800000000000040000000000000000000020000000000000000000040000000000000000000000000000000000000000000000000000000000000000000000000000000000000000000000000000000000000020000000000000000000000000000000000000000000000000000000000000000000000000000000000000000",
      "type": "0x2",
      "transactionHash": "0xaa99b84ed5ab66d0bcb373c88af3c1453b007bc460d1b595706e30f2c0e8d4fc",
      "transactionIndex": "0x98",
      "blockHash": "0x09c25c99527f17152738ed4292527b9adead259e42c36459533111792278fa56",
      "blockNumber": "0x13bcc33",
      "gasUsed": "0xbf5f",
      "effectiveGasPrice": "0x5103fff0",
      "from": "0x25e426b153e74ab36b2685c3a464272de60888ae",
      "to": "0x9000fef2846a5253fd2c6ed5241de0fddb404302",
      "contractAddress": null
    },
    {
      "status": "0x1",
      "cumulativeGasUsed": "0x4307c6",
      "logs": [
        {
          "address": "0x9000fef2846a5253fd2c6ed5241de0fddb404302",
          "topics": [
            "0x70785a9b51e0166fb561479b514223d6b27cc81df3c02b16292211b860842f73",
            "0x000000000000000000000000c329400492c6ff2438472d4651ad17389fcb843a",
            "0xf3fef3a300000000000000000000000000000000000000000000000000000000"
          ],
          "data": "0x0000000000000000000000000000000000000000000000000000000000000001",
          "blockHash": "0x8a58d21fae09fed90f74022e6e6a56e201d941087c2029311b9a276171a7c849",
          "blockNumber": "0x13bcc34",
          "transactionHash": "0x42d15afd5211581cfb83eade1d7e4f67509d485aa9652f07f6dbcff9085b5d25",
          "transactionIndex": "0x59",
          "logIndex": "0x88",
          "removed": false
        }
      ],
      "logsBloom": "0x00000004000000000000000000100000000000000000008000000800000000000000010000000000000000000000000000000000000000000000000000000000000000000000000000800000000000000000000000000000000000000000000080000000000000000000000000000000000000000000000000000000000000000800000000000040000000000000000000000000100000000000000040000000000000000000000000000000008000000000000000000000000000000000000000000000000000000000000000000000000000000000000000000000000000000000000000000000000000000000000000000000000000000000000000000000",
      "type": "0x2",
      "transactionHash": "0x42d15afd5211581cfb83eade1d7e4f67509d485aa9652f07f6dbcff9085b5d25",
      "transactionIndex": "0x59",
      "blockHash": "0x8a58d21fae09fed90f74022e6e6a56e201d941087c2029311b9a276171a7c849",
      "blockNumber": "0x13bcc34",
      "gasUsed": "0xbf5f",
      "effectiveGasPrice": "0x5229ac7d",
      "from": "0x25e426b153e74ab36b2685c3a464272de60888ae",
      "to": "0x9000fef2846a5253fd2c6ed5241de0fddb404302",
      "contractAddress": null
    },
    {
      "status": "0x1",
      "cumulativeGasUsed": "0xaa90cb",
      "logs": [
        {
          "address": "0x9000fef2846a5253fd2c6ed5241de0fddb404302",
          "topics": [
            "0x70785a9b51e0166fb561479b514223d6b27cc81df3c02b16292211b860842f73",
            "0x00000000000000000000000019d0d8e6294b7a04a2733fe433444704b791939a",
            "0x47e7ef2400000000000000000000000000000000000000000000000000000000"
          ],
          "data": "0x0000000000000000000000000000000000000000000000000000000000000001",
          "blockHash": "0x2c605850b0c329c020f2a1fd8fe1a592c64b218dd6ef9fddd09a3ed88283b181",
          "blockNumber": "0x13bcc35",
          "transactionHash": "0x0dd692f8d2342027cb252ee0fc5a70deb4c2b76989a1babfb53776155a4725c9",
          "transactionIndex": "0x5c",
          "logIndex": "0x179",
          "removed": false
        }
      ],
      "logsBloom": "0x00000004000000000000000000000000000000000000000000000800000000000000010000000000000000000000000000000000000000000000020000000000000000000000000000000000000000000000000000000001000000000000000080000000000000000000000000000000000000000000000000000000000000000800000000000000000000000000000008020000000000000000000040000000000000000000000000000000000000000000000000000000000000000000000000000000001000000000000000000000000000020000000000000000000000000000000000000000000000000000000000000000000000000000000000000000",
      "type": "0x2",
      "transactionHash": "0x0dd692f8d2342027cb252ee0fc5a70deb4c2b76989a1babfb53776155a4725c9",
      "transactionIndex": "0x5c",
      "blockHash": "0x2c605850b0c329c020f2a1fd8fe1a592c64b218dd6ef9fddd09a3ed88283b181",
      "blockNumber": "0x13bcc35",
      "gasUsed": "0xbf5f",
      "effectiveGasPrice": "0x51ccc350",
      "from": "0x25e426b153e74ab36b2685c3a464272de60888ae",
      "to": "0x9000fef2846a5253fd2c6ed5241de0fddb404302",
      "contractAddress": null
    },
    {
      "status": "0x1",
      "cumulativeGasUsed": "0xd536a2",
      "logs": [
        {
          "address": "0x9000fef2846a5253fd2c6ed5241de0fddb404302",
          "topics": [
            "0x70785a9b51e0166fb561479b514223d6b27cc81df3c02b16292211b860842f73",
            "0x00000000000000000000000019d0d8e6294b7a04a2733fe433444704b791939a",
            "0xf3fef3a300000000000000000000000000000000000000000000000000000000"
          ],
          "data": "0x0000000000000000000000000000000000000000000000000000000000000001",
          "blockHash": "0x1ccfeabdb0df364851b9282747114f4805eb826e7d47f616149f0bba40eb74c6",
          "blockNumber": "0x13bcc36",
          "transactionHash": "0x26f44b8a009036d419c45572ebac03dca8e2676ee36a5e5531b87c3a7174b1d7",
          "transactionIndex": "0x8b",
          "logIndex": "0x1ca",
          "removed": false
        }
      ],
      "logsBloom": "0x00000004000000000000000000000000000000000000008000000800000000000000010000000000000000000000000000000000000000000000020000000000000000000000000000000000000000000000000000000000000000000000000080000000000000000000000000000000000000000000000000000000000000000800000000000000000000000000000008000000100000000000000040000000000000000000000000000000008000000000000000000000000000000000000000000000001000000000000000000000000000000000000000000000000000000000000000000000000000000000000000000000000000000000000000000000",
      "type": "0x2",
      "transactionHash": "0x26f44b8a009036d419c45572ebac03dca8e2676ee36a5e5531b87c3a7174b1d7",
      "transactionIndex": "0x8b",
      "blockHash": "0x1ccfeabdb0df364851b9282747114f4805eb826e7d47f616149f0bba40eb74c6",
      "blockNumber": "0x13bcc36",
      "gasUsed": "0xbf5f",
      "effectiveGasPrice": "0x5317270d",
      "from": "0x25e426b153e74ab36b2685c3a464272de60888ae",
      "to": "0x9000fef2846a5253fd2c6ed5241de0fddb404302",
      "contractAddress": null
    },
    {
      "status": "0x1",
      "cumulativeGasUsed": "0x178e25b",
      "logs": [
        {
          "address": "0x9000fef2846a5253fd2c6ed5241de0fddb404302",
          "topics": [
            "0x70785a9b51e0166fb561479b514223d6b27cc81df3c02b16292211b860842f73",
            "0x00000000000000000000000054e44dbb92dba848ace27f44c0cb4268981ef1cc",
            "0x0efe6a8b00000000000000000000000000000000000000000000000000000000"
          ],
          "data": "0x0000000000000000000000000000000000000000000000000000000000000001",
          "blockHash": "0x0d92bee2fbd328ff009386296f6a014e9d154c7a87433bd71cf93bdef08f2320",
          "blockNumber": "0x13bcc38",
          "transactionHash": "0x35007ca7d11294b3cab05880baf68bad16a8f9f67e9c82d85d5c57f15a91b6c1",
          "transactionIndex": "0xe5",
          "logIndex": "0x2c7",
          "removed": false
        }
      ],
      "logsBloom": "0x00000004000000000000000000000000000000000000000000000800000000000000010000000000000000000000000000000000100000000000000000000000000000000000000000000000000000000000000000000000000000000000000080000004000000000000000000000000000000000000000000000000000000000800000000000000000000000000000000000000000000000000000040000000000000000000000400000000000000000000000000000000000000000000000000000000000000100100000000000000000000000000000000000000000000000000000000000000000001000000000000000000000000000000000000000000",
      "type": "0x2",
      "transactionHash": "0x35007ca7d11294b3cab05880baf68bad16a8f9f67e9c82d85d5c57f15a91b6c1",
      "transactionIndex": "0xe5",
      "blockHash": "0x0d92bee2fbd328ff009386296f6a014e9d154c7a87433bd71cf93bdef08f2320",
      "blockNumber": "0x13bcc38",
      "gasUsed": "0xbf5f",
      "effectiveGasPrice": "0x4d85a60c",
      "from": "0x25e426b153e74ab36b2685c3a464272de60888ae",
      "to": "0x9000fef2846a5253fd2c6ed5241de0fddb404302",
      "contractAddress": null
    },
    {
      "status": "0x1",
      "cumulativeGasUsed": "0x6cf884",
      "logs": [
        {
          "address": "0x9000fef2846a5253fd2c6ed5241de0fddb404302",
          "topics": [
            "0x70785a9b51e0166fb561479b514223d6b27cc81df3c02b16292211b860842f73",
            "0x00000000000000000000000054e44dbb92dba848ace27f44c0cb4268981ef1cc",
            "0x7fb2a0a100000000000000000000000000000000000000000000000000000000"
          ],
          "data": "0x0000000000000000000000000000000000000000000000000000000000000001",
          "blockHash": "0xf8dab23dfd2f8ce2b0396bbb26cc260985479228dea38ed44eabd3b8c23e0f6f",
          "blockNumber": "0x13bcc39",
          "transactionHash": "0x64a16d642218efda5888a41f8b43661cfa7550dfd83edcefe864727d7d60b77e",
          "transactionIndex": "0x45",
          "logIndex": "0x58",
          "removed": false
        }
      ],
      "logsBloom": "0x00000004000000000000000000000000000000000000000000000800000000000000010000000000000000000000000000000000000000000000000000000000000000000000000000000000000000000000000000000000000000000000000080000004000000000000000000000000000000000000000000000000001000000800000000000000000000000000000000000000000000000000000040000000000000000000000000000000000000000000000400000000000000000000000000000000000000100000000000000000000000000000000000000000000000000000000000000000000001000000000000000000000800000000000000000000",
      "type": "0x2",
      "transactionHash": "0x64a16d642218efda5888a41f8b43661cfa7550dfd83edcefe864727d7d60b77e",
      "transactionIndex": "0x45",
      "blockHash": "0xf8dab23dfd2f8ce2b0396bbb26cc260985479228dea38ed44eabd3b8c23e0f6f",
      "blockNumber": "0x13bcc39",
      "gasUsed": "0xbf5f",
      "effectiveGasPrice": "0x54b52383",
      "from": "0x25e426b153e74ab36b2685c3a464272de60888ae",
      "to": "0x9000fef2846a5253fd2c6ed5241de0fddb404302",
      "contractAddress": null
    },
    {
      "status": "0x1",
      "cumulativeGasUsed": "0x138c5d0",
      "logs": [
        {
          "address": "0x9000fef2846a5253fd2c6ed5241de0fddb404302",
          "topics": [
            "0x70785a9b51e0166fb561479b514223d6b27cc81df3c02b16292211b860842f73",
            "0x00000000000000000000000054e44dbb92dba848ace27f44c0cb4268981ef1cc",
            "0x8b19802500000000000000000000000000000000000000000000000000000000"
          ],
          "data": "0x0000000000000000000000000000000000000000000000000000000000000001",
          "blockHash": "0x20cf3d07560ef92a6302dc0a7bae2dda0520d2560a940fd20803f81eea974f7e",
          "blockNumber": "0x13bcc3a",
          "transactionHash": "0x902f73b353713289c9ded2dcb54fae2e49c92fd1a641abc2e2c7e57ba2def883",
          "transactionIndex": "0x9a",
          "logIndex": "0x2e0",
          "removed": false
        }
      ],
      "logsBloom": "0x00000004000000000080000000000000000000000000000000000800000000000000010000000000000000000000000000000000000000000000000000000000000000000000000000000000000000000000000000000000000000000000000080000004000000000000000100000000000000000000000000000000000000000800000000000000000000000000000000000000000000000000000040000000000000000000000000000000000000000000000000000000000000000000000000000000000000100000000000000000000000000000000000000000000000000000000000000000000001000000400000000000000000000000000000000000",
      "type": "0x2",
      "transactionHash": "0x902f73b353713289c9ded2dcb54fae2e49c92fd1a641abc2e2c7e57ba2def883",
      "transactionIndex": "0x9a",
      "blockHash": "0x20cf3d07560ef92a6302dc0a7bae2dda0520d2560a940fd20803f81eea974f7e",
      "blockNumber": "0x13bcc3a",
      "gasUsed": "0xbf5f",
      "effectiveGasPrice": "0x505bfaa1",
      "from": "0x25e426b153e74ab36b2685c3a464272de60888ae",
      "to": "0x9000fef2846a5253fd2c6ed5241de0fddb404302",
      "contractAddress": null
    },
    {
      "status": "0x1",
      "cumulativeGasUsed": "0x952b6b",
      "logs": [
        {
          "address": "0x9000fef2846a5253fd2c6ed5241de0fddb404302",
          "topics": [
            "0x70785a9b51e0166fb561479b514223d6b27cc81df3c02b16292211b860842f73",
            "0x00000000000000000000000054e44dbb92dba848ace27f44c0cb4268981ef1cc",
            "0x17070f0200000000000000000000000000000000000000000000000000000000"
          ],
          "data": "0x0000000000000000000000000000000000000000000000000000000000000001",
          "blockHash": "0x71a3f326413d09fbd024965774546d8bff52a1f457781d0eefd2f309abc0aea3",
          "blockNumber": "0x13bcc3b",
          "transactionHash": "0xabeaa61376c63ad7054e3feb605bcd6da2661097d84bf004e52069ebd9f79c6d",
          "transactionIndex": "0x63",
          "logIndex": "0x13f",
          "removed": false
        }
      ],
      "logsBloom": "0x00000004000000000000000000000000000000000000000000000800000000000000010000000000000000000000000000000000000000000000000000000000000000000000000000000000000000000000000000000000000000000000000080000004000000000000000000000000000000000000000000000000000000000800000000000000000000000000000000000000000000000000000040004000000000000000000000000000000000000000000004000000000000000000000000000000000000100000000000000000000000000000000000000000000000000002000000000000000001000000000000000000000000000000000000000000",
      "type": "0x2",
      "transactionHash": "0xabeaa61376c63ad7054e3feb605bcd6da2661097d84bf004e52069ebd9f79c6d",
      "transactionIndex": "0x63",
      "blockHash": "0x71a3f326413d09fbd024965774546d8bff52a1f457781d0eefd2f309abc0aea3",
      "blockNumber": "0x13bcc3b",
      "gasUsed": "0xbf5f",
      "effectiveGasPrice": "0x59b2c5ee",
      "from": "0x25e426b153e74ab36b2685c3a464272de60888ae",
      "to": "0x9000fef2846a5253fd2c6ed5241de0fddb404302",
      "contractAddress": null
    },
    {
      "status": "0x1",
      "cumulativeGasUsed": "0x146f8a7",
      "logs": [
        {
          "address": "0x9000fef2846a5253fd2c6ed5241de0fddb404302",
          "topics": [
            "0x70785a9b51e0166fb561479b514223d6b27cc81df3c02b16292211b860842f73",
            "0x000000000000000000000000afa904152e04abff56701223118be2832a4449e0",
            "0x92dca40700000000000000000000000000000000000000000000000000000000"
          ],
          "data": "0x0000000000000000000000000000000000000000000000000000000000000001",
          "blockHash": "0xaf4a2266a813bcea700b675ff9e5d2ef491565f9db4127cec40d2b0d5c446445",
          "blockNumber": "0x13bcc3c",
          "transactionHash": "0xb03615cdc17781b2d6c8dde2590994e78f35cb57ffece69fec04ac7f3194b4ad",
          "transactionIndex": "0x73",
          "logIndex": "0x3ac",
          "removed": false
        }
      ],
      "logsBloom": "0x00000004000000000000000000000000000000000000000000000800000000000000014000001000000000000000000000000000000000000000000000000000000000000000000000000000000000000000020000000000000000000000000080000000000000000000000000000000000000000000000000000000000000000800000000000000000000000000000000000000000000000000000040000000000000000000000000000000000000000000000000000000000000000000000000000000020000000000000000000000000000000000000000000000000000000000000000000000000000000000000000000040000000000000000000000080",
      "type": "0x2",
      "transactionHash": "0xb03615cdc17781b2d6c8dde2590994e78f35cb57ffece69fec04ac7f3194b4ad",
      "transactionIndex": "0x73",
      "blockHash": "0xaf4a2266a813bcea700b675ff9e5d2ef491565f9db4127cec40d2b0d5c446445",
      "blockNumber": "0x13bcc3c",
      "gasUsed": "0xbf5f",
      "effectiveGasPrice": "0x56980e82",
      "from": "0x25e426b153e74ab36b2685c3a464272de60888ae",
      "to": "0x9000fef2846a5253fd2c6ed5241de0fddb404302",
      "contractAddress": null
    },
    {
      "status": "0x1",
      "cumulativeGasUsed": "0x906be4",
      "logs": [
        {
          "address": "0x9000fef2846a5253fd2c6ed5241de0fddb404302",
          "topics": [
            "0x70785a9b51e0166fb561479b514223d6b27cc81df3c02b16292211b860842f73",
            "0x000000000000000000000000afa904152e04abff56701223118be2832a4449e0",
            "0x86e9a1f700000000000000000000000000000000000000000000000000000000"
          ],
          "data": "0x0000000000000000000000000000000000000000000000000000000000000001",
          "blockHash": "0xe130ba4312738d1d0a51da3eafbec0df34b6a3519b101e20c1e07eb7630655d6",
          "blockNumber": "0x13bcc3d",
          "transactionHash": "0x9085a2bd38a21293cd93fc3a6f0c9320e38878098422400a61c995aae5fc5879",
          "transactionIndex": "0x6f",
          "logIndex": "0x12a",
          "removed": false
        }
      ],
      "logsBloom": "0x00000004000000000000000000000000000000000000000000000800000000000000010000001000000000000000000000000000000000000000000000000000000000000000000000000000000000000000000000000000000000000000000080000000000000000000000000000000000000000000000000000000000000000800000000000000000000000000000000000000000000000000000040000000000000000000000000000000000000000000000000000000000000000000000000000000020000020000000000000000000000000000000000000000000000000000000000000000000000000200000000000040100000000000000000000000",
      "type": "0x2",
      "transactionHash": "0x9085a2bd38a21293cd93fc3a6f0c9320e38878098422400a61c995aae5fc5879",
      "transactionIndex": "0x6f",
      "blockHash": "0xe130ba4312738d1d0a51da3eafbec0df34b6a3519b101e20c1e07eb7630655d6",
      "blockNumber": "0x13bcc3d",
      "gasUsed": "0xbf5f",
      "effectiveGasPrice": "0x5cdabeb9",
      "from": "0x25e426b153e74ab36b2685c3a464272de60888ae",
      "to": "0x9000fef2846a5253fd2c6ed5241de0fddb404302",
      "contractAddress": null
    },
    {
      "status": "0x1",
      "cumulativeGasUsed": "0xb47729",
      "logs": [
        {
          "address": "0x9000fef2846a5253fd2c6ed5241de0fddb404302",
          "topics": [
            "0x70785a9b51e0166fb561479b514223d6b27cc81df3c02b16292211b860842f73",
            "0x00000000000000000000000082f5104b23ff2fa54c2345f821dac9369e9e0b26",
            "0x5f097d4000000000000000000000000000000000000000000000000000000000"
          ],
          "data": "0x0000000000000000000000000000000000000000000000000000000000000001",
          "blockHash": "0xe33d8d150f08a65df871d803637090fcac36ebeb168f4d660a41b0157fbf9e89",
          "blockNumber": "0x13bcc3e",
          "transactionHash": "0x8f6b22b14479b9c5a4e32c51a536c3545554f7be8df5dd164acc1e406b8ca06a",
          "transactionIndex": "0x7e",
          "logIndex": "0x16e",
          "removed": false
        }
      ],
      "logsBloom": "0x00000004000000000000008000100000000000000000000000000800000000000000010000100000000000000000000000000000000000000000000000000000000000000000000000000000000000000000000000000000000000000000000080000000000000400000000000000000000000000000000000000000000000000800000000000000000000000000000000000000000000000000000040000000000000400000000000000000000000000000000100000000000000000000000000000000000000000000000000000000000000000000000000000000000000000000000000000000000000000000000000000000000000000000000000000000",
      "type": "0x2",
      "transactionHash": "0x8f6b22b14479b9c5a4e32c51a536c3545554f7be8df5dd164acc1e406b8ca06a",
      "transactionIndex": "0x7e",
      "blockHash": "0xe33d8d150f08a65df871d803637090fcac36ebeb168f4d660a41b0157fbf9e89",
      "blockNumber": "0x13bcc3e",
      "gasUsed": "0xbf5f",
      "effectiveGasPrice": "0x5a387b22",
      "from": "0x25e426b153e74ab36b2685c3a464272de60888ae",
      "to": "0x9000fef2846a5253fd2c6ed5241de0fddb404302",
      "contractAddress": null
    },
    {
      "status": "0x1",
      "cumulativeGasUsed": "0xed01e2",
      "logs": [
        {
          "address": "0x9000fef2846a5253fd2c6ed5241de0fddb404302",
          "topics": [
            "0x70785a9b51e0166fb561479b514223d6b27cc81df3c02b16292211b860842f73",
            "0x00000000000000000000000082f5104b23ff2fa54c2345f821dac9369e9e0b26",
            "0x2e3d46dc00000000000000000000000000000000000000000000000000000000"
          ],
          "data": "0x0000000000000000000000000000000000000000000000000000000000000001",
          "blockHash": "0xdaae4f7251c2e809c9bc10330a5ad64fa6a71e224d27616b034fe7517b4f6a3f",
          "blockNumber": "0x13bcc3f",
          "transactionHash": "0x29bb4edf406d5510714d84e98ba703ca4ece42d1eb184b62516da22cb92ae826",
          "transactionIndex": "0x79",
          "logIndex": "0x1c8",
          "removed": false
        }
      ],
      "logsBloom": "0x00000004000000000000000000000000000000000000000000000800000000000000010000100000000000000000000000000000000000000000000000000000000000000000000000000000000000000000008000000000000000004000000080000000000000000000000000000000000000000000000000000000000000000800000000000000000000000000000000000000000000000000000040000000000000400000000000000000000000000000000100000000000000000000000000000000000000010000000000000000000000000000000000000000000000000000000000000000000000000000000000000000000000000000000000000000",
      "type": "0x2",
      "transactionHash": "0x29bb4edf406d5510714d84e98ba703ca4ece42d1eb184b62516da22cb92ae826",
      "transactionIndex": "0x79",
      "blockHash": "0xdaae4f7251c2e809c9bc10330a5ad64fa6a71e224d27616b034fe7517b4f6a3f",
      "blockNumber": "0x13bcc3f",
      "gasUsed": "0xbf5f",
      "effectiveGasPrice": "0x5885094e",
      "from": "0x25e426b153e74ab36b2685c3a464272de60888ae",
      "to": "0x9000fef2846a5253fd2c6ed5241de0fddb404302",
      "contractAddress": null
    },
    {
      "status": "0x1",
      "cumulativeGasUsed": "0xa2e59c",
      "logs": [
        {
          "address": "0x9000fef2846a5253fd2c6ed5241de0fddb404302",
          "topics": [
            "0x70785a9b51e0166fb561479b514223d6b27cc81df3c02b16292211b860842f73",
            "0x000000000000000000000000e1b4d34e8754600962cd944b535180bd758e6c2e",
            "0x6e553f6500000000000000000000000000000000000000000000000000000000"
          ],
          "data": "0x0000000000000000000000000000000000000000000000000000000000000001",
          "blockHash": "0x081a5d485a56d0691f5ec93b35d8ff4dbaaf260d19ada1d38ed648beb3ac33e4",
          "blockNumber": "0x13bcc40",
          "transactionHash": "0x100fce442640978194ddbd5359a2a3b3cd6f95ca9e98679da1c7d01c67442b77",
          "transactionIndex": "0x6f",
          "logIndex": "0xea",
          "removed": false
        }
      ],
      "logsBloom": "0x00000004000000000000000000000000000000000000000000000800000000000000010000000000002000000000000000000000000000000000000000000000000000000000000000000000000000000000000000000000000000000000000080000000000000000000000000000000000000000000000000000000000000000800000000000000000000200000080000000000000000020000000040000000000000000000000000000000000000000080000000000000000000000000000000000000000000000000000000000000000000000000000000000000000000000000000000000000000000000000000000000000000000000002000000000000",
      "type": "0x2",
      "transactionHash": "0x100fce442640978194ddbd5359a2a3b3cd6f95ca9e98679da1c7d01c67442b77",
      "transactionIndex": "0x6f",
      "blockHash": "0x081a5d485a56d0691f5ec93b35d8ff4dbaaf260d19ada1d38ed648beb3ac33e4",
      "blockNumber": "0x13bcc40",
      "gasUsed": "0xbf5f",
      "effectiveGasPrice": "0x5a2e3e0a",
      "from": "0x25e426b153e74ab36b2685c3a464272de60888ae",
      "to": "0x9000fef2846a5253fd2c6ed5241de0fddb404302",
      "contractAddress": null
    },
    {
      "status": "0x1",
      "cumulativeGasUsed": "0x1ae90b5",
      "logs": [
        {
          "address": "0x9000fef2846a5253fd2c6ed5241de0fddb404302",
          "topics": [
            "0x70785a9b51e0166fb561479b514223d6b27cc81df3c02b16292211b860842f73",
            "0x000000000000000000000000e1b4d34e8754600962cd944b535180bd758e6c2e",
            "0x94bf804d00000000000000000000000000000000000000000000000000000000"
          ],
          "data": "0x0000000000000000000000000000000000000000000000000000000000000001",
          "blockHash": "0x4aca3b6d5e58516732931dbb9722485561fc965dbe160ad82cc34501ccf7dc88",
          "blockNumber": "0x13bcc42",
          "transactionHash": "0x5733f5650131f337780520f22d860dc0a35a3851390675eed0bbd2b4dfcf7624",
          "transactionIndex": "0xb0",
          "logIndex": "0x365",
          "removed": false
        }
      ],
      "logsBloom": "0x00000004000000000000000000000000000000000000000000000800000000000000010000000000002000000000000000000000000000000000000000000000000000000000000000000000000000000000000000000000000000000000002080000000000000000000000000000000000000000000000000000000000000000800000000000000000000000000080000000000000000000000000040000000000000000000000000000000000000000080000000000000000000000000000000000000000000000000000000400000000000000000000000000000000000000000000000000000000000000000000800000000000000000000000000000000",
      "type": "0x2",
      "transactionHash": "0x5733f5650131f337780520f22d860dc0a35a3851390675eed0bbd2b4dfcf7624",
      "transactionIndex": "0xb0",
      "blockHash": "0x4aca3b6d5e58516732931dbb9722485561fc965dbe160ad82cc34501ccf7dc88",
      "blockNumber": "0x13bcc42",
      "gasUsed": "0xbf5f",
      "effectiveGasPrice": "0x57f7a732",
      "from": "0x25e426b153e74ab36b2685c3a464272de60888ae",
      "to": "0x9000fef2846a5253fd2c6ed5241de0fddb404302",
      "contractAddress": null
    },
    {
      "status": "0x1",
      "cumulativeGasUsed": "0xe7d975",
      "logs": [
        {
          "address": "0x9000fef2846a5253fd2c6ed5241de0fddb404302",
          "topics": [
            "0x70785a9b51e0166fb561479b514223d6b27cc81df3c02b16292211b860842f73",
            "0x000000000000000000000000e1b4d34e8754600962cd944b535180bd758e6c2e",
            "0xb460af9400000000000000000000000000000000000000000000000000000000"
          ],
          "data": "0x0000000000000000000000000000000000000000000000000000000000000001",
          "blockHash": "0x9cacf24f8bedeabc8f25afd78b8cea32982cda6f53f1f24229aa60052b69b779",
          "blockNumber": "0x13bcc43",
          "transactionHash": "0x84ecec268de39b6933dec242f1556bfdf41a8f52477555538e7aef969c389d0e",
          "transactionIndex": "0xb7",
          "logIndex": "0x1ae",
          "removed": false
        }
      ],
      "logsBloom": "0x00000004000000000000000000000000000000000000000000000800000000000000010000000000002000000000000000000000000000000000000000000000000000000000000000000000000000000000000000000000000000000000000080000000000000000000000000000000000000000000000000000000000000002800000000000000000000000000080000000000000000000000000040000000000000000000000000000000000000000080000000000000000000000000000000000000000000000000000000000000000000000000004000010000000000000000000000000000000000000000000000000000000000000000000000000000",
      "type": "0x2",
      "transactionHash": "0x84ecec268de39b6933dec242f1556bfdf41a8f52477555538e7aef969c389d0e",
      "transactionIndex": "0xb7",
      "blockHash": "0x9cacf24f8bedeabc8f25afd78b8cea32982cda6f53f1f24229aa60052b69b779",
      "blockNumber": "0x13bcc43",
      "gasUsed": "0xbf5f",
      "effectiveGasPrice": "0x6242a21e",
      "from": "0x25e426b153e74ab36b2685c3a464272de60888ae",
      "to": "0x9000fef2846a5253fd2c6ed5241de0fddb404302",
      "contractAddress": null
    },
    {
      "status": "0x1",
      "cumulativeGasUsed": "0x96d29a",
      "logs": [
        {
          "address": "0x9000fef2846a5253fd2c6ed5241de0fddb404302",
          "topics": [
            "0x70785a9b51e0166fb561479b514223d6b27cc81df3c02b16292211b860842f73",
            "0x000000000000000000000000e1b4d34e8754600962cd944b535180bd758e6c2e",
            "0xba08765200000000000000000000000000000000000000000000000000000000"
          ],
          "data": "0x0000000000000000000000000000000000000000000000000000000000000001",
          "blockHash": "0x23f81b3f5d739234975dc8c9346559a1bea9dc2903cfd355fcbd9a8a922fb773",
          "blockNumber": "0x13bcc44",
          "transactionHash": "0x27e31a190757c8b383f73e1a98601558a06a28eda77c304bb9ce2812eafbae51",
          "transactionIndex": "0x58",
          "logIndex": "0x12f",
          "removed": false
        }
      ],
      "logsBloom": "0x00000004000000000000000000000000000000000000000000000800000000000000010000000000002000000000000000000000000000000000000000000000000000000000000000000000000000000400000000000000000000000000000080000000000000000000000000000000000000000000000000000000000000000800000001000000040000000000080000000000000000000000000040000000000000000000000000000000000000000080000000000000000000000000000000000000000000000000000000000000000000000000000000000000000000000000000000000000000000000000000000000000000000000000000000000000",
      "type": "0x2",
      "transactionHash": "0x27e31a190757c8b383f73e1a98601558a06a28eda77c304bb9ce2812eafbae51",
      "transactionIndex": "0x58",
      "blockHash": "0x23f81b3f5d739234975dc8c9346559a1bea9dc2903cfd355fcbd9a8a922fb773",
      "blockNumber": "0x13bcc44",
      "gasUsed": "0xbf5f",
      "effectiveGasPrice": "0x63a6c203",
      "from": "0x25e426b153e74ab36b2685c3a464272de60888ae",
      "to": "0x9000fef2846a5253fd2c6ed5241de0fddb404302",
      "contractAddress": null
    },
    {
      "status": "0x1",
      "cumulativeGasUsed": "0xb2fac2",
      "logs": [
        {
          "address": "0x9000fef2846a5253fd2c6ed5241de0fddb404302",
          "topics": [
            "0x70785a9b51e0166fb561479b514223d6b27cc81df3c02b16292211b860842f73",
            "0x0000000000000000000000009d39a5de30e57443bff2a8307a4256c8797a3497",
            "0xf2888dbb00000000000000000000000000000000000000000000000000000000"
          ],
          "data": "0x0000000000000000000000000000000000000000000000000000000000000001",
          "blockHash": "0xd2a589b24aa327fba44429a385f23982d2fb71cfcfe09502c57148a5cf341583",
          "blockNumber": "0x13bcc45",
          "transactionHash": "0x9cc9078a7502cdc6fc1ffe28a001e2cf3928402a70d334ab8e5b4a2d6cf7baaf",
          "transactionIndex": "0x53",
          "logIndex": "0x122",
          "removed": false
        }
      ],
      "logsBloom": "0x00000004000000000000000000000000000000000000000000000800000000000000010000000000000000000000000000000000000000000000000000000000000000000000000000000004000000000000000000000000000000000000000080000000000000000000000000000000000000000000000000000000000000000900000000000000000000000000001000000000000000000000000040000000000000000000000000000000000000000000000000000000000000000000000000000000000000000000000000000000000000000000000000000000000000000000000000000000000000000000000000000000000400000000000100001000",
      "type": "0x2",
      "transactionHash": "0x9cc9078a7502cdc6fc1ffe28a001e2cf3928402a70d334ab8e5b4a2d6cf7baaf",
      "transactionIndex": "0x53",
      "blockHash": "0xd2a589b24aa327fba44429a385f23982d2fb71cfcfe09502c57148a5cf341583",
      "blockNumber": "0x13bcc45",
      "gasUsed": "0xbf5f",
      "effectiveGasPrice": "0x6068137d",
      "from": "0x25e426b153e74ab36b2685c3a464272de60888ae",
      "to": "0x9000fef2846a5253fd2c6ed5241de0fddb404302",
      "contractAddress": null
    },
    {
      "status": "0x1",
      "cumulativeGasUsed": "0xbe7d9c",
      "logs": [
        {
          "address": "0x9000fef2846a5253fd2c6ed5241de0fddb404302",
          "topics": [
            "0x70785a9b51e0166fb561479b514223d6b27cc81df3c02b16292211b860842f73",
            "0x0000000000000000000000009d39a5de30e57443bff2a8307a4256c8797a3497",
            "0xcdac52ed00000000000000000000000000000000000000000000000000000000"
          ],
          "data": "0x0000000000000000000000000000000000000000000000000000000000000001",
          "blockHash": "0xc7967c3395144533f4d46bed26c50e5e50f619694511839e408b3210b878ab9c",
          "blockNumber": "0x13bcc46",
          "transactionHash": "0x80d22f43f25838201b69da322cab07c61236729f165f86bb3edcc68a9863db01",
          "transactionIndex": "0x6b",
          "logIndex": "0x160",
          "removed": false
        }
      ],
      "logsBloom": "0x00000004000000000000000000000000000000000000000000000800000000000000010000000000000000000000000000000000000000000000000000000000000000000000000000000004000000000000000000000000000000000000000080000000000000000000000000000000000000000000400000000000000000000900000000000000000000000000001000000000000000000000000040000000000000000000000000000000000000000000000000000000000000100020000000000000000000000000000000000000000000000000000000000000000000000000000000000000000000000000000000000000000000000000000000000000",
      "type": "0x2",
      "transactionHash": "0x80d22f43f25838201b69da322cab07c61236729f165f86bb3edcc68a9863db01",
      "transactionIndex": "0x6b",
      "blockHash": "0xc7967c3395144533f4d46bed26c50e5e50f619694511839e408b3210b878ab9c",
      "blockNumber": "0x13bcc46",
      "gasUsed": "0xbf5f",
      "effectiveGasPrice": "0x5f7168b0",
      "from": "0x25e426b153e74ab36b2685c3a464272de60888ae",
      "to": "0x9000fef2846a5253fd2c6ed5241de0fddb404302",
      "contractAddress": null
    },
    {
      "status": "0x1",
      "cumulativeGasUsed": "0xea609d",
      "logs": [
        {
          "address": "0x9000fef2846a5253fd2c6ed5241de0fddb404302",
          "topics": [
            "0x70785a9b51e0166fb561479b514223d6b27cc81df3c02b16292211b860842f73",
            "0x0000000000000000000000009d39a5de30e57443bff2a8307a4256c8797a3497",
            "0x9343d9e100000000000000000000000000000000000000000000000000000000"
          ],
          "data": "0x0000000000000000000000000000000000000000000000000000000000000001",
          "blockHash": "0xf20eacfc1f14e1dd46c614f3f76e1c0b58d63d73c1d58cdc1dcbe6ad7dc57d3f",
          "blockNumber": "0x13bcc47",
          "transactionHash": "0xbebee7af9fdaf5c102d9674dab10e9c811f7eef9549c65e4ee2f88efd53f6d5d",
          "transactionIndex": "0x90",
          "logIndex": "0x1a9",
          "removed": false
        }
      ],
      "logsBloom": "0x00000004000000000000000000000000000000000000000000000800000000000000010000000000000000000000000000000000000000000000000000000000000000000000000000000004000000000000000000000000000000000000000080000000000000000000000000000000000000000000000000000000000000000900000000000000000000000000001000000000400000000000000040000000000000000000000000000000000000000000000000000000000000000000000000000000000000000000000000000000010000000000000000000000000000000000000000000000000000000000000000000000000000000000000000000400",
      "type": "0x2",
      "transactionHash": "0xbebee7af9fdaf5c102d9674dab10e9c811f7eef9549c65e4ee2f88efd53f6d5d",
      "transactionIndex": "0x90",
      "blockHash": "0xf20eacfc1f14e1dd46c614f3f76e1c0b58d63d73c1d58cdc1dcbe6ad7dc57d3f",
      "blockNumber": "0x13bcc47",
      "gasUsed": "0xbf5f",
      "effectiveGasPrice": "0x5f1ef573",
      "from": "0x25e426b153e74ab36b2685c3a464272de60888ae",
      "to": "0x9000fef2846a5253fd2c6ed5241de0fddb404302",
      "contractAddress": null
    },
    {
      "status": "0x1",
      "cumulativeGasUsed": "0x7be15f",
      "logs": [
        {
          "address": "0x9000fef2846a5253fd2c6ed5241de0fddb404302",
          "topics": [
            "0x70785a9b51e0166fb561479b514223d6b27cc81df3c02b16292211b860842f73",
            "0x0000000000000000000000009d39a5de30e57443bff2a8307a4256c8797a3497",
            "0x6e553f6500000000000000000000000000000000000000000000000000000000"
          ],
          "data": "0x0000000000000000000000000000000000000000000000000000000000000001",
          "blockHash": "0x930a8ba5e16024cd865c0615bb89d97f767b8f0a9f4b8cef5bcd55037cf4e84a",
          "blockNumber": "0x13bcc48",
          "transactionHash": "0x53456346b437d06ddd927e9fb7e655c2c3a42893cb72e9a0c4b04a15b5260549",
          "transactionIndex": "0x54",
          "logIndex": "0xf0",
          "removed": false
        }
      ],
      "logsBloom": "0x00000004000000000000000000000000000000000000000000000800000000000000010000000000000000000000000000000000000000000000000000000000000000000000000000000004000000000000000000000000000000000000000080000000000000000000000000000000000000000000000000000000000000000900000000000000000000200000001000000000000000020000000040000000000000000000000000000000000000000000000000000000000000000000000000000000000000000000000000000000000000000000000000000000000000000000000000000000000000000000000000000000000000000002000000000000",
      "type": "0x2",
      "transactionHash": "0x53456346b437d06ddd927e9fb7e655c2c3a42893cb72e9a0c4b04a15b5260549",
      "transactionIndex": "0x54",
      "blockHash": "0x930a8ba5e16024cd865c0615bb89d97f767b8f0a9f4b8cef5bcd55037cf4e84a",
      "blockNumber": "0x13bcc48",
      "gasUsed": "0xbf5f",
      "effectiveGasPrice": "0x60821a1c",
      "from": "0x25e426b153e74ab36b2685c3a464272de60888ae",
      "to": "0x9000fef2846a5253fd2c6ed5241de0fddb404302",
      "contractAddress": null
    },
    {
      "status": "0x1",
      "cumulativeGasUsed": "0xd7ad6e",
      "logs": [
        {
          "address": "0x9000fef2846a5253fd2c6ed5241de0fddb404302",
          "topics": [
            "0x70785a9b51e0166fb561479b514223d6b27cc81df3c02b16292211b860842f73",
            "0x0000000000000000000000009d39a5de30e57443bff2a8307a4256c8797a3497",
            "0x94bf804d00000000000000000000000000000000000000000000000000000000"
          ],
          "data": "0x0000000000000000000000000000000000000000000000000000000000000001",
          "blockHash": "0x1b0cb8f38eaa12c402fdc869df7109a9fe0fdbd37abc539c3d71c59b3aeef452",
          "blockNumber": "0x13bcc49",
          "transactionHash": "0x381a9337042fb969549d336c44232ce41dd73e3ed1f61f8db2e998e4a09bd1ea",
          "transactionIndex": "0x77",
          "logIndex": "0x156",
          "removed": false
        }
      ],
      "logsBloom": "0x00000004000000000000000000000000000000000000000000000800000000000000010000000000000000000000000000000000000000000000000000000000000000000000000000000004000000000000000000000000000000000000002080000000000000000000000000000000000000000000000000000000000000000900000000000000000000000000001000000000000000000000000040000000000000000000000000000000000000000000000000000000000000000000000000000000000000000000000000400000000000000000000000000000000000000000000000000000000000000000000800000000000000000000000000000000",
      "type": "0x2",
      "transactionHash": "0x381a9337042fb969549d336c44232ce41dd73e3ed1f61f8db2e998e4a09bd1ea",
      "transactionIndex": "0x77",
      "blockHash": "0x1b0cb8f38eaa12c402fdc869df7109a9fe0fdbd37abc539c3d71c59b3aeef452",
      "blockNumber": "0x13bcc49",
      "gasUsed": "0xbf5f",
      "effectiveGasPrice": "0x5c999426",
      "from": "0x25e426b153e74ab36b2685c3a464272de60888ae",
      "to": "0x9000fef2846a5253fd2c6ed5241de0fddb404302",
      "contractAddress": null
    },
    {
      "status": "0x1",
      "cumulativeGasUsed": "0xb3b3b4",
      "logs": [
        {
          "address": "0x9000fef2846a5253fd2c6ed5241de0fddb404302",
          "topics": [
            "0x70785a9b51e0166fb561479b514223d6b27cc81df3c02b16292211b860842f73",
            "0x0000000000000000000000009d39a5de30e57443bff2a8307a4256c8797a3497",
            "0xb460af9400000000000000000000000000000000000000000000000000000000"
          ],
          "data": "0x0000000000000000000000000000000000000000000000000000000000000001",
          "blockHash": "0x08b8fb24f0c34df23a177b9798d0d259b71effedd89312b21db7ef5f7cb8c958",
          "blockNumber": "0x13bcc4a",
          "transactionHash": "0xe5e89a4ef9e898f8107bc6ab6407622311311944e0ed50127d63c57b6ebcf9b2",
          "transactionIndex": "0x8a",
          "logIndex": "0x14c",
          "removed": false
        }
      ],
      "logsBloom": "0x00000004000000000000000000000000000000000000000000000800000000000000010000000000000000000000000000000000000000000000000000000000000000000000000000000004000000000000000000000000000000000000000080000000000000000000000000000000000000000000000000000000000000002900000000000000000000000000001000000000000000000000000040000000000000000000000000000000000000000000000000000000000000000000000000000000000000000000000000000000000000000000004000010000000000000000000000000000000000000000000000000000000000000000000000000000",
      "type": "0x2",
      "transactionHash": "0xe5e89a4ef9e898f8107bc6ab6407622311311944e0ed50127d63c57b6ebcf9b2",
      "transactionIndex": "0x8a",
      "blockHash": "0x08b8fb24f0c34df23a177b9798d0d259b71effedd89312b21db7ef5f7cb8c958",
      "blockNumber": "0x13bcc4a",
      "gasUsed": "0xbf5f",
      "effectiveGasPrice": "0x5c984766",
      "from": "0x25e426b153e74ab36b2685c3a464272de60888ae",
      "to": "0x9000fef2846a5253fd2c6ed5241de0fddb404302",
      "contractAddress": null
    },
    {
      "status": "0x1",
      "cumulativeGasUsed": "0x35b614",
      "logs": [
        {
          "address": "0x9000fef2846a5253fd2c6ed5241de0fddb404302",
          "topics": [
            "0x70785a9b51e0166fb561479b514223d6b27cc81df3c02b16292211b860842f73",
            "0x0000000000000000000000009d39a5de30e57443bff2a8307a4256c8797a3497",
            "0xba08765200000000000000000000000000000000000000000000000000000000"
          ],
          "data": "0x0000000000000000000000000000000000000000000000000000000000000001",
          "blockHash": "0xc26adb2e7b703f28b2807b9ffbb0c8ef7ab42875fa1630552525dd522e08500b",
          "blockNumber": "0x13bcc4b",
          "transactionHash": "0xe2b23a7127e860291c9d6d39644d9441332a43d05ba93ecc600c59afcb201673",
          "transactionIndex": "0x30",
          "logIndex": "0x6f",
          "removed": false
        }
      ],
      "logsBloom": "0x00000004000000000000000000000000000000000000000000000800000000000000010000000000000000000000000000000000000000000000000000000000000000000000000000000004000000000400000000000000000000000000000080000000000000000000000000000000000000000000000000000000000000000900000001000000040000000000001000000000000000000000000040000000000000000000000000000000000000000000000000000000000000000000000000000000000000000000000000000000000000000000000000000000000000000000000000000000000000000000000000000000000000000000000000000000",
      "type": "0x2",
      "transactionHash": "0xe2b23a7127e860291c9d6d39644d9441332a43d05ba93ecc600c59afcb201673",
      "transactionIndex": "0x30",
      "blockHash": "0xc26adb2e7b703f28b2807b9ffbb0c8ef7ab42875fa1630552525dd522e08500b",
      "blockNumber": "0x13bcc4b",
      "gasUsed": "0xbf5f",
      "effectiveGasPrice": "0x5c683622",
      "from": "0x25e426b153e74ab36b2685c3a464272de60888ae",
      "to": "0x9000fef2846a5253fd2c6ed5241de0fddb404302",
      "contractAddress": null
    },
    {
      "status": "0x1",
      "cumulativeGasUsed": "0xa7366a",
      "logs": [
        {
          "address": "0x9000fef2846a5253fd2c6ed5241de0fddb404302",
          "topics": [
            "0x70785a9b51e0166fb561479b514223d6b27cc81df3c02b16292211b860842f73",
            "0x0000000000000000000000008707f238936c12c309bfc2b9959c35828acfc512",
            "0xb3dd411d00000000000000000000000000000000000000000000000000000000"
          ],
          "data": "0x0000000000000000000000000000000000000000000000000000000000000001",
          "blockHash": "0x5de8d338eb2adc02564849f9c58a4d8e771c6b088294d5e2e0df2b54193b253d",
          "blockNumber": "0x13bcc4c",
          "transactionHash": "0x99a44cb4218241391a76cc506594eee57a7d161e131936c1101514ec9a25e52b",
          "transactionIndex": "0x7e",
          "logIndex": "0x147",
          "removed": false
        }
      ],
      "logsBloom": "0x00000004000000000000000000000000000000000000000000000800000000000000010000000000000000000000000000000000000000000000000000000000000000004000000000000000000000000080000000000000000000000000000080000000000000000000000000000800000000000000000000000000000000000800000000000000000000000000000000000000000000000000000040000000000200000000000000000000000000000000000000000000000000000000000000000000000000000000000400000000000000000000000000000000000010000000000000000000000000000000000000000000000000000000000000000000",
      "type": "0x2",
      "transactionHash": "0x99a44cb4218241391a76cc506594eee57a7d161e131936c1101514ec9a25e52b",
      "transactionIndex": "0x7e",
      "blockHash": "0x5de8d338eb2adc02564849f9c58a4d8e771c6b088294d5e2e0df2b54193b253d",
      "blockNumber": "0x13bcc4c",
      "gasUsed": "0xbf5f",
      "effectiveGasPrice": "0x5bc2b53d",
      "from": "0x25e426b153e74ab36b2685c3a464272de60888ae",
      "to": "0x9000fef2846a5253fd2c6ed5241de0fddb404302",
      "contractAddress": null
    },
    {
      "status": "0x1",
      "cumulativeGasUsed": "0xc66fa7",
      "logs": [
        {
          "address": "0x9000fef2846a5253fd2c6ed5241de0fddb404302",
          "topics": [
            "0x70785a9b51e0166fb561479b514223d6b27cc81df3c02b16292211b860842f73",
            "0x0000000000000000000000008707f238936c12c309bfc2b9959c35828acfc512",
            "0x21ec52b400000000000000000000000000000000000000000000000000000000"
          ],
          "data": "0x0000000000000000000000000000000000000000000000000000000000000001",
          "blockHash": "0xee00ae44c8b370f73febc0807f4eab2ab755ded214e8fcb78c53961003a50724",
          "blockNumber": "0x13bcc4d",
          "transactionHash": "0x00221cda97731d906a31638b87f8c6e1b08dcac58fc9a5194a7b99662023a6f4",
          "transactionIndex": "0x5b",
          "logIndex": "0x115",
          "removed": false
        }
      ],
      "logsBloom": "0x00000004000000000000000000000000000000000000000000000800000000000000010000000000000000000000000000000000000000000000000000000000000000004000000000000000000000000000000000000000000000000000000080000000000000000000000000000000000000000000000000000000000000000800000000000000000200000000000000000000000000000000000040000000000200000000000000000000000000000000000000000000000000000000000000010000000000000000000400000000000000000000000000000000000000000000000040000000000000000000000000000000000000000000000000000000",
      "type": "0x2",
      "transactionHash": "0x00221cda97731d906a31638b87f8c6e1b08dcac58fc9a5194a7b99662023a6f4",
      "transactionIndex": "0x5b",
      "blockHash": "0xee00ae44c8b370f73febc0807f4eab2ab755ded214e8fcb78c53961003a50724",
      "blockNumber": "0x13bcc4d",
      "gasUsed": "0xbf5f",
      "effectiveGasPrice": "0x5ac061b2",
      "from": "0x25e426b153e74ab36b2685c3a464272de60888ae",
      "to": "0x9000fef2846a5253fd2c6ed5241de0fddb404302",
      "contractAddress": null
    },
    {
      "status": "0x1",
      "cumulativeGasUsed": "0xbf639e",
      "logs": [
        {
          "address": "0x9000fef2846a5253fd2c6ed5241de0fddb404302",
          "topics": [
            "0x70785a9b51e0166fb561479b514223d6b27cc81df3c02b16292211b860842f73",
            "0x0000000000000000000000009d39a5de30e57443bff2a8307a4256c8797a3497",
            "0xa9059cbb00000000000000000000000000000000000000000000000000000000"
          ],
          "data": "0x0000000000000000000000000000000000000000000000000000000000000001",
          "blockHash": "0x9e93bb6b16cc408ad7a24a075a33afbae4d2c24291f2f3453b519be0a53ee3b4",
          "blockNumber": "0x13bcc4e",
          "transactionHash": "0xfa03d966ebb175dec5e33350ce1fbd1cb6b3d2122e9bbab483836a6a59fa35c7",
          "transactionIndex": "0x81",
          "logIndex": "0x152",
          "removed": false
        }
      ],
      "logsBloom": "0x00000004000000000000000000000000000000000000000000000800000000000000010000000000000000000000000000000000000000000000000000000000000000000000000000104004000000000000000000000000000000000000000080000000000000000000000000000000000000000000000000000000000000000900000000000000000000000000001000000000000000100000000040000000000000000000000000000000000000000000000000000000000000000000000000000000000000000000000000000000000000000000000000000000000000000000000000000000000000000000000000000000000000000000000000000000",
      "type": "0x2",
      "transactionHash": "0xfa03d966ebb175dec5e33350ce1fbd1cb6b3d2122e9bbab483836a6a59fa35c7",
      "transactionIndex": "0x81",
      "blockHash": "0x9e93bb6b16cc408ad7a24a075a33afbae4d2c24291f2f3453b519be0a53ee3b4",
      "blockNumber": "0x13bcc4e",
      "gasUsed": "0xbf5f",
      "effectiveGasPrice": "0x5d68897b",
      "from": "0x25e426b153e74ab36b2685c3a464272de60888ae",
      "to": "0x9000fef2846a5253fd2c6ed5241de0fddb404302",
      "contractAddress": null
    },
    {
      "status": "0x1",
      "cumulativeGasUsed": "0xd6c24b",
      "logs": [
        {
          "address": "0x9000fef2846a5253fd2c6ed5241de0fddb404302",
          "topics": [
            "0x70785a9b51e0166fb561479b514223d6b27cc81df3c02b16292211b860842f73",
            "0x0000000000000000000000009d39a5de30e57443bff2a8307a4256c8797a3497",
            "0x095ea7b300000000000000000000000000000000000000000000000000000000"
          ],
          "data": "0x0000000000000000000000000000000000000000000000000000000000000001",
          "blockHash": "0x172641deaac765a16303f8f89b05358096cac34284dae6f2f09cc042fdc98bb9",
          "blockNumber": "0x13bcc4f",
          "transactionHash": "0x97157d2ae1e05dfc4654827a9caaef0c5eaab1e405a55b5fa2a22d1313ab0e2e",
          "transactionIndex": "0x8b",
          "logIndex": "0x1b7",
          "removed": false
        }
      ],
      "logsBloom": "0x00000004000000000000000000000000000000000000000000000800000000000000010000000000000000000400000000000000000000000008000000000000000000000000000000000004000000000000000000000000000000000000000080000000000000000000000000000000000000000000000000000000000000000900000000000000000000000000001000000000000000000000000040000000000000000000000000000000000000000000000000000000000000000000000000000008000000000000000000000000000000000000000000000000000000000000000000000000000000000000000000000000000000000000000000000000",
      "type": "0x2",
      "transactionHash": "0x97157d2ae1e05dfc4654827a9caaef0c5eaab1e405a55b5fa2a22d1313ab0e2e",
      "transactionIndex": "0x8b",
      "blockHash": "0x172641deaac765a16303f8f89b05358096cac34284dae6f2f09cc042fdc98bb9",
      "blockNumber": "0x13bcc4f",
      "gasUsed": "0xbf5f",
      "effectiveGasPrice": "0x5c486697",
      "from": "0x25e426b153e74ab36b2685c3a464272de60888ae",
      "to": "0x9000fef2846a5253fd2c6ed5241de0fddb404302",
      "contractAddress": null
    },
    {
      "status": "0x1",
      "cumulativeGasUsed": "0xa4b32d",
      "logs": [
        {
          "address": "0x9000fef2846a5253fd2c6ed5241de0fddb404302",
          "topics": [
            "0x70785a9b51e0166fb561479b514223d6b27cc81df3c02b16292211b860842f73",
            "0x0000000000000000000000004c9edd5852cd905f086c759e8383e09bff1e68b3",
            "0xa9059cbb00000000000000000000000000000000000000000000000000000000"
          ],
          "data": "0x0000000000000000000000000000000000000000000000000000000000000001",
          "blockHash": "0x41976f6f203b3614c07a5f3f77b928963104c146afdab03ca820ba4a18b88b6c",
          "blockNumber": "0x13bcc50",
          "transactionHash": "0xff16be8451d79609a87226c8c3f79f2e8ea276de132c8fe5d885d0cd40aa0e1f",
          "transactionIndex": "0x6d",
          "logIndex": "0x147",
          "removed": false
        }
      ],
      "logsBloom": "0x00000004000000000000000000000000000000000000000000000800000000000000010000000000000000000000000000000000000000000000000000000000000000000000000000104000000000000000000000000000000000000000000080000000000000000000000000000000000000000000000000000000000000000800000000000000000000000000000000000001000000100000000040000000000000000000000000000000000000000000000000000000000000000000020000000000000000000000000000000000000000000000000000000000000000000000000000000000000000000000080000000000000000000000000000000000",
      "type": "0x2",
      "transactionHash": "0xff16be8451d79609a87226c8c3f79f2e8ea276de132c8fe5d885d0cd40aa0e1f",
      "transactionIndex": "0x6d",
      "blockHash": "0x41976f6f203b3614c07a5f3f77b928963104c146afdab03ca820ba4a18b88b6c",
      "blockNumber": "0x13bcc50",
      "gasUsed": "0xbf5f",
      "effectiveGasPrice": "0x5d6503c4",
      "from": "0x25e426b153e74ab36b2685c3a464272de60888ae",
      "to": "0x9000fef2846a5253fd2c6ed5241de0fddb404302",
      "contractAddress": null
    },
    {
      "status": "0x1",
      "cumulativeGasUsed": "0x9d1c4d",
      "logs": [
        {
          "address": "0x9000fef2846a5253fd2c6ed5241de0fddb404302",
          "topics": [
            "0x70785a9b51e0166fb561479b514223d6b27cc81df3c02b16292211b860842f73",
            "0x0000000000000000000000004c9edd5852cd905f086c759e8383e09bff1e68b3",
            "0x095ea7b300000000000000000000000000000000000000000000000000000000"
          ],
          "data": "0x0000000000000000000000000000000000000000000000000000000000000001",
          "blockHash": "0x34a391ce55d5b639f91d1a98b14498531e83c10893e43eaa8d8e07a84399f446",
          "blockNumber": "0x13bcc51",
          "transactionHash": "0x7a687548fbdb9b0debbf0f349dc3b8205d30b686eb67b34f0c39f7b93472296a",
          "transactionIndex": "0x6d",
          "logIndex": "0x12c",
          "removed": false
        }
      ],
      "logsBloom": "0x00000004000000000000000000000000000000000000000000000800000000000000010000000000000000000400000000000000000000000008000000000000000000000000000000000000000000000000000000000000000000000000000080000000000000000000000000000000000000000000000000000000000000000800000000000000000000000000000000000001000000000000000040000000000000000000000000000000000000000000000000000000000000000000020000000008000000000000000000000000000000000000000000000000000000000000000000000000000000000000080000000000000000000000000000000000",
      "type": "0x2",
      "transactionHash": "0x7a687548fbdb9b0debbf0f349dc3b8205d30b686eb67b34f0c39f7b93472296a",
      "transactionIndex": "0x6d",
      "blockHash": "0x34a391ce55d5b639f91d1a98b14498531e83c10893e43eaa8d8e07a84399f446",
      "blockNumber": "0x13bcc51",
      "gasUsed": "0xbf5f",
      "effectiveGasPrice": "0x5b00fb63",
      "from": "0x25e426b153e74ab36b2685c3a464272de60888ae",
      "to": "0x9000fef2846a5253fd2c6ed5241de0fddb404302",
      "contractAddress": null
    },
    {
      "status": "0x1",
      "cumulativeGasUsed": "0xa673cb",
      "logs": [
        {
          "address": "0x9000fef2846a5253fd2c6ed5241de0fddb404302",
          "topics": [
            "0x70785a9b51e0166fb561479b514223d6b27cc81df3c02b16292211b860842f73",
            "0x0000000000000000000000007f39c581f595b53c5cb19bd0b3f8da6c935e2ca0",
            "0xa9059cbb00000000000000000000000000000000000000000000000000000000"
          ],
          "data": "0x0000000000000000000000000000000000000000000000000000000000000001",
          "blockHash": "0x0c565bea15ed14aca412cf8cbbba281888fd7783e3c960191e98dbb734a0a879",
          "blockNumber": "0x13bcc52",
          "transactionHash": "0x07a2d6cdaccf84753f2bf844993b238e01578d6913d217acf9db8b96cb5488a4",
          "transactionIndex": "0x72",
          "logIndex": "0x14f",
          "removed": false
        }
      ],
      "logsBloom": "0x00000004000000000000000000000000000000000000000000000800000000000000010000000000000000000000000000000000000000000000000000000000000000000000000000104000000000000000000000000000000000000000000080000000000000000000000000000000000000000000000000000000000000000800000000000000000000000000000000000000000000100000000040002000000000000000000000000000000000000000000000000000000000000000000000000000000000000000000000000080000000000000000000000000000000000000000000000000000000000000000000000000004000000000000000000000",
      "type": "0x2",
      "transactionHash": "0x07a2d6cdaccf84753f2bf844993b238e01578d6913d217acf9db8b96cb5488a4",
      "transactionIndex": "0x72",
      "blockHash": "0x0c565bea15ed14aca412cf8cbbba281888fd7783e3c960191e98dbb734a0a879",
      "blockNumber": "0x13bcc52",
      "gasUsed": "0xbf5f",
      "effectiveGasPrice": "0x59277a0c",
      "from": "0x25e426b153e74ab36b2685c3a464272de60888ae",
      "to": "0x9000fef2846a5253fd2c6ed5241de0fddb404302",
      "contractAddress": null
    },
    {
      "status": "0x1",
      "cumulativeGasUsed": "0xcd5dda",
      "logs": [
        {
          "address": "0x9000fef2846a5253fd2c6ed5241de0fddb404302",
          "topics": [
            "0x70785a9b51e0166fb561479b514223d6b27cc81df3c02b16292211b860842f73",
            "0x0000000000000000000000007f39c581f595b53c5cb19bd0b3f8da6c935e2ca0",
            "0x095ea7b300000000000000000000000000000000000000000000000000000000"
          ],
          "data": "0x0000000000000000000000000000000000000000000000000000000000000001",
          "blockHash": "0x6c92fe55b37f7568a03a467d8787fe836b6200460495001a9a35d83f59fd3775",
          "blockNumber": "0x13bcc53",
          "transactionHash": "0xf88249c3857755361ec477fdee4e07f896c5f1309ae966e2cb2181fa6c91df0a",
          "transactionIndex": "0x8b",
          "logIndex": "0x16a",
          "removed": false
        }
      ],
      "logsBloom": "0x00000004000000000000000000000000000000000000000000000800000000000000010000000000000000000400000000000000000000000008000000000000000000000000000000000000000000000000000000000000000000000000000080000000000000000000000000000000000000000000000000000000000000000800000000000000000000000000000000000000000000000000000040002000000000000000000000000000000000000000000000000000000000000000000000000008000000000000000000000080000000000000000000000000000000000000000000000000000000000000000000000000004000000000000000000000",
      "type": "0x2",
      "transactionHash": "0xf88249c3857755361ec477fdee4e07f896c5f1309ae966e2cb2181fa6c91df0a",
      "transactionIndex": "0x8b",
      "blockHash": "0x6c92fe55b37f7568a03a467d8787fe836b6200460495001a9a35d83f59fd3775",
      "blockNumber": "0x13bcc53",
      "gasUsed": "0xbf5f",
      "effectiveGasPrice": "0x573e4e74",
      "from": "0x25e426b153e74ab36b2685c3a464272de60888ae",
      "to": "0x9000fef2846a5253fd2c6ed5241de0fddb404302",
      "contractAddress": null
    },
    {
      "status": "0x1",
      "cumulativeGasUsed": "0x6b7171",
      "logs": [
        {
          "address": "0x9000fef2846a5253fd2c6ed5241de0fddb404302",
          "topics": [
            "0x70785a9b51e0166fb561479b514223d6b27cc81df3c02b16292211b860842f73",
            "0x000000000000000000000000be3ca34d0e877a1fc889bd5231d65477779aff4e",
            "0xa9059cbb00000000000000000000000000000000000000000000000000000000"
          ],
          "data": "0x0000000000000000000000000000000000000000000000000000000000000001",
          "blockHash": "0xcff0a60456fcd8024b2d525da59b98f3c877dd51afcedb2913f870fdff953228",
          "blockNumber": "0x13bcc54",
          "transactionHash": "0x3455b996006ca944d2c8eec3b17286068b95b8b4f2b368910deb36ecc833f81e",
          "transactionIndex": "0x49",
          "logIndex": "0xea",
          "removed": false
        }
      ],
      "logsBloom": "0x00000004000000000000000000000000000000000000000000000800000000000000010000000000000000000000000000000000000000800000000000000000000000000000000000104000000000000100000000000000000000000000080080000000000000000000000000000000000000000000000000000000000000000800000000000000000000000000000000000000000000100000000040000000000000000000000000000000000000000000000000000000000000000000000000000000000000000000000000000000000000000000000000000000000000000000000000000000000000000000000000000000000000000000000000000000",
      "type": "0x2",
      "transactionHash": "0x3455b996006ca944d2c8eec3b17286068b95b8b4f2b368910deb36ecc833f81e",
      "transactionIndex": "0x49",
      "blockHash": "0xcff0a60456fcd8024b2d525da59b98f3c877dd51afcedb2913f870fdff953228",
      "blockNumber": "0x13bcc54",
      "gasUsed": "0xbf5f",
      "effectiveGasPrice": "0x5735c2b5",
      "from": "0x25e426b153e74ab36b2685c3a464272de60888ae",
      "to": "0x9000fef2846a5253fd2c6ed5241de0fddb404302",
      "contractAddress": null
    },
    {
      "status": "0x1",
      "cumulativeGasUsed": "0x7ef535",
      "logs": [
        {
          "address": "0x9000fef2846a5253fd2c6ed5241de0fddb404302",
          "topics": [
            "0x70785a9b51e0166fb561479b514223d6b27cc81df3c02b16292211b860842f73",
            "0x000000000000000000000000be3ca34d0e877a1fc889bd5231d65477779aff4e",
            "0x095ea7b300000000000000000000000000000000000000000000000000000000"
          ],
          "data": "0x0000000000000000000000000000000000000000000000000000000000000001",
          "blockHash": "0x48979d89be4cf1d5bd1555681e671534c8e25c5de9d077e63e2be724e6dcce2c",
          "blockNumber": "0x13bcc55",
          "transactionHash": "0xd92d762f0d86a196a99899167eca448beb295af565b552c2fafb4a22f25bbde1",
          "transactionIndex": "0x71",
          "logIndex": "0xed",
          "removed": false
        }
      ],
      "logsBloom": "0x00000004000000000000000000000000000000000000000000000800000000000000010000000000000000000400000000000000000000800008000000000000000000000000000000000000000000000100000000000000000000000000080080000000000000000000000000000000000000000000000000000000000000000800000000000000000000000000000000000000000000000000000040000000000000000000000000000000000000000000000000000000000000000000000000000008000000000000000000000000000000000000000000000000000000000000000000000000000000000000000000000000000000000000000000000000",
      "type": "0x2",
      "transactionHash": "0xd92d762f0d86a196a99899167eca448beb295af565b552c2fafb4a22f25bbde1",
      "transactionIndex": "0x71",
      "blockHash": "0x48979d89be4cf1d5bd1555681e671534c8e25c5de9d077e63e2be724e6dcce2c",
      "blockNumber": "0x13bcc55",
      "gasUsed": "0xbf5f",
      "effectiveGasPrice": "0x537ddbb6",
      "from": "0x25e426b153e74ab36b2685c3a464272de60888ae",
      "to": "0x9000fef2846a5253fd2c6ed5241de0fddb404302",
      "contractAddress": null
    },
    {
      "status": "0x1",
      "cumulativeGasUsed": "0xef8fd2",
      "logs": [
        {
          "address": "0x9000fef2846a5253fd2c6ed5241de0fddb404302",
          "topics": [
            "0x70785a9b51e0166fb561479b514223d6b27cc81df3c02b16292211b860842f73",
            "0x0000000000000000000000002dabcea55a12d73191aece59f508b191fb68adac",
            "0xa9059cbb00000000000000000000000000000000000000000000000000000000"
          ],
          "data": "0x0000000000000000000000000000000000000000000000000000000000000001",
          "blockHash": "0xa411b78be2400702dee7cb6adc7b0ba706c5158742ede861d7a1059b8f77d147",
          "blockNumber": "0x13bcc56",
          "transactionHash": "0x96b91270adc8fdd14ea3a84504e473a19f741decb2705146b98b6dc93c9c2e3c",
          "transactionIndex": "0x118",
          "logIndex": "0x166",
          "removed": false
        }
      ],
      "logsBloom": "0x00000004000000000000000000000000000000000000000000000800000000000000010000000000000000000000000000000000000000000000000000000000000000000000000000104000000000000000000000000000000000000000000080000000000000000000000000000000000000000000000000000000000000000800000010000000000000000000000000000000000000100000000040000000000000000000000000000000000000000000000000000000000000000000000000000000000000000000000000000000000000000000000000000080000000000000000000000000000000000000000000000000000000000000000004000000",
      "type": "0x2",
      "transactionHash": "0x96b91270adc8fdd14ea3a84504e473a19f741decb2705146b98b6dc93c9c2e3c",
      "transactionIndex": "0x118",
      "blockHash": "0xa411b78be2400702dee7cb6adc7b0ba706c5158742ede861d7a1059b8f77d147",
      "blockNumber": "0x13bcc56",
      "gasUsed": "0xbf5f",
      "effectiveGasPrice": "0x500c1fca",
      "from": "0x25e426b153e74ab36b2685c3a464272de60888ae",
      "to": "0x9000fef2846a5253fd2c6ed5241de0fddb404302",
      "contractAddress": null
    },
    {
      "status": "0x1",
      "cumulativeGasUsed": "0x888ce3",
      "logs": [
        {
          "address": "0x9000fef2846a5253fd2c6ed5241de0fddb404302",
          "topics": [
            "0x70785a9b51e0166fb561479b514223d6b27cc81df3c02b16292211b860842f73",
            "0x0000000000000000000000002dabcea55a12d73191aece59f508b191fb68adac",
            "0x095ea7b300000000000000000000000000000000000000000000000000000000"
          ],
          "data": "0x0000000000000000000000000000000000000000000000000000000000000001",
          "blockHash": "0x0dc5612242ef66a8a5e35b3bd9aeb59314f74f7cbbe271f814d529f1c909b619",
          "blockNumber": "0x13bcc57",
          "transactionHash": "0xedd51a04e055aaac7074813d3287e716fb70d78113f60ec0de78fb755f11db5d",
          "transactionIndex": "0x58",
          "logIndex": "0x141",
          "removed": false
        }
      ],
      "logsBloom": "0x00000004000000000000000000000000000000000000000000000800000000000000010000000000000000000400000000000000000000000008000000000000000000000000000000000000000000000000000000000000000000000000000080000000000000000000000000000000000000000000000000000000000000000800000010000000000000000000000000000000000000000000000040000000000000000000000000000000000000000000000000000000000000000000000000000008000000000000000000000000000000000000000000000080000000000000000000000000000000000000000000000000000000000000000004000000",
      "type": "0x2",
      "transactionHash": "0xedd51a04e055aaac7074813d3287e716fb70d78113f60ec0de78fb755f11db5d",
      "transactionIndex": "0x58",
      "blockHash": "0x0dc5612242ef66a8a5e35b3bd9aeb59314f74f7cbbe271f814d529f1c909b619",
      "blockNumber": "0x13bcc57",
      "gasUsed": "0xbf5f",
      "effectiveGasPrice": "0x5420678e",
      "from": "0x25e426b153e74ab36b2685c3a464272de60888ae",
      "to": "0x9000fef2846a5253fd2c6ed5241de0fddb404302",
      "contractAddress": null
    },
    {
      "status": "0x1",
      "cumulativeGasUsed": "0x93aea5",
      "logs": [
        {
          "address": "0x9000fef2846a5253fd2c6ed5241de0fddb404302",
          "topics": [
            "0x70785a9b51e0166fb561479b514223d6b27cc81df3c02b16292211b860842f73",
            "0x000000000000000000000000cd5fe23c85820f7b72d0926fc9b05b43e359b7ee",
            "0xa9059cbb00000000000000000000000000000000000000000000000000000000"
          ],
          "data": "0x0000000000000000000000000000000000000000000000000000000000000001",
          "blockHash": "0xe83ba4c9824978c8359916cf3596d610fdbb2bbdeede0f1dce6f2bbb485a7f47",
          "blockNumber": "0x13bcc58",
          "transactionHash": "0x1eb05a93d8a03a613ca738d265f7a943706c32bf82e9f06005faf1a4d617302e",
          "transactionIndex": "0x6b",
          "logIndex": "0x148",
          "removed": false
        }
      ],
      "logsBloom": "0x00000004000000000000000000000000000000000010000000000800000000000000010000000000100000000000000000000000000000000000000000000000000000000000000000104000000000000000000000000000000000000000000080000000000000000000000000000000000000000000000000000000000000000800000000000000000000000000000000000000000000100000000040000000000000000000000000000000000000000000000000000000000000000000000000000000000000000000000000000000000000000000000000000000000000000000000000000000000000000000000000010000000000000000000000000000",
      "type": "0x2",
      "transactionHash": "0x1eb05a93d8a03a613ca738d265f7a943706c32bf82e9f06005faf1a4d617302e",
      "transactionIndex": "0x6b",
      "blockHash": "0xe83ba4c9824978c8359916cf3596d610fdbb2bbdeede0f1dce6f2bbb485a7f47",
      "blockNumber": "0x13bcc58",
      "gasUsed": "0xbf5f",
      "effectiveGasPrice": "0x516ed14b",
      "from": "0x25e426b153e74ab36b2685c3a464272de60888ae",
      "to": "0x9000fef2846a5253fd2c6ed5241de0fddb404302",
      "contractAddress": null
    },
    {
      "status": "0x1",
      "cumulativeGasUsed": "0xd3f22e",
      "logs": [
        {
          "address": "0x9000fef2846a5253fd2c6ed5241de0fddb404302",
          "topics": [
            "0x70785a9b51e0166fb561479b514223d6b27cc81df3c02b16292211b860842f73",
            "0x000000000000000000000000cd5fe23c85820f7b72d0926fc9b05b43e359b7ee",
            "0x095ea7b300000000000000000000000000000000000000000000000000000000"
          ],
          "data": "0x0000000000000000000000000000000000000000000000000000000000000001",
          "blockHash": "0xa613c88b6ad469badcea053918aa2267d8a863039861f924b107b7bd04657e71",
          "blockNumber": "0x13bcc59",
          "transactionHash": "0x881b96a948129ebef6703bb3f573942d1e56bba590d20e68b336fdd79ad2376c",
          "transactionIndex": "0x92",
          "logIndex": "0x1b1",
          "removed": false
        }
      ],
      "logsBloom": "0x00000004000000000000000000000000000000000010000000000800000000000000010000000000100000000400000000000000000000000008000000000000000000000000000000000000000000000000000000000000000000000000000080000000000000000000000000000000000000000000000000000000000000000800000000000000000000000000000000000000000000000000000040000000000000000000000000000000000000000000000000000000000000000000000000000008000000000000000000000000000000000000000000000000000000000000000000000000000000000000000000010000000000000000000000000000",
      "type": "0x2",
      "transactionHash": "0x881b96a948129ebef6703bb3f573942d1e56bba590d20e68b336fdd79ad2376c",
      "transactionIndex": "0x92",
      "blockHash": "0xa613c88b6ad469badcea053918aa2267d8a863039861f924b107b7bd04657e71",
      "blockNumber": "0x13bcc59",
      "gasUsed": "0xbf5f",
      "effectiveGasPrice": "0x4ebdf3b1",
      "from": "0x25e426b153e74ab36b2685c3a464272de60888ae",
      "to": "0x9000fef2846a5253fd2c6ed5241de0fddb404302",
      "contractAddress": null
    },
    {
      "status": "0x1",
      "cumulativeGasUsed": "0x820c8e",
      "logs": [
        {
          "address": "0x9000fef2846a5253fd2c6ed5241de0fddb404302",
          "topics": [
            "0x70785a9b51e0166fb561479b514223d6b27cc81df3c02b16292211b860842f73",
            "0x00000000000000000000000049446a0874197839d15395b908328a74ccc96bc0",
            "0xa9059cbb00000000000000000000000000000000000000000000000000000000"
          ],
          "data": "0x0000000000000000000000000000000000000000000000000000000000000001",
          "blockHash": "0xf77ffd5608c9a8fcf7f45ba935e2836a2bdb5487c66e0d5ddfb0f8b185329e6f",
          "blockNumber": "0x13bcc5a",
          "transactionHash": "0x4a8c0bc9079154d2a9e233f31061717dfbb94edecc5026a676c0478986fa2e4f",
          "transactionIndex": "0x5a",
          "logIndex": "0x107",
          "removed": false
        }
      ],
      "logsBloom": "0x01000004000000000000000000000000000000000000000000000800000000000000010000000000000000000000000000000000000000000000000000000000000000000000080000104000000000000000000000000000000000000000000080000000000000000000000000000000000000000000000000000000000000000800000000000000000000000000000000000000000000100000000040000000000000000000000000000000000000000000000000000000000000000000000000000000000000000000000000000000000000000000000000000000000000000000000000000000200000000000000000000000000000000000000000000000",
      "type": "0x2",
      "transactionHash": "0x4a8c0bc9079154d2a9e233f31061717dfbb94edecc5026a676c0478986fa2e4f",
      "transactionIndex": "0x5a",
      "blockHash": "0xf77ffd5608c9a8fcf7f45ba935e2836a2bdb5487c66e0d5ddfb0f8b185329e6f",
      "blockNumber": "0x13bcc5a",
      "gasUsed": "0xbf5f",
      "effectiveGasPrice": "0x4fa59cc7",
      "from": "0x25e426b153e74ab36b2685c3a464272de60888ae",
      "to": "0x9000fef2846a5253fd2c6ed5241de0fddb404302",
      "contractAddress": null
    },
    {
      "status": "0x1",
      "cumulativeGasUsed": "0x15791dd",
      "logs": [
        {
          "address": "0x9000fef2846a5253fd2c6ed5241de0fddb404302",
          "topics": [
            "0x70785a9b51e0166fb561479b514223d6b27cc81df3c02b16292211b860842f73",
            "0x00000000000000000000000049446a0874197839d15395b908328a74ccc96bc0",
            "0x095ea7b300000000000000000000000000000000000000000000000000000000"
          ],
          "data": "0x0000000000000000000000000000000000000000000000000000000000000001",
          "blockHash": "0x51e87796ccf1301cd5c9e30843da9dd9993f1a116be05857576cdae37713d3a3",
          "blockNumber": "0x13bcc5b",
          "transactionHash": "0x9ecb71b9845e31fccf780dc7eea5ed61fceb93a3de0adfe3094574eb34ca6a05",
          "transactionIndex": "0x69",
          "logIndex": "0x171",
          "removed": false
        }
      ],
      "logsBloom": "0x01000004000000000000000000000000000000000000000000000800000000000000010000000000000000000400000000000000000000000008000000000000000000000000080000000000000000000000000000000000000000000000000080000000000000000000000000000000000000000000000000000000000000000800000000000000000000000000000000000000000000000000000040000000000000000000000000000000000000000000000000000000000000000000000000000008000000000000000000000000000000000000000000000000000000000000000000000000200000000000000000000000000000000000000000000000",
      "type": "0x2",
      "transactionHash": "0x9ecb71b9845e31fccf780dc7eea5ed61fceb93a3de0adfe3094574eb34ca6a05",
      "transactionIndex": "0x69",
      "blockHash": "0x51e87796ccf1301cd5c9e30843da9dd9993f1a116be05857576cdae37713d3a3",
      "blockNumber": "0x13bcc5b",
      "gasUsed": "0xbf5f",
      "effectiveGasPrice": "0x4c8193d5",
      "from": "0x25e426b153e74ab36b2685c3a464272de60888ae",
      "to": "0x9000fef2846a5253fd2c6ed5241de0fddb404302",
      "contractAddress": null
    },
    {
      "status": "0x1",
      "cumulativeGasUsed": "0xdd180",
      "logs": [
        {
          "address": "0x9000fef2846a5253fd2c6ed5241de0fddb404302",
          "topics": [
            "0x70785a9b51e0166fb561479b514223d6b27cc81df3c02b16292211b860842f73",
            "0x00000000000000000000000082f5104b23ff2fa54c2345f821dac9369e9e0b26",
            "0xa9059cbb00000000000000000000000000000000000000000000000000000000"
          ],
          "data": "0x0000000000000000000000000000000000000000000000000000000000000001",
          "blockHash": "0x6d282de40d8fa27203a4a76e521481062ca75f894667c2c1651f64dcd49574a1",
          "blockNumber": "0x13bcc5c",
          "transactionHash": "0x75be1d135b4bc0506702f35e77e33cfbcf2c06e3a1b436d425bdf80daa5a781d",
          "transactionIndex": "0x17",
          "logIndex": "0x11",
          "removed": false
        }
      ],
      "logsBloom": "0x00000004000000000000000000000000000000000000000000000800000000000000010000100000000000000000000000000000000000000000000000000000000000000000000000104000000000000000000000000000000000000000000080000000000000000000000000000000000000000000000000000000000000000800000000000000000000000000000000000000000000100000000040000000000000400000000000000000000000000000000100000000000000000000000000000000000000000000000000000000000000000000000000000000000000000000000000000000000000000000000000000000000000000000000000000000",
      "type": "0x2",
      "transactionHash": "0x75be1d135b4bc0506702f35e77e33cfbcf2c06e3a1b436d425bdf80daa5a781d",
      "transactionIndex": "0x17",
      "blockHash": "0x6d282de40d8fa27203a4a76e521481062ca75f894667c2c1651f64dcd49574a1",
      "blockNumber": "0x13bcc5c",
      "gasUsed": "0xbf5f",
      "effectiveGasPrice": "0x52d1b367",
      "from": "0x25e426b153e74ab36b2685c3a464272de60888ae",
      "to": "0x9000fef2846a5253fd2c6ed5241de0fddb404302",
      "contractAddress": null
    },
    {
      "status": "0x1",
      "cumulativeGasUsed": "0xb5e44c",
      "logs": [
        {
          "address": "0x9000fef2846a5253fd2c6ed5241de0fddb404302",
          "topics": [
            "0x70785a9b51e0166fb561479b514223d6b27cc81df3c02b16292211b860842f73",
            "0x000000000000000000000000e1b4d34e8754600962cd944b535180bd758e6c2e",
            "0xa9059cbb00000000000000000000000000000000000000000000000000000000"
          ],
          "data": "0x0000000000000000000000000000000000000000000000000000000000000001",
          "blockHash": "0x71d74d14c4e54b85e29fe46f89844ab11234ac200e06e93183533101f96e1678",
          "blockNumber": "0x13bcc5d",
          "transactionHash": "0x426424955bb576e4a1f86dffed178f82965cc27fc43ba0806031121aa69ad2eb",
          "transactionIndex": "0x56",
          "logIndex": "0x10a",
          "removed": false
        }
      ],
      "logsBloom": "0x00000004000000000000000000000000000000000000000000000800000000000000010000000000002000000000000000000000000000000000000000000000000000000000000000104000000000000000000000000000000000000000000080000000000000000000000000000000000000000000000000000000000000000800000000000000000000000000080000000000000000100000000040000000000000000000000000000000000000000080000000000000000000000000000000000000000000000000000000000000000000000000000000000000000000000000000000000000000000000000000000000000000000000000000000000000",
      "type": "0x2",
      "transactionHash": "0x426424955bb576e4a1f86dffed178f82965cc27fc43ba0806031121aa69ad2eb",
      "transactionIndex": "0x56",
      "blockHash": "0x71d74d14c4e54b85e29fe46f89844ab11234ac200e06e93183533101f96e1678",
      "blockNumber": "0x13bcc5d",
      "gasUsed": "0xbf5f",
      "effectiveGasPrice": "0x4e91d83a",
      "from": "0x25e426b153e74ab36b2685c3a464272de60888ae",
      "to": "0x9000fef2846a5253fd2c6ed5241de0fddb404302",
      "contractAddress": null
    },
    {
      "status": "0x1",
      "cumulativeGasUsed": "0x961699",
      "logs": [
        {
          "address": "0x9000fef2846a5253fd2c6ed5241de0fddb404302",
          "topics": [
            "0x70785a9b51e0166fb561479b514223d6b27cc81df3c02b16292211b860842f73",
            "0x000000000000000000000000c329400492c6ff2438472d4651ad17389fcb843a",
            "0xa9059cbb00000000000000000000000000000000000000000000000000000000"
          ],
          "data": "0x0000000000000000000000000000000000000000000000000000000000000001",
          "blockHash": "0xffae2e8b62525dc8e5ccfcfbb925cb7141de81a354f4066b935255f23c74b596",
          "blockNumber": "0x13bcc5e",
          "transactionHash": "0x0e5a8a902712ab87072275c7b82b2b321b7250645ebb5ed8bf0c6496616de724",
          "transactionIndex": "0x66",
          "logIndex": "0x13b",
          "removed": false
        }
      ],
      "logsBloom": "0x00000004000000000000000000100000000000000000000000000800000000000000010000000000000000000000000000000000000000000000000000000000000000000000000000904000000000000000000000000000000000000000000080000000000000000000000000000000000000000000000000000000000000000800000000000040000000000000000000000000000000100000000040000000000000000000000000000000000000000000000000000000000000000000000000000000000000000000000000000000000000000000000000000000000000000000000000000000000000000000000000000000000000000000000000000000",
      "type": "0x2",
      "transactionHash": "0x0e5a8a902712ab87072275c7b82b2b321b7250645ebb5ed8bf0c6496616de724",
      "transactionIndex": "0x66",
      "blockHash": "0xffae2e8b62525dc8e5ccfcfbb925cb7141de81a354f4066b935255f23c74b596",
      "blockNumber": "0x13bcc5e",
      "gasUsed": "0xbf5f",
      "effectiveGasPrice": "0x4eebc019",
      "from": "0x25e426b153e74ab36b2685c3a464272de60888ae",
      "to": "0x9000fef2846a5253fd2c6ed5241de0fddb404302",
      "contractAddress": null
    },
    {
      "status": "0x1",
      "cumulativeGasUsed": "0x5b2fc6",
      "logs": [
        {
          "address": "0x9000fef2846a5253fd2c6ed5241de0fddb404302",
          "topics": [
            "0x70785a9b51e0166fb561479b514223d6b27cc81df3c02b16292211b860842f73",
            "0x00000000000000000000000019d0d8e6294b7a04a2733fe433444704b791939a",
            "0xa9059cbb00000000000000000000000000000000000000000000000000000000"
          ],
          "data": "0x0000000000000000000000000000000000000000000000000000000000000001",
          "blockHash": "0x6e891c0ff322159ec350c64f52644927f0c19365cd72af9fe1c18787266f0ed6",
          "blockNumber": "0x13bcc5f",
          "transactionHash": "0x4061a933ea3fde791effb7526079be7f8afc8f992a24dbf15409c65eacb7d983",
          "transactionIndex": "0x37",
          "logIndex": "0xb3",
          "removed": false
        }
      ],
      "logsBloom": "0x00000004000000000000000000000000000000000000000000000800000000000000010000000000000000000000000000000000000000000000020000000000000000000000000000104000000000000000000000000000000000000000000080000000000000000000000000000000000000000000000000000000000000000800000000000000000000000000000008000000000000100000000040000000000000000000000000000000000000000000000000000000000000000000000000000000001000000000000000000000000000000000000000000000000000000000000000000000000000000000000000000000000000000000000000000000",
      "type": "0x2",
      "transactionHash": "0x4061a933ea3fde791effb7526079be7f8afc8f992a24dbf15409c65eacb7d983",
      "transactionIndex": "0x37",
      "blockHash": "0x6e891c0ff322159ec350c64f52644927f0c19365cd72af9fe1c18787266f0ed6",
      "blockNumber": "0x13bcc5f",
      "gasUsed": "0xbf5f",
      "effectiveGasPrice": "0x4ca04f52",
      "from": "0x25e426b153e74ab36b2685c3a464272de60888ae",
      "to": "0x9000fef2846a5253fd2c6ed5241de0fddb404302",
      "contractAddress": null
    },
    {
      "status": "0x1",
      "cumulativeGasUsed": "0x739ccf",
      "logs": [
        {
          "address": "0x9000fef2846a5253fd2c6ed5241de0fddb404302",
          "topics": [
            "0x8be0079c531659141344cd1fd0a4f28419497f9722a3daafe3b4186f6b6457e0",
            "0x00000000000000000000000025e426b153e74ab36b2685c3a464272de60888ae",
            "0x0000000000000000000000009d89745fd63af482ce93a9adb8b0bbdbb98d3e06"
          ],
          "data": "0x",
          "blockHash": "0x8a14eac98a6a3f8282d02165dc0c9b1b9355bab3ce670f72939bbbe72ea37db7",
          "blockNumber": "0x13bcc60",
          "transactionHash": "0xf432681014cde0b1c26305913ca7f99f498a7c0be91fb0793725fe09f3ba2da8",
          "transactionIndex": "0x53",
          "logIndex": "0xd9",
          "removed": false
        }
      ],
      "logsBloom": "0x00000000000000000000000000000000000000000000000000800000000000400000010000000000000000000000000000000000000008000000000000000000080000000000000000000000000000000001000000000000000002000000000080000000000000000000000000000000000000000000000000000000000000400800000000000800000000000000000000000000000000000000000000000000000000000000000000000000000000000000020000000000000000000000000000000000000000000000000000000000000000000000000000000000000000000000000000000000000000000000000000000000000000000000000000000000",
      "type": "0x2",
      "transactionHash": "0xf432681014cde0b1c26305913ca7f99f498a7c0be91fb0793725fe09f3ba2da8",
      "transactionIndex": "0x53",
      "blockHash": "0x8a14eac98a6a3f8282d02165dc0c9b1b9355bab3ce670f72939bbbe72ea37db7",
      "blockNumber": "0x13bcc60",
      "gasUsed": "0x6fe7",
      "effectiveGasPrice": "0x4ab474e0",
      "from": "0x25e426b153e74ab36b2685c3a464272de60888ae",
      "to": "0x9000fef2846a5253fd2c6ed5241de0fddb404302",
      "contractAddress": null
    },
    {
      "status": "0x1",
      "cumulativeGasUsed": "0x81f49f",
      "logs": [
        {
          "address": "0x28c3498b4956f4ad8d4549aca8f66260975d361a",
          "topics": [
            "0x8be0079c531659141344cd1fd0a4f28419497f9722a3daafe3b4186f6b6457e0",
            "0x00000000000000000000000025e426b153e74ab36b2685c3a464272de60888ae",
            "0x0000000000000000000000009d89745fd63af482ce93a9adb8b0bbdbb98d3e06"
          ],
          "data": "0x",
          "blockHash": "0x04419a2acd4e34f5968bf3a544f303c69a2f790899f83c64fa1dfd2455d48eb9",
          "blockNumber": "0x13bcc61",
          "transactionHash": "0xd3b616a0d7291780dbe5ca284b432f109a0210990f1e3569c734ea1ab5fffbaf",
          "transactionIndex": "0x64",
          "logIndex": "0xea",
          "removed": false
        }
      ],
      "logsBloom": "0x00000000000000000000000000000000080000000000000200800000000000400000000000000000000000000000000000000000000008000000000000000000080000000000000000000000000000000001000000000000000002000000000000000000000000000000000000000000000000000000000000000000000000400000000000000800000000000000000000000000000000000000000000000000000000000000000000000000000000000000020000000000000000000000000000000000000000000000000000000000000000000000000000000000000000000000000000000000000000000000000000000000000000000100000000000000",
      "type": "0x2",
      "transactionHash": "0xd3b616a0d7291780dbe5ca284b432f109a0210990f1e3569c734ea1ab5fffbaf",
      "transactionIndex": "0x64",
      "blockHash": "0x04419a2acd4e34f5968bf3a544f303c69a2f790899f83c64fa1dfd2455d48eb9",
      "blockNumber": "0x13bcc61",
      "gasUsed": "0x6fbb",
      "effectiveGasPrice": "0x4a8f9298",
      "from": "0x25e426b153e74ab36b2685c3a464272de60888ae",
      "to": "0x28c3498b4956f4ad8d4549aca8f66260975d361a",
      "contractAddress": null
    },
    {
      "status": "0x1",
      "cumulativeGasUsed": "0x5ba61e",
      "logs": [
        {
          "address": "0x5774abcf415f34592514698eb075051e97db2937",
          "topics": [
            "0x8be0079c531659141344cd1fd0a4f28419497f9722a3daafe3b4186f6b6457e0",
            "0x00000000000000000000000025e426b153e74ab36b2685c3a464272de60888ae",
            "0x0000000000000000000000009d89745fd63af482ce93a9adb8b0bbdbb98d3e06"
          ],
          "data": "0x",
          "blockHash": "0x0699903ab4765b21c8fa37e1f2dfdac4af3ddff5d077d1e104a1c7427c46cef4",
          "blockNumber": "0x13bcc62",
          "transactionHash": "0x74872cf48eb25895ad8db589024e0c10f0cc1b98fc4f12feb779959760a7b77e",
          "transactionIndex": "0x42",
          "logIndex": "0xbb",
          "removed": false
        }
      ],
      "logsBloom": "0x00000000000000000000000000000000000000000000000000800001000000400000000000000000000000000000000000000000000008000000000000000000080000000000000000000000000000000001000000000000000002000000000000000000000000000000000000000000000000000000000000000000000000400000000000000800000000000000000000000000000000000000000000000000000000000000000000000000000000000000020000000000000000000000000000000000000000002000000000000000000000000000000000000800000000000000000000000000000000000000000000000000000000000000000000000000",
      "type": "0x2",
      "transactionHash": "0x74872cf48eb25895ad8db589024e0c10f0cc1b98fc4f12feb779959760a7b77e",
      "transactionIndex": "0x42",
      "blockHash": "0x0699903ab4765b21c8fa37e1f2dfdac4af3ddff5d077d1e104a1c7427c46cef4",
      "blockNumber": "0x13bcc62",
      "gasUsed": "0x6fe7",
      "effectiveGasPrice": "0x48b22636",
      "from": "0x25e426b153e74ab36b2685c3a464272de60888ae",
      "to": "0x5774abcf415f34592514698eb075051e97db2937",
      "contractAddress": null
    }
  ],
  "libraries": [],
  "pending": [],
  "returns": {},
  "timestamp": 1725681280,
  "chain": 1,
  "commit": "999cee5"
}