{
  "transactions": [
    {
      "hash": "0x6bd12d8125733304770dae9f0e2f75a4751da4cca809e2bff84be8ff02a4db38",
      "transactionType": "CREATE",
      "contractName": "RumpelModule",
      "contractAddress": "0xa1804146617bfdb81df7bf35a1dcc02f922559fe",
      "function": null,
      "arguments": [
        "0x98FFBBF51bb33A056B08ddf711f289936AafF717"
      ],
      "transaction": {
        "from": "0x25e426b153e74ab36b2685c3a464272de60888ae",
        "gas": "0xba05c",
        "value": "0x0",
        "input": "0x60a060405234801561000f575f80fd5b50604051610a2a380380610a2a83398101604081905261002e916100bd565b338061005357604051631e4fbdf760e01b81525f600482015260240160405180910390fd5b61005c8161006e565b506001600160a01b03166080526100ea565b5f80546001600160a01b038381166001600160a01b0319831681178455604051919092169283917f8be0079c531659141344cd1fd0a4f28419497f9722a3daafe3b4186f6b6457e09190a35050565b5f602082840312156100cd575f80fd5b81516001600160a01b03811681146100e3575f80fd5b9392505050565b6080516109226101085f395f818160c6015261031701526109225ff3fe608060405234801561000f575f80fd5b506004361061006b575f3560e01c806330fba6c91461006f57806360d0825a14610084578063715018a6146100975780638da5cb5b1461009f578063dfe274a9146100c1578063f2fde38b146100e8578063ff346513146100fb575b5f80fd5b61008261007d36600461061e565b610138565b005b6100826100923660046106a1565b6104e6565b610082610553565b5f546001600160a01b03165b6040516100b891906106e4565b60405180910390f35b6100ab7f000000000000000000000000000000000000000000000000000000000000000081565b6100826100f63660046106f8565b610566565b6101286101093660046106a1565b600160209081525f928352604080842090915290825290205460ff1681565b60405190151581526020016100b8565b6101406105a3565b5f5b818110156104e1573683838381811061015d5761015d61071a565b905060200281019061016f919061072e565b90505f60018161018560408501602086016106f8565b6001600160a01b03166001600160a01b031681526020019081526020015f205f8380604001906101b5919061074c565b6101be91610796565b6001600160e01b031916815260208082019290925260409081015f9081205460ff169350916101f19185019085016106f8565b6001600160a01b031661020760208501856106f8565b6001600160a01b03161490508180610281575080801561028157505f80805260016020527fa6eef7e35abe7026729641147f7915573c7e97b47efa546f5f6e3230263bcb499061025a604086018661074c565b61026391610796565b6001600160e01b031916815260208101919091526040015f205460ff165b156102e55761029660408401602085016106f8565b6102a3604085018561074c565b6102ac91610796565b60405163d9f5e14560e01b81526001600160a01b0390921660048301526001600160e01b03191660248201526044015b60405180910390fd5b60016102f760808501606086016107da565b6001811115610308576103086107c6565b03610365576001600160a01b037f00000000000000000000000000000000000000000000000000000000000000001661034760408501602086016106f8565b6001600160a01b0316146103655761029660408401602085016106f8565b5f61037360208501856106f8565b6001600160a01b031663468721a761039160408701602088016106f8565b5f61039f604089018961074c565b6103af60808b0160608c016107da565b6040518663ffffffff1660e01b81526004016103cf959493929190610820565b6020604051808303815f875af11580156103eb573d5f803e3d5ffd5b505050506040513d601f19601f8201168201806040525081019061040f9190610875565b90508061045d5761042360208501856106f8565b61043360408601602087016106f8565b610440604087018761074c565b60405163cfe2912d60e01b81526004016102dc9493929190610894565b61046d60408501602086016106f8565b6001600160a01b031661048360208601866106f8565b6001600160a01b03167f3eea0f8d20bb5211fdbae9b74a0eeb251db06ff99c584eff18d331d46c033d445f6104bb604089018961074c565b6040516104ca939291906108ca565b60405180910390a384600101945050505050610142565b505050565b6104ee6105a3565b6001600160a01b0382165f8181526001602081815260408084206001600160e01b031987168086529252808420805460ff191690931790925590519092917fbd2ecf3a575dfdb98cf6475d8c68efb6cdcce886ac9db5f29a9fdc1b17cc3c8891a35050565b61055b6105a3565b6105645f6105cf565b565b61056e6105a3565b6001600160a01b038116610597575f604051631e4fbdf760e01b81526004016102dc91906106e4565b6105a0816105cf565b50565b5f546001600160a01b03163314610564573360405163118cdaa760e01b81526004016102dc91906106e4565b5f80546001600160a01b038381166001600160a01b0319831681178455604051919092169283917f8be0079c531659141344cd1fd0a4f28419497f9722a3daafe3b4186f6b6457e09190a35050565b5f806020838503121561062f575f80fd5b823567ffffffffffffffff80821115610646575f80fd5b818501915085601f830112610659575f80fd5b813581811115610667575f80fd5b8660208260051b850101111561067b575f80fd5b60209290920196919550909350505050565b6001600160a01b03811681146105a0575f80fd5b5f80604083850312156106b2575f80fd5b82356106bd8161068d565b915060208301356001600160e01b0319811681146106d9575f80fd5b809150509250929050565b6001600160a01b0391909116815260200190565b5f60208284031215610708575f80fd5b81356107138161068d565b9392505050565b634e487b7160e01b5f52603260045260245ffd5b5f8235607e19833603018112610742575f80fd5b9190910192915050565b5f808335601e19843603018112610761575f80fd5b83018035915067ffffffffffffffff82111561077b575f80fd5b60200191503681900382131561078f575f80fd5b9250929050565b6001600160e01b031981358181169160048510156107be5780818660040360031b1b83161692505b505092915050565b634e487b7160e01b5f52602160045260245ffd5b5f602082840312156107ea575f80fd5b813560028110610713575f80fd5b81835281816020850137505f828201602090810191909152601f909101601f19169091010190565b60018060a01b0386168152846020820152608060408201525f6108476080830185876107f8565b90506002831061086557634e487b7160e01b5f52602160045260245ffd5b8260608301529695505050505050565b5f60208284031215610885575f80fd5b81518015158114610713575f80fd5b6001600160a01b038581168252841660208201526060604082018190525f906108c090830184866107f8565b9695505050505050565b838152604060208201525f6108e36040830184866107f8565b9594505050505056fea2646970667358221220d666f8e7e931d8faec9809d16f9f3e6e72548bdc3fa0b5117c3bb8b66ebacd1364736f6c6343000818003300000000000000000000000098ffbbf51bb33a056b08ddf711f289936aaff717",
        "nonce": "0x2b",
        "chainId": "0x3e7"
      },
      "additionalContracts": [],
      "isFixedGasLimit": false
    },
    {
      "hash": "0x6d93a16ef6a14e821df9433e1ac837dc92c810ddfae1047a5d650018ce5ea7f7",
      "transactionType": "CREATE",
      "contractName": "RumpelGuard",
      "contractAddress": "0x33e3fca5c2972781a32ca0f034ae293d77962210",
      "function": null,
      "arguments": [
        "0x98FFBBF51bb33A056B08ddf711f289936AafF717"
      ],
      "transaction": {
        "from": "0x25e426b153e74ab36b2685c3a464272de60888ae",
        "gas": "0xbaea3",
        "value": "0x0",
        "input": "0x60a060405234801561000f575f80fd5b50604051610a38380380610a3883398101604081905261002e916100bd565b338061005357604051631e4fbdf760e01b81525f600482015260240160405180910390fd5b61005c8161006e565b506001600160a01b03166080526100ea565b5f80546001600160a01b038381166001600160a01b0319831681178455604051919092169283917f8be0079c531659141344cd1fd0a4f28419497f9722a3daafe3b4186f6b6457e09190a35050565b5f602082840312156100cd575f80fd5b81516001600160a01b03811681146100e3575f80fd5b9392505050565b60805161092f6101095f395f81816101580152610314015261092f5ff3fe608060405234801561000f575f80fd5b5060043610610081575f3560e01c806301ffc9a7146100855780635534fa0c146100be578063715018a6146100d357806375f0bb52146100db5780638da5cb5b146100ee5780639327136814610107578063b23ade8014610119578063dfe274a914610153578063f2fde38b1461017a575b5f80fd5b6100a96100933660046105c2565b6001600160e01b03191663736bd41d60e11b1490565b60405190151581526020015b60405180910390f35b6100d16100cc366004610601565b61018d565b005b6100d1610296565b6100d16100e93660046106f5565b6102a9565b5f546001600160a01b03165b6040516100b591906107d1565b6100d16101153660046107e5565b5050565b610146610127366004610817565b600160209081525f928352604080842090915290825290205460ff1681565b6040516100b5919061085e565b6100fa7f000000000000000000000000000000000000000000000000000000000000000081565b6100d1610188366004610884565b6104ee565b61019561052b565b60026001600160a01b0384165f9081526001602090815260408083206001600160e01b03198716845290915290205460ff1660028111156101d8576101d861084a565b036101f6576040516301a3c1f160e71b815260040160405180910390fd5b6001600160a01b0383165f9081526001602081815260408084206001600160e01b0319871685529091529091208054839260ff19909116908360028111156102405761024061084a565b0217905550816001600160e01b031916836001600160a01b03167f70785a9b51e0166fb561479b514223d6b27cc81df3c02b16292211b860842f7383604051610289919061085e565b60405180910390a3505050565b61029e61052b565b6102a75f610557565b565b5f89511180156102ba575060048951105b156102ed578a6102c98a61089f565b60405163805043f960e01b81526004016102e49291906108d6565b60405180910390fd5b5f6102f78a61089f565b9050600189600181111561030d5761030d61084a565b0361036e577f00000000000000000000000000000000000000000000000000000000000000006001600160a01b03168c6001600160a01b03160361035157506104e1565b8b8160405163805043f960e01b81526004016102e49291906108d6565b336001600160a01b038d161480156103f3576001600160e01b031982165f9081527fa6eef7e35abe7026729641147f7915573c7e97b47efa546f5f6e3230263bcb49602052604081205460ff1660028111156103cc576103cc61084a565b036103ee578c8260405163805043f960e01b81526004016102e49291906108d6565b6104de565b8a515f0361047b575f8080527fa6eef7e35abe7026729641147f7915573c7e97b47efa546f5f6e3230263bcb496020527fe5d06582d467054dda5404b9e1ec93f72b608a4970ba970773776c69ca5664f75460ff1660028111156104595761045961084a565b036103ee5760405163805043f960e01b81526102e4905f9081906004016108d6565b6001600160a01b038d165f9081526001602090815260408083206001600160e01b03198616845290915281205460ff1660028111156104bc576104bc61084a565b036104de578c8260405163805043f960e01b81526004016102e49291906108d6565b50505b5050505050505050505050565b6104f661052b565b6001600160a01b03811661051f575f604051631e4fbdf760e01b81526004016102e491906107d1565b61052881610557565b50565b5f546001600160a01b031633146102a7573360405163118cdaa760e01b81526004016102e491906107d1565b5f80546001600160a01b038381166001600160a01b0319831681178455604051919092169283917f8be0079c531659141344cd1fd0a4f28419497f9722a3daafe3b4186f6b6457e09190a35050565b80356001600160e01b0319811681146105bd575f80fd5b919050565b5f602082840312156105d2575f80fd5b6105db826105a6565b9392505050565b6001600160a01b0381168114610528575f80fd5b80356105bd816105e2565b5f805f60608486031215610613575f80fd5b833561061e816105e2565b925061062c602085016105a6565b915060408401356003811061063f575f80fd5b809150509250925092565b634e487b7160e01b5f52604160045260245ffd5b5f82601f83011261066d575f80fd5b813567ffffffffffffffff808211156106885761068861064a565b604051601f8301601f19908116603f011681019082821181831017156106b0576106b061064a565b816040528381528660208588010111156106c8575f80fd5b836020870160208301375f602085830101528094505050505092915050565b8035600281106105bd575f80fd5b5f805f805f805f805f805f6101608c8e031215610710575f80fd5b6107198c6105f6565b9a5060208c0135995067ffffffffffffffff8060408e0135111561073b575f80fd5b61074b8e60408f01358f0161065e565b995061075960608e016106e7565b985060808d0135975060a08d0135965060c08d0135955061077c60e08e016105f6565b945061078b6101008e016105f6565b9350806101208e0135111561079e575f80fd5b506107b08d6101208e01358e0161065e565b91506107bf6101408d016105f6565b90509295989b509295989b9093969950565b6001600160a01b0391909116815260200190565b5f80604083850312156107f6575f80fd5b823591506020830135801515811461080c575f80fd5b809150509250929050565b5f8060408385031215610828575f80fd5b8235610833816105e2565b9150610841602084016105a6565b90509250929050565b634e487b7160e01b5f52602160045260245ffd5b602081016003831061087e57634e487b7160e01b5f52602160045260245ffd5b91905290565b5f60208284031215610894575f80fd5b81356105db816105e2565b805160208201516001600160e01b031980821692919060048310156108ce5780818460040360031b1b83161693505b505050919050565b6001600160a01b039290921682526001600160e01b03191660208201526040019056fea2646970667358221220b53ea60ece14ab9cc70a8b944a78b2da9414eb06fc9b940cd73640a9821d4a2a64736f6c6343000818003300000000000000000000000098ffbbf51bb33a056b08ddf711f289936aaff717",
        "nonce": "0x2c",
        "chainId": "0x3e7"
      },
      "additionalContracts": [],
      "isFixedGasLimit": false
    },
    {
      "hash": "0x96d1f03417dadd52f50d1c5d3e72a783f316b1759e87bce379221b8932b338dc",
      "transactionType": "CREATE",
      "contractName": "ValidationBeacon",
      "contractAddress": "0xacd63174365d940680e788d93c5e6231a915e89a",
      "function": null,
      "arguments": null,
      "transaction": {
        "from": "0x25e426b153e74ab36b2685c3a464272de60888ae",
        "gas": "0x32c30",
        "value": "0x0",
        "input": "0x608060405234801561000f575f80fd5b506101ed8061001d5f395ff3fe608060405234801561000f575f80fd5b5060043610610029575f3560e01c80635859b2611461002d575b5f80fd5b61004061003b36600461010f565b610054565b604051901515815260200160405180910390f35b604051635ae6bd3760e01b8152600481018590525f906001600160a01b03831690635ae6bd3790602401602060405180830381865afa158015610099573d5f803e3d5ffd5b505050506040513d601f19601f820116820180604052508101906100bd91906101a0565b1515979650505050505050565b5f8083601f8401126100da575f80fd5b50813567ffffffffffffffff8111156100f1575f80fd5b602083019150836020828501011115610108575f80fd5b9250929050565b5f805f805f8060808789031215610124575f80fd5b863567ffffffffffffffff8082111561013b575f80fd5b6101478a838b016100ca565b9098509650602089013595506040890135915080821115610166575f80fd5b5061017389828a016100ca565b90945092505060608701356001600160a01b0381168114610192575f80fd5b809150509295509295509295565b5f602082840312156101b0575f80fd5b505191905056fea2646970667358221220a786c1fb57aa6db2387036f77326f91af74f6764b5c6ed9d1f1088b8b3bf075564736f6c63430008180033",
        "nonce": "0x2d",
        "chainId": "0x3e7"
      },
      "additionalContracts": [],
      "isFixedGasLimit": false
    },
    {
      "hash": "0x1b9fceae1cee50e2c23103823eb6cc1231651276dbd4deb45ac43706d1cef2ca",
      "transactionType": "CREATE",
      "contractName": "CompatibilityFallbackHandler",
      "contractAddress": "0x5f6ce7dbd37b2bd153fcacc1256158f56b74b29e",
      "function": null,
      "arguments": [
        "0x3ffd3d3695Ee8D51A54b46e37bACAa86776A8CDA",
        "0xAcd63174365D940680E788D93C5E6231a915E89a"
      ],
      "transaction": {
        "from": "0x25e426b153e74ab36b2685c3a464272de60888ae",
        "gas": "0x1186b2",
        "value": "0x0",
        "input": "0x608060405234801561000f575f80fd5b50604051610edc380380610edc83398101604081905261002e91610075565b5f80546001600160a01b039384166001600160a01b031991821617909155600180549290931691161790556100ad565b6001600160a01b0381168114610072575f80fd5b50565b5f8060408385031215610086575f80fd5b82516100918161005e565b60208401519092506100a28161005e565b809150509250929050565b610e22806100ba5f395ff3fe608060405234801561000f575f80fd5b50600436106100d1575f3560e01c8063230316401161008457806323031640146101a957806354dd349c146101c95780636ac24784146101f45780638da5cb5b14610207578063b2494df314610219578063bc197c811461022e578063bd61951d14610250578063f23a6e6114610263575f80fd5b806223de29146100d557806301ffc9a7146100ef5780630a1028c41461011757806311e1e04214610138578063150b7a021461014b5780631626ba7e1461018357806320c13b0b14610196575b5f80fd5b6100ed6100e336600461072f565b5050505050505050565b005b6101026100fd3660046107d8565b610283565b60405190151581526020015b60405180910390f35b61012a6101253660046108ae565b6102d4565b60405190815260200161010e565b6100ed6101463660046108e7565b6102df565b61016a610159366004610902565b630a85bd0160e11b95945050505050565b6040516001600160e01b0319909116815260200161010e565b61016a61019136600461096f565b61034c565b61016a6101a43660046109b2565b61042c565b6101bc6101b7366004610a07565b6104e8565b60405161010e9190610a80565b6001546101dc906001600160a01b031681565b6040516001600160a01b03909116815260200161010e565b61012a610202366004610a07565b6105f6565b5f546101dc906001600160a01b031681565b610221610610565b60405161010e9190610a92565b61016a61023c366004610b1e565b63bc197c8160e01b98975050505050505050565b6101bc61025e366004610bb3565b610686565b61016a610271366004610c03565b63f23a6e6160e01b9695505050505050565b5f6001600160e01b03198216630271189760e51b14806102b357506001600160e01b03198216630a85bd0160e11b145b806102ce57506001600160e01b031982166301ffc9a760e01b145b92915050565b5f6102ce33836105f6565b5f546001600160a01b0316331461032a5760405162461bcd60e51b815260206004820152600a60248201526937b7363c9037bbb732b960b11b60448201526064015b60405180910390fd5b600180546001600160a01b0319166001600160a01b0392909216919091179055565b5f803390505f61037d828660405160200161036991815260200190565b6040516020818303038152906040526104e8565b80516020820120600154604051635859b26160e01b815292935090916001600160a01b0390911690635859b261906103bf90859085908a908990600401610c79565b602060405180830381865afa1580156103da573d5f803e3d5ffd5b505050506040513d601f19601f820116820180604052508101906103fe9190610cbd565b61041a5760405162461bcd60e51b815260040161032190610cdc565b50630b135d3f60e11b95945050505050565b5f338161043982866104e8565b80516020820120600154604051635859b26160e01b815292935090916001600160a01b0390911690635859b2619061047b90859085908a908990600401610c79565b602060405180830381865afa158015610496573d5f803e3d5ffd5b505050506040513d601f19601f820116820180604052508101906104ba9190610cbd565b6104d65760405162461bcd60e51b815260040161032190610cdc565b506320c13b0b60e01b95945050505050565b60605f7f60b3cbf8b4a223d68d641b3b6ddf9a298e7f33710cf3d3a9d1146b5a6150fbca5f1b8380519060200120604051602001610530929190918252602082015260400190565b604051602081830303815290604052805190602001209050601960f81b600160f81b856001600160a01b031663f698da256040518163ffffffff1660e01b8152600401602060405180830381865afa15801561058e573d5f803e3d5ffd5b505050506040513d601f19601f820116820180604052508101906105b29190610d07565b6040516001600160f81b0319938416602082015292909116602183015260228201526042810182905260620160405160208183030381529060405291505092915050565b5f61060183836104e8565b80519060200120905092915050565b604051636617c22960e11b815260016004820152600a602482015260609033905f90829063cc2f8452906044015f60405180830381865afa158015610657573d5f803e3d5ffd5b505050506040513d5f823e601f3d908101601f1916820160405261067e9190810190610d2e565b509392505050565b606060405163b4faba0960e01b81526004360360048083013760205f36835f335af1505060203d036040519150808201604052806020833e505f516106cd57805160208201fd5b9392505050565b6001600160a01b03811681146106e8575f80fd5b50565b5f8083601f8401126106fb575f80fd5b5081356001600160401b03811115610711575f80fd5b602083019150836020828501011115610728575f80fd5b9250929050565b5f805f805f805f8060c0898b031215610746575f80fd5b8835610751816106d4565b97506020890135610761816106d4565b96506040890135610771816106d4565b95506060890135945060808901356001600160401b0380821115610793575f80fd5b61079f8c838d016106eb565b909650945060a08b01359150808211156107b7575f80fd5b506107c48b828c016106eb565b999c989b5096995094979396929594505050565b5f602082840312156107e8575f80fd5b81356001600160e01b0319811681146106cd575f80fd5b634e487b7160e01b5f52604160045260245ffd5b604051601f8201601f191681016001600160401b038111828210171561083b5761083b6107ff565b604052919050565b5f82601f830112610852575f80fd5b81356001600160401b0381111561086b5761086b6107ff565b61087e601f8201601f1916602001610813565b818152846020838601011115610892575f80fd5b816020850160208301375f918101602001919091529392505050565b5f602082840312156108be575f80fd5b81356001600160401b038111156108d3575f80fd5b6108df84828501610843565b949350505050565b5f602082840312156108f7575f80fd5b81356106cd816106d4565b5f805f805f60808688031215610916575f80fd5b8535610921816106d4565b94506020860135610931816106d4565b93506040860135925060608601356001600160401b03811115610952575f80fd5b61095e888289016106eb565b969995985093965092949392505050565b5f8060408385031215610980575f80fd5b8235915060208301356001600160401b0381111561099c575f80fd5b6109a885828601610843565b9150509250929050565b5f80604083850312156109c3575f80fd5b82356001600160401b03808211156109d9575f80fd5b6109e586838701610843565b935060208501359150808211156109fa575f80fd5b506109a885828601610843565b5f8060408385031215610a18575f80fd5b8235610a23816106d4565b915060208301356001600160401b0381111561099c575f80fd5b5f81518084525f5b81811015610a6157602081850181015186830182015201610a45565b505f602082860101526020601f19601f83011685010191505092915050565b602081525f6106cd6020830184610a3d565b602080825282518282018190525f9190848201906040850190845b81811015610ad25783516001600160a01b031683529284019291840191600101610aad565b50909695505050505050565b5f8083601f840112610aee575f80fd5b5081356001600160401b03811115610b04575f80fd5b6020830191508360208260051b8501011115610728575f80fd5b5f805f805f805f8060a0898b031215610b35575f80fd5b8835610b40816106d4565b97506020890135610b50816106d4565b965060408901356001600160401b0380821115610b6b575f80fd5b610b778c838d01610ade565b909850965060608b0135915080821115610b8f575f80fd5b610b9b8c838d01610ade565b909650945060808b01359150808211156107b7575f80fd5b5f805f60408486031215610bc5575f80fd5b8335610bd0816106d4565b925060208401356001600160401b03811115610bea575f80fd5b610bf6868287016106eb565b9497909650939450505050565b5f805f805f8060a08789031215610c18575f80fd5b8635610c23816106d4565b95506020870135610c33816106d4565b9450604087013593506060870135925060808701356001600160401b03811115610c5b575f80fd5b610c6789828a016106eb565b979a9699509497509295939492505050565b608081525f610c8b6080830187610a3d565b8560208401528281036040840152610ca38186610a3d565b91505060018060a01b038316606083015295945050505050565b5f60208284031215610ccd575f80fd5b815180151581146106cd575f80fd5b602080825260119082015270496e76616c6964207369676e617475726560781b604082015260600190565b5f60208284031215610d17575f80fd5b5051919050565b8051610d29816106d4565b919050565b5f8060408385031215610d3f575f80fd5b82516001600160401b0380821115610d55575f80fd5b818501915085601f830112610d68575f80fd5b8151602082821115610d7c57610d7c6107ff565b8160051b9250610d8d818401610813565b8281529284018101928181019089851115610da6575f80fd5b948201945b84861015610dd05785519350610dc0846106d4565b8382529482019490820190610dab565b9650610ddf9050878201610d1e565b945050505050925092905056fea26469706673582212203f86fc8462d2a296d784c7914699f9cd71dbe0c6d42ba3eaa3f4f01e5f10d11764736f6c634300081800330000000000000000000000003ffd3d3695ee8d51a54b46e37bacaa86776a8cda000000000000000000000000acd63174365d940680e788d93c5e6231a915e89a",
        "nonce": "0x2e",
        "chainId": "0x3e7"
      },
      "additionalContracts": [],
      "isFixedGasLimit": false
    },
    {
      "hash": "0xf764a37d9b3681b479ed6af25fbe56eecca186d7c105363e33f2563dd219e8a3",
      "transactionType": "CREATE",
      "contractName": "InitializationScript",
      "contractAddress": "0xf819ae81e4dbb7e2a884d7deba38c9a0ff67fc52",
      "function": null,
      "arguments": null,
      "transaction": {
        "from": "0x25e426b153e74ab36b2685c3a464272de60888ae",
        "gas": "0x7543d",
        "value": "0x0",
        "input": "0x608060405234801561000f575f80fd5b506105b68061001d5f395ff3fe608060405234801561000f575f80fd5b5060043610610029575f3560e01c806336b08f5e1461002d575b5f80fd5b61004061003b3660046102b9565b610042565b005b60405163610b592560e01b81526001600160a01b03841660048201523090819063610b5925906024015f604051808303815f87803b158015610082575f80fd5b505af1158015610094573d5f803e3d5ffd5b505060405163e19a9dd960e01b81526001600160a01b0386811660048301528416925063e19a9dd991506024015f604051808303815f87803b1580156100d8575f80fd5b505af11580156100ea573d5f803e3d5ffd5b505050505f5b8251811015610229575f83828151811061010c5761010c61043c565b60200260200101515f015190505f84838151811061012c5761012c61043c565b6020026020010151602001519050856001600160a01b03166375f0bb52835f845f805f805f8060405180602001604052805f8152505f6040518c63ffffffff1660e01b81526004016101889b9a99989796959493929190610493565b5f6040518083038186803b15801561019e575f80fd5b505afa1580156101b0573d5f803e3d5ffd5b505050505f805f8351602085015f876101f45a03f19050806101e557604051630337323560e31b815260040160405180910390fd5b7f8fb51a6947faa42596fa0bdb9d6791b2f726b69e4f6204d5d1c542613fcbf3138383604051610216929190610555565b60405180910390a15050506001016100f0565b5050505050565b80356001600160a01b0381168114610246575f80fd5b919050565b634e487b7160e01b5f52604160045260245ffd5b6040805190810167ffffffffffffffff811182821017156102825761028261024b565b60405290565b604051601f8201601f1916810167ffffffffffffffff811182821017156102b1576102b161024b565b604052919050565b5f805f606084860312156102cb575f80fd5b6102d484610230565b92506102e260208501610230565b915067ffffffffffffffff80604086013511156102fd575f80fd5b6040850135850186601f820112610312575f80fd5b81813511156103235761032361024b565b6103336020823560051b01610288565b81358082526020808301929160051b84010189811115610351575f80fd5b602084015b8181101561042c57858135111561036b575f80fd5b80358501601f196040828e0382011215610383575f80fd5b61038b61025f565b61039760208401610230565b815288604084013511156103a9575f80fd5b6040830135830192508d603f8401126103c0575f80fd5b6020830135898111156103d5576103d561024b565b6103e6602084601f84011601610288565b92508083528e60408286010111156103fc575f80fd5b806040850160208501375f6020828501015250816020820152808752505050602084019350602081019050610356565b5050809450505050509250925092565b634e487b7160e01b5f52603260045260245ffd5b5f81518084525f5b8181101561047457602081850181015186830182015201610458565b505f602082860101526020601f19601f83011685010191505092915050565b6001600160a01b038c168152602081018b9052610160604082018190525f906104be8382018d610450565b905060028b106104dc57634e487b7160e01b5f52602160045260245ffd5b8a60608401528960808401528860a08401528760c084015261050960e08401886001600160a01b03169052565b6001600160a01b03861661010084015282810361012084015261052c8186610450565b9150506105456101408301846001600160a01b03169052565b9c9b505050505050505050505050565b6001600160a01b03831681526040602082018190525f9061057890830184610450565b94935050505056fea26469706673582212206e20de8ca43a4282e7b0f3b7af7d4e6b4f5a419be0b68b4f35c162479760d6df64736f6c63430008180033",
        "nonce": "0x2f",
        "chainId": "0x3e7"
      },
      "additionalContracts": [],
      "isFixedGasLimit": false
    },
    {
      "hash": "0x57f74cc9778532b15e1dc7c89c298947088f224fd2f25867bbccebef4762b1cd",
      "transactionType": "CREATE",
      "contractName": "RumpelWalletFactory",
      "contractAddress": "0xbc89e0b2716079b46a971ce50c208730f73503de",
      "function": null,
      "arguments": [
        "0xC22834581EbC8527d974F8a1c97E1bEA4EF910BC",
        "0x5F6Ce7DBd37B2bd153Fcacc1256158f56B74b29e",
        "0xfb1bffC9d739B8D520DaF37dF666da4C687191EA",
        "0xa1804146617bFDb81dF7bf35a1dCC02f922559Fe",
        "0x33e3fcA5C2972781a32Ca0F034Ae293d77962210",
        "0xf819Ae81E4DbB7e2a884d7DEBa38C9a0FF67FC52"
      ],
      "transaction": {
        "from": "0x25e426b153e74ab36b2685c3a464272de60888ae",
        "gas": "0x150793",
        "value": "0x0",
        "input": "0x608060405234801562000010575f80fd5b50604051620011163803806200111683398101604081905262000033916200014b565b33806200005957604051631e4fbdf760e01b81525f600482015260240160405180910390fd5b6200006481620000e4565b505f805460ff60a01b19169055600280546001600160a01b03199081166001600160a01b0398891617909155600380548216968816969096179095556004805486169487169490941790935560058054851692861692909217909155600680548416918516919091179055600780549092169216919091179055620001db565b5f80546001600160a01b038381166001600160a01b0319831681178455604051919092169283917f8be0079c531659141344cd1fd0a4f28419497f9722a3daafe3b4186f6b6457e09190a35050565b6001600160a01b038116811462000148575f80fd5b50565b5f805f805f8060c0878903121562000161575f80fd5b86516200016e8162000133565b6020880151909650620001818162000133565b6040880151909550620001948162000133565b6060880151909450620001a78162000133565b6080880151909350620001ba8162000133565b60a0880151909250620001cd8162000133565b809150509295509295509295565b610f2d80620001e95f395ff3fe608060405234801561000f575f80fd5b50600436106100dd575f3560e01c8063ac7d146b11610084578063ac7d146b14610197578063bb2a197e146101aa578063bd5646b4146101bd578063c10f1a75146101c5578063cd4cd4aa146101d8578063d519c7bf146101eb578063edd1b0be146101fe578063f2fde38b14610211575f80fd5b806329132213146100e157806337b850871461010a5780635c975abb1461011d5780636709b19e14610135578063715018a6146101485780638da5cb5b1461015257806396bc38fc146101625780639e214fcb1461016a575b5f80fd5b6005546100f4906001600160a01b031681565b6040516101019190610960565b60405180910390f35b6003546100f4906001600160a01b031681565b610125610224565b6040519015158152602001610101565b6007546100f4906001600160a01b031681565b610150610233565b005b5f546001600160a01b03166100f4565b610150610246565b610189610178366004610988565b60016020525f908152604090205481565b604051908152602001610101565b6004546100f4906001600160a01b031681565b6100f46101b8366004610a14565b610256565b6101506103b7565b6002546100f4906001600160a01b031681565b6100f46101e6366004610af0565b6103c7565b6006546100f4906001600160a01b031681565b61015061020c366004610b63565b610604565b61015061021f366004610988565b6107cd565b5f54600160a01b900460ff1690565b61023b61080a565b6102445f610836565b565b61024e61080a565b610244610885565b5f8084805190602001208484604051602001610273929190610b91565b60408051808303601f190181528282528051602091820120908301939093528101919091526060016040516020818303038152906040528051906020012090505f60025f9054906101000a90046001600160a01b03166001600160a01b03166353e5d9356040518163ffffffff1660e01b81526004015f60405180830381865afa158015610303573d5f803e3d5ffd5b505050506040513d5f823e601f3d908101601f1916820160405261032a9190810190610bd0565b60045460405161034792916001600160a01b031690602001610c41565b60408051601f1981840301815282825260025481516020928301206001600160f81b03198386015260609190911b6001600160601b031916602185015260358401959095526055808401959095528151808403909501855260759092019052825192019190912095945050505050565b6103bf61080a565b6102446108d3565b5f6103d0610915565b335f818152600160205260408120805491929190836103ee83610c62565b91905055604051602001610403929190610b91565b604051602081830303815290604052805190602001205f1c90505f60025f9054906101000a90046001600160a01b03166001600160a01b0316631688f0b960045f9054906101000a90046001600160a01b031663b63e800d60e01b8b8b8b60075f9054906101000a90046001600160a01b03166336b08f5e60e01b60055f9054906101000a90046001600160a01b031660065f9054906101000a90046001600160a01b03168f8f6040516024016104bd9493929190610c86565b60408051601f198184030181529181526020820180516001600160e01b03166001600160e01b031990941693909317909252600354915161051496959493926001600160a01b0316905f9081908190602401610da7565b60408051601f198184030181529181526020820180516001600160e01b03166001600160e01b03199485161790525160e085901b909216825261055c92918790600401610e68565b6020604051808303815f875af1158015610578573d5f803e3d5ffd5b505050506040513d601f19601f8201168201806040525081019061059c9190610e9b565b905087876040516105ae929190610eb6565b6040518091039020816001600160a01b03167f41207aff95bbc089c92aec25d9e700518a46c1cc36c8d058c40e44018188a3fe886040516105f191815260200190565b60405180910390a3979650505050505050565b61060c61080a565b816c50524f58595f464143544f525960981b0361064357600280546001600160a01b0319166001600160a01b038316179055610788565b816d29a0a322afa9a4a723a622aa27a760911b0361067b57600480546001600160a01b0319166001600160a01b038316179055610788565b816c52554d50454c5f4d4f44554c4560981b036106b257600580546001600160a01b0319166001600160a01b038316179055610788565b816b14955354115317d1d550549160a21b036106e857600680546001600160a01b0319166001600160a01b038316179055610788565b817412539255125053125690551253d397d4d0d4925415605a1b0361072757600780546001600160a01b0319166001600160a01b038316179055610788565b8175434f4d5041544942494c4954595f46414c4c4241434b60501b0361076757600380546001600160a01b0319166001600160a01b038316179055610788565b6040516335802fa360e01b8152600481018390526024015b60405180910390fd5b604080518381526001600160a01b03831660208201527fa732c61ad32bf32bfbf84fe12f5118319c3e0ec6afbacae92623da0b037f112b910160405180910390a15050565b6107d561080a565b6001600160a01b0381166107fe575f604051631e4fbdf760e01b815260040161077f9190610960565b61080781610836565b50565b5f546001600160a01b03163314610244573360405163118cdaa760e01b815260040161077f9190610960565b5f80546001600160a01b038381166001600160a01b0319831681178455604051919092169283917f8be0079c531659141344cd1fd0a4f28419497f9722a3daafe3b4186f6b6457e09190a35050565b61088d61093b565b5f805460ff60a01b191690557f5db9ee0a495bf2e6ff9c91a7834c1ba4fdd244a5e8aa4e537bd38aeae4b073aa335b6040516108c99190610960565b60405180910390a1565b6108db610915565b5f805460ff60a01b1916600160a01b1790557f62e78cea01bee320cd4e420270b5ea74000d11b0c9f74754ebdbfc544b05a2586108bc3390565b61091d610224565b156102445760405163d93c066560e01b815260040160405180910390fd5b610943610224565b61024457604051638dfc202b60e01b815260040160405180910390fd5b6001600160a01b0391909116815260200190565b6001600160a01b0381168114610807575f80fd5b5f60208284031215610998575f80fd5b81356109a381610974565b9392505050565b634e487b7160e01b5f52604160045260245ffd5b604051601f8201601f191681016001600160401b03811182821017156109e6576109e66109aa565b604052919050565b5f6001600160401b03821115610a0657610a066109aa565b50601f01601f191660200190565b5f805f60608486031215610a26575f80fd5b83356001600160401b03811115610a3b575f80fd5b8401601f81018613610a4b575f80fd5b8035610a5e610a59826109ee565b6109be565b818152876020838501011115610a72575f80fd5b816020840160208301375f602083830101528095505050506020840135610a9881610974565b929592945050506040919091013590565b5f8083601f840112610ab9575f80fd5b5081356001600160401b03811115610acf575f80fd5b6020830191508360208260051b8501011115610ae9575f80fd5b9250929050565b5f805f805f60608688031215610b04575f80fd5b85356001600160401b0380821115610b1a575f80fd5b610b2689838a01610aa9565b9097509550602088013594506040880135915080821115610b45575f80fd5b50610b5288828901610aa9565b969995985093965092949392505050565b5f8060408385031215610b74575f80fd5b823591506020830135610b8681610974565b809150509250929050565b60609290921b6001600160601b0319168252601482015260340190565b5f5b83811015610bc8578181015183820152602001610bb0565b50505f910152565b5f60208284031215610be0575f80fd5b81516001600160401b03811115610bf5575f80fd5b8201601f81018413610c05575f80fd5b8051610c13610a59826109ee565b818152856020838501011115610c27575f80fd5b610c38826020830160208601610bae565b95945050505050565b5f8351610c52818460208801610bae565b9190910191825250602001919050565b5f60018201610c7f57634e487b7160e01b5f52601160045260245ffd5b5060010190565b5f606080830160018060a01b0380891685526020818916818701526040606060408801528388855260808801905060808960051b8901019450895f5b8a811015610d6a57898703607f190183528135368d9003603e19018112610ce7575f80fd5b8c018035610cf481610974565b871688528086013536829003601e19018112610d0e575f80fd5b0185810190356001600160401b03811115610d27575f80fd5b803603821315610d35575f80fd5b85878a015280868a015280828b8b01375f8982018b0152601f01601f1916909701880196509184019190840190600101610cc2565b50949c9b505050505050505050505050565b5f8151808452610d93816020860160208601610bae565b601f01601f19169290920160200192915050565b61010080825281018990525f61012082018b825b8c811015610dec578135610dce81610974565b6001600160a01b031683526020928301929190910190600101610dbb565b5050896020840152610e09604084018a6001600160a01b03169052565b8281036060840152610e1b8189610d7c565b915050610e3360808301876001600160a01b03169052565b6001600160a01b03851660a083015260ff841660c08301526001600160a01b03831660e08301529a9950505050505050505050565b6001600160a01b03841681526060602082018190525f90610e8b90830185610d7c565b9050826040830152949350505050565b5f60208284031215610eab575f80fd5b81516109a381610974565b5f8184825b85811015610eec578135610ece81610974565b6001600160a01b031683526020928301929190910190600101610ebb565b50909594505050505056fea264697066735822122066b9a259cd6dadcfebe7ddff0aea8400f8c0297047f36d80007f0ba6b560521264736f6c63430008180033000000000000000000000000c22834581ebc8527d974f8a1c97e1bea4ef910bc0000000000000000000000005f6ce7dbd37b2bd153fcacc1256158f56b74b29e000000000000000000000000fb1bffc9d739b8d520daf37df666da4c687191ea000000000000000000000000a1804146617bfdb81df7bf35a1dcc02f922559fe00000000000000000000000033e3fca5c2972781a32ca0f034ae293d77962210000000000000000000000000f819ae81e4dbb7e2a884d7deba38c9a0ff67fc52",
        "nonce": "0x30",
        "chainId": "0x3e7"
      },
      "additionalContracts": [],
      "isFixedGasLimit": false
    },
    {
      "hash": "0xff90e112e69aa567042345e23dd1a40165e8f30b214512cfebf5edc92a59f9e0",
      "transactionType": "CALL",
      "contractName": "RumpelModule",
      "contractAddress": "0xa1804146617bfdb81df7bf35a1dcc02f922559fe",
      "function": "addBlockedModuleCall(address,bytes4)",
      "arguments": [
        "0x0000000000000000000000000000000000000000",
        "0x610b5925"
      ],
      "transaction": {
        "from": "0x25e426b153e74ab36b2685c3a464272de60888ae",
        "to": "0xa1804146617bfdb81df7bf35a1dcc02f922559fe",
        "gas": "0x110b7",
        "value": "0x0",
        "input": "0x60d0825a0000000000000000000000000000000000000000000000000000000000000000610b592500000000000000000000000000000000000000000000000000000000",
        "nonce": "0x31",
        "chainId": "0x3e7"
      },
      "additionalContracts": [],
      "isFixedGasLimit": false
    },
    {
      "hash": "0xec9d590722b465e012307279eec64fbb37102f21a67875f59273bff544fea6f0",
      "transactionType": "CALL",
      "contractName": "RumpelModule",
      "contractAddress": "0xa1804146617bfdb81df7bf35a1dcc02f922559fe",
      "function": "addBlockedModuleCall(address,bytes4)",
      "arguments": [
        "0x0000000000000000000000000000000000000000",
        "0xe009cfde"
      ],
      "transaction": {
        "from": "0x25e426b153e74ab36b2685c3a464272de60888ae",
        "to": "0xa1804146617bfdb81df7bf35a1dcc02f922559fe",
        "gas": "0x110b7",
        "value": "0x0",
        "input": "0x60d0825a0000000000000000000000000000000000000000000000000000000000000000e009cfde00000000000000000000000000000000000000000000000000000000",
        "nonce": "0x32",
        "chainId": "0x3e7"
      },
      "additionalContracts": [],
      "isFixedGasLimit": false
    },
    {
      "hash": "0xbb571247ab3ee407b520a18519cc5948a0a0103d8cff112b724b3c67625b0038",
      "transactionType": "CALL",
      "contractName": "RumpelGuard",
      "contractAddress": "0x33e3fca5c2972781a32ca0f034ae293d77962210",
      "function": "setCallAllowed(address,bytes4,uint8)",
      "arguments": [
        "0xEa333eb11FC6ea62F6f4c2d73Cd9F2d994Ff3587",
        "0x17b4560a",
        "1"
      ],
      "transaction": {
        "from": "0x25e426b153e74ab36b2685c3a464272de60888ae",
        "to": "0x33e3fca5c2972781a32ca0f034ae293d77962210",
        "gas": "0x117b6",
        "value": "0x0",
        "input": "0x5534fa0c000000000000000000000000ea333eb11fc6ea62f6f4c2d73cd9f2d994ff358717b4560a000000000000000000000000000000000000000000000000000000000000000000000000000000000000000000000000000000000000000000000001",
        "nonce": "0x33",
        "chainId": "0x3e7"
      },
      "additionalContracts": [],
      "isFixedGasLimit": false
    },
    {
      "hash": "0x775a1ceceb2e9277d420a80c94487e9a73a411e24ffcf24076cdc6fbe0b30649",
      "transactionType": "CALL",
      "contractName": "RumpelGuard",
      "contractAddress": "0x33e3fca5c2972781a32ca0f034ae293d77962210",
      "function": "setCallAllowed(address,bytes4,uint8)",
      "arguments": [
        "0x02c6a2fA58cC01A18B8D9E00eA48d65E4dF26c70",
        "0xa9059cbb",
        "1"
      ],
      "transaction": {
        "from": "0x25e426b153e74ab36b2685c3a464272de60888ae",
        "to": "0x33e3fca5c2972781a32ca0f034ae293d77962210",
        "gas": "0x1081b",
        "value": "0x0",
        "input": "0x5534fa0c00000000000000000000000002c6a2fa58cc01a18b8d9e00ea48d65e4df26c70a9059cbb000000000000000000000000000000000000000000000000000000000000000000000000000000000000000000000000000000000000000000000001",
        "nonce": "0x34",
        "chainId": "0x3e7"
      },
      "additionalContracts": [],
      "isFixedGasLimit": false
    },
    {
      "hash": "0x7f0a877d3581bfaea9a4452ee240134f67cd7c91a17c0c4cb25fc4708257af59",
      "transactionType": "CALL",
      "contractName": "RumpelGuard",
      "contractAddress": "0x33e3fca5c2972781a32ca0f034ae293d77962210",
      "function": "setCallAllowed(address,bytes4,uint8)",
      "arguments": [
        "0x02c6a2fA58cC01A18B8D9E00eA48d65E4dF26c70",
        "0x095ea7b3",
        "1"
      ],
      "transaction": {
        "from": "0x25e426b153e74ab36b2685c3a464272de60888ae",
        "to": "0x33e3fca5c2972781a32ca0f034ae293d77962210",
        "gas": "0x1081b",
        "value": "0x0",
        "input": "0x5534fa0c00000000000000000000000002c6a2fa58cc01a18b8d9e00ea48d65e4df26c70095ea7b3000000000000000000000000000000000000000000000000000000000000000000000000000000000000000000000000000000000000000000000001",
        "nonce": "0x35",
        "chainId": "0x3e7"
      },
      "additionalContracts": [],
      "isFixedGasLimit": false
    },
    {
      "hash": "0x927967888ddff4536239f325ab82d64d8443f3e1cba08730ad3ceb6afce6c13d",
      "transactionType": "CALL",
      "contractName": "RumpelGuard",
      "contractAddress": "0x33e3fca5c2972781a32ca0f034ae293d77962210",
      "function": "transferOwnership(address)",
      "arguments": [
        "0x3ffd3d3695Ee8D51A54b46e37bACAa86776A8CDA"
      ],
      "transaction": {
        "from": "0x25e426b153e74ab36b2685c3a464272de60888ae",
        "to": "0x33e3fca5c2972781a32ca0f034ae293d77962210",
        "gas": "0x9ae5",
        "value": "0x0",
        "input": "0xf2fde38b0000000000000000000000003ffd3d3695ee8d51a54b46e37bacaa86776a8cda",
        "nonce": "0x36",
        "chainId": "0x3e7"
      },
      "additionalContracts": [],
      "isFixedGasLimit": false
    },
    {
      "hash": "0xf4dbb23dc255e9c942424e433c3c2f66ad2e7aeca55309a45e29a2ea1eda6a77",
      "transactionType": "CALL",
      "contractName": "RumpelModule",
      "contractAddress": "0xa1804146617bfdb81df7bf35a1dcc02f922559fe",
      "function": "transferOwnership(address)",
      "arguments": [
        "0x3ffd3d3695Ee8D51A54b46e37bACAa86776A8CDA"
      ],
      "transaction": {
        "from": "0x25e426b153e74ab36b2685c3a464272de60888ae",
        "to": "0xa1804146617bfdb81df7bf35a1dcc02f922559fe",
        "gas": "0xa3a1",
        "value": "0x0",
        "input": "0xf2fde38b0000000000000000000000003ffd3d3695ee8d51a54b46e37bacaa86776a8cda",
        "nonce": "0x37",
        "chainId": "0x3e7"
      },
      "additionalContracts": [],
      "isFixedGasLimit": false
    },
    {
      "hash": "0xbde75c142d348db6e59cfe83faaf313bf01cfb53335a2ff4792dd38af85a81f9",
      "transactionType": "CALL",
      "contractName": "RumpelWalletFactory",
      "contractAddress": "0xbc89e0b2716079b46a971ce50c208730f73503de",
      "function": "transferOwnership(address)",
      "arguments": [
        "0x3ffd3d3695Ee8D51A54b46e37bACAa86776A8CDA"
      ],
      "transaction": {
        "from": "0x25e426b153e74ab36b2685c3a464272de60888ae",
        "to": "0xbc89e0b2716079b46a971ce50c208730f73503de",
        "gas": "0x9ae5",
        "value": "0x0",
        "input": "0xf2fde38b0000000000000000000000003ffd3d3695ee8d51a54b46e37bacaa86776a8cda",
        "nonce": "0x38",
        "chainId": "0x3e7"
      },
      "additionalContracts": [],
      "isFixedGasLimit": false
    }
  ],
  "receipts": [
    {
      "status": "0x1",
      "cumulativeGasUsed": "0xdc4ff",
      "logs": [
        {
          "address": "0xa1804146617bfdb81df7bf35a1dcc02f922559fe",
          "topics": [
            "0x8be0079c531659141344cd1fd0a4f28419497f9722a3daafe3b4186f6b6457e0",
            "0x0000000000000000000000000000000000000000000000000000000000000000",
            "0x00000000000000000000000025e426b153e74ab36b2685c3a464272de60888ae"
          ],
          "data": "0x",
          "blockHash": "0x9502eba211d2099e4416f9c8b44b7d6e0d562fac5b7f6e00a33b3deaa5c2af2e",
          "blockNumber": "0x453955",
          "blockTimestamp": "0x683a0468",
          "transactionHash": "0x6bd12d8125733304770dae9f0e2f75a4751da4cca809e2bff84be8ff02a4db38",
          "transactionIndex": "0x1",
          "logIndex": "0x1",
          "removed": false
        }
      ],
      "logsBloom": "0x00000000000000000000000000000000000000000000000000800000000000420000000000000000000000000000000000000000000008000000000000000000000000000000000000000000000000000001000000040000000000000000000000000000020000000000000000000800000000000000000000000000000000400000000000000800000000000000000000000000000000000000000000000000000000000000000000000000000000000000000000000000000000000000000000000000000000000000000000000000000000000000000000000000000820000000000000000000000000000000000000000000000000000000000000000000",
      "type": "0x2",
      "transactionHash": "0x6bd12d8125733304770dae9f0e2f75a4751da4cca809e2bff84be8ff02a4db38",
      "transactionIndex": "0x1",
      "blockHash": "0x9502eba211d2099e4416f9c8b44b7d6e0d562fac5b7f6e00a33b3deaa5c2af2e",
      "blockNumber": "0x453955",
      "gasUsed": "0x8f182",
      "effectiveGasPrice": "0xce76129",
      "from": "0x25e426b153e74ab36b2685c3a464272de60888ae",
      "to": null,
      "contractAddress": "0xa1804146617bfdb81df7bf35a1dcc02f922559fe"
    },
    {
      "status": "0x1",
      "cumulativeGasUsed": "0x8fc7e",
      "logs": [
        {
          "address": "0x33e3fca5c2972781a32ca0f034ae293d77962210",
          "topics": [
            "0x8be0079c531659141344cd1fd0a4f28419497f9722a3daafe3b4186f6b6457e0",
            "0x0000000000000000000000000000000000000000000000000000000000000000",
            "0x00000000000000000000000025e426b153e74ab36b2685c3a464272de60888ae"
          ],
          "data": "0x",
          "blockHash": "0x833ccccbae1b6fe52dfd1b49df046a8ad83c44204995fcc8fc5febe9e39a9ac5",
          "blockNumber": "0x453974",
          "blockTimestamp": "0x683a04a4",
          "transactionHash": "0x6d93a16ef6a14e821df9433e1ac837dc92c810ddfae1047a5d650018ce5ea7f7",
          "transactionIndex": "0x0",
          "logIndex": "0x0",
          "removed": false
        }
      ],
      "logsBloom": "0x00000000000000000000000000000000000000000000000000800000000000400000000000000000000000000000000000000000001008000000000000000000000000000000000000000000000000000001000000000000000000000000000000000000020000000000000000000800000000000000000000000000000000400000000000000800000000000000000000000000000000000000000000000000000000000000000000000000000000000000000000000000040000000000000000000000000000000000000000000000000000000000000000000000000020000000000000000000000000000000000000080000000000000000000000000000",
      "type": "0x2",
      "transactionHash": "0x6d93a16ef6a14e821df9433e1ac837dc92c810ddfae1047a5d650018ce5ea7f7",
      "transactionIndex": "0x0",
      "blockHash": "0x833ccccbae1b6fe52dfd1b49df046a8ad83c44204995fcc8fc5febe9e39a9ac5",
      "blockNumber": "0x453974",
      "gasUsed": "0x8fc7e",
      "effectiveGasPrice": "0xce76129",
      "from": "0x25e426b153e74ab36b2685c3a464272de60888ae",
      "to": null,
      "contractAddress": "0x33e3fca5c2972781a32ca0f034ae293d77962210"
    },
    {
      "status": "0x1",
      "cumulativeGasUsed": "0x3b1f5",
      "logs": [],
      "logsBloom": "0x00000000000000000000000000000000000000000000000000000000000000000000000000000000000000000000000000000000000000000000000000000000000000000000000000000000000000000000000000000000000000000000000000000000000000000000000000000000000000000000000000000000000000000000000000000000000000000000000000000000000000000000000000000000000000000000000000000000000000000000000000000000000000000000000000000000000000000000000000000000000000000000000000000000000000000000000000000000000000000000000000000000000000000000000000000000",
      "type": "0x2",
      "transactionHash": "0x96d1f03417dadd52f50d1c5d3e72a783f316b1759e87bce379221b8932b338dc",
      "transactionIndex": "0x2",
      "blockHash": "0xc14a5283d6dd71a569f4ff7ea4ba32d48f556fa93557b0cfa4af139baeed79e0",
      "blockNumber": "0x453993",
      "gasUsed": "0x270c3",
      "effectiveGasPrice": "0xce76129",
      "from": "0x25e426b153e74ab36b2685c3a464272de60888ae",
      "to": null,
      "contractAddress": "0xacd63174365d940680e788d93c5e6231a915e89a"
    },
    {
      "status": "0x1",
      "cumulativeGasUsed": "0x10645e",
      "logs": [],
      "logsBloom": "0x00000000000000000000000000000000000000000000000000000000000000000000000000000000000000000000000000000000000000000000000000000000000000000000000000000000000000000000000000000000000000000000000000000000000000000000000000000000000000000000000000000000000000000000000000000000000000000000000000000000000000000000000000000000000000000000000000000000000000000000000000000000000000000000000000000000000000000000000000000000000000000000000000000000000000000000000000000000000000000000000000000000000000000000000000000000",
      "type": "0x2",
      "transactionHash": "0x1b9fceae1cee50e2c23103823eb6cc1231651276dbd4deb45ac43706d1cef2ca",
      "transactionIndex": "0x1",
      "blockHash": "0x5d23befad5609dd4ab577cb438ff9b66cb247dd1326e0050f437435d4ce6931b",
      "blockNumber": "0x4539b2",
      "gasUsed": "0xd7b4e",
      "effectiveGasPrice": "0xce76129",
      "from": "0x25e426b153e74ab36b2685c3a464272de60888ae",
      "to": null,
      "contractAddress": "0x5f6ce7dbd37b2bd153fcacc1256158f56b74b29e"
    },
    {
      "status": "0x1",
      "cumulativeGasUsed": "0x35275f",
      "logs": [],
      "logsBloom": "0x00000000000000000000000000000000000000000000000000000000000000000000000000000000000000000000000000000000000000000000000000000000000000000000000000000000000000000000000000000000000000000000000000000000000000000000000000000000000000000000000000000000000000000000000000000000000000000000000000000000000000000000000000000000000000000000000000000000000000000000000000000000000000000000000000000000000000000000000000000000000000000000000000000000000000000000000000000000000000000000000000000000000000000000000000000000",
      "type": "0x2",
      "transactionHash": "0xf764a37d9b3681b479ed6af25fbe56eecca186d7c105363e33f2563dd219e8a3",
      "transactionIndex": "0x4",
      "blockHash": "0x14742676fad21d79d5b6f97a15489b19bdbe0a5a0f3a5dfb74353d23bc195e83",
      "blockNumber": "0x4539d1",
      "gasUsed": "0x5a343",
      "effectiveGasPrice": "0xce76129",
      "from": "0x25e426b153e74ab36b2685c3a464272de60888ae",
      "to": null,
      "contractAddress": "0xf819ae81e4dbb7e2a884d7deba38c9a0ff67fc52"
    },
    {
      "status": "0x1",
      "cumulativeGasUsed": "0x156a4c",
      "logs": [
        {
          "address": "0xbc89e0b2716079b46a971ce50c208730f73503de",
          "topics": [
            "0x8be0079c531659141344cd1fd0a4f28419497f9722a3daafe3b4186f6b6457e0",
            "0x0000000000000000000000000000000000000000000000000000000000000000",
            "0x00000000000000000000000025e426b153e74ab36b2685c3a464272de60888ae"
          ],
          "data": "0x",
          "blockHash": "0xbb1035ed2269668e5d864bcfcaa9605557ead1407c6c2b0064cef3ae7cfc956b",
          "blockNumber": "0x4539f0",
          "blockTimestamp": "0x683a0594",
          "transactionHash": "0x57f74cc9778532b15e1dc7c89c298947088f224fd2f25867bbccebef4762b1cd",
          "transactionIndex": "0x3",
          "logIndex": "0xa",
          "removed": false
        }
      ],
      "logsBloom": "0x00000000000000000000000000000000000000000000000000800000000000400000000000000000000000000000000000000000000008000000000000000000000000000000000000000000000000000001004000000000000000000000000000000000020000000000000000000800000000000000000000000000000000400000000000000800000000000000000000000000000000000000000000000000000000000000000000000000000000000000000000000000000000000000000000000000000000000000000000000000000000000000000000000000000020000000000000000000000000000000000800000000000000000000008000000000",
      "type": "0x2",
      "transactionHash": "0x57f74cc9778532b15e1dc7c89c298947088f224fd2f25867bbccebef4762b1cd",
      "transactionIndex": "0x3",
      "blockHash": "0xbb1035ed2269668e5d864bcfcaa9605557ead1407c6c2b0064cef3ae7cfc956b",
      "blockNumber": "0x4539f0",
      "gasUsed": "0x102d36",
      "effectiveGasPrice": "0xce76129",
      "from": "0x25e426b153e74ab36b2685c3a464272de60888ae",
      "to": null,
      "contractAddress": "0xbc89e0b2716079b46a971ce50c208730f73503de"
    },
    {
      "status": "0x1",
      "cumulativeGasUsed": "0xc9a63",
      "logs": [
        {
          "address": "0xa1804146617bfdb81df7bf35a1dcc02f922559fe",
          "topics": [
            "0xbd2ecf3a575dfdb98cf6475d8c68efb6cdcce886ac9db5f29a9fdc1b17cc3c88",
            "0x0000000000000000000000000000000000000000000000000000000000000000",
            "0x610b592500000000000000000000000000000000000000000000000000000000"
          ],
          "data": "0x",
          "blockHash": "0x6c670fd2b3db2084c910e6bc629ec49e8b09ae6abf7941e8bbdbc35da0f6e4c1",
          "blockNumber": "0x453a0f",
          "blockTimestamp": "0x683a05d0",
          "transactionHash": "0xff90e112e69aa567042345e23dd1a40165e8f30b214512cfebf5edc92a59f9e0",
          "transactionIndex": "0x3",
          "logIndex": "0x18",
          "removed": false
        }
      ],
      "logsBloom": "0x00000000000000000000000000000000000000000040000000000000000000020000000000000000000000000000000000000000000000000002000000000000000000000000000000000000000000000000000000040000000000000000000000000000020000000000000000000800008000000000000000000000000000000000000000000000000000000000000000000000000000000000000000000000000000000000000000000000000000000000000000000000000000000000000000000000000000000008000000000000000000000000000000000000000820000002000000000000000000000000000000000000000000000000000000000000",
      "type": "0x2",
      "transactionHash": "0xff90e112e69aa567042345e23dd1a40165e8f30b214512cfebf5edc92a59f9e0",
      "transactionIndex": "0x3",
      "blockHash": "0x6c670fd2b3db2084c910e6bc629ec49e8b09ae6abf7941e8bbdbc35da0f6e4c1",
      "blockNumber": "0x453a0f",
      "gasUsed": "0xba79",
      "effectiveGasPrice": "0xce76129",
      "from": "0x25e426b153e74ab36b2685c3a464272de60888ae",
      "to": "0xa1804146617bfdb81df7bf35a1dcc02f922559fe",
      "contractAddress": null
    },
    {
      "status": "0x1",
      "cumulativeGasUsed": "0x658f7",
      "logs": [
        {
          "address": "0xa1804146617bfdb81df7bf35a1dcc02f922559fe",
          "topics": [
            "0xbd2ecf3a575dfdb98cf6475d8c68efb6cdcce886ac9db5f29a9fdc1b17cc3c88",
            "0x0000000000000000000000000000000000000000000000000000000000000000",
            "0xe009cfde00000000000000000000000000000000000000000000000000000000"
          ],
          "data": "0x",
          "blockHash": "0x65daa1a3596fc8a80c5acb82b64ac3e495bdc730275d090924f52c09c3f70f33",
          "blockNumber": "0x453a2e",
          "blockTimestamp": "0x683a060c",
          "transactionHash": "0xec9d590722b465e012307279eec64fbb37102f21a67875f59273bff544fea6f0",
          "transactionIndex": "0x2",
          "logIndex": "0xb",
          "removed": false
        }
      ],
      "logsBloom": "0x00000000000000000000000000000000000000000040000000000000000000020000000000000000000000000000000000000000000000000000000000000000000000004000000000000000000000000000000000040000000000000000000000000004020000000000000000000800000000000000000000000000000000000000000000000000000000000000000000000000000000000000000000000000000000000000000000000000000000000000000000000000000000000000000000000000200000000008000000000000000000000000000000000000000820000002000000000000000000000000000000000000000000000000000000000000",
      "type": "0x2",
      "transactionHash": "0xec9d590722b465e012307279eec64fbb37102f21a67875f59273bff544fea6f0",
      "transactionIndex": "0x2",
      "blockHash": "0x65daa1a3596fc8a80c5acb82b64ac3e495bdc730275d090924f52c09c3f70f33",
      "blockNumber": "0x453a2e",
      "gasUsed": "0xba79",
      "effectiveGasPrice": "0xce76129",
      "from": "0x25e426b153e74ab36b2685c3a464272de60888ae",
      "to": "0xa1804146617bfdb81df7bf35a1dcc02f922559fe",
      "contractAddress": null
    },
    {
      "status": "0x1",
      "cumulativeGasUsed": "0x275ab",
      "logs": [
        {
          "address": "0x33e3fca5c2972781a32ca0f034ae293d77962210",
          "topics": [
            "0x70785a9b51e0166fb561479b514223d6b27cc81df3c02b16292211b860842f73",
            "0x000000000000000000000000ea333eb11fc6ea62f6f4c2d73cd9f2d994ff3587",
            "0x17b4560a00000000000000000000000000000000000000000000000000000000"
          ],
          "data": "0x0000000000000000000000000000000000000000000000000000000000000001",
          "blockHash": "0xd87ee4ed5bfe7139922f027e77e820f82c91a756596424f042f67ebb960d1ff9",
          "blockNumber": "0x453a4d",
          "blockTimestamp": "0x683a0648",
          "transactionHash": "0xbb571247ab3ee407b520a18519cc5948a0a0103d8cff112b724b3c67625b0038",
          "transactionIndex": "0x2",
          "logIndex": "0x2",
          "removed": false
        }
      ],
      "logsBloom": "0x00000004000000000000000000000000000000000000000000000800000000000000000000000000000000000000000000000000001000000000000000000000000000000000000000000000000000000000000000000010000000000000000000000000000000000000000000000000000000000000000000000000000000000000004000000000000000000010000000000000000000001000000040000000000000000000000000000000000000000000000000000000040000000000000000000000000000000000001000000000000000000000000000010000000000000000000000000000000000000000000000080000000000000000000000000000",
      "type": "0x2",
      "transactionHash": "0xbb571247ab3ee407b520a18519cc5948a0a0103d8cff112b724b3c67625b0038",
      "transactionIndex": "0x2",
      "blockHash": "0xd87ee4ed5bfe7139922f027e77e820f82c91a756596424f042f67ebb960d1ff9",
      "blockNumber": "0x453a4d",
      "gasUsed": "0xbf42",
      "effectiveGasPrice": "0xce76129",
      "from": "0x25e426b153e74ab36b2685c3a464272de60888ae",
      "to": "0x33e3fca5c2972781a32ca0f034ae293d77962210",
      "contractAddress": null
    },
    {
      "status": "0x1",
      "cumulativeGasUsed": "0x23e077",
      "logs": [
        {
          "address": "0x33e3fca5c2972781a32ca0f034ae293d77962210",
          "topics": [
            "0x70785a9b51e0166fb561479b514223d6b27cc81df3c02b16292211b860842f73",
            "0x00000000000000000000000002c6a2fa58cc01a18b8d9e00ea48d65e4df26c70",
            "0xa9059cbb00000000000000000000000000000000000000000000000000000000"
          ],
          "data": "0x0000000000000000000000000000000000000000000000000000000000000001",
          "blockHash": "0x937fce1c3152eb1ca6c6f89b3526ef4ae611f2e8c7c75fdc22f8911bccf1291b",
          "blockNumber": "0x453a6c",
          "blockTimestamp": "0x683a0684",
          "transactionHash": "0x775a1ceceb2e9277d420a80c94487e9a73a411e24ffcf24076cdc6fbe0b30649",
          "transactionIndex": "0x3",
          "logIndex": "0x18",
          "removed": false
        }
      ],
      "logsBloom": "0x00000004000000000000000000000000000000000000000000000800000000000000000000000000000000000000000000000000001000000000000000000000000000000000000000104000800000000100000000000000000000000000000000000000000000000000000000000000000000000000000000000000000000000000000000000000000000000000000000000000000000100000000040000000000000000000000000000000000000000000000000000000040000000000000000000000000000000000000000000000000000000000000000000000000000000000000010000000000000000000000000080000000000000000000000000000",
      "type": "0x2",
      "transactionHash": "0x775a1ceceb2e9277d420a80c94487e9a73a411e24ffcf24076cdc6fbe0b30649",
      "transactionIndex": "0x3",
      "blockHash": "0x937fce1c3152eb1ca6c6f89b3526ef4ae611f2e8c7c75fdc22f8911bccf1291b",
      "blockNumber": "0x453a6c",
      "gasUsed": "0xbf36",
      "effectiveGasPrice": "0xce76129",
      "from": "0x25e426b153e74ab36b2685c3a464272de60888ae",
      "to": "0x33e3fca5c2972781a32ca0f034ae293d77962210",
      "contractAddress": null
    },
    {
      "status": "0x1",
      "cumulativeGasUsed": "0x61080",
      "logs": [
        {
          "address": "0x33e3fca5c2972781a32ca0f034ae293d77962210",
          "topics": [
            "0x70785a9b51e0166fb561479b514223d6b27cc81df3c02b16292211b860842f73",
            "0x00000000000000000000000002c6a2fa58cc01a18b8d9e00ea48d65e4df26c70",
            "0x095ea7b300000000000000000000000000000000000000000000000000000000"
          ],
          "data": "0x0000000000000000000000000000000000000000000000000000000000000001",
          "blockHash": "0x6b17f03e0661809bb4428591770de01cb75e57256aee6f509972105c6b7cdc40",
          "blockNumber": "0x453a8b",
          "blockTimestamp": "0x683a06c0",
          "transactionHash": "0x7f0a877d3581bfaea9a4452ee240134f67cd7c91a17c0c4cb25fc4708257af59",
          "transactionIndex": "0x2",
          "logIndex": "0xd",
          "removed": false
        }
      ],
      "logsBloom": "0x00000004000000000000000000000000000000000000000000000800000000000000000000000000000000000400000000000000001000000008000000000000000000000000000000000000800000000100000000000000000000000000000000000000000000000000000000000000000000000000000000000000000000000000000000000000000000000000000000000000000000000000000040000000000000000000000000000000000000000000000000000000040000000000000000000008000000000000000000000000000000000000000000000000000000000000000010000000000000000000000000080000000000000000000000000000",
      "type": "0x2",
      "transactionHash": "0x7f0a877d3581bfaea9a4452ee240134f67cd7c91a17c0c4cb25fc4708257af59",
      "transactionIndex": "0x2",
      "blockHash": "0x6b17f03e0661809bb4428591770de01cb75e57256aee6f509972105c6b7cdc40",
      "blockNumber": "0x453a8b",
      "gasUsed": "0xbf36",
      "effectiveGasPrice": "0xce76129",
      "from": "0x25e426b153e74ab36b2685c3a464272de60888ae",
      "to": "0x33e3fca5c2972781a32ca0f034ae293d77962210",
      "contractAddress": null
    },
    {
      "status": "0x1",
      "cumulativeGasUsed": "0x381cf4",
      "logs": [
        {
          "address": "0x33e3fca5c2972781a32ca0f034ae293d77962210",
          "topics": [
            "0x8be0079c531659141344cd1fd0a4f28419497f9722a3daafe3b4186f6b6457e0",
            "0x00000000000000000000000025e426b153e74ab36b2685c3a464272de60888ae",
            "0x0000000000000000000000003ffd3d3695ee8d51a54b46e37bacaa86776a8cda"
          ],
          "data": "0x",
          "blockHash": "0x5613990465201606802bda872c7d1feadf688124fa1fe6fe392d6f7fe4838ad0",
          "blockNumber": "0x453aaa",
          "blockTimestamp": "0x683a06fc",
          "transactionHash": "0x927967888ddff4536239f325ab82d64d8443f3e1cba08730ad3ceb6afce6c13d",
          "transactionIndex": "0x2",
          "logIndex": "0x5",
          "removed": false
        }
      ],
      "logsBloom": "0x00000000000000000000000000000000000000000000000000800000000000402000000000000000000000000000000000000000001008000000000000000000000000000000000000000080000000000001000000000000000000000000000000000000000000000000000000000000000000000000000000000000000000400000000000000800000000000000000000000000000000000000000000000000000000000000000000000000000000000200000000000000040000000000000000000000000000000000000000000000000000000000000000000000000000000000000000000000000000000000000000080000000000000000000000000000",
      "type": "0x2",
      "transactionHash": "0x927967888ddff4536239f325ab82d64d8443f3e1cba08730ad3ceb6afce6c13d",
      "transactionIndex": "0x2",
      "blockHash": "0x5613990465201606802bda872c7d1feadf688124fa1fe6fe392d6f7fe4838ad0",
      "blockNumber": "0x453aaa",
      "gasUsed": "0x7025",
      "effectiveGasPrice": "0xce76129",
      "from": "0x25e426b153e74ab36b2685c3a464272de60888ae",
      "to": "0x33e3fca5c2972781a32ca0f034ae293d77962210",
      "contractAddress": null
    },
    {
      "status": "0x1",
      "cumulativeGasUsed": "0x20328",
      "logs": [
        {
          "address": "0xa1804146617bfdb81df7bf35a1dcc02f922559fe",
          "topics": [
            "0x8be0079c531659141344cd1fd0a4f28419497f9722a3daafe3b4186f6b6457e0",
            "0x00000000000000000000000025e426b153e74ab36b2685c3a464272de60888ae",
            "0x0000000000000000000000003ffd3d3695ee8d51a54b46e37bacaa86776a8cda"
          ],
          "data": "0x",
          "blockHash": "0x6147098f06eccc30c86b435bafc58447f891bb9fe718745c2d32139249934d4f",
          "blockNumber": "0x453ac9",
          "blockTimestamp": "0x683a0738",
          "transactionHash": "0xf4dbb23dc255e9c942424e433c3c2f66ad2e7aeca55309a45e29a2ea1eda6a77",
          "transactionIndex": "0x1",
          "logIndex": "0x0",
          "removed": false
        }
      ],
      "logsBloom": "0x00000000000000000000000000000000000000000000000000800000000000422000000000000000000000000000000000000000000008000000000000000000000000000000000000000080000000000001000000040000000000000000000000000000000000000000000000000000000000000000000000000000000000400000000000000800000000000000000000000000000000000000000000000000000000000000000000000000000000000200000000000000000000000000000000000000000000000000000000000000000000000000000000000000000800000000000000000000000000000000000000000000000000000000000000000000",
      "type": "0x2",
      "transactionHash": "0xf4dbb23dc255e9c942424e433c3c2f66ad2e7aeca55309a45e29a2ea1eda6a77",
      "transactionIndex": "0x1",
      "blockHash": "0x6147098f06eccc30c86b435bafc58447f891bb9fe718745c2d32139249934d4f",
      "blockNumber": "0x453ac9",
      "gasUsed": "0x6fe3",
      "effectiveGasPrice": "0xce76129",
      "from": "0x25e426b153e74ab36b2685c3a464272de60888ae",
      "to": "0xa1804146617bfdb81df7bf35a1dcc02f922559fe",
      "contractAddress": null
    },
    {
      "status": "0x1",
      "cumulativeGasUsed": "0x7025",
      "logs": [
        {
          "address": "0xbc89e0b2716079b46a971ce50c208730f73503de",
          "topics": [
            "0x8be0079c531659141344cd1fd0a4f28419497f9722a3daafe3b4186f6b6457e0",
            "0x00000000000000000000000025e426b153e74ab36b2685c3a464272de60888ae",
            "0x0000000000000000000000003ffd3d3695ee8d51a54b46e37bacaa86776a8cda"
          ],
          "data": "0x",
          "blockHash": "0x6e1d8ac4c24cb4e64811f4f3ec1113794d0c1a1bbf54ef9dc75a4266ed4f1b17",
          "blockNumber": "0x453ae8",
          "blockTimestamp": "0x683a0774",
          "transactionHash": "0xbde75c142d348db6e59cfe83faaf313bf01cfb53335a2ff4792dd38af85a81f9",
          "transactionIndex": "0x0",
          "logIndex": "0x0",
          "removed": false
        }
      ],
      "logsBloom": "0x00000000000000000000000000000000000000000000000000800000000000402000000000000000000000000000000000000000000008000000000000000000000000000000000000000080000000000001004000000000000000000000000000000000000000000000000000000000000000000000000000000000000000400000000000000800000000000000000000000000000000000000000000000000000000000000000000000000000000000200000000000000000000000000000000000000000000000000000000000000000000000000000000000000000000000000000000000000000000000000000800000000000000000000008000000000",
      "type": "0x2",
      "transactionHash": "0xbde75c142d348db6e59cfe83faaf313bf01cfb53335a2ff4792dd38af85a81f9",
      "transactionIndex": "0x0",
      "blockHash": "0x6e1d8ac4c24cb4e64811f4f3ec1113794d0c1a1bbf54ef9dc75a4266ed4f1b17",
      "blockNumber": "0x453ae8",
      "gasUsed": "0x7025",
      "effectiveGasPrice": "0xce76129",
      "from": "0x25e426b153e74ab36b2685c3a464272de60888ae",
      "to": "0xbc89e0b2716079b46a971ce50c208730f73503de",
      "contractAddress": null
    }
  ],
  "libraries": [],
  "pending": [],
  "returns": {},
  "timestamp": 1748633460,
  "chain": 999,
  "commit": "06076bd"
}