{
  "transactions": [
    {
      "hash": "0x975a5e5409b8f8f16806b54b9a55ebf9da94bed8202275de5ecce55a9b9cf015",
      "transactionType": "CALL",
      "contractName": null,
      "contractAddress": "0x4d4f8317c296f7d91d51b811ca5343cb166360e5",
      "function": "execTransaction(address,uint256,bytes,uint8,uint256,uint256,uint256,address,address,bytes)",
      "arguments": [
        "0x797837Fc728fa98A2e85aA0Df9759B3BaDba11A7",
        "0",
        "0xa9059cbb0000000000000000000000009526a95443725e26817be4b9658c4ae17309022b00000000000000000000000000000000000000000000001043561a8829300000",
        "0",
        "0",
        "0",
        "0",
        "0x0000000000000000000000000000000000000000",
        "0x0000000000000000000000000000000000000000",
        "0xe11cf8bfbe315d24cbb714308f324ee498d6ae33b408dffc8dd95f3b851f61484203c9551b365d28f64fbfb6a6c95a969127834413456b2448b34bdd35ec03b01c"
      ],
      "transaction": {
        "from": "0x9526a95443725e26817be4b9658c4ae17309022b",
        "to": "0x4d4f8317c296f7d91d51b811ca5343cb166360e5",
        "gas": "0x20a4f",
        "value": "0x0",
        "input": "0x6a761202000000000000000000000000797837fc728fa98a2e85aa0df9759b3badba11a70000000000000000000000000000000000000000000000000000000000000000000000000000000000000000000000000000000000000000000000000000014000000000000000000000000000000000000000000000000000000000000000000000000000000000000000000000000000000000000000000000000000000000000000000000000000000000000000000000000000000000000000000000000000000000000000000000000000000000000000000000000000000000000000000000000000000000000000000000000000000000000000000000000000000000000000000000000000000000000000000000000000000000000000000000000000000000000000000000000000000000000000000000000000000000000001c00000000000000000000000000000000000000000000000000000000000000044a9059cbb0000000000000000000000009526a95443725e26817be4b9658c4ae17309022b00000000000000000000000000000000000000000000001043561a8829300000000000000000000000000000000000000000000000000000000000000000000000000000000000000000000000000000000000000000000000000041e11cf8bfbe315d24cbb714308f324ee498d6ae33b408dffc8dd95f3b851f61484203c9551b365d28f64fbfb6a6c95a969127834413456b2448b34bdd35ec03b01c00000000000000000000000000000000000000000000000000000000000000",
        "nonce": "0xc",
        "chainId": "0xaa36a7"
      },
      "additionalContracts": [],
      "isFixedGasLimit": false
    },
    {
      "hash": "0xbb7a67138392f2bdb1442ce8b661719be62b3fef1b3bc6c5945db2eefd087ba1",
      "transactionType": "CALL",
      "contractName": null,
      "contractAddress": "0x6803dde7737ef1f96faf1c6aceed2f6030cb7e1a",
      "function": "transfer(address,uint256)",
      "arguments": [
        "0x4DEf3F63A2DCFD3078D32F195632c340C9689c57",
        "30000000000000000000"
      ],
      "transaction": {
        "from": "0xaac7ae3504abe22f2d07fd666aed71969888e81f",
        "to": "0x6803dde7737ef1f96faf1c6aceed2f6030cb7e1a",
        "gas": "0x126ee",
        "value": "0x0",
        "input": "0xa9059cbb0000000000000000000000004def3f63a2dcfd3078d32f195632c340c9689c57000000000000000000000000000000000000000000000001a055690d9db80000",
        "nonce": "0x1",
        "chainId": "0xaa36a7"
      },
      "additionalContracts": [],
      "isFixedGasLimit": false
    },
    {
      "hash": "0x2ba21d2a6652ad4722aa09a87f71f296c5562864dfa31cb26d4edfd1bbf87bf4",
      "transactionType": "CALL",
      "contractName": null,
      "contractAddress": "0x72c18ab51a865e5d24ed69f026a7a962ef7d3899",
      "function": "approve(address,uint256)",
      "arguments": [
        "0x1238536071E1c677A632429e3655c799b22cDA52",
        "50000000000000000000"
      ],
      "transaction": {
        "from": "0x1d0d6f628c94bdcc6aef0b63ed8759dd2fde0cfd",
        "to": "0x72c18ab51a865e5d24ed69f026a7a962ef7d3899",
        "gas": "0x108f4",
        "value": "0x0",
        "input": "0x095ea7b30000000000000000000000001238536071e1c677a632429e3655c799b22cda52000000000000000000000000000000000000000000000002b5e3af16b1880000",
        "nonce": "0x1",
        "chainId": "0xaa36a7"
      },
      "additionalContracts": [],
      "isFixedGasLimit": false
    },
    {
      "hash": "0x8e91ec3aade699a8899ecfd8d1cc37a5e459032b01c5a02ccff5fa51e82a6e7f",
      "transactionType": "CALL",
      "contractName": null,
      "contractAddress": "0x1238536071e1c677a632429e3655c799b22cda52",
      "function": "mint((address,address,uint24,int24,int24,uint256,uint256,uint256,uint256,address,uint256))",
      "arguments": [
        "(0x72c18AB51A865E5d24ED69f026a7a962EF7D3899, 0xE9e97F2e6dd1a420dfA6c0974Da2e537df60c2bA, 10000, 108400, 110400, 50000000000000000000, 0, 0, 0, 0x1D0D6f628C94bDCc6AEf0b63Ed8759DD2FdE0cfD, 1823444259)"
      ],
      "transaction": {
        "from": "0x1d0d6f628c94bdcc6aef0b63ed8759dd2fde0cfd",
        "to": "0x1238536071e1c677a632429e3655c799b22cda52",
        "gas": "0xa8d0f",
        "value": "0x0",
        "input": "0x8831645600000000000000000000000072c18ab51a865e5d24ed69f026a7a962ef7d3899000000000000000000000000e9e97f2e6dd1a420dfa6c0974da2e537df60c2ba0000000000000000000000000000000000000000000000000000000000002710000000000000000000000000000000000000000000000000000000000001a770000000000000000000000000000000000000000000000000000000000001af40000000000000000000000000000000000000000000000002b5e3af16b18800000000000000000000000000000000000000000000000000000000000000000000000000000000000000000000000000000000000000000000000000000000000000000000000000000000000000000000000000000000000000000000000000000000000000000000000000001d0d6f628c94bdcc6aef0b63ed8759dd2fde0cfd000000000000000000000000000000000000000000000000000000006caf8d23",
        "nonce": "0x2",
        "chainId": "0xaa36a7"
      },
      "additionalContracts": [],
      "isFixedGasLimit": false
    },
    {
      "hash": "0x587f759f2200b9b40486971190a907f64c69a9ee13d9812598a3a3fe2fe72558",
      "transactionType": "CALL",
      "contractName": null,
      "contractAddress": "0x95e1dc07edbf9a59f72e41fd533f1a5b4f3abb72",
      "function": "approve(address,uint256)",
      "arguments": [
        "0x1238536071E1c677A632429e3655c799b22cDA52",
        "10000000000000000000"
      ],
      "transaction": {
        "from": "0x228c1d97826eb7621fdaf3c09ec84dc9d2ea2df5",
        "to": "0x95e1dc07edbf9a59f72e41fd533f1a5b4f3abb72",
        "gas": "0x107d9",
        "value": "0x0",
        "input": "0x095ea7b30000000000000000000000001238536071e1c677a632429e3655c799b22cda520000000000000000000000000000000000000000000000008ac7230489e80000",
        "nonce": "0x1",
        "chainId": "0xaa36a7"
      },
      "additionalContracts": [],
      "isFixedGasLimit": false
    },
    {
      "hash": "0xe0e1abfc64773b0a171fcceddd2449ff547e74acc0a50b07ba880db7278ce9a8",
      "transactionType": "CALL",
      "contractName": null,
      "contractAddress": "0x1238536071e1c677a632429e3655c799b22cda52",
      "function": "mint((address,address,uint24,int24,int24,uint256,uint256,uint256,uint256,address,uint256))",
      "arguments": [
        "(0x72c18AB51A865E5d24ED69f026a7a962EF7D3899, 0x95E1DC07EDBF9a59F72e41Fd533f1A5B4f3AbB72, 10000, 43800, 45800, 0, 10000000000000000000, 0, 0, 0x228c1D97826Eb7621FDaF3c09Ec84dc9d2eA2dF5, 1823444259)"
      ],
      "transaction": {
        "from": "0x228c1d97826eb7621fdaf3c09ec84dc9d2ea2df5",
        "to": "0x1238536071e1c677a632429e3655c799b22cda52",
        "gas": "0x8e15d",
        "value": "0x0",
        "input": "0x8831645600000000000000000000000072c18ab51a865e5d24ed69f026a7a962ef7d389900000000000000000000000095e1dc07edbf9a59f72e41fd533f1a5b4f3abb720000000000000000000000000000000000000000000000000000000000002710000000000000000000000000000000000000000000000000000000000000ab18000000000000000000000000000000000000000000000000000000000000b2e800000000000000000000000000000000000000000000000000000000000000000000000000000000000000000000000000000000000000008ac7230489e8000000000000000000000000000000000000000000000000000000000000000000000000000000000000000000000000000000000000000000000000000000000000000000000000000000000000228c1d97826eb7621fdaf3c09ec84dc9d2ea2df5000000000000000000000000000000000000000000000000000000006caf8d23",
        "nonce": "0x2",
        "chainId": "0xaa36a7"
      },
      "additionalContracts": [],
      "isFixedGasLimit": false
    }
  ],
  "receipts": [
    {
      "status": "0x1",
      "cumulativeGasUsed": "0xdebbf8",
      "logs": [
        {
          "address": "0x797837fc728fa98a2e85aa0df9759b3badba11a7",
          "topics": [
            "0xddf252ad1be2c89b69c2b068fc378daa952ba7f163c4a11628f55a4df523b3ef",
            "0x0000000000000000000000004d4f8317c296f7d91d51b811ca5343cb166360e5",
            "0x0000000000000000000000009526a95443725e26817be4b9658c4ae17309022b"
          ],
          "data": "0x00000000000000000000000000000000000000000000001043561a8829300000",
          "blockHash": "0x8fbc539c912640690ac97edefc072007eabc3fb78aa2b81c7239812716be4a5f",
          "blockNumber": "0x63c6ad",
          "transactionHash": "0x975a5e5409b8f8f16806b54b9a55ebf9da94bed8202275de5ecce55a9b9cf015",
          "transactionIndex": "0x59",
          "logIndex": "0xb2",
          "removed": false
        },
        {
          "address": "0x4d4f8317c296f7d91d51b811ca5343cb166360e5",
          "topics": [
            "0x442e715f626346e8c54381002da614f62bee8d27386535b2521ec8540898556e"
          ],
          "data": "0x21cd9deda24c6ff7cb313cebd9fdd60a8ad14b98affcdd2c4438d81d0fc7c6e70000000000000000000000000000000000000000000000000000000000000000",
          "blockHash": "0x8fbc539c912640690ac97edefc072007eabc3fb78aa2b81c7239812716be4a5f",
          "blockNumber": "0x63c6ad",
          "transactionHash": "0x975a5e5409b8f8f16806b54b9a55ebf9da94bed8202275de5ecce55a9b9cf015",
          "transactionIndex": "0x59",
          "logIndex": "0xb3",
          "removed": false
        }
      ],
      "logsBloom": "0x00000000400000000000000000000000000000000000000000000000040000000000000000000000000000000000000000000000000000000000000200100000000000000000000001000008000000000000000000000000000000000000000000000000000000000000000000000000000000000000000000000010000000000000000000000000000000000000000000000000000000000010000000000000000000000000000000402000000004000080000008000000000000000000000000000802000000000008000000000000000000000000000100000000000000000000000000000000000000000000000000000000000000040000000000000000",
      "type": "0x2",
      "transactionHash": "0x975a5e5409b8f8f16806b54b9a55ebf9da94bed8202275de5ecce55a9b9cf015",
      "transactionIndex": "0x59",
      "blockHash": "0x8fbc539c912640690ac97edefc072007eabc3fb78aa2b81c7239812716be4a5f",
      "blockNumber": "0x63c6ad",
      "gasUsed": "0x16523",
      "effectiveGasPrice": "0x7fe51fe",
      "from": "0x9526a95443725e26817be4b9658c4ae17309022b",
      "to": "0x4d4f8317c296f7d91d51b811ca5343cb166360e5",
      "contractAddress": null
    },
    {
      "status": "0x1",
      "cumulativeGasUsed": "0x9bd63a",
      "logs": [
        {
          "address": "0x6803dde7737ef1f96faf1c6aceed2f6030cb7e1a",
          "topics": [
            "0xddf252ad1be2c89b69c2b068fc378daa952ba7f163c4a11628f55a4df523b3ef",
            "0x000000000000000000000000aac7ae3504abe22f2d07fd666aed71969888e81f",
            "0x0000000000000000000000004def3f63a2dcfd3078d32f195632c340c9689c57"
          ],
          "data": "0x000000000000000000000000000000000000000000000001a055690d9db80000",
          "blockHash": "0x770a090570aadf3fb140eb7e8eca4da2ea9e3e581570e650873b7a712ac11fca",
          "blockNumber": "0x63c6ae",
          "transactionHash": "0xbb7a67138392f2bdb1442ce8b661719be62b3fef1b3bc6c5945db2eefd087ba1",
          "transactionIndex": "0x31",
          "logIndex": "0x43",
          "removed": false
        }
      ],
      "logsBloom": "0x00000000000000000000000000000000000000000000000000000000000000000000000000000000000000000000000000000000000000040000020000000000000000000000000000000008000000000000000000000000000000000000000000000000000000000000000000000000040000000000000000000110000000000000000000000000000000000000000000000000000000000000000200000000000000000800000000000000000000000000000000000000000040000000000000000002000000000001004000000000000000000000000000000000000000000000000000000000000000000000000000000000000000000000000000000000",
      "type": "0x2",
      "transactionHash": "0xbb7a67138392f2bdb1442ce8b661719be62b3fef1b3bc6c5945db2eefd087ba1",
      "transactionIndex": "0x31",
      "blockHash": "0x770a090570aadf3fb140eb7e8eca4da2ea9e3e581570e650873b7a712ac11fca",
      "blockNumber": "0x63c6ae",
      "gasUsed": "0xc9aa",
      "effectiveGasPrice": "0x8ddbd5b",
      "from": "0xaac7ae3504abe22f2d07fd666aed71969888e81f",
      "to": "0x6803dde7737ef1f96faf1c6aceed2f6030cb7e1a",
      "contractAddress": null
    },
    {
      "status": "0x1",
      "cumulativeGasUsed": "0x12c323f",
      "logs": [
        {
          "address": "0x72c18ab51a865e5d24ed69f026a7a962ef7d3899",
          "topics": [
            "0x8c5be1e5ebec7d5bd14f71427d1e84f3dd0314c0f7b2291e5b200ac8c7c3b925",
            "0x0000000000000000000000001d0d6f628c94bdcc6aef0b63ed8759dd2fde0cfd",
            "0x0000000000000000000000001238536071e1c677a632429e3655c799b22cda52"
          ],
          "data": "0x000000000000000000000000000000000000000000000002b5e3af16b1880000",
          "blockHash": "0x82ddc8bd5e011edbd5f937107b85b4ebfbad3e9aaf7896673f2b0c5e0fc25cfa",
          "blockNumber": "0x63c6af",
          "transactionHash": "0x2ba21d2a6652ad4722aa09a87f71f296c5562864dfa31cb26d4edfd1bbf87bf4",
          "transactionIndex": "0x7e",
          "logIndex": "0xc5",
          "removed": false
        }
      ],
      "logsBloom": "0x00000000000000000000000000000000000000000000002000000000000000000000000000000000000000000010200000000000000000000000000000200000000000000000000000000000000000000000000000000000000000000000000000000000000000000000000000000000000000000000000000000000000000000002000000000000000000010000000000000000000000000000000000000000020000000008000000000000000000000000000000000000000000000000000000000000000000000000000000000000012000000000000000000000800000000010000000000000000000000000000000000000000000000000000000000000",
      "type": "0x2",
      "transactionHash": "0x2ba21d2a6652ad4722aa09a87f71f296c5562864dfa31cb26d4edfd1bbf87bf4",
      "transactionIndex": "0x7e",
      "blockHash": "0x82ddc8bd5e011edbd5f937107b85b4ebfbad3e9aaf7896673f2b0c5e0fc25cfa",
      "blockNumber": "0x63c6af",
      "gasUsed": "0xb52b",
      "effectiveGasPrice": "0x8aa3137",
      "from": "0x1d0d6f628c94bdcc6aef0b63ed8759dd2fde0cfd",
      "to": "0x72c18ab51a865e5d24ed69f026a7a962ef7d3899",
      "contractAddress": null
    },
    {
      "status": "0x1",
      "cumulativeGasUsed": "0x626830",
      "logs": [
        {
          "address": "0x72c18ab51a865e5d24ed69f026a7a962ef7d3899",
          "topics": [
            "0xddf252ad1be2c89b69c2b068fc378daa952ba7f163c4a11628f55a4df523b3ef",
            "0x0000000000000000000000001d0d6f628c94bdcc6aef0b63ed8759dd2fde0cfd",
            "0x0000000000000000000000003cd3ef402819e4ec5d43b94c39cfdfa2c7e9ad4c"
          ],
          "data": "0x000000000000000000000000000000000000000000000002b5e3af16b1880000",
          "blockHash": "0xf9c88f24ed73e2b61d8e681e923b45d01b0842814954af844dbd7b107360a706",
          "blockNumber": "0x63c6b0",
          "transactionHash": "0x8e91ec3aade699a8899ecfd8d1cc37a5e459032b01c5a02ccff5fa51e82a6e7f",
          "transactionIndex": "0x30",
          "logIndex": "0x52",
          "removed": false
        },
        {
          "address": "0x3cd3ef402819e4ec5d43b94c39cfdfa2c7e9ad4c",
          "topics": [
            "0x7a53080ba414158be7ec69b987b5fb7d07dee101fe85488f0853ae16239d0bde",
            "0x0000000000000000000000001238536071e1c677a632429e3655c799b22cda52",
            "0x000000000000000000000000000000000000000000000000000000000001a770",
            "0x000000000000000000000000000000000000000000000000000000000001af40"
          ],
          "data": "0x0000000000000000000000001238536071e1c677a632429e3655c799b22cda5200000000000000000000000000000000000000000000192040c3a04d2a0d3e2d000000000000000000000000000000000000000000000002b5e3af16b18800000000000000000000000000000000000000000000000000000000000000000000",
          "blockHash": "0xf9c88f24ed73e2b61d8e681e923b45d01b0842814954af844dbd7b107360a706",
          "blockNumber": "0x63c6b0",
          "transactionHash": "0x8e91ec3aade699a8899ecfd8d1cc37a5e459032b01c5a02ccff5fa51e82a6e7f",
          "transactionIndex": "0x30",
          "logIndex": "0x53",
          "removed": false
        },
        {
          "address": "0x1238536071e1c677a632429e3655c799b22cda52",
          "topics": [
            "0xddf252ad1be2c89b69c2b068fc378daa952ba7f163c4a11628f55a4df523b3ef",
            "0x0000000000000000000000000000000000000000000000000000000000000000",
            "0x0000000000000000000000001d0d6f628c94bdcc6aef0b63ed8759dd2fde0cfd",
            "0x00000000000000000000000000000000000000000000000000000000000050bb"
          ],
          "data": "0x",
          "blockHash": "0xf9c88f24ed73e2b61d8e681e923b45d01b0842814954af844dbd7b107360a706",
          "blockNumber": "0x63c6b0",
          "transactionHash": "0x8e91ec3aade699a8899ecfd8d1cc37a5e459032b01c5a02ccff5fa51e82a6e7f",
          "transactionIndex": "0x30",
          "logIndex": "0x54",
          "removed": false
        },
        {
          "address": "0x1238536071e1c677a632429e3655c799b22cda52",
          "topics": [
            "0x3067048beee31b25b2f1681f88dac838c8bba36af25bfb2b7cf7473a5847e35f",
            "0x00000000000000000000000000000000000000000000000000000000000050bb"
          ],
          "data": "0x00000000000000000000000000000000000000000000192040c3a04d2a0d3e2d000000000000000000000000000000000000000000000002b5e3af16b18800000000000000000000000000000000000000000000000000000000000000000000",
          "blockHash": "0xf9c88f24ed73e2b61d8e681e923b45d01b0842814954af844dbd7b107360a706",
          "blockNumber": "0x63c6b0",
          "transactionHash": "0x8e91ec3aade699a8899ecfd8d1cc37a5e459032b01c5a02ccff5fa51e82a6e7f",
          "transactionIndex": "0x30",
          "logIndex": "0x55",
          "removed": false
        }
      ],
      "logsBloom": "0x00000008000000000000100000000000000000000000002000000000000000000000000000000000000000000010200000000000000000000400000080000000000000020000000000000008001000004000000020000010002000000000000020000000020401000000000000000801000000000800000000000010000000000002000008000000000000010000000004000000008000000000000000000000000000000008000000000000000000000000000000000000000000002000000000000002000000000000080000220000012000000000000000400000800020000000000000000000000000000000000000000000000000000000000000000800",
      "type": "0x2",
      "transactionHash": "0x8e91ec3aade699a8899ecfd8d1cc37a5e459032b01c5a02ccff5fa51e82a6e7f",
      "transactionIndex": "0x30",
      "blockHash": "0xf9c88f24ed73e2b61d8e681e923b45d01b0842814954af844dbd7b107360a706",
      "blockNumber": "0x63c6b0",
      "gasUsed": "0x7a385",
      "effectiveGasPrice": "0x9282cab",
      "from": "0x1d0d6f628c94bdcc6aef0b63ed8759dd2fde0cfd",
      "to": "0x1238536071e1c677a632429e3655c799b22cda52",
      "contractAddress": null
    },
    {
      "status": "0x1",
      "cumulativeGasUsed": "0x5ad0df",
      "logs": [
        {
          "address": "0x95e1dc07edbf9a59f72e41fd533f1a5b4f3abb72",
          "topics": [
            "0x8c5be1e5ebec7d5bd14f71427d1e84f3dd0314c0f7b2291e5b200ac8c7c3b925",
            "0x000000000000000000000000228c1d97826eb7621fdaf3c09ec84dc9d2ea2df5",
            "0x0000000000000000000000001238536071e1c677a632429e3655c799b22cda52"
          ],
          "data": "0x0000000000000000000000000000000000000000000000008ac7230489e80000",
          "blockHash": "0x2dfea7d55f14f86ea3d393788bf3b5caff74ab9cac45e0d0490af8391322c831",
          "blockNumber": "0x63c6b1",
          "transactionHash": "0x587f759f2200b9b40486971190a907f64c69a9ee13d9812598a3a3fe2fe72558",
          "transactionIndex": "0x3d",
          "logIndex": "0x53",
          "removed": false
        }
      ],
      "logsBloom": "0x00000000000000001000000000000000000000000000000000000000000000000000000000000000000000000000000000000000000000000000000000200000000000000000000000000000000000000000000000000000000000000000000000000400000000000000000000000000000000000000000000000000000000000000000000000008000000010000000000000000080000000000000000000000020000000000000000000000000000000000000000000000200000000000000000000008000000000000000000000000002000000000000000000000800000000010000000000000000000000000000000000000000000000000000000000000",
      "type": "0x2",
      "transactionHash": "0x587f759f2200b9b40486971190a907f64c69a9ee13d9812598a3a3fe2fe72558",
      "transactionIndex": "0x3d",
      "blockHash": "0x2dfea7d55f14f86ea3d393788bf3b5caff74ab9cac45e0d0490af8391322c831",
      "blockNumber": "0x63c6b1",
      "gasUsed": "0xb469",
      "effectiveGasPrice": "0x8a9be5e",
      "from": "0x228c1d97826eb7621fdaf3c09ec84dc9d2ea2df5",
      "to": "0x95e1dc07edbf9a59f72e41fd533f1a5b4f3abb72",
      "contractAddress": null
    },
    {
      "status": "0x1",
      "cumulativeGasUsed": "0xe10b5a",
      "logs": [
        {
          "address": "0x95e1dc07edbf9a59f72e41fd533f1a5b4f3abb72",
          "topics": [
            "0xddf252ad1be2c89b69c2b068fc378daa952ba7f163c4a11628f55a4df523b3ef",
            "0x000000000000000000000000228c1d97826eb7621fdaf3c09ec84dc9d2ea2df5",
            "0x000000000000000000000000b4fc88d0a0ba8d5eeacb45fe07b99d039be6ca4b"
          ],
          "data": "0x0000000000000000000000000000000000000000000000008ac7230489e80000",
          "blockHash": "0xe9b4d158c403c426b41d86723eb020df9d4541550f3fbb003fd7ab1d398fc19e",
          "blockNumber": "0x63c6b2",
          "transactionHash": "0xe0e1abfc64773b0a171fcceddd2449ff547e74acc0a50b07ba880db7278ce9a8",
          "transactionIndex": "0x38",
          "logIndex": "0x64",
          "removed": false
        },
        {
          "address": "0xb4fc88d0a0ba8d5eeacb45fe07b99d039be6ca4b",
          "topics": [
            "0x7a53080ba414158be7ec69b987b5fb7d07dee101fe85488f0853ae16239d0bde",
            "0x0000000000000000000000001238536071e1c677a632429e3655c799b22cda52",
            "0x000000000000000000000000000000000000000000000000000000000000ab18",
            "0x000000000000000000000000000000000000000000000000000000000000b2e8"
          ],
          "data": "0x0000000000000000000000001238536071e1c677a632429e3655c799b22cda5200000000000000000000000000000000000000000000000093b407c270bcb80b00000000000000000000000000000000000000000000000000000000000000000000000000000000000000000000000000000000000000008ac7230489e80000",
          "blockHash": "0xe9b4d158c403c426b41d86723eb020df9d4541550f3fbb003fd7ab1d398fc19e",
          "blockNumber": "0x63c6b2",
          "transactionHash": "0xe0e1abfc64773b0a171fcceddd2449ff547e74acc0a50b07ba880db7278ce9a8",
          "transactionIndex": "0x38",
          "logIndex": "0x65",
          "removed": false
        },
        {
          "address": "0x1238536071e1c677a632429e3655c799b22cda52",
          "topics": [
            "0xddf252ad1be2c89b69c2b068fc378daa952ba7f163c4a11628f55a4df523b3ef",
            "0x0000000000000000000000000000000000000000000000000000000000000000",
            "0x000000000000000000000000228c1d97826eb7621fdaf3c09ec84dc9d2ea2df5",
            "0x00000000000000000000000000000000000000000000000000000000000050bc"
          ],
          "data": "0x",
          "blockHash": "0xe9b4d158c403c426b41d86723eb020df9d4541550f3fbb003fd7ab1d398fc19e",
          "blockNumber": "0x63c6b2",
          "transactionHash": "0xe0e1abfc64773b0a171fcceddd2449ff547e74acc0a50b07ba880db7278ce9a8",
          "transactionIndex": "0x38",
          "logIndex": "0x66",
          "removed": false
        },
        {
          "address": "0x1238536071e1c677a632429e3655c799b22cda52",
          "topics": [
            "0x3067048beee31b25b2f1681f88dac838c8bba36af25bfb2b7cf7473a5847e35f",
            "0x00000000000000000000000000000000000000000000000000000000000050bc"
          ],
          "data": "0x00000000000000000000000000000000000000000000000093b407c270bcb80b00000000000000000000000000000000000000000000000000000000000000000000000000000000000000000000000000000000000000008ac7230489e80000",
          "blockHash": "0xe9b4d158c403c426b41d86723eb020df9d4541550f3fbb003fd7ab1d398fc19e",
          "blockNumber": "0x63c6b2",
          "transactionHash": "0xe0e1abfc64773b0a171fcceddd2449ff547e74acc0a50b07ba880db7278ce9a8",
          "transactionIndex": "0x38",
          "logIndex": "0x67",
          "removed": false
        }
      ],
      "logsBloom": "0x0000000000008000100010000140000000000000000000000000000000000400000000000000000000100000000000000000000000000000040000000000000000000000000000800000000820000000000000000000000000000000000000002000040002000000000000000010080080000008080000080000001000000000000000000800000808000001000000000000000008000000002000000000000000000000000000000040000000000000000000000000000020000000200000000000000a000000000000080000020000002000000000000000000000800020000000004000000000000000000000000000000000000000000000000000000800",
      "type": "0x2",
      "transactionHash": "0xe0e1abfc64773b0a171fcceddd2449ff547e74acc0a50b07ba880db7278ce9a8",
      "transactionIndex": "0x38",
      "blockHash": "0xe9b4d158c403c426b41d86723eb020df9d4541550f3fbb003fd7ab1d398fc19e",
      "blockNumber": "0x63c6b2",
      "gasUsed": "0x66de0",
      "effectiveGasPrice": "0x81fd16e",
      "from": "0x228c1d97826eb7621fdaf3c09ec84dc9d2ea2df5",
      "to": "0x1238536071e1c677a632429e3655c799b22cda52",
      "contractAddress": null
    }
  ],
  "libraries": [],
  "pending": [],
  "returns": {},
  "timestamp": 1724186560,
  "chain": 11155111,
  "commit": "0a1ad8b"
}