{
  "transactions": [
    {
      "hash": "0x1a1d9186f2f38f8ad3f3d6630c1e586df0171885871fe74cdbaaa791e3ecf302",
      "transactionType": "CALL",
      "contractName": null,
      "contractAddress": "0x797837fc728fa98a2e85aa0df9759b3badba11a7",
      "function": "transfer(address,uint256)",
      "arguments": [
        "0x4D4f8317c296F7d91d51B811ca5343CB166360e5",
        "400000000000000000000"
      ],
      "transaction": {
        "from": "0x9526a95443725e26817be4b9658c4ae17309022b",
        "to": "0x797837fc728fa98a2e85aa0df9759b3badba11a7",
        "gas": "0x126ee",
        "value": "0x0",
        "input": "0xa9059cbb0000000000000000000000004d4f8317c296f7d91d51b811ca5343cb166360e5000000000000000000000000000000000000000000000015af1d78b58c400000",
        "nonce": "0xb",
        "chainId": "0xaa36a7"
      },
      "additionalContracts": [],
      "isFixedGasLimit": false
    },
    {
      "hash": "0xe457b52f15c8834590919b9f73b15be1d0d4567b729d55f2fb6f2f63bf44c4b4",
      "transactionType": "CALL",
      "contractName": null,
      "contractAddress": "0x72c18ab51a865e5d24ed69f026a7a962ef7d3899",
      "function": "approve(address,uint256)",
      "arguments": [
        "0x1238536071E1c677A632429e3655c799b22cDA52",
        "10000000000000000000"
      ],
      "transaction": {
        "from": "0x367329b74e2c3b0cab20867ea56d2fa9438ab6c8",
        "to": "0x72c18ab51a865e5d24ed69f026a7a962ef7d3899",
        "gas": "0xfa2b",
        "value": "0x0",
        "input": "0x095ea7b30000000000000000000000001238536071e1c677a632429e3655c799b22cda520000000000000000000000000000000000000000000000008ac7230489e80000",
        "nonce": "0x1",
        "chainId": "0xaa36a7"
      },
      "additionalContracts": [],
      "isFixedGasLimit": false
    },
    {
      "hash": "0x1e03e5bb9a0274e745dc4b0fa9089001d339375a1564e6325c9eda832820773d",
      "transactionType": "CALL",
      "contractName": null,
      "contractAddress": "0x1238536071e1c677a632429e3655c799b22cda52",
      "function": "mint((address,address,uint24,int24,int24,uint256,uint256,uint256,uint256,address,uint256))",
      "arguments": [
        "(0x4CFb882B75CE0d78ba20e49Dc00aA5Eeb0433699, 0x72c18AB51A865E5d24ED69f026a7a962EF7D3899, 10000, -32000, -30000, 0, 10000000000000000000, 0, 0, 0x367329B74e2C3b0CaB20867ea56D2fa9438ab6c8, 1823444259)"
      ],
      "transaction": {
        "from": "0x367329b74e2c3b0cab20867ea56d2fa9438ab6c8",
        "to": "0x1238536071e1c677a632429e3655c799b22cda52",
        "gas": "0xb33be",
        "value": "0x0",
        "input": "0x883164560000000000000000000000004cfb882b75ce0d78ba20e49dc00aa5eeb043369900000000000000000000000072c18ab51a865e5d24ed69f026a7a962ef7d38990000000000000000000000000000000000000000000000000000000000002710ffffffffffffffffffffffffffffffffffffffffffffffffffffffffffff8300ffffffffffffffffffffffffffffffffffffffffffffffffffffffffffff8ad000000000000000000000000000000000000000000000000000000000000000000000000000000000000000000000000000000000000000008ac7230489e8000000000000000000000000000000000000000000000000000000000000000000000000000000000000000000000000000000000000000000000000000000000000000000000000000000000000367329b74e2c3b0cab20867ea56d2fa9438ab6c8000000000000000000000000000000000000000000000000000000006caf8d23",
        "nonce": "0x2",
        "chainId": "0xaa36a7"
      },
      "additionalContracts": [],
      "isFixedGasLimit": false
    }
  ],
  "receipts": [
    {
      "status": "0x1",
      "cumulativeGasUsed": "0x84fcd9",
      "logs": [
        {
          "address": "0x797837fc728fa98a2e85aa0df9759b3badba11a7",
          "topics": [
            "0xddf252ad1be2c89b69c2b068fc378daa952ba7f163c4a11628f55a4df523b3ef",
            "0x0000000000000000000000009526a95443725e26817be4b9658c4ae17309022b",
            "0x0000000000000000000000004d4f8317c296f7d91d51b811ca5343cb166360e5"
          ],
          "data": "0x000000000000000000000000000000000000000000000015af1d78b58c400000",
          "blockHash": "0x0e6d3d3f18172a331a018762bbf2164df770dde3debbf646c410e85dc11535cb",
          "blockNumber": "0x63c681",
          "transactionHash": "0x1a1d9186f2f38f8ad3f3d6630c1e586df0171885871fe74cdbaaa791e3ecf302",
          "transactionIndex": "0x3c",
          "logIndex": "0x54",
          "removed": false
        }
      ],
      "logsBloom": "0x00000000000000000000000000000000000000000000000000000000000000000000000000000000000000000000000000000000000000000000000000100000000000000000000001000008000000000000000000000000000000000000000000000000000000000000000000000000000000000000000000000010000000000000000000000000000000000000000000000000000000000010000000000000000000000000000000402000000000000000000008000000000000000000000000000802000000000000000000000000000000000000000100000000000000000000000000000000000000000000000000000000000000040000000000000000",
      "type": "0x2",
      "transactionHash": "0x1a1d9186f2f38f8ad3f3d6630c1e586df0171885871fe74cdbaaa791e3ecf302",
      "transactionIndex": "0x3c",
      "blockHash": "0x0e6d3d3f18172a331a018762bbf2164df770dde3debbf646c410e85dc11535cb",
      "blockNumber": "0x63c681",
      "gasUsed": "0xc9aa",
      "effectiveGasPrice": "0x84a60db",
      "from": "0x9526a95443725e26817be4b9658c4ae17309022b",
      "to": "0x797837fc728fa98a2e85aa0df9759b3badba11a7",
      "contractAddress": null
    },
    {
      "status": "0x1",
      "cumulativeGasUsed": "0xeda39a",
      "logs": [
        {
          "address": "0x72c18ab51a865e5d24ed69f026a7a962ef7d3899",
          "topics": [
            "0x8c5be1e5ebec7d5bd14f71427d1e84f3dd0314c0f7b2291e5b200ac8c7c3b925",
            "0x000000000000000000000000367329b74e2c3b0cab20867ea56d2fa9438ab6c8",
            "0x0000000000000000000000001238536071e1c677a632429e3655c799b22cda52"
          ],
          "data": "0x0000000000000000000000000000000000000000000000008ac7230489e80000",
          "blockHash": "0x52f868f4652e9f5f8b9ec089dc269b2e8d5c24fe6322b493c1f80a6c5e584937",
          "blockNumber": "0x63c682",
          "transactionHash": "0xe457b52f15c8834590919b9f73b15be1d0d4567b729d55f2fb6f2f63bf44c4b4",
          "transactionIndex": "0x5a",
          "logIndex": "0x89",
          "removed": false
        }
      ],
      "logsBloom": "0x00000000000000000000000000000000000000000000002000000000000000000000000000000000000000000010000000000000000000000000000000200000000000000000000000000000000000000000000000000000000000000000000000000000080000000004000000000000000000000000000000000000000000000000000000000000000000010000000000000000000000000000000020000000020000000008000000000000000000000000000000000000000000000000000000000000000000000000000000000000002000000000000000000000800000000010000000000000000000000000000000000000000000000000000000000000",
      "type": "0x2",
      "transactionHash": "0xe457b52f15c8834590919b9f73b15be1d0d4567b729d55f2fb6f2f63bf44c4b4",
      "transactionIndex": "0x5a",
      "blockHash": "0x52f868f4652e9f5f8b9ec089dc269b2e8d5c24fe6322b493c1f80a6c5e584937",
      "blockNumber": "0x63c682",
      "gasUsed": "0xb51f",
      "effectiveGasPrice": "0x8021074",
      "from": "0x367329b74e2c3b0cab20867ea56d2fa9438ab6c8",
      "to": "0x72c18ab51a865e5d24ed69f026a7a962ef7d3899",
      "contractAddress": null
    },
    {
      "status": "0x1",
      "cumulativeGasUsed": "0xec0832",
      "logs": [
        {
          "address": "0x72c18ab51a865e5d24ed69f026a7a962ef7d3899",
          "topics": [
            "0xddf252ad1be2c89b69c2b068fc378daa952ba7f163c4a11628f55a4df523b3ef",
            "0x000000000000000000000000367329b74e2c3b0cab20867ea56d2fa9438ab6c8",
            "0x000000000000000000000000a0820e79483622c65e1ef6c8fa15f8362917448e"
          ],
          "data": "0x0000000000000000000000000000000000000000000000008ac7230489e80000",
          "blockHash": "0xa697d688986cfe4558cebcd4e78ca1fadd726df9570c41ba1ae57fb2934440a7",
          "blockNumber": "0x63c683",
          "transactionHash": "0x1e03e5bb9a0274e745dc4b0fa9089001d339375a1564e6325c9eda832820773d",
          "transactionIndex": "0x50",
          "logIndex": "0x7a",
          "removed": false
        },
        {
          "address": "0xa0820e79483622c65e1ef6c8fa15f8362917448e",
          "topics": [
            "0x7a53080ba414158be7ec69b987b5fb7d07dee101fe85488f0853ae16239d0bde",
            "0x0000000000000000000000001238536071e1c677a632429e3655c799b22cda52",
            "0xffffffffffffffffffffffffffffffffffffffffffffffffffffffffffff8300",
            "0xffffffffffffffffffffffffffffffffffffffffffffffffffffffffffff8ad0"
          ],
          "data": "0x0000000000000000000000001238536071e1c677a632429e3655c799b22cda52000000000000000000000000000000000000000000000019879349338b32490c00000000000000000000000000000000000000000000000000000000000000000000000000000000000000000000000000000000000000008ac7230489e80000",
          "blockHash": "0xa697d688986cfe4558cebcd4e78ca1fadd726df9570c41ba1ae57fb2934440a7",
          "blockNumber": "0x63c683",
          "transactionHash": "0x1e03e5bb9a0274e745dc4b0fa9089001d339375a1564e6325c9eda832820773d",
          "transactionIndex": "0x50",
          "logIndex": "0x7b",
          "removed": false
        },
        {
          "address": "0x1238536071e1c677a632429e3655c799b22cda52",
          "topics": [
            "0xddf252ad1be2c89b69c2b068fc378daa952ba7f163c4a11628f55a4df523b3ef",
            "0x0000000000000000000000000000000000000000000000000000000000000000",
            "0x000000000000000000000000367329b74e2c3b0cab20867ea56d2fa9438ab6c8",
            "0x00000000000000000000000000000000000000000000000000000000000050b8"
          ],
          "data": "0x",
          "blockHash": "0xa697d688986cfe4558cebcd4e78ca1fadd726df9570c41ba1ae57fb2934440a7",
          "blockNumber": "0x63c683",
          "transactionHash": "0x1e03e5bb9a0274e745dc4b0fa9089001d339375a1564e6325c9eda832820773d",
          "transactionIndex": "0x50",
          "logIndex": "0x7c",
          "removed": false
        },
        {
          "address": "0x1238536071e1c677a632429e3655c799b22cda52",
          "topics": [
            "0x3067048beee31b25b2f1681f88dac838c8bba36af25bfb2b7cf7473a5847e35f",
            "0x00000000000000000000000000000000000000000000000000000000000050b8"
          ],
          "data": "0x000000000000000000000000000000000000000000000019879349338b32490c00000000000000000000000000000000000000000000000000000000000000000000000000000000000000000000000000000000000000008ac7230489e80000",
          "blockHash": "0xa697d688986cfe4558cebcd4e78ca1fadd726df9570c41ba1ae57fb2934440a7",
          "blockNumber": "0x63c683",
          "transactionHash": "0x1e03e5bb9a0274e745dc4b0fa9089001d339375a1564e6325c9eda832820773d",
          "transactionIndex": "0x50",
          "logIndex": "0x7d",
          "removed": false
        }
      ],
      "logsBloom": "0x000000000000100000001000000000000000000000000020000000000000000000008000000000000000000000100000000000000000000004000000010000000000000000000000000000080010000000000000000000000000000000000000208000200a0000000004000000000800000400000800000010000010000000000000000008000000000000010000000000000000500001100000000020000000000000000008001000000000000000000000000000000000000000002000000000000002000000000000080000020000002000000000000000000000800020000000000001000000000000010000000000000000000000000000000000000800",
      "type": "0x2",
      "transactionHash": "0x1e03e5bb9a0274e745dc4b0fa9089001d339375a1564e6325c9eda832820773d",
      "transactionIndex": "0x50",
      "blockHash": "0xa697d688986cfe4558cebcd4e78ca1fadd726df9570c41ba1ae57fb2934440a7",
      "blockNumber": "0x63c683",
      "gasUsed": "0x7a8da",
      "effectiveGasPrice": "0x81696d6",
      "from": "0x367329b74e2c3b0cab20867ea56d2fa9438ab6c8",
      "to": "0x1238536071e1c677a632429e3655c799b22cda52",
      "contractAddress": null
    }
  ],
  "libraries": [],
  "pending": [],
  "returns": {},
  "timestamp": 1724185861,
  "chain": 11155111,
  "commit": "0a1ad8b"
}