{
  "transactions": [
    {
      "hash": "0xa55ffe68d201e4c0b8f3c6b174180a281f3f8c2febb0fc53dec614b65a6961a1",
      "transactionType": "CALL",
      "contractName": null,
      "contractAddress": "0x797837fc728fa98a2e85aa0df9759b3badba11a7",
      "function": "transfer(address,uint256)",
      "arguments": [
        "0x4232EA2F481E06A39Edf378952a57dc93D7A1401",
        "50000000000000000000"
      ],
      "transaction": {
        "from": "0x3efdf0da9ca920d7236580683387ef95d4607fbb",
        "to": "0x797837fc728fa98a2e85aa0df9759b3badba11a7",
        "gas": "0x126ee",
        "value": "0x0",
        "input": "0xa9059cbb0000000000000000000000004232ea2f481e06a39edf378952a57dc93d7a1401000000000000000000000000000000000000000000000002b5e3af16b1880000",
        "nonce": "0x2",
        "chainId": "0xaa36a7"
      },
      "additionalContracts": [],
      "isFixedGasLimit": false
    },
    {
      "hash": "0x03c3f7e38ea3beb02a09c40a4a5105d133edc3048127697106a8e5090cef4fd3",
      "transactionType": "CALL",
      "contractName": null,
      "contractAddress": "0x4cfb882b75ce0d78ba20e49dc00aa5eeb0433699",
      "function": "approve(address,uint256)",
      "arguments": [
        "0x1238536071E1c677A632429e3655c799b22cDA52",
        "75000000000000000000"
      ],
      "transaction": {
        "from": "0x85d2e76c2a4a773277ae117c4280b5c1e3342a93",
        "to": "0x4cfb882b75ce0d78ba20e49dc00aa5eeb0433699",
        "gas": "0xf941",
        "value": "0x0",
        "input": "0x095ea7b30000000000000000000000001238536071e1c677a632429e3655c799b22cda5200000000000000000000000000000000000000000000000410d586a20a4c0000",
        "nonce": "0x3",
        "chainId": "0xaa36a7"
      },
      "additionalContracts": [],
      "isFixedGasLimit": false
    },
    {
      "hash": "0x523437e415caa461f71dcd54fc43cc2970b1c6c1d4d2e7075c1fa4147cbd530d",
      "transactionType": "CALL",
      "contractName": null,
      "contractAddress": "0x1238536071e1c677a632429e3655c799b22cda52",
      "function": "mint((address,address,uint24,int24,int24,uint256,uint256,uint256,uint256,address,uint256))",
      "arguments": [
        "(0x4CFb882B75CE0d78ba20e49Dc00aA5Eeb0433699, 0x72c18AB51A865E5d24ED69f026a7a962EF7D3899, 10000, -29600, -27600, 75000000000000000000, 0, 0, 0, 0x85d2e76C2A4A773277aE117C4280B5c1E3342a93, 1823444259)"
      ],
      "transaction": {
        "from": "0x85d2e76c2a4a773277ae117c4280b5c1e3342a93",
        "to": "0x1238536071e1c677a632429e3655c799b22cda52",
        "gas": "0x88159",
        "value": "0x0",
        "input": "0x883164560000000000000000000000004cfb882b75ce0d78ba20e49dc00aa5eeb043369900000000000000000000000072c18ab51a865e5d24ed69f026a7a962ef7d38990000000000000000000000000000000000000000000000000000000000002710ffffffffffffffffffffffffffffffffffffffffffffffffffffffffffff8c60ffffffffffffffffffffffffffffffffffffffffffffffffffffffffffff943000000000000000000000000000000000000000000000000410d586a20a4c000000000000000000000000000000000000000000000000000000000000000000000000000000000000000000000000000000000000000000000000000000000000000000000000000000000000000000000000000000000000000000000000000000000000000000000000000085d2e76c2a4a773277ae117c4280b5c1e3342a93000000000000000000000000000000000000000000000000000000006caf8d23",
        "nonce": "0x4",
        "chainId": "0xaa36a7"
      },
      "additionalContracts": [],
      "isFixedGasLimit": false
    },
    {
      "hash": "0x41ecc3dea3f64bd1ac11b117b7bc753ce0001bc298084cc445838e13fbda6500",
      "transactionType": "CALL",
      "contractName": null,
      "contractAddress": "0x1238536071e1c677a632429e3655c799b22cda52",
      "function": "decreaseLiquidity((uint256,uint128,uint256,uint256,uint256))",
      "arguments": [
        "(20666, 1587873072704312402813, 0, 0, 1823444259)"
      ],
      "transaction": {
        "from": "0x6a9a26c1d0edf9265fbf6877aa2f05175803031a",
        "to": "0x1238536071e1c677a632429e3655c799b22cda52",
        "gas": "0x333ca",
        "value": "0x0",
        "input": "0x0c49ccbe00000000000000000000000000000000000000000000000000000000000050ba000000000000000000000000000000000000000000000056142a62b6648d637d00000000000000000000000000000000000000000000000000000000000000000000000000000000000000000000000000000000000000000000000000000000000000000000000000000000000000000000000000000000000000006caf8d23",
        "nonce": "0x3",
        "chainId": "0xaa36a7"
      },
      "additionalContracts": [],
      "isFixedGasLimit": false
    },
    {
      "hash": "0xbbef79b67e6e9f84e00f1fe1a34de15ae0f96f81372455afd712734b6c1ee488",
      "transactionType": "CALL",
      "contractName": null,
      "contractAddress": "0x72c18ab51a865e5d24ed69f026a7a962ef7d3899",
      "function": "approve(address,uint256)",
      "arguments": [
        "0x1238536071E1c677A632429e3655c799b22cDA52",
        "33000000000000000000"
      ],
      "transaction": {
        "from": "0xb1ab55437fd4914bbfb8ea63a35d84bc469a8b95",
        "to": "0x72c18ab51a865e5d24ed69f026a7a962ef7d3899",
        "gas": "0x108f4",
        "value": "0x0",
        "input": "0x095ea7b30000000000000000000000001238536071e1c677a632429e3655c799b22cda52000000000000000000000000000000000000000000000001c9f78d2893e40000",
        "nonce": "0x1",
        "chainId": "0xaa36a7"
      },
      "additionalContracts": [],
      "isFixedGasLimit": false
    },
    {
      "hash": "0x77044f176adc2ff32fa85916bfa2a2cf1447503a1447b9bafe595e6ef6a058c4",
      "transactionType": "CALL",
      "contractName": null,
      "contractAddress": "0x95e1dc07edbf9a59f72e41fd533f1a5b4f3abb72",
      "function": "approve(address,uint256)",
      "arguments": [
        "0x1238536071E1c677A632429e3655c799b22cDA52",
        "3300000000000000000000"
      ],
      "transaction": {
        "from": "0xb1ab55437fd4914bbfb8ea63a35d84bc469a8b95",
        "to": "0x95e1dc07edbf9a59f72e41fd533f1a5b4f3abb72",
        "gas": "0xf941",
        "value": "0x0",
        "input": "0x095ea7b30000000000000000000000001238536071e1c677a632429e3655c799b22cda520000000000000000000000000000000000000000000000b2e4b323d9c5100000",
        "nonce": "0x2",
        "chainId": "0xaa36a7"
      },
      "additionalContracts": [],
      "isFixedGasLimit": false
    },
    {
      "hash": "0xb57d4d40ea6c9ae8f9a1b7a1c3d9ebbd50b62c4b31d6c985500062e990733775",
      "transactionType": "CALL",
      "contractName": null,
      "contractAddress": "0x1238536071e1c677a632429e3655c799b22cda52",
      "function": "mint((address,address,uint24,int24,int24,uint256,uint256,uint256,uint256,address,uint256))",
      "arguments": [
        "(0x72c18AB51A865E5d24ED69f026a7a962EF7D3899, 0x95E1DC07EDBF9a59F72e41Fd533f1A5B4f3AbB72, 10000, 44000, 48200, 30000000000000000000, 3000000000000000000000, 0, 0, 0xb1AB55437Fd4914bbfB8Ea63a35d84BC469a8B95, 1823444259)"
      ],
      "transaction": {
        "from": "0xb1ab55437fd4914bbfb8ea63a35d84bc469a8b95",
        "to": "0x1238536071e1c677a632429e3655c799b22cda52",
        "gas": "0xa482f",
        "value": "0x0",
        "input": "0x8831645600000000000000000000000072c18ab51a865e5d24ed69f026a7a962ef7d389900000000000000000000000095e1dc07edbf9a59f72e41fd533f1a5b4f3abb720000000000000000000000000000000000000000000000000000000000002710000000000000000000000000000000000000000000000000000000000000abe0000000000000000000000000000000000000000000000000000000000000bc48000000000000000000000000000000000000000000000001a055690d9db800000000000000000000000000000000000000000000000000a2a15d09519be0000000000000000000000000000000000000000000000000000000000000000000000000000000000000000000000000000000000000000000000000000000000000000000000000000000000000b1ab55437fd4914bbfb8ea63a35d84bc469a8b95000000000000000000000000000000000000000000000000000000006caf8d23",
        "nonce": "0x3",
        "chainId": "0xaa36a7"
      },
      "additionalContracts": [],
      "isFixedGasLimit": false
    }
  ],
  "receipts": [
    {
      "status": "0x1",
      "cumulativeGasUsed": "0xc638bf",
      "logs": [
        {
          "address": "0x797837fc728fa98a2e85aa0df9759b3badba11a7",
          "topics": [
            "0xddf252ad1be2c89b69c2b068fc378daa952ba7f163c4a11628f55a4df523b3ef",
            "0x0000000000000000000000003efdf0da9ca920d7236580683387ef95d4607fbb",
            "0x0000000000000000000000004232ea2f481e06a39edf378952a57dc93d7a1401"
          ],
          "data": "0x000000000000000000000000000000000000000000000002b5e3af16b1880000",
          "blockHash": "0xfe567ece686991374c034ff07c8f3ba9d76c7653b6f76f96bb996450bbcf7efa",
          "blockNumber": "0x63c6dc",
          "transactionHash": "0xa55ffe68d201e4c0b8f3c6b174180a281f3f8c2febb0fc53dec614b65a6961a1",
          "transactionIndex": "0x48",
          "logIndex": "0x67",
          "removed": false
        }
      ],
      "logsBloom": "0x00000000000000008000000000000000000000000000000000000000000000000000000000000000000000000000000000000000000000000000000000000000200080000000000001000008000000000000000000000000000000000000000000000000004000000000000080000000000000000000000000000010000000000000000000000000000000000000000000000000000000000000000000000000000000000000000000000000000000000000000000000000000000000000000000000002000000000000000000000000000000000000000100020000000000000000000000000000000000000000000000000000000000040000000000000000",
      "type": "0x2",
      "transactionHash": "0xa55ffe68d201e4c0b8f3c6b174180a281f3f8c2febb0fc53dec614b65a6961a1",
      "transactionIndex": "0x48",
      "blockHash": "0xfe567ece686991374c034ff07c8f3ba9d76c7653b6f76f96bb996450bbcf7efa",
      "blockNumber": "0x63c6dc",
      "gasUsed": "0xc9aa",
      "effectiveGasPrice": "0x792cddc",
      "from": "0x3efdf0da9ca920d7236580683387ef95d4607fbb",
      "to": "0x797837fc728fa98a2e85aa0df9759b3badba11a7",
      "contractAddress": null
    },
    {
      "status": "0x1",
      "cumulativeGasUsed": "0x106ec42",
      "logs": [
        {
          "address": "0x4cfb882b75ce0d78ba20e49dc00aa5eeb0433699",
          "topics": [
            "0x8c5be1e5ebec7d5bd14f71427d1e84f3dd0314c0f7b2291e5b200ac8c7c3b925",
            "0x00000000000000000000000085d2e76c2a4a773277ae117c4280b5c1e3342a93",
            "0x0000000000000000000000001238536071e1c677a632429e3655c799b22cda52"
          ],
          "data": "0x00000000000000000000000000000000000000000000000410d586a20a4c0000",
          "blockHash": "0x6c952493f538329dc6f5436ab72e83d3d0abc1ee2e9ff611a0de0a056f3b0995",
          "blockNumber": "0x63c6df",
          "transactionHash": "0x03c3f7e38ea3beb02a09c40a4a5105d133edc3048127697106a8e5090cef4fd3",
          "transactionIndex": "0x54",
          "logIndex": "0xb1",
          "removed": false
        }
      ],
      "logsBloom": "0x00000000000000000000000000000000000000000800000000000000000000000000000000000000000000000000000000000000000000000000000000200000000000000000000000000000000000000000000000000000000000000000000000000000000000000000000000000000000000000000000000000000000400000000000000000000000000010000000000000000000000000000000000000000020000000000000000000000000000000000000000000000040000200000000000000000000000000000000000000000002000000000000000000000800000000010000000000040000000000000000000000000000000000000000000100000",
      "type": "0x2",
      "transactionHash": "0x03c3f7e38ea3beb02a09c40a4a5105d133edc3048127697106a8e5090cef4fd3",
      "transactionIndex": "0x54",
      "blockHash": "0x6c952493f538329dc6f5436ab72e83d3d0abc1ee2e9ff611a0de0a056f3b0995",
      "blockNumber": "0x63c6df",
      "gasUsed": "0xb475",
      "effectiveGasPrice": "0x7806dd9",
      "from": "0x85d2e76c2a4a773277ae117c4280b5c1e3342a93",
      "to": "0x4cfb882b75ce0d78ba20e49dc00aa5eeb0433699",
      "contractAddress": null
    },
    {
      "status": "0x1",
      "cumulativeGasUsed": "0x5a16a6",
      "logs": [
        {
          "address": "0x4cfb882b75ce0d78ba20e49dc00aa5eeb0433699",
          "topics": [
            "0xddf252ad1be2c89b69c2b068fc378daa952ba7f163c4a11628f55a4df523b3ef",
            "0x00000000000000000000000085d2e76c2a4a773277ae117c4280b5c1e3342a93",
            "0x000000000000000000000000a0820e79483622c65e1ef6c8fa15f8362917448e"
          ],
          "data": "0x00000000000000000000000000000000000000000000000410d586a20a4c0000",
          "blockHash": "0x3922060b277f6238f42e1ee7fc0b149d2827d1f1801e1d4a8315cad12e72c98a",
          "blockNumber": "0x63c6e0",
          "transactionHash": "0x523437e415caa461f71dcd54fc43cc2970b1c6c1d4d2e7075c1fa4147cbd530d",
          "transactionIndex": "0x39",
          "logIndex": "0x3e",
          "removed": false
        },
        {
          "address": "0xa0820e79483622c65e1ef6c8fa15f8362917448e",
          "topics": [
            "0x7a53080ba414158be7ec69b987b5fb7d07dee101fe85488f0853ae16239d0bde",
            "0x0000000000000000000000001238536071e1c677a632429e3655c799b22cda52",
            "0xffffffffffffffffffffffffffffffffffffffffffffffffffffffffffff8c60",
            "0xffffffffffffffffffffffffffffffffffffffffffffffffffffffffffff9430"
          ],
          "data": "0x0000000000000000000000001238536071e1c677a632429e3655c799b22cda52000000000000000000000000000000000000000000000009ba12ebcb489e0c7800000000000000000000000000000000000000000000000410d586a20a4c00000000000000000000000000000000000000000000000000000000000000000000",
          "blockHash": "0x3922060b277f6238f42e1ee7fc0b149d2827d1f1801e1d4a8315cad12e72c98a",
          "blockNumber": "0x63c6e0",
          "transactionHash": "0x523437e415caa461f71dcd54fc43cc2970b1c6c1d4d2e7075c1fa4147cbd530d",
          "transactionIndex": "0x39",
          "logIndex": "0x3f",
          "removed": false
        },
        {
          "address": "0x1238536071e1c677a632429e3655c799b22cda52",
          "topics": [
            "0xddf252ad1be2c89b69c2b068fc378daa952ba7f163c4a11628f55a4df523b3ef",
            "0x0000000000000000000000000000000000000000000000000000000000000000",
            "0x00000000000000000000000085d2e76c2a4a773277ae117c4280b5c1e3342a93",
            "0x00000000000000000000000000000000000000000000000000000000000050bd"
          ],
          "data": "0x",
          "blockHash": "0x3922060b277f6238f42e1ee7fc0b149d2827d1f1801e1d4a8315cad12e72c98a",
          "blockNumber": "0x63c6e0",
          "transactionHash": "0x523437e415caa461f71dcd54fc43cc2970b1c6c1d4d2e7075c1fa4147cbd530d",
          "transactionIndex": "0x39",
          "logIndex": "0x40",
          "removed": false
        },
        {
          "address": "0x1238536071e1c677a632429e3655c799b22cda52",
          "topics": [
            "0x3067048beee31b25b2f1681f88dac838c8bba36af25bfb2b7cf7473a5847e35f",
            "0x00000000000000000000000000000000000000000000000000000000000050bd"
          ],
          "data": "0x000000000000000000000000000000000000000000000009ba12ebcb489e0c7800000000000000000000000000000000000000000000000410d586a20a4c00000000000000000000000000000000000000000000000000000000000000000000",
          "blockHash": "0x3922060b277f6238f42e1ee7fc0b149d2827d1f1801e1d4a8315cad12e72c98a",
          "blockNumber": "0x63c6e0",
          "transactionHash": "0x523437e415caa461f71dcd54fc43cc2970b1c6c1d4d2e7075c1fa4147cbd530d",
          "transactionIndex": "0x39",
          "logIndex": "0x41",
          "removed": false
        }
      ],
      "logsBloom": "0x00000000000000000000100000000000020000000a00080000000000000040000000800000000000000000000000000000000000000000000400100001000004000000000000000000000008000000000000000000000000000000000000000020000000020000000000000000000800000000000800000010000010000400000000000008020000000000010000000000000000100001000000000200000000000000000000001000000000000000000000000000200000040000202000000000000002000000000000080000020000002000000000000000000000800020000000000000000040000000000000000000000000000000000000000000100800",
      "type": "0x2",
      "transactionHash": "0x523437e415caa461f71dcd54fc43cc2970b1c6c1d4d2e7075c1fa4147cbd530d",
      "transactionIndex": "0x39",
      "blockHash": "0x3922060b277f6238f42e1ee7fc0b149d2827d1f1801e1d4a8315cad12e72c98a",
      "blockNumber": "0x63c6e0",
      "gasUsed": "0x6285d",
      "effectiveGasPrice": "0x7ece4f1",
      "from": "0x85d2e76c2a4a773277ae117c4280b5c1e3342a93",
      "to": "0x1238536071e1c677a632429e3655c799b22cda52",
      "contractAddress": null
    },
    {
      "status": "0x1",
      "cumulativeGasUsed": "0x3cad9a",
      "logs": [
        {
          "address": "0xb4fc88d0a0ba8d5eeacb45fe07b99d039be6ca4b",
          "topics": [
            "0x0c396cd989a39f4459b5fa1aed6a9a8dcdbc45908acfd67e028cd568da98982c",
            "0x0000000000000000000000001238536071e1c677a632429e3655c799b22cda52",
            "0x000000000000000000000000000000000000000000000000000000000000b478",
            "0x000000000000000000000000000000000000000000000000000000000000bc48"
          ],
          "data": "0x000000000000000000000000000000000000000000000056142a62b6648d637d000000000000000000000000000000000000000000000000d02ab486cedbffff0000000000000000000000000000000000000000000000000000000000000000",
          "blockHash": "0x2f97cba33daba0a39c6e899edc26cd957abfacacd6577ebe20ef86a2fc4163e3",
          "blockNumber": "0x63c6e1",
          "transactionHash": "0x41ecc3dea3f64bd1ac11b117b7bc753ce0001bc298084cc445838e13fbda6500",
          "transactionIndex": "0x2d",
          "logIndex": "0x30",
          "removed": false
        },
        {
          "address": "0x1238536071e1c677a632429e3655c799b22cda52",
          "topics": [
            "0x26f6a048ee9138f2c0ce266f322cb99228e8d619ae2bff30c67f8dcf9d2377b4",
            "0x00000000000000000000000000000000000000000000000000000000000050ba"
          ],
          "data": "0x000000000000000000000000000000000000000000000056142a62b6648d637d000000000000000000000000000000000000000000000000d02ab486cedbffff0000000000000000000000000000000000000000000000000000000000000000",
          "blockHash": "0x2f97cba33daba0a39c6e899edc26cd957abfacacd6577ebe20ef86a2fc4163e3",
          "blockNumber": "0x63c6e1",
          "transactionHash": "0x41ecc3dea3f64bd1ac11b117b7bc753ce0001bc298084cc445838e13fbda6500",
          "transactionIndex": "0x2d",
          "logIndex": "0x31",
          "removed": false
        }
      ],
      "logsBloom": "0x00000000000004000000000000000000000000000000000000000000000000000000000010000000000000000000000000000000080000000200000000000000000000000000000000000000200000000000000000000000000000000000000020000000000100000000000000000000000000000004000000008000000000000000000000000000000000010000000000000000000000000000000000000000000000000000000000400000200000000000000000000000000100002000000000008000000000000000000000020000042000000000000000000000800000000000084000002000000000000000000000000002000000800000000000000000",
      "type": "0x2",
      "transactionHash": "0x41ecc3dea3f64bd1ac11b117b7bc753ce0001bc298084cc445838e13fbda6500",
      "transactionIndex": "0x2d",
      "blockHash": "0x2f97cba33daba0a39c6e899edc26cd957abfacacd6577ebe20ef86a2fc4163e3",
      "blockNumber": "0x63c6e1",
      "gasUsed": "0x2308b",
      "effectiveGasPrice": "0x828cb3b",
      "from": "0x6a9a26c1d0edf9265fbf6877aa2f05175803031a",
      "to": "0x1238536071e1c677a632429e3655c799b22cda52",
      "contractAddress": null
    },
    {
      "status": "0x1",
      "cumulativeGasUsed": "0xb63be3",
      "logs": [
        {
          "address": "0x72c18ab51a865e5d24ed69f026a7a962ef7d3899",
          "topics": [
            "0x8c5be1e5ebec7d5bd14f71427d1e84f3dd0314c0f7b2291e5b200ac8c7c3b925",
            "0x000000000000000000000000b1ab55437fd4914bbfb8ea63a35d84bc469a8b95",
            "0x0000000000000000000000001238536071e1c677a632429e3655c799b22cda52"
          ],
          "data": "0x000000000000000000000000000000000000000000000001c9f78d2893e40000",
          "blockHash": "0xf190aa3f28340543d4dd5e2e49cc297579b45dd442d9e6db12f8b236749b919a",
          "blockNumber": "0x63c6e2",
          "transactionHash": "0xbbef79b67e6e9f84e00f1fe1a34de15ae0f96f81372455afd712734b6c1ee488",
          "transactionIndex": "0x45",
          "logIndex": "0x50",
          "removed": false
        }
      ],
      "logsBloom": "0x00000000000000000000000000000000000000000000002000000000000000000000000000000000000000000010000000000000000000000000000000200000000000000000000000000000000000000000000000000020000000000000000000000000000000000000000000000000000000000000000000000000000000000000000000000000000000010000000000000000000000000000000000000000020000000008000000000000000000000000000000100000000000000000000000000000000000000000000000000000002000000000000000000000800000000010000000001000000000000000000000000000000000000000000000000000",
      "type": "0x2",
      "transactionHash": "0xbbef79b67e6e9f84e00f1fe1a34de15ae0f96f81372455afd712734b6c1ee488",
      "transactionIndex": "0x45",
      "blockHash": "0xf190aa3f28340543d4dd5e2e49cc297579b45dd442d9e6db12f8b236749b919a",
      "blockNumber": "0x63c6e2",
      "gasUsed": "0xb52b",
      "effectiveGasPrice": "0x7a4b896",
      "from": "0xb1ab55437fd4914bbfb8ea63a35d84bc469a8b95",
      "to": "0x72c18ab51a865e5d24ed69f026a7a962ef7d3899",
      "contractAddress": null
    },
    {
      "status": "0x1",
      "cumulativeGasUsed": "0x6ec7c0",
      "logs": [
        {
          "address": "0x95e1dc07edbf9a59f72e41fd533f1a5b4f3abb72",
          "topics": [
            "0x8c5be1e5ebec7d5bd14f71427d1e84f3dd0314c0f7b2291e5b200ac8c7c3b925",
            "0x000000000000000000000000b1ab55437fd4914bbfb8ea63a35d84bc469a8b95",
            "0x0000000000000000000000001238536071e1c677a632429e3655c799b22cda52"
          ],
          "data": "0x0000000000000000000000000000000000000000000000b2e4b323d9c5100000",
          "blockHash": "0x0fbe08c673566df8ba6b121b6cf55d0c7f8b0f982bccb3ff56c14926f78cf244",
          "blockNumber": "0x63c6e4",
          "transactionHash": "0x77044f176adc2ff32fa85916bfa2a2cf1447503a1447b9bafe595e6ef6a058c4",
          "transactionIndex": "0x3b",
          "logIndex": "0x57",
          "removed": false
        }
      ],
      "logsBloom": "0x00000000000000001000000000000000000000000000000000000000000000000000000000000000000000000000000000000000000000000000000000200000000000000000000000000000000000000000000000000020000000000000000000000000000000000000000000000000000000000000000000000000000000000000000000000000000000010000000000000000000000000000000000000000020000000000000000000000000000000000000000100000200000000000000000000008000000000000000000000000002000000000000000000000800000000010000000001000000000000000000000000000000000000000000000000000",
      "type": "0x2",
      "transactionHash": "0x77044f176adc2ff32fa85916bfa2a2cf1447503a1447b9bafe595e6ef6a058c4",
      "transactionIndex": "0x3b",
      "blockHash": "0x0fbe08c673566df8ba6b121b6cf55d0c7f8b0f982bccb3ff56c14926f78cf244",
      "blockNumber": "0x63c6e4",
      "gasUsed": "0xb475",
      "effectiveGasPrice": "0x7b968d6",
      "from": "0xb1ab55437fd4914bbfb8ea63a35d84bc469a8b95",
      "to": "0x95e1dc07edbf9a59f72e41fd533f1a5b4f3abb72",
      "contractAddress": null
    },
    {
      "status": "0x1",
      "cumulativeGasUsed": "0x59445b",
      "logs": [
        {
          "address": "0x72c18ab51a865e5d24ed69f026a7a962ef7d3899",
          "topics": [
            "0xddf252ad1be2c89b69c2b068fc378daa952ba7f163c4a11628f55a4df523b3ef",
            "0x000000000000000000000000b1ab55437fd4914bbfb8ea63a35d84bc469a8b95",
            "0x000000000000000000000000b4fc88d0a0ba8d5eeacb45fe07b99d039be6ca4b"
          ],
          "data": "0x000000000000000000000000000000000000000000000001a055690d9db80000",
          "blockHash": "0xcc3b322bcec681d96e3ed675d558d7ff5e4c21330f89017f9a7e14d607faaa53",
          "blockNumber": "0x63c6e5",
          "transactionHash": "0xb57d4d40ea6c9ae8f9a1b7a1c3d9ebbd50b62c4b31d6c985500062e990733775",
          "transactionIndex": "0x30",
          "logIndex": "0x4a",
          "removed": false
        },
        {
          "address": "0x95e1dc07edbf9a59f72e41fd533f1a5b4f3abb72",
          "topics": [
            "0xddf252ad1be2c89b69c2b068fc378daa952ba7f163c4a11628f55a4df523b3ef",
            "0x000000000000000000000000b1ab55437fd4914bbfb8ea63a35d84bc469a8b95",
            "0x000000000000000000000000b4fc88d0a0ba8d5eeacb45fe07b99d039be6ca4b"
          ],
          "data": "0x00000000000000000000000000000000000000000000009c02d398cc0338f5e9",
          "blockHash": "0xcc3b322bcec681d96e3ed675d558d7ff5e4c21330f89017f9a7e14d607faaa53",
          "blockNumber": "0x63c6e5",
          "transactionHash": "0xb57d4d40ea6c9ae8f9a1b7a1c3d9ebbd50b62c4b31d6c985500062e990733775",
          "transactionIndex": "0x30",
          "logIndex": "0x4b",
          "removed": false
        },
        {
          "address": "0xb4fc88d0a0ba8d5eeacb45fe07b99d039be6ca4b",
          "topics": [
            "0x7a53080ba414158be7ec69b987b5fb7d07dee101fe85488f0853ae16239d0bde",
            "0x0000000000000000000000001238536071e1c677a632429e3655c799b22cda52",
            "0x000000000000000000000000000000000000000000000000000000000000abe0",
            "0x000000000000000000000000000000000000000000000000000000000000bc48"
          ],
          "data": "0x0000000000000000000000001238536071e1c677a632429e3655c799b22cda5200000000000000000000000000000000000000000000009fd9cdc7a80f9f3403000000000000000000000000000000000000000000000001a055690d9db8000000000000000000000000000000000000000000000000009c02d398cc0338f5e9",
          "blockHash": "0xcc3b322bcec681d96e3ed675d558d7ff5e4c21330f89017f9a7e14d607faaa53",
          "blockNumber": "0x63c6e5",
          "transactionHash": "0xb57d4d40ea6c9ae8f9a1b7a1c3d9ebbd50b62c4b31d6c985500062e990733775",
          "transactionIndex": "0x30",
          "logIndex": "0x4c",
          "removed": false
        },
        {
          "address": "0x1238536071e1c677a632429e3655c799b22cda52",
          "topics": [
            "0xddf252ad1be2c89b69c2b068fc378daa952ba7f163c4a11628f55a4df523b3ef",
            "0x0000000000000000000000000000000000000000000000000000000000000000",
            "0x000000000000000000000000b1ab55437fd4914bbfb8ea63a35d84bc469a8b95",
            "0x00000000000000000000000000000000000000000000000000000000000050be"
          ],
          "data": "0x",
          "blockHash": "0xcc3b322bcec681d96e3ed675d558d7ff5e4c21330f89017f9a7e14d607faaa53",
          "blockNumber": "0x63c6e5",
          "transactionHash": "0xb57d4d40ea6c9ae8f9a1b7a1c3d9ebbd50b62c4b31d6c985500062e990733775",
          "transactionIndex": "0x30",
          "logIndex": "0x4d",
          "removed": false
        },
        {
          "address": "0x1238536071e1c677a632429e3655c799b22cda52",
          "topics": [
            "0x3067048beee31b25b2f1681f88dac838c8bba36af25bfb2b7cf7473a5847e35f",
            "0x00000000000000000000000000000000000000000000000000000000000050be"
          ],
          "data": "0x00000000000000000000000000000000000000000000009fd9cdc7a80f9f3403000000000000000000000000000000000000000000000001a055690d9db8000000000000000000000000000000000000000000000000009c02d398cc0338f5e9",
          "blockHash": "0xcc3b322bcec681d96e3ed675d558d7ff5e4c21330f89017f9a7e14d607faaa53",
          "blockNumber": "0x63c6e5",
          "transactionHash": "0xb57d4d40ea6c9ae8f9a1b7a1c3d9ebbd50b62c4b31d6c985500062e990733775",
          "transactionIndex": "0x30",
          "logIndex": "0x4e",
          "removed": false
        }
      ],
      "logsBloom": "0x0000000000000000100010000040000000000000000000200000000000000400000000000000000000100000001000000000000000000000040000000000000000000000000000000000000820000000000200000000002000000000000000002000000002010000000000000000080000000000080000000000001000000000000000000800000000000001000000000000000000000000000000000000000800000000000800000040000020000000000000000010000020000080200000000002000a000000010000080000020000042000000000000000000000c00020000000004000001000000000000000000000000000000000000000000000000800",
      "type": "0x2",
      "transactionHash": "0xb57d4d40ea6c9ae8f9a1b7a1c3d9ebbd50b62c4b31d6c985500062e990733775",
      "transactionIndex": "0x30",
      "blockHash": "0xcc3b322bcec681d96e3ed675d558d7ff5e4c21330f89017f9a7e14d607faaa53",
      "blockNumber": "0x63c6e5",
      "gasUsed": "0x707c9",
      "effectiveGasPrice": "0x7dd591a",
      "from": "0xb1ab55437fd4914bbfb8ea63a35d84bc469a8b95",
      "to": "0x1238536071e1c677a632429e3655c799b22cda52",
      "contractAddress": null
    }
  ],
  "libraries": [],
  "pending": [],
  "returns": {},
  "timestamp": 1724187221,
  "chain": 11155111,
  "commit": "0a1ad8b"
}