{
  "transactions": [
    {
      "hash": "0x59c89b2440b244a6db8fe0b094ba9458267ace74e357a764c6746e4d52020faa",
      "transactionType": "CALL",
      "contractName": "RumpelGuard",
      "contractAddress": "0x05959a76df690dc3423a7c71c90bb810e4932754",
      "function": "setCallAllowed(address,bytes4,uint8)",
      "arguments": [
        "0x797837Fc728fa98A2e85aA0Df9759B3BaDba11A7",
        "0xa9059cbb00000000000000000000000000000000000000000000000000000000",
        "1"
      ],
      "transaction": {
        "from": "0x3d49dea4035432968a531e663cda96255867bfc1",
        "to": "0x05959a76df690dc3423a7c71c90bb810e4932754",
        "gas": "0x10853",
        "value": "0x0",
        "input": "0x5534fa0c000000000000000000000000797837fc728fa98a2e85aa0df9759b3badba11a7a9059cbb000000000000000000000000000000000000000000000000000000000000000000000000000000000000000000000000000000000000000000000001",
        "nonce": "0x13d",
        "chainId": "0xaa36a7"
      },
      "additionalContracts": [],
      "isFixedGasLimit": false
    },
    {
      "hash": "0xeb78d83042e35c67fe8cbbb8f3e10a4657b42014146bde5180cd8b0a4e9a8cd7",
      "transactionType": "CALL",
      "contractName": "RumpelGuard",
      "contractAddress": "0x05959a76df690dc3423a7c71c90bb810e4932754",
      "function": "setCallAllowed(address,bytes4,uint8)",
      "arguments": [
        "0x7354a309F37601c81DD610b5E9eEdCEba256c088",
        "0xa9059cbb00000000000000000000000000000000000000000000000000000000",
        "1"
      ],
      "transaction": {
        "from": "0x3d49dea4035432968a531e663cda96255867bfc1",
        "to": "0x05959a76df690dc3423a7c71c90bb810e4932754",
        "gas": "0x10853",
        "value": "0x0",
        "input": "0x5534fa0c0000000000000000000000007354a309f37601c81dd610b5e9eedceba256c088a9059cbb000000000000000000000000000000000000000000000000000000000000000000000000000000000000000000000000000000000000000000000001",
        "nonce": "0x13e",
        "chainId": "0xaa36a7"
      },
      "additionalContracts": [],
      "isFixedGasLimit": false
    },
    {
      "hash": "0x9cd127b2e8702639f7bd84b38e592a0a9032a2fa51e7011ec9c4bca4d9bfb363",
      "transactionType": "CALL",
      "contractName": "RumpelGuard",
      "contractAddress": "0x05959a76df690dc3423a7c71c90bb810e4932754",
      "function": "setCallAllowed(address,bytes4,uint8)",
      "arguments": [
        "0x6803Dde7737eF1f96faF1C6ACEeD2F6030CB7E1A",
        "0xa9059cbb00000000000000000000000000000000000000000000000000000000",
        "1"
      ],
      "transaction": {
        "from": "0x3d49dea4035432968a531e663cda96255867bfc1",
        "to": "0x05959a76df690dc3423a7c71c90bb810e4932754",
        "gas": "0x10853",
        "value": "0x0",
        "input": "0x5534fa0c0000000000000000000000006803dde7737ef1f96faf1c6aceed2f6030cb7e1aa9059cbb000000000000000000000000000000000000000000000000000000000000000000000000000000000000000000000000000000000000000000000001",
        "nonce": "0x13f",
        "chainId": "0xaa36a7"
      },
      "additionalContracts": [],
      "isFixedGasLimit": false
    },
    {
      "hash": "0x605601bb63773217d6fca72ea3671b784aa771e745a566336d5d7578839425d6",
      "transactionType": "CALL",
      "contractName": "RumpelGuard",
      "contractAddress": "0x05959a76df690dc3423a7c71c90bb810e4932754",
      "function": "setCallAllowed(address,bytes4,uint8)",
      "arguments": [
        "0x565e8D35B56174e35C0fc06435Dc9F43BbF86781",
        "0xa9059cbb00000000000000000000000000000000000000000000000000000000",
        "1"
      ],
      "transaction": {
        "from": "0x3d49dea4035432968a531e663cda96255867bfc1",
        "to": "0x05959a76df690dc3423a7c71c90bb810e4932754",
        "gas": "0x10853",
        "value": "0x0",
        "input": "0x5534fa0c000000000000000000000000565e8d35b56174e35c0fc06435dc9f43bbf86781a9059cbb000000000000000000000000000000000000000000000000000000000000000000000000000000000000000000000000000000000000000000000001",
        "nonce": "0x140",
        "chainId": "0xaa36a7"
      },
      "additionalContracts": [],
      "isFixedGasLimit": false
    }
  ],
  "receipts": [
    {
      "status": "0x1",
      "cumulativeGasUsed": "0x8b0869",
      "logs": [
        {
          "address": "0x05959a76df690dc3423a7c71c90bb810e4932754",
          "topics": [
            "0x70785a9b51e0166fb561479b514223d6b27cc81df3c02b16292211b860842f73",
            "0x000000000000000000000000797837fc728fa98a2e85aa0df9759b3badba11a7",
            "0xa9059cbb00000000000000000000000000000000000000000000000000000000"
          ],
          "data": "0x0000000000000000000000000000000000000000000000000000000000000001",
          "blockHash": "0x84cf849fdff49bcbf624fd6b19b78e86a23dab2cee63de6d0366411e86a6a0b1",
          "blockNumber": "0x63c659",
          "transactionHash": "0x59c89b2440b244a6db8fe0b094ba9458267ace74e357a764c6746e4d52020faa",
          "transactionIndex": "0x3a",
          "logIndex": "0x74",
          "removed": false
        }
      ],
      "logsBloom": "0x00000004000000000000000000000000000008000000000000000800000000000000000000000000000000000000000000000000000000000000000000000000000000000000000000144000000000000000000000000000000000000000000000000000000000000000000000000000000000000000008000000000000000000000000000000000000000000000000000000000000000100000000040000000000000000000000000000000000000000000000000000000000000000000000000000000000000000000008000000000000000200000000000000000000000000000000000000004000000000000000000000000000000000000000000000000",
      "type": "0x2",
      "transactionHash": "0x59c89b2440b244a6db8fe0b094ba9458267ace74e357a764c6746e4d52020faa",
      "transactionIndex": "0x3a",
      "blockHash": "0x84cf849fdff49bcbf624fd6b19b78e86a23dab2cee63de6d0366411e86a6a0b1",
      "blockNumber": "0x63c659",
      "gasUsed": "0xbf5f",
      "effectiveGasPrice": "0x86b4750",
      "from": "0x3d49dea4035432968a531e663cda96255867bfc1",
      "to": "0x05959a76df690dc3423a7c71c90bb810e4932754",
      "contractAddress": null
    },
    {
      "status": "0x1",
      "cumulativeGasUsed": "0x95d9f0",
      "logs": [
        {
          "address": "0x05959a76df690dc3423a7c71c90bb810e4932754",
          "topics": [
            "0x70785a9b51e0166fb561479b514223d6b27cc81df3c02b16292211b860842f73",
            "0x0000000000000000000000007354a309f37601c81dd610b5e9eedceba256c088",
            "0xa9059cbb00000000000000000000000000000000000000000000000000000000"
          ],
          "data": "0x0000000000000000000000000000000000000000000000000000000000000001",
          "blockHash": "0x773e65e33aeca3bd008415f4f6693f6f90ee38f9a3a77938602d080ff52b7f37",
          "blockNumber": "0x63c65a",
          "transactionHash": "0xeb78d83042e35c67fe8cbbb8f3e10a4657b42014146bde5180cd8b0a4e9a8cd7",
          "transactionIndex": "0x4a",
          "logIndex": "0x88",
          "removed": false
        }
      ],
      "logsBloom": "0x00000004000000000000000000000000000008000000000000000800000000000000000000000000000000000000000000000000000000000000000000000000000000000000000000104000000000000000000000001000000000008000000000000000000000000000000000000000000000000000008000000000000000000000000000000000000000000000000000000000000000100000000040000000000000000000000000000000000000000000000000000000000000040000000000000000000000000000000000000000000000200000000000000000000000000000000000000000000000000000000000000000000000000000000000000000",
      "type": "0x2",
      "transactionHash": "0xeb78d83042e35c67fe8cbbb8f3e10a4657b42014146bde5180cd8b0a4e9a8cd7",
      "transactionIndex": "0x4a",
      "blockHash": "0x773e65e33aeca3bd008415f4f6693f6f90ee38f9a3a77938602d080ff52b7f37",
      "blockNumber": "0x63c65a",
      "gasUsed": "0xbf5f",
      "effectiveGasPrice": "0x807d65f",
      "from": "0x3d49dea4035432968a531e663cda96255867bfc1",
      "to": "0x05959a76df690dc3423a7c71c90bb810e4932754",
      "contractAddress": null
    },
    {
      "status": "0x1",
      "cumulativeGasUsed": "0x784c68",
      "logs": [
        {
          "address": "0x05959a76df690dc3423a7c71c90bb810e4932754",
          "topics": [
            "0x70785a9b51e0166fb561479b514223d6b27cc81df3c02b16292211b860842f73",
            "0x0000000000000000000000006803dde7737ef1f96faf1c6aceed2f6030cb7e1a",
            "0xa9059cbb00000000000000000000000000000000000000000000000000000000"
          ],
          "data": "0x0000000000000000000000000000000000000000000000000000000000000001",
          "blockHash": "0x0a755021b4608f9f4c22162f2e3d02133235acb09e9f84a5a85db0562519a588",
          "blockNumber": "0x63c65b",
          "transactionHash": "0x9cd127b2e8702639f7bd84b38e592a0a9032a2fa51e7011ec9c4bca4d9bfb363",
          "transactionIndex": "0x3e",
          "logIndex": "0x73",
          "removed": false
        }
      ],
      "logsBloom": "0x00000004000000000000000000000000000008000000000000000800000000000000000000000000000000000000000000000001000000000000080000000000000000000000000000104000000000000000000000000000000002000000000000000000000000000000000000000000000000000000008000000000000000000000000000000000000000000000000000000000000000100000000040000000000000000000000000000000000000000000000000000000000000000000000000000000000000000000000000000000000000200000000000000000000000000000000000000000000000000000000000000000000000000000000000000000",
      "type": "0x2",
      "transactionHash": "0x9cd127b2e8702639f7bd84b38e592a0a9032a2fa51e7011ec9c4bca4d9bfb363",
      "transactionIndex": "0x3e",
      "blockHash": "0x0a755021b4608f9f4c22162f2e3d02133235acb09e9f84a5a85db0562519a588",
      "blockNumber": "0x63c65b",
      "gasUsed": "0xbf5f",
      "effectiveGasPrice": "0x7b66ce7",
      "from": "0x3d49dea4035432968a531e663cda96255867bfc1",
      "to": "0x05959a76df690dc3423a7c71c90bb810e4932754",
      "contractAddress": null
    },
    {
      "status": "0x1",
      "cumulativeGasUsed": "0x97a810",
      "logs": [
        {
          "address": "0x05959a76df690dc3423a7c71c90bb810e4932754",
          "topics": [
            "0x70785a9b51e0166fb561479b514223d6b27cc81df3c02b16292211b860842f73",
            "0x000000000000000000000000565e8d35b56174e35c0fc06435dc9f43bbf86781",
            "0xa9059cbb00000000000000000000000000000000000000000000000000000000"
          ],
          "data": "0x0000000000000000000000000000000000000000000000000000000000000001",
          "blockHash": "0x189c1697d68a94ac4a0c582b5da10d4ef2cb420a5fbf21f281c12d8dd3ee50d4",
          "blockNumber": "0x63c65c",
          "transactionHash": "0x605601bb63773217d6fca72ea3671b784aa771e745a566336d5d7578839425d6",
          "transactionIndex": "0x4b",
          "logIndex": "0x6d",
          "removed": false
        }
      ],
      "logsBloom": "0x00000004000000000000000000000000000008000000000000000800000000000000000000000000000000000000000000000000000000000000001000000000000000000000000000104000000000000000000000000000000000000000000000000000000000000000000000000000000000000000008000800000000000000200000000000000000000000000000000000000000000100000000040000000000000000000000000000000000000000000000000000000000000000000000000000000000000000000000000000000000000200000000000000000000000000000000000000000000000000000000000000000000000000000000000000000",
      "type": "0x2",
      "transactionHash": "0x605601bb63773217d6fca72ea3671b784aa771e745a566336d5d7578839425d6",
      "transactionIndex": "0x4b",
      "blockHash": "0x189c1697d68a94ac4a0c582b5da10d4ef2cb420a5fbf21f281c12d8dd3ee50d4",
      "blockNumber": "0x63c65c",
      "gasUsed": "0xbf5f",
      "effectiveGasPrice": "0x7488b5f",
      "from": "0x3d49dea4035432968a531e663cda96255867bfc1",
      "to": "0x05959a76df690dc3423a7c71c90bb810e4932754",
      "contractAddress": null
    }
  ],
  "libraries": [],
  "pending": [],
  "returns": {},
  "timestamp": 1724185336,
  "chain": 11155111,
  "commit": "0a1ad8b"
}