{
  "transactions": [
    {
      "hash": "0xbdf1bea32cbcf3b60facefc4463c35d5a219eaeb1ad29ebe686893c06e63ed57",
      "transactionType": "CALL",
      "contractName": null,
      "contractAddress": "0x797837fc728fa98a2e85aa0df9759b3badba11a7",
      "function": "transfer(address,uint256)",
      "arguments": [
        "0x4D4f8317c296F7d91d51B811ca5343CB166360e5",
        "350000000000000000000"
      ],
      "transaction": {
        "from": "0x9526a95443725e26817be4b9658c4ae17309022b",
        "to": "0x797837fc728fa98a2e85aa0df9759b3badba11a7",
        "gas": "0xba47",
        "value": "0x0",
        "input": "0xa9059cbb0000000000000000000000004d4f8317c296f7d91d51b811ca5343cb166360e5000000000000000000000000000000000000000000000012f939c99edab80000",
        "nonce": "0xd",
        "chainId": "0xaa36a7"
      },
      "additionalContracts": [],
      "isFixedGasLimit": false
    },
    {
      "hash": "0x08dd2a6317d03307d7ec63ae998fc540504ec5e71c95773c5864618483841ca3",
      "transactionType": "CALL",
      "contractName": null,
      "contractAddress": "0x72c18ab51a865e5d24ed69f026a7a962ef7d3899",
      "function": "approve(address,uint256)",
      "arguments": [
        "0x1238536071E1c677A632429e3655c799b22cDA52",
        "10000000000000000000"
      ],
      "transaction": {
        "from": "0x1d0d6f628c94bdcc6aef0b63ed8759dd2fde0cfd",
        "to": "0x72c18ab51a865e5d24ed69f026a7a962ef7d3899",
        "gas": "0xfa2b",
        "value": "0x0",
        "input": "0x095ea7b30000000000000000000000001238536071e1c677a632429e3655c799b22cda520000000000000000000000000000000000000000000000008ac7230489e80000",
        "nonce": "0x3",
        "chainId": "0xaa36a7"
      },
      "additionalContracts": [],
      "isFixedGasLimit": false
    },
    {
      "hash": "0xdfd579712369cedd3ab0c749d66323dd113b5bf4b4c5ad51a24d93b6cd1ecd83",
      "transactionType": "CALL",
      "contractName": null,
      "contractAddress": "0x1238536071e1c677a632429e3655c799b22cda52",
      "function": "mint((address,address,uint24,int24,int24,uint256,uint256,uint256,uint256,address,uint256))",
      "arguments": [
        "(0x72c18AB51A865E5d24ED69f026a7a962EF7D3899, 0x95E1DC07EDBF9a59F72e41Fd533f1A5B4f3AbB72, 10000, 46200, 48200, 10000000000000000000, 0, 0, 0, 0x1D0D6f628C94bDCc6AEf0b63Ed8759DD2FdE0cfD, 1823444259)"
      ],
      "transaction": {
        "from": "0x1d0d6f628c94bdcc6aef0b63ed8759dd2fde0cfd",
        "to": "0x1238536071e1c677a632429e3655c799b22cda52",
        "gas": "0x7afcd",
        "value": "0x0",
        "input": "0x8831645600000000000000000000000072c18ab51a865e5d24ed69f026a7a962ef7d389900000000000000000000000095e1dc07edbf9a59f72e41fd533f1a5b4f3abb720000000000000000000000000000000000000000000000000000000000002710000000000000000000000000000000000000000000000000000000000000b478000000000000000000000000000000000000000000000000000000000000bc480000000000000000000000000000000000000000000000008ac7230489e800000000000000000000000000000000000000000000000000000000000000000000000000000000000000000000000000000000000000000000000000000000000000000000000000000000000000000000000000000000000000000000000000000000000000000000000000001d0d6f628c94bdcc6aef0b63ed8759dd2fde0cfd000000000000000000000000000000000000000000000000000000006caf8d23",
        "nonce": "0x4",
        "chainId": "0xaa36a7"
      },
      "additionalContracts": [],
      "isFixedGasLimit": false
    }
  ],
  "receipts": [
    {
      "status": "0x1",
      "cumulativeGasUsed": "0x7a1c04",
      "logs": [
        {
          "address": "0x797837fc728fa98a2e85aa0df9759b3badba11a7",
          "topics": [
            "0xddf252ad1be2c89b69c2b068fc378daa952ba7f163c4a11628f55a4df523b3ef",
            "0x0000000000000000000000009526a95443725e26817be4b9658c4ae17309022b",
            "0x0000000000000000000000004d4f8317c296f7d91d51b811ca5343cb166360e5"
          ],
          "data": "0x000000000000000000000000000000000000000000000012f939c99edab80000",
          "blockHash": "0x2fe795cd1179e38615c75cafca6e9f99664856788b8c6ee4f15bc5faaa1667a9",
          "blockNumber": "0x63c700",
          "transactionHash": "0xbdf1bea32cbcf3b60facefc4463c35d5a219eaeb1ad29ebe686893c06e63ed57",
          "transactionIndex": "0x3b",
          "logIndex": "0x75",
          "removed": false
        }
      ],
      "logsBloom": "0x00000000000000000000000000000000000000000000000000000000000000000000000000000000000000000000000000000000000000000000000000100000000000000000000001000008000000000000000000000000000000000000000000000000000000000000000000000000000000000000000000000010000000000000000000000000000000000000000000000000000000000010000000000000000000000000000000402000000000000000000008000000000000000000000000000802000000000000000000000000000000000000000100000000000000000000000000000000000000000000000000000000000000040000000000000000",
      "type": "0x2",
      "transactionHash": "0xbdf1bea32cbcf3b60facefc4463c35d5a219eaeb1ad29ebe686893c06e63ed57",
      "transactionIndex": "0x3b",
      "blockHash": "0x2fe795cd1179e38615c75cafca6e9f99664856788b8c6ee4f15bc5faaa1667a9",
      "blockNumber": "0x63c700",
      "gasUsed": "0x86de",
      "effectiveGasPrice": "0x7697436",
      "from": "0x9526a95443725e26817be4b9658c4ae17309022b",
      "to": "0x797837fc728fa98a2e85aa0df9759b3badba11a7",
      "contractAddress": null
    },
    {
      "status": "0x1",
      "cumulativeGasUsed": "0xdcfe34",
      "logs": [
        {
          "address": "0x72c18ab51a865e5d24ed69f026a7a962ef7d3899",
          "topics": [
            "0x8c5be1e5ebec7d5bd14f71427d1e84f3dd0314c0f7b2291e5b200ac8c7c3b925",
            "0x0000000000000000000000001d0d6f628c94bdcc6aef0b63ed8759dd2fde0cfd",
            "0x0000000000000000000000001238536071e1c677a632429e3655c799b22cda52"
          ],
          "data": "0x0000000000000000000000000000000000000000000000008ac7230489e80000",
          "blockHash": "0xd1281cfd3108d6d5c4a8a74f36b25ceb06e95a679478bbe02cea7d5ee7ac971f",
          "blockNumber": "0x63c701",
          "transactionHash": "0x08dd2a6317d03307d7ec63ae998fc540504ec5e71c95773c5864618483841ca3",
          "transactionIndex": "0x3d",
          "logIndex": "0xa1",
          "removed": false
        }
      ],
      "logsBloom": "0x00000000000000000000000000000000000000000000002000000000000000000000000000000000000000000010200000000000000000000000000000200000000000000000000000000000000000000000000000000000000000000000000000000000000000000000000000000000000000000000000000000000000000000002000000000000000000010000000000000000000000000000000000000000020000000008000000000000000000000000000000000000000000000000000000000000000000000000000000000000012000000000000000000000800000000010000000000000000000000000000000000000000000000000000000000000",
      "type": "0x2",
      "transactionHash": "0x08dd2a6317d03307d7ec63ae998fc540504ec5e71c95773c5864618483841ca3",
      "transactionIndex": "0x3d",
      "blockHash": "0xd1281cfd3108d6d5c4a8a74f36b25ceb06e95a679478bbe02cea7d5ee7ac971f",
      "blockNumber": "0x63c701",
      "gasUsed": "0xb51f",
      "effectiveGasPrice": "0x843a85c",
      "from": "0x1d0d6f628c94bdcc6aef0b63ed8759dd2fde0cfd",
      "to": "0x72c18ab51a865e5d24ed69f026a7a962ef7d3899",
      "contractAddress": null
    },
    {
      "status": "0x1",
      "cumulativeGasUsed": "0xb0861d",
      "logs": [
        {
          "address": "0x72c18ab51a865e5d24ed69f026a7a962ef7d3899",
          "topics": [
            "0xddf252ad1be2c89b69c2b068fc378daa952ba7f163c4a11628f55a4df523b3ef",
            "0x0000000000000000000000001d0d6f628c94bdcc6aef0b63ed8759dd2fde0cfd",
            "0x000000000000000000000000b4fc88d0a0ba8d5eeacb45fe07b99d039be6ca4b"
          ],
          "data": "0x0000000000000000000000000000000000000000000000008ac7230489e80000",
          "blockHash": "0x0eb47a89911c407593e3371d7dcb080aaf7050ae3bb960c51b19c98fab487979",
          "blockNumber": "0x63c702",
          "transactionHash": "0xdfd579712369cedd3ab0c749d66323dd113b5bf4b4c5ad51a24d93b6cd1ecd83",
          "transactionIndex": "0x38",
          "logIndex": "0x59",
          "removed": false
        },
        {
          "address": "0xb4fc88d0a0ba8d5eeacb45fe07b99d039be6ca4b",
          "topics": [
            "0x7a53080ba414158be7ec69b987b5fb7d07dee101fe85488f0853ae16239d0bde",
            "0x0000000000000000000000001238536071e1c677a632429e3655c799b22cda52",
            "0x000000000000000000000000000000000000000000000000000000000000b478",
            "0x000000000000000000000000000000000000000000000000000000000000bc48"
          ],
          "data": "0x0000000000000000000000001238536071e1c677a632429e3655c799b22cda5200000000000000000000000000000000000000000000003962c6ec79985e42530000000000000000000000000000000000000000000000008ac7230489e800000000000000000000000000000000000000000000000000000000000000000000",
          "blockHash": "0x0eb47a89911c407593e3371d7dcb080aaf7050ae3bb960c51b19c98fab487979",
          "blockNumber": "0x63c702",
          "transactionHash": "0xdfd579712369cedd3ab0c749d66323dd113b5bf4b4c5ad51a24d93b6cd1ecd83",
          "transactionIndex": "0x38",
          "logIndex": "0x5a",
          "removed": false
        },
        {
          "address": "0x1238536071e1c677a632429e3655c799b22cda52",
          "topics": [
            "0xddf252ad1be2c89b69c2b068fc378daa952ba7f163c4a11628f55a4df523b3ef",
            "0x0000000000000000000000000000000000000000000000000000000000000000",
            "0x0000000000000000000000001d0d6f628c94bdcc6aef0b63ed8759dd2fde0cfd",
            "0x00000000000000000000000000000000000000000000000000000000000050bf"
          ],
          "data": "0x",
          "blockHash": "0x0eb47a89911c407593e3371d7dcb080aaf7050ae3bb960c51b19c98fab487979",
          "blockNumber": "0x63c702",
          "transactionHash": "0xdfd579712369cedd3ab0c749d66323dd113b5bf4b4c5ad51a24d93b6cd1ecd83",
          "transactionIndex": "0x38",
          "logIndex": "0x5b",
          "removed": false
        },
        {
          "address": "0x1238536071e1c677a632429e3655c799b22cda52",
          "topics": [
            "0x3067048beee31b25b2f1681f88dac838c8bba36af25bfb2b7cf7473a5847e35f",
            "0x00000000000000000000000000000000000000000000000000000000000050bf"
          ],
          "data": "0x00000000000000000000000000000000000000000000003962c6ec79985e42530000000000000000000000000000000000000000000000008ac7230489e800000000000000000000000000000000000000000000000000000000000000000000",
          "blockHash": "0x0eb47a89911c407593e3371d7dcb080aaf7050ae3bb960c51b19c98fab487979",
          "blockNumber": "0x63c702",
          "transactionHash": "0xdfd579712369cedd3ab0c749d66323dd113b5bf4b4c5ad51a24d93b6cd1ecd83",
          "transactionIndex": "0x38",
          "logIndex": "0x5c",
          "removed": false
        }
      ],
      "logsBloom": "0x00000000000004000000100000400000000000000000002000000000000004400000000000000000001000000010200000000000080000000400000000000000000000000000000000000008200000000000000000000000000000000000000020000000020100000010000000000800000000000800000000000010000000000002000008000000000000010000000000000000000000000000000000000000000000000008000000400000200000000000000000000000000000002000000000000002000000000000080000020000052000000000000000000000800020000000004000002000000000000040000000000000000000000000000000000800",
      "type": "0x2",
      "transactionHash": "0xdfd579712369cedd3ab0c749d66323dd113b5bf4b4c5ad51a24d93b6cd1ecd83",
      "transactionIndex": "0x38",
      "blockHash": "0x0eb47a89911c407593e3371d7dcb080aaf7050ae3bb960c51b19c98fab487979",
      "blockNumber": "0x63c702",
      "gasUsed": "0x54182",
      "effectiveGasPrice": "0x846b80a",
      "from": "0x1d0d6f628c94bdcc6aef0b63ed8759dd2fde0cfd",
      "to": "0x1238536071e1c677a632429e3655c799b22cda52",
      "contractAddress": null
    }
  ],
  "libraries": [],
  "pending": [],
  "returns": {},
  "timestamp": 1724187663,
  "chain": 11155111,
  "commit": "0a1ad8b"
}