{
  "transactions": [
    {
      "hash": "0xb1498319f213d64ac76ccd72393bffa17f4a2e084d0eec2a86bb1113b6a776a4",
      "transactionType": "CALL",
      "contractName": null,
      "contractAddress": "0x4def3f63a2dcfd3078d32f195632c340c9689c57",
      "function": "execTransaction(address,uint256,bytes,uint8,uint256,uint256,uint256,address,address,bytes)",
      "arguments": [
        "0x6803Dde7737eF1f96faF1C6ACEeD2F6030CB7E1A",
        "0",
        "0xa9059cbb000000000000000000000000aac7ae3504abe22f2d07fd666aed71969888e81f000000000000000000000000000000000000000000000001a055690d9db80000",
        "0",
        "0",
        "0",
        "0",
        "0x0000000000000000000000000000000000000000",
        "0x0000000000000000000000000000000000000000",
        "0xe915aaca32c885326469c4d50c5e73cd7b540f18fb97f3dc021ff28a666f6b56209dfdb8495ce537e51395761e7409feb9c9d263022edabb454fde8c5b08532b1c"
      ],
      "transaction": {
        "from": "0xaac7ae3504abe22f2d07fd666aed71969888e81f",
        "to": "0x4def3f63a2dcfd3078d32f195632c340c9689c57",
        "gas": "0x1eee3",
        "value": "0x0",
        "input": "0x6a7612020000000000000000000000006803dde7737ef1f96faf1c6aceed2f6030cb7e1a0000000000000000000000000000000000000000000000000000000000000000000000000000000000000000000000000000000000000000000000000000014000000000000000000000000000000000000000000000000000000000000000000000000000000000000000000000000000000000000000000000000000000000000000000000000000000000000000000000000000000000000000000000000000000000000000000000000000000000000000000000000000000000000000000000000000000000000000000000000000000000000000000000000000000000000000000000000000000000000000000000000000000000000000000000000000000000000000000000000000000000000000000000000000000000000001c00000000000000000000000000000000000000000000000000000000000000044a9059cbb000000000000000000000000aac7ae3504abe22f2d07fd666aed71969888e81f000000000000000000000000000000000000000000000001a055690d9db80000000000000000000000000000000000000000000000000000000000000000000000000000000000000000000000000000000000000000000000000041e915aaca32c885326469c4d50c5e73cd7b540f18fb97f3dc021ff28a666f6b56209dfdb8495ce537e51395761e7409feb9c9d263022edabb454fde8c5b08532b1c00000000000000000000000000000000000000000000000000000000000000",
        "nonce": "0x2",
        "chainId": "0xaa36a7"
      },
      "additionalContracts": [],
      "isFixedGasLimit": false
    },
    {
      "hash": "0xd27742d1120a86713fcb4d0e578d2f0edf02ec3380df7cdc04eeda04be0c9dab",
      "transactionType": "CALL",
      "contractName": null,
      "contractAddress": "0xb1298dfbb900cf0925e8eb231031829b96f79896",
      "function": "withdrawCollateral(bytes32,address,uint256)",
      "arguments": [
        "0x544f4b454e5f4400000000000000000000000000000000000000000000000000",
        "0x565e8D35B56174e35C0fc06435Dc9F43BbF86781",
        "1000000000000000000000"
      ],
      "transaction": {
        "from": "0x60c3d453a448b585a9640cbf798b9258a7a9c730",
        "to": "0xb1298dfbb900cf0925e8eb231031829b96f79896",
        "gas": "0x131a1",
        "value": "0x0",
        "input": "0xdb35400d544f4b454e5f4400000000000000000000000000000000000000000000000000000000000000000000000000565e8d35b56174e35c0fc06435dc9f43bbf8678100000000000000000000000000000000000000000000003635c9adc5dea00000",
        "nonce": "0x3",
        "chainId": "0xaa36a7"
      },
      "additionalContracts": [],
      "isFixedGasLimit": false
    }
  ],
  "receipts": [
    {
      "status": "0x1",
      "cumulativeGasUsed": "0x112ea2e",
      "logs": [
        {
          "address": "0x6803dde7737ef1f96faf1c6aceed2f6030cb7e1a",
          "topics": [
            "0xddf252ad1be2c89b69c2b068fc378daa952ba7f163c4a11628f55a4df523b3ef",
            "0x0000000000000000000000004def3f63a2dcfd3078d32f195632c340c9689c57",
            "0x000000000000000000000000aac7ae3504abe22f2d07fd666aed71969888e81f"
          ],
          "data": "0x000000000000000000000000000000000000000000000001a055690d9db80000",
          "blockHash": "0xe851a50552c2ad0dae136289addb955eab0c1464287056b556486cfd9d028937",
          "blockNumber": "0x63c6f0",
          "transactionHash": "0xb1498319f213d64ac76ccd72393bffa17f4a2e084d0eec2a86bb1113b6a776a4",
          "transactionIndex": "0x45",
          "logIndex": "0x5a",
          "removed": false
        },
        {
          "address": "0x4def3f63a2dcfd3078d32f195632c340c9689c57",
          "topics": [
            "0x442e715f626346e8c54381002da614f62bee8d27386535b2521ec8540898556e"
          ],
          "data": "0xac2ab9def924dae8c8be90d01caa06895134c79e84774d08651b79d98e530e020000000000000000000000000000000000000000000000000000000000000000",
          "blockHash": "0xe851a50552c2ad0dae136289addb955eab0c1464287056b556486cfd9d028937",
          "blockNumber": "0x63c6f0",
          "transactionHash": "0xb1498319f213d64ac76ccd72393bffa17f4a2e084d0eec2a86bb1113b6a776a4",
          "transactionIndex": "0x45",
          "logIndex": "0x5b",
          "removed": false
        }
      ],
      "logsBloom": "0x00000000400000000000000000000000000000000000000000000000040000000000000000000000000000000000000000200000000000040000020000000000000000000000000000000008000000000000000000000000000000000000000000000000000000000000000000000000040000000000000000000110000000000000000000000000000000000000000000000000000000000000000200000000000000000800000000000000000004000000000000000000800040000000000000000002000000000001004000000000000000000000010000000000000000000000000000000000000000000000000000000000000000000000000000000000",
      "type": "0x2",
      "transactionHash": "0xb1498319f213d64ac76ccd72393bffa17f4a2e084d0eec2a86bb1113b6a776a4",
      "transactionIndex": "0x45",
      "blockHash": "0xe851a50552c2ad0dae136289addb955eab0c1464287056b556486cfd9d028937",
      "blockNumber": "0x63c6f0",
      "gasUsed": "0x15263",
      "effectiveGasPrice": "0x77d4f3d",
      "from": "0xaac7ae3504abe22f2d07fd666aed71969888e81f",
      "to": "0x4def3f63a2dcfd3078d32f195632c340c9689c57",
      "contractAddress": null
    },
    {
      "status": "0x1",
      "cumulativeGasUsed": "0x870a78",
      "logs": [
        {
          "address": "0x565e8d35b56174e35c0fc06435dc9f43bbf86781",
          "topics": [
            "0xddf252ad1be2c89b69c2b068fc378daa952ba7f163c4a11628f55a4df523b3ef",
            "0x000000000000000000000000b1298dfbb900cf0925e8eb231031829b96f79896",
            "0x00000000000000000000000060c3d453a448b585a9640cbf798b9258a7a9c730"
          ],
          "data": "0x00000000000000000000000000000000000000000000003635c9adc5dea00000",
          "blockHash": "0xf2532f6d7dc2685219653643f765cbc84f3090d90ccfefa843b2196e97878701",
          "blockNumber": "0x63c6f1",
          "transactionHash": "0xd27742d1120a86713fcb4d0e578d2f0edf02ec3380df7cdc04eeda04be0c9dab",
          "transactionIndex": "0x3e",
          "logIndex": "0x4b",
          "removed": false
        },
        {
          "address": "0xb1298dfbb900cf0925e8eb231031829b96f79896",
          "topics": [
            "0xe80ebd7cc9223d7382aab2e0d1d6155c65651f83d53c8b9b06901d167e321142",
            "0x544f4b454e5f4400000000000000000000000000000000000000000000000000",
            "0x00000000000000000000000060c3d453a448b585a9640cbf798b9258a7a9c730",
            "0x00000000000000000000000060c3d453a448b585a9640cbf798b9258a7a9c730"
          ],
          "data": "0x00000000000000000000000060c3d453a448b585a9640cbf798b9258a7a9c73000000000000000000000000000000000000000000000003635c9adc5dea00000",
          "blockHash": "0xf2532f6d7dc2685219653643f765cbc84f3090d90ccfefa843b2196e97878701",
          "blockNumber": "0x63c6f1",
          "transactionHash": "0xd27742d1120a86713fcb4d0e578d2f0edf02ec3380df7cdc04eeda04be0c9dab",
          "transactionIndex": "0x3e",
          "logIndex": "0x4c",
          "removed": false
        }
      ],
      "logsBloom": "0x00000000000000000000000000010000000000001000000000000000000000000000000000000000000000000000000000080000000000020000000000000000000000000000000000000008001000000000000040000000000000000000000000000000000080000000000000000000000000000000000000000010000008000000000000000000000000000000000000000000000000000000000000000000000000000000000000000800000000000200000000000200000000000000000000000002000000000000000400000000000000000000000000000000000000000000000000000000000000000000000102000000000400000000000080000001",
      "type": "0x2",
      "transactionHash": "0xd27742d1120a86713fcb4d0e578d2f0edf02ec3380df7cdc04eeda04be0c9dab",
      "transactionIndex": "0x3e",
      "blockHash": "0xf2532f6d7dc2685219653643f765cbc84f3090d90ccfefa843b2196e97878701",
      "blockNumber": "0x63c6f1",
      "gasUsed": "0xd0fb",
      "effectiveGasPrice": "0x81008cc",
      "from": "0x60c3d453a448b585a9640cbf798b9258a7a9c730",
      "to": "0xb1298dfbb900cf0925e8eb231031829b96f79896",
      "contractAddress": null
    }
  ],
  "libraries": [],
  "pending": [],
  "returns": {},
  "timestamp": 1724187392,
  "chain": 11155111,
  "commit": "0a1ad8b"
}