{
  "transactions": [
    {
      "hash": null,
      "transactionType": "CALL",
      "contractName": "RumpelWalletFactory",
      "contractAddress": "0x4d67ec37cbbf6aaebf27d8816d0424d255e77dc4",
      "function": "createWallet(address[],uint256,(address,bytes)[])",
      "arguments": [
        "[0x9526A95443725e26817BE4B9658c4aE17309022b]",
        "1",
        "[]"
      ],
      "transaction": {
        "from": "0x9526a95443725e26817be4b9658c4ae17309022b",
        "to": "0x4d67ec37cbbf6aaebf27d8816d0424d255e77dc4",
        "gas": "0x78435",
        "value": "0x0",
        "input": "0xcd4cd4aa0000000000000000000000000000000000000000000000000000000000000060000000000000000000000000000000000000000000000000000000000000000100000000000000000000000000000000000000000000000000000000000000a000000000000000000000000000000000000000000000000000000000000000010000000000000000000000009526a95443725e26817be4b9658c4ae17309022b0000000000000000000000000000000000000000000000000000000000000000",
        "nonce": "0x0",
        "chainId": "0xaa36a7"
      },
      "additionalContracts": [
        {
          "transactionType": "CREATE2",
          "address": "0x4d4f8317c296f7d91d51b811ca5343cb166360e5",
          "initCode": "0x608060405234801561001057600080fd5b506040516101e63803806101e68339818101604052602081101561003357600080fd5b8101908080519060200190929190505050600073ffffffffffffffffffffffffffffffffffffffff168173ffffffffffffffffffffffffffffffffffffffff1614156100ca576040517f08c379a00000000000000000000000000000000000000000000000000000000081526004018080602001828103825260228152602001806101c46022913960400191505060405180910390fd5b806000806101000a81548173ffffffffffffffffffffffffffffffffffffffff021916908373ffffffffffffffffffffffffffffffffffffffff1602179055505060ab806101196000396000f3fe608060405273ffffffffffffffffffffffffffffffffffffffff600054167fa619486e0000000000000000000000000000000000000000000000000000000060003514156050578060005260206000f35b3660008037600080366000845af43d6000803e60008114156070573d6000fd5b3d6000f3fea2646970667358221220d1429297349653a4918076d650332de1a1068c5f3e07c5c82360c277770b955264736f6c63430007060033496e76616c69642073696e676c65746f6e20616464726573732070726f7669646564000000000000000000000000d9db270c1b5e3bd161e8c8503c55ceabee709552"
        }
      ],
      "isFixedGasLimit": false
    },
    {
      "hash": null,
      "transactionType": "CALL",
      "contractName": "RumpelWalletFactory",
      "contractAddress": "0x4d67ec37cbbf6aaebf27d8816d0424d255e77dc4",
      "function": "createWallet(address[],uint256,(address,bytes)[])",
      "arguments": [
        "[0x367329B74e2C3b0CaB20867ea56D2fa9438ab6c8]",
        "1",
        "[]"
      ],
      "transaction": {
        "from": "0x367329b74e2c3b0cab20867ea56d2fa9438ab6c8",
        "to": "0x4d67ec37cbbf6aaebf27d8816d0424d255e77dc4",
        "gas": "0x78435",
        "value": "0x0",
        "input": "0xcd4cd4aa0000000000000000000000000000000000000000000000000000000000000060000000000000000000000000000000000000000000000000000000000000000100000000000000000000000000000000000000000000000000000000000000a00000000000000000000000000000000000000000000000000000000000000001000000000000000000000000367329b74e2c3b0cab20867ea56d2fa9438ab6c80000000000000000000000000000000000000000000000000000000000000000",
        "nonce": "0x0",
        "chainId": "0xaa36a7"
      },
      "additionalContracts": [
        {
          "transactionType": "CREATE2",
          "address": "0x59bd3c33127d2d2766f5ccfe7aea9fea544ee102",
          "initCode": "0x608060405234801561001057600080fd5b506040516101e63803806101e68339818101604052602081101561003357600080fd5b8101908080519060200190929190505050600073ffffffffffffffffffffffffffffffffffffffff168173ffffffffffffffffffffffffffffffffffffffff1614156100ca576040517f08c379a00000000000000000000000000000000000000000000000000000000081526004018080602001828103825260228152602001806101c46022913960400191505060405180910390fd5b806000806101000a81548173ffffffffffffffffffffffffffffffffffffffff021916908373ffffffffffffffffffffffffffffffffffffffff1602179055505060ab806101196000396000f3fe608060405273ffffffffffffffffffffffffffffffffffffffff600054167fa619486e0000000000000000000000000000000000000000000000000000000060003514156050578060005260206000f35b3660008037600080366000845af43d6000803e60008114156070573d6000fd5b3d6000f3fea2646970667358221220d1429297349653a4918076d650332de1a1068c5f3e07c5c82360c277770b955264736f6c63430007060033496e76616c69642073696e676c65746f6e20616464726573732070726f7669646564000000000000000000000000d9db270c1b5e3bd161e8c8503c55ceabee709552"
        }
      ],
      "isFixedGasLimit": false
    },
    {
      "hash": null,
      "transactionType": "CALL",
      "contractName": "RumpelWalletFactory",
      "contractAddress": "0x4d67ec37cbbf6aaebf27d8816d0424d255e77dc4",
      "function": "createWallet(address[],uint256,(address,bytes)[])",
      "arguments": [
        "[0x3eFdf0da9cA920D7236580683387eF95D4607FBb]",
        "1",
        "[]"
      ],
      "transaction": {
        "from": "0x3efdf0da9ca920d7236580683387ef95d4607fbb",
        "to": "0x4d67ec37cbbf6aaebf27d8816d0424d255e77dc4",
        "gas": "0x78435",
        "value": "0x0",
        "input": "0xcd4cd4aa0000000000000000000000000000000000000000000000000000000000000060000000000000000000000000000000000000000000000000000000000000000100000000000000000000000000000000000000000000000000000000000000a000000000000000000000000000000000000000000000000000000000000000010000000000000000000000003efdf0da9ca920d7236580683387ef95d4607fbb0000000000000000000000000000000000000000000000000000000000000000",
        "nonce": "0x0",
        "chainId": "0xaa36a7"
      },
      "additionalContracts": [
        {
          "transactionType": "CREATE2",
          "address": "0x4232ea2f481e06a39edf378952a57dc93d7a1401",
          "initCode": "0x608060405234801561001057600080fd5b506040516101e63803806101e68339818101604052602081101561003357600080fd5b8101908080519060200190929190505050600073ffffffffffffffffffffffffffffffffffffffff168173ffffffffffffffffffffffffffffffffffffffff1614156100ca576040517f08c379a00000000000000000000000000000000000000000000000000000000081526004018080602001828103825260228152602001806101c46022913960400191505060405180910390fd5b806000806101000a81548173ffffffffffffffffffffffffffffffffffffffff021916908373ffffffffffffffffffffffffffffffffffffffff1602179055505060ab806101196000396000f3fe608060405273ffffffffffffffffffffffffffffffffffffffff600054167fa619486e0000000000000000000000000000000000000000000000000000000060003514156050578060005260206000f35b3660008037600080366000845af43d6000803e60008114156070573d6000fd5b3d6000f3fea2646970667358221220d1429297349653a4918076d650332de1a1068c5f3e07c5c82360c277770b955264736f6c63430007060033496e76616c69642073696e676c65746f6e20616464726573732070726f7669646564000000000000000000000000d9db270c1b5e3bd161e8c8503c55ceabee709552"
        }
      ],
      "isFixedGasLimit": false
    },
    {
      "hash": null,
      "transactionType": "CALL",
      "contractName": "RumpelWalletFactory",
      "contractAddress": "0x4d67ec37cbbf6aaebf27d8816d0424d255e77dc4",
      "function": "createWallet(address[],uint256,(address,bytes)[])",
      "arguments": [
        "[0xaAC7ae3504ABE22f2D07fd666Aed71969888E81F]",
        "1",
        "[]"
      ],
      "transaction": {
        "from": "0xaac7ae3504abe22f2d07fd666aed71969888e81f",
        "to": "0x4d67ec37cbbf6aaebf27d8816d0424d255e77dc4",
        "gas": "0x78435",
        "value": "0x0",
        "input": "0xcd4cd4aa0000000000000000000000000000000000000000000000000000000000000060000000000000000000000000000000000000000000000000000000000000000100000000000000000000000000000000000000000000000000000000000000a00000000000000000000000000000000000000000000000000000000000000001000000000000000000000000aac7ae3504abe22f2d07fd666aed71969888e81f0000000000000000000000000000000000000000000000000000000000000000",
        "nonce": "0x0",
        "chainId": "0xaa36a7"
      },
      "additionalContracts": [
        {
          "transactionType": "CREATE2",
          "address": "0x4def3f63a2dcfd3078d32f195632c340c9689c57",
          "initCode": "0x608060405234801561001057600080fd5b506040516101e63803806101e68339818101604052602081101561003357600080fd5b8101908080519060200190929190505050600073ffffffffffffffffffffffffffffffffffffffff168173ffffffffffffffffffffffffffffffffffffffff1614156100ca576040517f08c379a00000000000000000000000000000000000000000000000000000000081526004018080602001828103825260228152602001806101c46022913960400191505060405180910390fd5b806000806101000a81548173ffffffffffffffffffffffffffffffffffffffff021916908373ffffffffffffffffffffffffffffffffffffffff1602179055505060ab806101196000396000f3fe608060405273ffffffffffffffffffffffffffffffffffffffff600054167fa619486e0000000000000000000000000000000000000000000000000000000060003514156050578060005260206000f35b3660008037600080366000845af43d6000803e60008114156070573d6000fd5b3d6000f3fea2646970667358221220d1429297349653a4918076d650332de1a1068c5f3e07c5c82360c277770b955264736f6c63430007060033496e76616c69642073696e676c65746f6e20616464726573732070726f7669646564000000000000000000000000d9db270c1b5e3bd161e8c8503c55ceabee709552"
        }
      ],
      "isFixedGasLimit": false
    },
    {
      "hash": null,
      "transactionType": "CALL",
      "contractName": "RumpelWalletFactory",
      "contractAddress": "0x4d67ec37cbbf6aaebf27d8816d0424d255e77dc4",
      "function": "createWallet(address[],uint256,(address,bytes)[])",
      "arguments": [
        "[0x85d2e76C2A4A773277aE117C4280B5c1E3342a93]",
        "1",
        "[]"
      ],
      "transaction": {
        "from": "0x85d2e76c2a4a773277ae117c4280b5c1e3342a93",
        "to": "0x4d67ec37cbbf6aaebf27d8816d0424d255e77dc4",
        "gas": "0x78435",
        "value": "0x0",
        "input": "0xcd4cd4aa0000000000000000000000000000000000000000000000000000000000000060000000000000000000000000000000000000000000000000000000000000000100000000000000000000000000000000000000000000000000000000000000a0000000000000000000000000000000000000000000000000000000000000000100000000000000000000000085d2e76c2a4a773277ae117c4280b5c1e3342a930000000000000000000000000000000000000000000000000000000000000000",
        "nonce": "0x0",
        "chainId": "0xaa36a7"
      },
      "additionalContracts": [
        {
          "transactionType": "CREATE2",
          "address": "0xd25e37f3ba6b065d151370f440a37861da89b1d0",
          "initCode": "0x608060405234801561001057600080fd5b506040516101e63803806101e68339818101604052602081101561003357600080fd5b8101908080519060200190929190505050600073ffffffffffffffffffffffffffffffffffffffff168173ffffffffffffffffffffffffffffffffffffffff1614156100ca576040517f08c379a00000000000000000000000000000000000000000000000000000000081526004018080602001828103825260228152602001806101c46022913960400191505060405180910390fd5b806000806101000a81548173ffffffffffffffffffffffffffffffffffffffff021916908373ffffffffffffffffffffffffffffffffffffffff1602179055505060ab806101196000396000f3fe608060405273ffffffffffffffffffffffffffffffffffffffff600054167fa619486e0000000000000000000000000000000000000000000000000000000060003514156050578060005260206000f35b3660008037600080366000845af43d6000803e60008114156070573d6000fd5b3d6000f3fea2646970667358221220d1429297349653a4918076d650332de1a1068c5f3e07c5c82360c277770b955264736f6c63430007060033496e76616c69642073696e676c65746f6e20616464726573732070726f7669646564000000000000000000000000d9db270c1b5e3bd161e8c8503c55ceabee709552"
        }
      ],
      "isFixedGasLimit": false
    },
    {
      "hash": null,
      "transactionType": "CALL",
      "contractName": "RumpelWalletFactory",
      "contractAddress": "0x4d67ec37cbbf6aaebf27d8816d0424d255e77dc4",
      "function": "createWallet(address[],uint256,(address,bytes)[])",
      "arguments": [
        "[0x1D0D6f628C94bDCc6AEf0b63Ed8759DD2FdE0cfD]",
        "1",
        "[]"
      ],
      "transaction": {
        "from": "0x1d0d6f628c94bdcc6aef0b63ed8759dd2fde0cfd",
        "to": "0x4d67ec37cbbf6aaebf27d8816d0424d255e77dc4",
        "gas": "0x78435",
        "value": "0x0",
        "input": "0xcd4cd4aa0000000000000000000000000000000000000000000000000000000000000060000000000000000000000000000000000000000000000000000000000000000100000000000000000000000000000000000000000000000000000000000000a000000000000000000000000000000000000000000000000000000000000000010000000000000000000000001d0d6f628c94bdcc6aef0b63ed8759dd2fde0cfd0000000000000000000000000000000000000000000000000000000000000000",
        "nonce": "0x0",
        "chainId": "0xaa36a7"
      },
      "additionalContracts": [
        {
          "transactionType": "CREATE2",
          "address": "0x9e53d1af9ff446165d24a2295b6c5d356f6d6ee8",
          "initCode": "0x608060405234801561001057600080fd5b506040516101e63803806101e68339818101604052602081101561003357600080fd5b8101908080519060200190929190505050600073ffffffffffffffffffffffffffffffffffffffff168173ffffffffffffffffffffffffffffffffffffffff1614156100ca576040517f08c379a00000000000000000000000000000000000000000000000000000000081526004018080602001828103825260228152602001806101c46022913960400191505060405180910390fd5b806000806101000a81548173ffffffffffffffffffffffffffffffffffffffff021916908373ffffffffffffffffffffffffffffffffffffffff1602179055505060ab806101196000396000f3fe608060405273ffffffffffffffffffffffffffffffffffffffff600054167fa619486e0000000000000000000000000000000000000000000000000000000060003514156050578060005260206000f35b3660008037600080366000845af43d6000803e60008114156070573d6000fd5b3d6000f3fea2646970667358221220d1429297349653a4918076d650332de1a1068c5f3e07c5c82360c277770b955264736f6c63430007060033496e76616c69642073696e676c65746f6e20616464726573732070726f7669646564000000000000000000000000d9db270c1b5e3bd161e8c8503c55ceabee709552"
        }
      ],
      "isFixedGasLimit": false
    },
    {
      "hash": null,
      "transactionType": "CALL",
      "contractName": "RumpelWalletFactory",
      "contractAddress": "0x4d67ec37cbbf6aaebf27d8816d0424d255e77dc4",
      "function": "createWallet(address[],uint256,(address,bytes)[])",
      "arguments": [
        "[0x6a9A26C1D0EDF9265fbf6877aa2F05175803031A]",
        "1",
        "[]"
      ],
      "transaction": {
        "from": "0x6a9a26c1d0edf9265fbf6877aa2f05175803031a",
        "to": "0x4d67ec37cbbf6aaebf27d8816d0424d255e77dc4",
        "gas": "0x78435",
        "value": "0x0",
        "input": "0xcd4cd4aa0000000000000000000000000000000000000000000000000000000000000060000000000000000000000000000000000000000000000000000000000000000100000000000000000000000000000000000000000000000000000000000000a000000000000000000000000000000000000000000000000000000000000000010000000000000000000000006a9a26c1d0edf9265fbf6877aa2f05175803031a0000000000000000000000000000000000000000000000000000000000000000",
        "nonce": "0x0",
        "chainId": "0xaa36a7"
      },
      "additionalContracts": [
        {
          "transactionType": "CREATE2",
          "address": "0xe75ae49085531946a552985ae797eca72cedc38f",
          "initCode": "0x608060405234801561001057600080fd5b506040516101e63803806101e68339818101604052602081101561003357600080fd5b8101908080519060200190929190505050600073ffffffffffffffffffffffffffffffffffffffff168173ffffffffffffffffffffffffffffffffffffffff1614156100ca576040517f08c379a00000000000000000000000000000000000000000000000000000000081526004018080602001828103825260228152602001806101c46022913960400191505060405180910390fd5b806000806101000a81548173ffffffffffffffffffffffffffffffffffffffff021916908373ffffffffffffffffffffffffffffffffffffffff1602179055505060ab806101196000396000f3fe608060405273ffffffffffffffffffffffffffffffffffffffff600054167fa619486e0000000000000000000000000000000000000000000000000000000060003514156050578060005260206000f35b3660008037600080366000845af43d6000803e60008114156070573d6000fd5b3d6000f3fea2646970667358221220d1429297349653a4918076d650332de1a1068c5f3e07c5c82360c277770b955264736f6c63430007060033496e76616c69642073696e676c65746f6e20616464726573732070726f7669646564000000000000000000000000d9db270c1b5e3bd161e8c8503c55ceabee709552"
        }
      ],
      "isFixedGasLimit": false
    },
    {
      "hash": null,
      "transactionType": "CALL",
      "contractName": "RumpelWalletFactory",
      "contractAddress": "0x4d67ec37cbbf6aaebf27d8816d0424d255e77dc4",
      "function": "createWallet(address[],uint256,(address,bytes)[])",
      "arguments": [
        "[0x228c1D97826Eb7621FDaF3c09Ec84dc9d2eA2dF5]",
        "1",
        "[]"
      ],
      "transaction": {
        "from": "0x228c1d97826eb7621fdaf3c09ec84dc9d2ea2df5",
        "to": "0x4d67ec37cbbf6aaebf27d8816d0424d255e77dc4",
        "gas": "0x78435",
        "value": "0x0",
        "input": "0xcd4cd4aa0000000000000000000000000000000000000000000000000000000000000060000000000000000000000000000000000000000000000000000000000000000100000000000000000000000000000000000000000000000000000000000000a00000000000000000000000000000000000000000000000000000000000000001000000000000000000000000228c1d97826eb7621fdaf3c09ec84dc9d2ea2df50000000000000000000000000000000000000000000000000000000000000000",
        "nonce": "0x0",
        "chainId": "0xaa36a7"
      },
      "additionalContracts": [
        {
          "transactionType": "CREATE2",
          "address": "0x5c695a313185e127ccfd06c99f57e927f58bd00d",
          "initCode": "0x608060405234801561001057600080fd5b506040516101e63803806101e68339818101604052602081101561003357600080fd5b8101908080519060200190929190505050600073ffffffffffffffffffffffffffffffffffffffff168173ffffffffffffffffffffffffffffffffffffffff1614156100ca576040517f08c379a00000000000000000000000000000000000000000000000000000000081526004018080602001828103825260228152602001806101c46022913960400191505060405180910390fd5b806000806101000a81548173ffffffffffffffffffffffffffffffffffffffff021916908373ffffffffffffffffffffffffffffffffffffffff1602179055505060ab806101196000396000f3fe608060405273ffffffffffffffffffffffffffffffffffffffff600054167fa619486e0000000000000000000000000000000000000000000000000000000060003514156050578060005260206000f35b3660008037600080366000845af43d6000803e60008114156070573d6000fd5b3d6000f3fea2646970667358221220d1429297349653a4918076d650332de1a1068c5f3e07c5c82360c277770b955264736f6c63430007060033496e76616c69642073696e676c65746f6e20616464726573732070726f7669646564000000000000000000000000d9db270c1b5e3bd161e8c8503c55ceabee709552"
        }
      ],
      "isFixedGasLimit": false
    },
    {
      "hash": null,
      "transactionType": "CALL",
      "contractName": "RumpelWalletFactory",
      "contractAddress": "0x4d67ec37cbbf6aaebf27d8816d0424d255e77dc4",
      "function": "createWallet(address[],uint256,(address,bytes)[])",
      "arguments": [
        "[0xb1AB55437Fd4914bbfB8Ea63a35d84BC469a8B95]",
        "1",
        "[]"
      ],
      "transaction": {
        "from": "0xb1ab55437fd4914bbfb8ea63a35d84bc469a8b95",
        "to": "0x4d67ec37cbbf6aaebf27d8816d0424d255e77dc4",
        "gas": "0x78435",
        "value": "0x0",
        "input": "0xcd4cd4aa0000000000000000000000000000000000000000000000000000000000000060000000000000000000000000000000000000000000000000000000000000000100000000000000000000000000000000000000000000000000000000000000a00000000000000000000000000000000000000000000000000000000000000001000000000000000000000000b1ab55437fd4914bbfb8ea63a35d84bc469a8b950000000000000000000000000000000000000000000000000000000000000000",
        "nonce": "0x0",
        "chainId": "0xaa36a7"
      },
      "additionalContracts": [
        {
          "transactionType": "CREATE2",
          "address": "0x71052156cbc38d37d3bbff34499d546e2ad565cb",
          "initCode": "0x608060405234801561001057600080fd5b506040516101e63803806101e68339818101604052602081101561003357600080fd5b8101908080519060200190929190505050600073ffffffffffffffffffffffffffffffffffffffff168173ffffffffffffffffffffffffffffffffffffffff1614156100ca576040517f08c379a00000000000000000000000000000000000000000000000000000000081526004018080602001828103825260228152602001806101c46022913960400191505060405180910390fd5b806000806101000a81548173ffffffffffffffffffffffffffffffffffffffff021916908373ffffffffffffffffffffffffffffffffffffffff1602179055505060ab806101196000396000f3fe608060405273ffffffffffffffffffffffffffffffffffffffff600054167fa619486e0000000000000000000000000000000000000000000000000000000060003514156050578060005260206000f35b3660008037600080366000845af43d6000803e60008114156070573d6000fd5b3d6000f3fea2646970667358221220d1429297349653a4918076d650332de1a1068c5f3e07c5c82360c277770b955264736f6c63430007060033496e76616c69642073696e676c65746f6e20616464726573732070726f7669646564000000000000000000000000d9db270c1b5e3bd161e8c8503c55ceabee709552"
        }
      ],
      "isFixedGasLimit": false
    },
    {
      "hash": null,
      "transactionType": "CALL",
      "contractName": "RumpelWalletFactory",
      "contractAddress": "0x4d67ec37cbbf6aaebf27d8816d0424d255e77dc4",
      "function": "createWallet(address[],uint256,(address,bytes)[])",
      "arguments": [
        "[0x60c3D453A448b585A9640Cbf798b9258a7A9C730]",
        "1",
        "[]"
      ],
      "transaction": {
        "from": "0x60c3d453a448b585a9640cbf798b9258a7a9c730",
        "to": "0x4d67ec37cbbf6aaebf27d8816d0424d255e77dc4",
        "gas": "0x78435",
        "value": "0x0",
        "input": "0xcd4cd4aa0000000000000000000000000000000000000000000000000000000000000060000000000000000000000000000000000000000000000000000000000000000100000000000000000000000000000000000000000000000000000000000000a0000000000000000000000000000000000000000000000000000000000000000100000000000000000000000060c3d453a448b585a9640cbf798b9258a7a9c7300000000000000000000000000000000000000000000000000000000000000000",
        "nonce": "0x0",
        "chainId": "0xaa36a7"
      },
      "additionalContracts": [
        {
          "transactionType": "CREATE2",
          "address": "0x75033c3697b4862ba00946f0e8f35068761ce55a",
          "initCode": "0x608060405234801561001057600080fd5b506040516101e63803806101e68339818101604052602081101561003357600080fd5b8101908080519060200190929190505050600073ffffffffffffffffffffffffffffffffffffffff168173ffffffffffffffffffffffffffffffffffffffff1614156100ca576040517f08c379a00000000000000000000000000000000000000000000000000000000081526004018080602001828103825260228152602001806101c46022913960400191505060405180910390fd5b806000806101000a81548173ffffffffffffffffffffffffffffffffffffffff021916908373ffffffffffffffffffffffffffffffffffffffff1602179055505060ab806101196000396000f3fe608060405273ffffffffffffffffffffffffffffffffffffffff600054167fa619486e0000000000000000000000000000000000000000000000000000000060003514156050578060005260206000f35b3660008037600080366000845af43d6000803e60008114156070573d6000fd5b3d6000f3fea2646970667358221220d1429297349653a4918076d650332de1a1068c5f3e07c5c82360c277770b955264736f6c63430007060033496e76616c69642073696e676c65746f6e20616464726573732070726f7669646564000000000000000000000000d9db270c1b5e3bd161e8c8503c55ceabee709552"
        }
      ],
      "isFixedGasLimit": false
    },
    {
      "hash": null,
      "transactionType": "CALL",
      "contractName": "RumpelWalletFactory",
      "contractAddress": "0x4d67ec37cbbf6aaebf27d8816d0424d255e77dc4",
      "function": "createWallet(address[],uint256,(address,bytes)[])",
      "arguments": [
        "[0xa41d2a382E8A485D8dC9039c81BEF79712fC996B]",
        "1",
        "[]"
      ],
      "transaction": {
        "from": "0xa41d2a382e8a485d8dc9039c81bef79712fc996b",
        "to": "0x4d67ec37cbbf6aaebf27d8816d0424d255e77dc4",
        "gas": "0x78435",
        "value": "0x0",
        "input": "0xcd4cd4aa0000000000000000000000000000000000000000000000000000000000000060000000000000000000000000000000000000000000000000000000000000000100000000000000000000000000000000000000000000000000000000000000a00000000000000000000000000000000000000000000000000000000000000001000000000000000000000000a41d2a382e8a485d8dc9039c81bef79712fc996b0000000000000000000000000000000000000000000000000000000000000000",
        "nonce": "0x0",
        "chainId": "0xaa36a7"
      },
      "additionalContracts": [
        {
          "transactionType": "CREATE2",
          "address": "0xeb0c585f8343d350c17f42e6881d938722c96b21",
          "initCode": "0x608060405234801561001057600080fd5b506040516101e63803806101e68339818101604052602081101561003357600080fd5b8101908080519060200190929190505050600073ffffffffffffffffffffffffffffffffffffffff168173ffffffffffffffffffffffffffffffffffffffff1614156100ca576040517f08c379a00000000000000000000000000000000000000000000000000000000081526004018080602001828103825260228152602001806101c46022913960400191505060405180910390fd5b806000806101000a81548173ffffffffffffffffffffffffffffffffffffffff021916908373ffffffffffffffffffffffffffffffffffffffff1602179055505060ab806101196000396000f3fe608060405273ffffffffffffffffffffffffffffffffffffffff600054167fa619486e0000000000000000000000000000000000000000000000000000000060003514156050578060005260206000f35b3660008037600080366000845af43d6000803e60008114156070573d6000fd5b3d6000f3fea2646970667358221220d1429297349653a4918076d650332de1a1068c5f3e07c5c82360c277770b955264736f6c63430007060033496e76616c69642073696e676c65746f6e20616464726573732070726f7669646564000000000000000000000000d9db270c1b5e3bd161e8c8503c55ceabee709552"
        }
      ],
      "isFixedGasLimit": false
    }
  ],
  "receipts": [],
  "libraries": [],
  "pending": [],
  "returns": {},
  "timestamp": 1724078452,
  "chain": 11155111,
  "commit": "0a1ad8b"
}