{
  "transactions": [
    {
      "hash": "0xdd2e73b0c432195a174aa5ab22de2a36bad8f3b56433a6fc91966e8aea7e9744",
      "transactionType": "CALL",
      "contractName": "RumpelGuard",
      "contractAddress": "0x05959a76df690dc3423a7c71c90bb810e4932754",
      "function": "setCallAllowed(address,bytes4,uint8)",
      "arguments": [
        "0x0000000000000000000000000000000000000000",
        "0xa9059cbb00000000000000000000000000000000000000000000000000000000",
        "1"
      ],
      "transaction": {
        "from": "0x3d49dea4035432968a531e663cda96255867bfc1",
        "to": "0x05959a76df690dc3423a7c71c90bb810e4932754",
        "gas": "0x10708",
        "value": "0x0",
        "input": "0x5534fa0c0000000000000000000000000000000000000000000000000000000000000000a9059cbb000000000000000000000000000000000000000000000000000000000000000000000000000000000000000000000000000000000000000000000001",
        "nonce": "0x101",
        "chainId": "0xaa36a7"
      },
      "additionalContracts": [],
      "isFixedGasLimit": false
    },
    {
      "hash": "0x548587d1a10aa8761ecdbebb6cb85a81c40118f34f7067cebc4b1df8f2681dfa",
      "transactionType": "CALL",
      "contractName": "RumpelGuard",
      "contractAddress": "0x05959a76df690dc3423a7c71c90bb810e4932754",
      "function": "setCallAllowed(address,bytes4,uint8)",
      "arguments": [
        "0x0000000000000000000000000000000000000000",
        "0xa9059cbb00000000000000000000000000000000000000000000000000000000",
        "1"
      ],
      "transaction": {
        "from": "0x3d49dea4035432968a531e663cda96255867bfc1",
        "to": "0x05959a76df690dc3423a7c71c90bb810e4932754",
        "gas": "0xa4d2",
        "value": "0x0",
        "input": "0x5534fa0c0000000000000000000000000000000000000000000000000000000000000000a9059cbb000000000000000000000000000000000000000000000000000000000000000000000000000000000000000000000000000000000000000000000001",
        "nonce": "0x102",
        "chainId": "0xaa36a7"
      },
      "additionalContracts": [],
      "isFixedGasLimit": false
    },
    {
      "hash": "0x2d1ebff04f586356e52c654af956d5334d58792617c2d4e0571f4406562b826b",
      "transactionType": "CALL",
      "contractName": "RumpelGuard",
      "contractAddress": "0x05959a76df690dc3423a7c71c90bb810e4932754",
      "function": "setCallAllowed(address,bytes4,uint8)",
      "arguments": [
        "0x0000000000000000000000000000000000000000",
        "0xa9059cbb00000000000000000000000000000000000000000000000000000000",
        "1"
      ],
      "transaction": {
        "from": "0x3d49dea4035432968a531e663cda96255867bfc1",
        "to": "0x05959a76df690dc3423a7c71c90bb810e4932754",
        "gas": "0xa4d2",
        "value": "0x0",
        "input": "0x5534fa0c0000000000000000000000000000000000000000000000000000000000000000a9059cbb000000000000000000000000000000000000000000000000000000000000000000000000000000000000000000000000000000000000000000000001",
        "nonce": "0x103",
        "chainId": "0xaa36a7"
      },
      "additionalContracts": [],
      "isFixedGasLimit": false
    },
    {
      "hash": "0x5cd3fe72c479b7fc1f2afedfd90713a78844afa1362e46bd695aaef3d6a24cd1",
      "transactionType": "CALL",
      "contractName": "RumpelGuard",
      "contractAddress": "0x05959a76df690dc3423a7c71c90bb810e4932754",
      "function": "setCallAllowed(address,bytes4,uint8)",
      "arguments": [
        "0x0000000000000000000000000000000000000000",
        "0xa9059cbb00000000000000000000000000000000000000000000000000000000",
        "1"
      ],
      "transaction": {
        "from": "0x3d49dea4035432968a531e663cda96255867bfc1",
        "to": "0x05959a76df690dc3423a7c71c90bb810e4932754",
        "gas": "0xa4d2",
        "value": "0x0",
        "input": "0x5534fa0c0000000000000000000000000000000000000000000000000000000000000000a9059cbb000000000000000000000000000000000000000000000000000000000000000000000000000000000000000000000000000000000000000000000001",
        "nonce": "0x104",
        "chainId": "0xaa36a7"
      },
      "additionalContracts": [],
      "isFixedGasLimit": false
    }
  ],
  "receipts": [
    {
      "status": "0x1",
      "cumulativeGasUsed": "0xf857bf",
      "logs": [
        {
          "address": "0x05959a76df690dc3423a7c71c90bb810e4932754",
          "topics": [
            "0x70785a9b51e0166fb561479b514223d6b27cc81df3c02b16292211b860842f73",
            "0x0000000000000000000000000000000000000000000000000000000000000000",
            "0xa9059cbb00000000000000000000000000000000000000000000000000000000"
          ],
          "data": "0x0000000000000000000000000000000000000000000000000000000000000001",
          "blockHash": "0xd82760a518820bdab9c8981eae5bf748d45059fbf356fd9a3562ebe28cdf0cec",
          "blockNumber": "0x63a7c0",
          "transactionHash": "0xdd2e73b0c432195a174aa5ab22de2a36bad8f3b56433a6fc91966e8aea7e9744",
          "transactionIndex": "0x45",
          "logIndex": "0x8e",
          "removed": false
        }
      ],
      "logsBloom": "0x00000004000000000000000000000000000008000000000000000800000000000000000000000000000000000000000000000000000000000000000000000000000000000000000000104000000000000000000000000000000000000000000000000000020000000000000000000800000000000000008000000000000000000000000000000000000000000000000000000000000000100000000040000000000000000000000000000000000000000000000000000000000000000000000000000000000000000000000000000000000000200000000000000000000020000000000000000000000000000000000000000000000000000000000000000000",
      "type": "0x2",
      "transactionHash": "0xdd2e73b0c432195a174aa5ab22de2a36bad8f3b56433a6fc91966e8aea7e9744",
      "transactionIndex": "0x45",
      "blockHash": "0xd82760a518820bdab9c8981eae5bf748d45059fbf356fd9a3562ebe28cdf0cec",
      "blockNumber": "0x63a7c0",
      "gasUsed": "0xbe6f",
      "effectiveGasPrice": "0x1207afca4",
      "from": "0x3d49dea4035432968a531e663cda96255867bfc1",
      "to": "0x05959a76df690dc3423a7c71c90bb810e4932754",
      "contractAddress": null
    },
    {
      "status": "0x1",
      "cumulativeGasUsed": "0x140555c",
      "logs": [
        {
          "address": "0x05959a76df690dc3423a7c71c90bb810e4932754",
          "topics": [
            "0x70785a9b51e0166fb561479b514223d6b27cc81df3c02b16292211b860842f73",
            "0x0000000000000000000000000000000000000000000000000000000000000000",
            "0xa9059cbb00000000000000000000000000000000000000000000000000000000"
          ],
          "data": "0x0000000000000000000000000000000000000000000000000000000000000001",
          "blockHash": "0x2f6dbb01d2dcbb04d2e899daee3d45c09d92f377dfae357bc3439c651079c73a",
          "blockNumber": "0x63a7c1",
          "transactionHash": "0x548587d1a10aa8761ecdbebb6cb85a81c40118f34f7067cebc4b1df8f2681dfa",
          "transactionIndex": "0x6a",
          "logIndex": "0xcd",
          "removed": false
        }
      ],
      "logsBloom": "0x00000004000000000000000000000000000008000000000000000800000000000000000000000000000000000000000000000000000000000000000000000000000000000000000000104000000000000000000000000000000000000000000000000000020000000000000000000800000000000000008000000000000000000000000000000000000000000000000000000000000000100000000040000000000000000000000000000000000000000000000000000000000000000000000000000000000000000000000000000000000000200000000000000000000020000000000000000000000000000000000000000000000000000000000000000000",
      "type": "0x2",
      "transactionHash": "0x548587d1a10aa8761ecdbebb6cb85a81c40118f34f7067cebc4b1df8f2681dfa",
      "transactionIndex": "0x6a",
      "blockHash": "0x2f6dbb01d2dcbb04d2e899daee3d45c09d92f377dfae357bc3439c651079c73a",
      "blockNumber": "0x63a7c1",
      "gasUsed": "0x70b3",
      "effectiveGasPrice": "0x127d39513",
      "from": "0x3d49dea4035432968a531e663cda96255867bfc1",
      "to": "0x05959a76df690dc3423a7c71c90bb810e4932754",
      "contractAddress": null
    },
    {
      "status": "0x1",
      "cumulativeGasUsed": "0x192e09b",
      "logs": [
        {
          "address": "0x05959a76df690dc3423a7c71c90bb810e4932754",
          "topics": [
            "0x70785a9b51e0166fb561479b514223d6b27cc81df3c02b16292211b860842f73",
            "0x0000000000000000000000000000000000000000000000000000000000000000",
            "0xa9059cbb00000000000000000000000000000000000000000000000000000000"
          ],
          "data": "0x0000000000000000000000000000000000000000000000000000000000000001",
          "blockHash": "0x8eafe70e39cf2b7d5d6e1a7aac2ef3a599d676c499479a4fd64991268c52c8df",
          "blockNumber": "0x63a7c2",
          "transactionHash": "0x2d1ebff04f586356e52c654af956d5334d58792617c2d4e0571f4406562b826b",
          "transactionIndex": "0x36",
          "logIndex": "0x80",
          "removed": false
        }
      ],
      "logsBloom": "0x00000004000000000000000000000000000008000000000000000800000000000000000000000000000000000000000000000000000000000000000000000000000000000000000000104000000000000000000000000000000000000000000000000000020000000000000000000800000000000000008000000000000000000000000000000000000000000000000000000000000000100000000040000000000000000000000000000000000000000000000000000000000000000000000000000000000000000000000000000000000000200000000000000000000020000000000000000000000000000000000000000000000000000000000000000000",
      "type": "0x2",
      "transactionHash": "0x2d1ebff04f586356e52c654af956d5334d58792617c2d4e0571f4406562b826b",
      "transactionIndex": "0x36",
      "blockHash": "0x8eafe70e39cf2b7d5d6e1a7aac2ef3a599d676c499479a4fd64991268c52c8df",
      "blockNumber": "0x63a7c2",
      "gasUsed": "0x70b3",
      "effectiveGasPrice": "0x13d5bd3bb",
      "from": "0x3d49dea4035432968a531e663cda96255867bfc1",
      "to": "0x05959a76df690dc3423a7c71c90bb810e4932754",
      "contractAddress": null
    },
    {
      "status": "0x1",
      "cumulativeGasUsed": "0x901ed5",
      "logs": [
        {
          "address": "0x05959a76df690dc3423a7c71c90bb810e4932754",
          "topics": [
            "0x70785a9b51e0166fb561479b514223d6b27cc81df3c02b16292211b860842f73",
            "0x0000000000000000000000000000000000000000000000000000000000000000",
            "0xa9059cbb00000000000000000000000000000000000000000000000000000000"
          ],
          "data": "0x0000000000000000000000000000000000000000000000000000000000000001",
          "blockHash": "0xff5872607aef4b442927db6be1d36292b0c44b8b994b86ad6e59643c31b69da2",
          "blockNumber": "0x63a7c3",
          "transactionHash": "0x5cd3fe72c479b7fc1f2afedfd90713a78844afa1362e46bd695aaef3d6a24cd1",
          "transactionIndex": "0x61",
          "logIndex": "0x61",
          "removed": false
        }
      ],
      "logsBloom": "0x00000004000000000000000000000000000008000000000000000800000000000000000000000000000000000000000000000000000000000000000000000000000000000000000000104000000000000000000000000000000000000000000000000000020000000000000000000800000000000000008000000000000000000000000000000000000000000000000000000000000000100000000040000000000000000000000000000000000000000000000000000000000000000000000000000000000000000000000000000000000000200000000000000000000020000000000000000000000000000000000000000000000000000000000000000000",
      "type": "0x2",
      "transactionHash": "0x5cd3fe72c479b7fc1f2afedfd90713a78844afa1362e46bd695aaef3d6a24cd1",
      "transactionIndex": "0x61",
      "blockHash": "0xff5872607aef4b442927db6be1d36292b0c44b8b994b86ad6e59643c31b69da2",
      "blockNumber": "0x63a7c3",
      "gasUsed": "0x70b3",
      "effectiveGasPrice": "0x157c9b84e",
      "from": "0x3d49dea4035432968a531e663cda96255867bfc1",
      "to": "0x05959a76df690dc3423a7c71c90bb810e4932754",
      "contractAddress": null
    }
  ],
  "libraries": [],
  "pending": [],
  "returns": {},
  "timestamp": 1724078392,
  "chain": 11155111,
  "commit": "0a1ad8b"
}