{
  "transactions": [
    {
      "hash": "0x5f683434b50e27f8517dbff3f0b51b7d76a363518118557f6b31f088a18b879a",
      "transactionType": "CALL",
      "contractName": null,
      "contractAddress": "0x7354a309f37601c81dd610b5e9eedceba256c088",
      "function": "transfer(address,uint256)",
      "arguments": [
        "0x4232EA2F481E06A39Edf378952a57dc93D7A1401",
        "25000000000000000000"
      ],
      "transaction": {
        "from": "0x3efdf0da9ca920d7236580683387ef95d4607fbb",
        "to": "0x7354a309f37601c81dd610b5e9eedceba256c088",
        "gas": "0x126ee",
        "value": "0x0",
        "input": "0xa9059cbb0000000000000000000000004232ea2f481e06a39edf378952a57dc93d7a14010000000000000000000000000000000000000000000000015af1d78b58c40000",
        "nonce": "0x1",
        "chainId": "0xaa36a7"
      },
      "additionalContracts": [],
      "isFixedGasLimit": false
    },
    {
      "hash": "0x2e515d8a4748e62f3f8b0b82201b13e1ca9cdaf17ffb9a6ef5640c45a1bd596a",
      "transactionType": "CALL",
      "contractName": null,
      "contractAddress": "0x72c18ab51a865e5d24ed69f026a7a962ef7d3899",
      "function": "approve(address,uint256)",
      "arguments": [
        "0x1238536071E1c677A632429e3655c799b22cDA52",
        "25000000000000000000"
      ],
      "transaction": {
        "from": "0x85d2e76c2a4a773277ae117c4280b5c1e3342a93",
        "to": "0x72c18ab51a865e5d24ed69f026a7a962ef7d3899",
        "gas": "0x108f4",
        "value": "0x0",
        "input": "0x095ea7b30000000000000000000000001238536071e1c677a632429e3655c799b22cda520000000000000000000000000000000000000000000000015af1d78b58c40000",
        "nonce": "0x1",
        "chainId": "0xaa36a7"
      },
      "additionalContracts": [],
      "isFixedGasLimit": false
    },
    {
      "hash": "0x3a6a34a4314181b0a56838d3b3d3b9325eefb25197d8176fff808281c13205fc",
      "transactionType": "CALL",
      "contractName": null,
      "contractAddress": "0x1238536071e1c677a632429e3655c799b22cda52",
      "function": "mint((address,address,uint24,int24,int24,uint256,uint256,uint256,uint256,address,uint256))",
      "arguments": [
        "(0x4CFb882B75CE0d78ba20e49Dc00aA5Eeb0433699, 0x72c18AB51A865E5d24ED69f026a7a962EF7D3899, 10000, -32000, -30000, 0, 25000000000000000000, 0, 0, 0x85d2e76C2A4A773277aE117C4280B5c1E3342a93, 1823444259)"
      ],
      "transaction": {
        "from": "0x85d2e76c2a4a773277ae117c4280b5c1e3342a93",
        "to": "0x1238536071e1c677a632429e3655c799b22cda52",
        "gas": "0x65176",
        "value": "0x0",
        "input": "0x883164560000000000000000000000004cfb882b75ce0d78ba20e49dc00aa5eeb043369900000000000000000000000072c18ab51a865e5d24ed69f026a7a962ef7d38990000000000000000000000000000000000000000000000000000000000002710ffffffffffffffffffffffffffffffffffffffffffffffffffffffffffff8300ffffffffffffffffffffffffffffffffffffffffffffffffffffffffffff8ad000000000000000000000000000000000000000000000000000000000000000000000000000000000000000000000000000000000000000015af1d78b58c400000000000000000000000000000000000000000000000000000000000000000000000000000000000000000000000000000000000000000000000000000000000000000000000000000000000085d2e76c2a4a773277ae117c4280b5c1e3342a93000000000000000000000000000000000000000000000000000000006caf8d23",
        "nonce": "0x2",
        "chainId": "0xaa36a7"
      },
      "additionalContracts": [],
      "isFixedGasLimit": false
    },
    {
      "hash": "0x1c7ce639adc0d5b995bac66b5f1d33056087711ffd23731e4bec0c798e785df1",
      "transactionType": "CALL",
      "contractName": null,
      "contractAddress": "0x72c18ab51a865e5d24ed69f026a7a962ef7d3899",
      "function": "approve(address,uint256)",
      "arguments": [
        "0x1238536071E1c677A632429e3655c799b22cDA52",
        "15000000000000000000"
      ],
      "transaction": {
        "from": "0x6a9a26c1d0edf9265fbf6877aa2f05175803031a",
        "to": "0x72c18ab51a865e5d24ed69f026a7a962ef7d3899",
        "gas": "0xfa2b",
        "value": "0x0",
        "input": "0x095ea7b30000000000000000000000001238536071e1c677a632429e3655c799b22cda52000000000000000000000000000000000000000000000000d02ab486cedc0000",
        "nonce": "0x1",
        "chainId": "0xaa36a7"
      },
      "additionalContracts": [],
      "isFixedGasLimit": false
    },
    {
      "hash": "0xa2e966eba1b450151ab0e2e210bb2356e05b912a58ee0a95c9e94e53c314659c",
      "transactionType": "CALL",
      "contractName": null,
      "contractAddress": "0x1238536071e1c677a632429e3655c799b22cda52",
      "function": "mint((address,address,uint24,int24,int24,uint256,uint256,uint256,uint256,address,uint256))",
      "arguments": [
        "(0x72c18AB51A865E5d24ED69f026a7a962EF7D3899, 0x95E1DC07EDBF9a59F72e41Fd533f1A5B4f3AbB72, 10000, 46200, 48200, 15000000000000000000, 0, 0, 0, 0x6a9A26C1D0EDF9265fbf6877aa2F05175803031A, 1823444259)"
      ],
      "transaction": {
        "from": "0x6a9a26c1d0edf9265fbf6877aa2f05175803031a",
        "to": "0x1238536071e1c677a632429e3655c799b22cda52",
        "gas": "0xb2b6b",
        "value": "0x0",
        "input": "0x8831645600000000000000000000000072c18ab51a865e5d24ed69f026a7a962ef7d389900000000000000000000000095e1dc07edbf9a59f72e41fd533f1a5b4f3abb720000000000000000000000000000000000000000000000000000000000002710000000000000000000000000000000000000000000000000000000000000b478000000000000000000000000000000000000000000000000000000000000bc48000000000000000000000000000000000000000000000000d02ab486cedc00000000000000000000000000000000000000000000000000000000000000000000000000000000000000000000000000000000000000000000000000000000000000000000000000000000000000000000000000000000000000000000000000000000000000000000000000006a9a26c1d0edf9265fbf6877aa2f05175803031a000000000000000000000000000000000000000000000000000000006caf8d23",
        "nonce": "0x2",
        "chainId": "0xaa36a7"
      },
      "additionalContracts": [],
      "isFixedGasLimit": false
    },
    {
      "hash": "0x18105f1648187ad96955b3468f40144a33d8a80e3c8f3ca3d1b20d32c094a8d7",
      "transactionType": "CALL",
      "contractName": null,
      "contractAddress": "0x565e8d35b56174e35c0fc06435dc9f43bbf86781",
      "function": "approve(address,uint256)",
      "arguments": [
        "0xb1298dfBb900Cf0925E8Eb231031829B96F79896",
        "1000000000000000000000"
      ],
      "transaction": {
        "from": "0x60c3d453a448b585a9640cbf798b9258a7a9c730",
        "to": "0x565e8d35b56174e35c0fc06435dc9f43bbf86781",
        "gas": "0xfa2b",
        "value": "0x0",
        "input": "0x095ea7b3000000000000000000000000b1298dfbb900cf0925e8eb231031829b96f7989600000000000000000000000000000000000000000000003635c9adc5dea00000",
        "nonce": "0x1",
        "chainId": "0xaa36a7"
      },
      "additionalContracts": [],
      "isFixedGasLimit": false
    },
    {
      "hash": "0x4096595fb5b8e90a653307866baaf8b709216b0d00799fa4c3eace4ab4b0c6ed",
      "transactionType": "CALL",
      "contractName": null,
      "contractAddress": "0xb1298dfbb900cf0925e8eb231031829b96f79896",
      "function": "supplyCollateral(bytes32,address,uint256)",
      "arguments": [
        "0x544f4b454e5f4400000000000000000000000000000000000000000000000000",
        "0x565e8D35B56174e35C0fc06435Dc9F43BbF86781",
        "1000000000000000000000"
      ],
      "transaction": {
        "from": "0x60c3d453a448b585a9640cbf798b9258a7a9c730",
        "to": "0xb1298dfbb900cf0925e8eb231031829b96f79896",
        "gas": "0x1b074",
        "value": "0x0",
        "input": "0x9e34410c544f4b454e5f4400000000000000000000000000000000000000000000000000000000000000000000000000565e8d35b56174e35c0fc06435dc9f43bbf8678100000000000000000000000000000000000000000000003635c9adc5dea00000",
        "nonce": "0x2",
        "chainId": "0xaa36a7"
      },
      "additionalContracts": [],
      "isFixedGasLimit": false
    }
  ],
  "receipts": [
    {
      "status": "0x1",
      "cumulativeGasUsed": "0x7b37d5",
      "logs": [
        {
          "address": "0x7354a309f37601c81dd610b5e9eedceba256c088",
          "topics": [
            "0xddf252ad1be2c89b69c2b068fc378daa952ba7f163c4a11628f55a4df523b3ef",
            "0x0000000000000000000000003efdf0da9ca920d7236580683387ef95d4607fbb",
            "0x0000000000000000000000004232ea2f481e06a39edf378952a57dc93d7a1401"
          ],
          "data": "0x0000000000000000000000000000000000000000000000015af1d78b58c40000",
          "blockHash": "0x69cbb90a20fd250d424819c68f6c762cafc2954bb325e35ae5e74039873a8b22",
          "blockNumber": "0x63c696",
          "transactionHash": "0x5f683434b50e27f8517dbff3f0b51b7d76a363518118557f6b31f088a18b879a",
          "transactionIndex": "0x3b",
          "logIndex": "0x49",
          "removed": false
        }
      ],
      "logsBloom": "0x00000000000000008000000000000000000000000000000000000000000000000000000000000000000000000000000000000000000000000000000000000000200080000000000000000008000000000000000000000000000000000000000000000000004000000000000080000000000000000000000000000010000000000000000000000000000000000000000000000000000000000000000000000000000000000000000000000000000000000000000000000000000000000000000000000002000000000000000000000000000000000000000000020000000000000000000000000000000000000000000100800020000000000000000000000000",
      "type": "0x2",
      "transactionHash": "0x5f683434b50e27f8517dbff3f0b51b7d76a363518118557f6b31f088a18b879a",
      "transactionIndex": "0x3b",
      "blockHash": "0x69cbb90a20fd250d424819c68f6c762cafc2954bb325e35ae5e74039873a8b22",
      "blockNumber": "0x63c696",
      "gasUsed": "0xc9aa",
      "effectiveGasPrice": "0x8ea3c01",
      "from": "0x3efdf0da9ca920d7236580683387ef95d4607fbb",
      "to": "0x7354a309f37601c81dd610b5e9eedceba256c088",
      "contractAddress": null
    },
    {
      "status": "0x1",
      "cumulativeGasUsed": "0xab226e",
      "logs": [
        {
          "address": "0x72c18ab51a865e5d24ed69f026a7a962ef7d3899",
          "topics": [
            "0x8c5be1e5ebec7d5bd14f71427d1e84f3dd0314c0f7b2291e5b200ac8c7c3b925",
            "0x00000000000000000000000085d2e76c2a4a773277ae117c4280b5c1e3342a93",
            "0x0000000000000000000000001238536071e1c677a632429e3655c799b22cda52"
          ],
          "data": "0x0000000000000000000000000000000000000000000000015af1d78b58c40000",
          "blockHash": "0xb20701d119903b83a7287466b130896ccf48c3b1626f4f6a8192c153ef8ea956",
          "blockNumber": "0x63c697",
          "transactionHash": "0x2e515d8a4748e62f3f8b0b82201b13e1ca9cdaf17ffb9a6ef5640c45a1bd596a",
          "transactionIndex": "0x45",
          "logIndex": "0x77",
          "removed": false
        }
      ],
      "logsBloom": "0x00000000000000000000000000000000000000000000002000000000000000000000000000000000000000000010000000000000000000000000000000200000000000000000000000000000000000000000000000000000000000000000000000000000000000000000000000000000000000000000000000000000000400000000000000000000000000010000000000000000000000000000000000000000020000000008000000000000000000000000000000000000000000200000000000000000000000000000000000000000002000000000000000000000800000000010000000000040000000000000000000000000000000000000000000000000",
      "type": "0x2",
      "transactionHash": "0x2e515d8a4748e62f3f8b0b82201b13e1ca9cdaf17ffb9a6ef5640c45a1bd596a",
      "transactionIndex": "0x45",
      "blockHash": "0xb20701d119903b83a7287466b130896ccf48c3b1626f4f6a8192c153ef8ea956",
      "blockNumber": "0x63c697",
      "gasUsed": "0xb52b",
      "effectiveGasPrice": "0x8c1eef9",
      "from": "0x85d2e76c2a4a773277ae117c4280b5c1e3342a93",
      "to": "0x72c18ab51a865e5d24ed69f026a7a962ef7d3899",
      "contractAddress": null
    },
    {
      "status": "0x1",
      "cumulativeGasUsed": "0x7b19eb",
      "logs": [
        {
          "address": "0x72c18ab51a865e5d24ed69f026a7a962ef7d3899",
          "topics": [
            "0xddf252ad1be2c89b69c2b068fc378daa952ba7f163c4a11628f55a4df523b3ef",
            "0x00000000000000000000000085d2e76c2a4a773277ae117c4280b5c1e3342a93",
            "0x000000000000000000000000a0820e79483622c65e1ef6c8fa15f8362917448e"
          ],
          "data": "0x0000000000000000000000000000000000000000000000015af1d78b58c40000",
          "blockHash": "0x4ea3cf32579f41ae3523e12ab140057a241ec1d5782b665bbbbd01d756dccf81",
          "blockNumber": "0x63c698",
          "transactionHash": "0x3a6a34a4314181b0a56838d3b3d3b9325eefb25197d8176fff808281c13205fc",
          "transactionIndex": "0x34",
          "logIndex": "0x45",
          "removed": false
        },
        {
          "address": "0xa0820e79483622c65e1ef6c8fa15f8362917448e",
          "topics": [
            "0x7a53080ba414158be7ec69b987b5fb7d07dee101fe85488f0853ae16239d0bde",
            "0x0000000000000000000000001238536071e1c677a632429e3655c799b22cda52",
            "0xffffffffffffffffffffffffffffffffffffffffffffffffffffffffffff8300",
            "0xffffffffffffffffffffffffffffffffffffffffffffffffffffffffffff8ad0"
          ],
          "data": "0x0000000000000000000000001238536071e1c677a632429e3655c799b22cda5200000000000000000000000000000000000000000000003fd2f03700dbfdb69e00000000000000000000000000000000000000000000000000000000000000000000000000000000000000000000000000000000000000015af1d78b58c40000",
          "blockHash": "0x4ea3cf32579f41ae3523e12ab140057a241ec1d5782b665bbbbd01d756dccf81",
          "blockNumber": "0x63c698",
          "transactionHash": "0x3a6a34a4314181b0a56838d3b3d3b9325eefb25197d8176fff808281c13205fc",
          "transactionIndex": "0x34",
          "logIndex": "0x46",
          "removed": false
        },
        {
          "address": "0x1238536071e1c677a632429e3655c799b22cda52",
          "topics": [
            "0xddf252ad1be2c89b69c2b068fc378daa952ba7f163c4a11628f55a4df523b3ef",
            "0x0000000000000000000000000000000000000000000000000000000000000000",
            "0x00000000000000000000000085d2e76c2a4a773277ae117c4280b5c1e3342a93",
            "0x00000000000000000000000000000000000000000000000000000000000050b9"
          ],
          "data": "0x",
          "blockHash": "0x4ea3cf32579f41ae3523e12ab140057a241ec1d5782b665bbbbd01d756dccf81",
          "blockNumber": "0x63c698",
          "transactionHash": "0x3a6a34a4314181b0a56838d3b3d3b9325eefb25197d8176fff808281c13205fc",
          "transactionIndex": "0x34",
          "logIndex": "0x47",
          "removed": false
        },
        {
          "address": "0x1238536071e1c677a632429e3655c799b22cda52",
          "topics": [
            "0x3067048beee31b25b2f1681f88dac838c8bba36af25bfb2b7cf7473a5847e35f",
            "0x00000000000000000000000000000000000000000000000000000000000050b9"
          ],
          "data": "0x00000000000000000000000000000000000000000000003fd2f03700dbfdb69e00000000000000000000000000000000000000000000000000000000000000000000000000000000000000000000000000000000000000015af1d78b58c40000",
          "blockHash": "0x4ea3cf32579f41ae3523e12ab140057a241ec1d5782b665bbbbd01d756dccf81",
          "blockNumber": "0x63c698",
          "transactionHash": "0x3a6a34a4314181b0a56838d3b3d3b9325eefb25197d8176fff808281c13205fc",
          "transactionIndex": "0x34",
          "logIndex": "0x48",
          "removed": false
        }
      ],
      "logsBloom": "0x00000000000000000000100000000000000000000000002000000000000000000000800000000000000000000010000000000000000000000400000001000000000000000020000000000008000000000000000000000000000000000000000020800020020000000000000000000800000400000800000010000010000400000000000008000000000000010000000000000000500001100000000000000000000000000008001000000000000001000000000000000000000000202000000000000002000000000000080000020000002000000000000000000000800020000000000001000040000000100000000000000000000000000000000000000800",
      "type": "0x2",
      "transactionHash": "0x3a6a34a4314181b0a56838d3b3d3b9325eefb25197d8176fff808281c13205fc",
      "transactionIndex": "0x34",
      "blockHash": "0x4ea3cf32579f41ae3523e12ab140057a241ec1d5782b665bbbbd01d756dccf81",
      "blockNumber": "0x63c698",
      "gasUsed": "0x49304",
      "effectiveGasPrice": "0x88f49a7",
      "from": "0x85d2e76c2a4a773277ae117c4280b5c1e3342a93",
      "to": "0x1238536071e1c677a632429e3655c799b22cda52",
      "contractAddress": null
    },
    {
      "status": "0x1",
      "cumulativeGasUsed": "0xb7d96d",
      "logs": [
        {
          "address": "0x72c18ab51a865e5d24ed69f026a7a962ef7d3899",
          "topics": [
            "0x8c5be1e5ebec7d5bd14f71427d1e84f3dd0314c0f7b2291e5b200ac8c7c3b925",
            "0x0000000000000000000000006a9a26c1d0edf9265fbf6877aa2f05175803031a",
            "0x0000000000000000000000001238536071e1c677a632429e3655c799b22cda52"
          ],
          "data": "0x000000000000000000000000000000000000000000000000d02ab486cedc0000",
          "blockHash": "0x4795574331573212c3345ada548f3a542eaab742a2350c6d6ed25dec34ca426a",
          "blockNumber": "0x63c69a",
          "transactionHash": "0x1c7ce639adc0d5b995bac66b5f1d33056087711ffd23731e4bec0c798e785df1",
          "transactionIndex": "0x53",
          "logIndex": "0x5e",
          "removed": false
        }
      ],
      "logsBloom": "0x00000000000000000000000000000000000000000000802000000000000000000000000000000000000000000010000000000000000000000000000000200000000000000000000000000000000000000000000000000000000000000000000000000000000000000000000000000000000000000000000000000000000000000000000000000000000000010000000000000000000000000000000000000000020000000008000000000000000000000000000000000002000000000000000000000000000000000000000000000000002000000000000000000000800000000011000000000000000000000000000000000000000000000000000000000000",
      "type": "0x2",
      "transactionHash": "0x1c7ce639adc0d5b995bac66b5f1d33056087711ffd23731e4bec0c798e785df1",
      "transactionIndex": "0x53",
      "blockHash": "0x4795574331573212c3345ada548f3a542eaab742a2350c6d6ed25dec34ca426a",
      "blockNumber": "0x63c69a",
      "gasUsed": "0xb51f",
      "effectiveGasPrice": "0x7cd974b",
      "from": "0x6a9a26c1d0edf9265fbf6877aa2f05175803031a",
      "to": "0x72c18ab51a865e5d24ed69f026a7a962ef7d3899",
      "contractAddress": null
    },
    {
      "status": "0x1",
      "cumulativeGasUsed": "0x7bde85",
      "logs": [
        {
          "address": "0x72c18ab51a865e5d24ed69f026a7a962ef7d3899",
          "topics": [
            "0xddf252ad1be2c89b69c2b068fc378daa952ba7f163c4a11628f55a4df523b3ef",
            "0x0000000000000000000000006a9a26c1d0edf9265fbf6877aa2f05175803031a",
            "0x000000000000000000000000b4fc88d0a0ba8d5eeacb45fe07b99d039be6ca4b"
          ],
          "data": "0x000000000000000000000000000000000000000000000000d02ab486cedc0000",
          "blockHash": "0x1963e711d7562bbe6606438926577dacaa4e7e5855148c69e51c10cb4153bab0",
          "blockNumber": "0x63c69b",
          "transactionHash": "0xa2e966eba1b450151ab0e2e210bb2356e05b912a58ee0a95c9e94e53c314659c",
          "transactionIndex": "0x46",
          "logIndex": "0x53",
          "removed": false
        },
        {
          "address": "0xb4fc88d0a0ba8d5eeacb45fe07b99d039be6ca4b",
          "topics": [
            "0x7a53080ba414158be7ec69b987b5fb7d07dee101fe85488f0853ae16239d0bde",
            "0x0000000000000000000000001238536071e1c677a632429e3655c799b22cda52",
            "0x000000000000000000000000000000000000000000000000000000000000b478",
            "0x000000000000000000000000000000000000000000000000000000000000bc48"
          ],
          "data": "0x0000000000000000000000001238536071e1c677a632429e3655c799b22cda52000000000000000000000000000000000000000000000056142a62b6648d637d000000000000000000000000000000000000000000000000d02ab486cedc00000000000000000000000000000000000000000000000000000000000000000000",
          "blockHash": "0x1963e711d7562bbe6606438926577dacaa4e7e5855148c69e51c10cb4153bab0",
          "blockNumber": "0x63c69b",
          "transactionHash": "0xa2e966eba1b450151ab0e2e210bb2356e05b912a58ee0a95c9e94e53c314659c",
          "transactionIndex": "0x46",
          "logIndex": "0x54",
          "removed": false
        },
        {
          "address": "0x1238536071e1c677a632429e3655c799b22cda52",
          "topics": [
            "0xddf252ad1be2c89b69c2b068fc378daa952ba7f163c4a11628f55a4df523b3ef",
            "0x0000000000000000000000000000000000000000000000000000000000000000",
            "0x0000000000000000000000006a9a26c1d0edf9265fbf6877aa2f05175803031a",
            "0x00000000000000000000000000000000000000000000000000000000000050ba"
          ],
          "data": "0x",
          "blockHash": "0x1963e711d7562bbe6606438926577dacaa4e7e5855148c69e51c10cb4153bab0",
          "blockNumber": "0x63c69b",
          "transactionHash": "0xa2e966eba1b450151ab0e2e210bb2356e05b912a58ee0a95c9e94e53c314659c",
          "transactionIndex": "0x46",
          "logIndex": "0x55",
          "removed": false
        },
        {
          "address": "0x1238536071e1c677a632429e3655c799b22cda52",
          "topics": [
            "0x3067048beee31b25b2f1681f88dac838c8bba36af25bfb2b7cf7473a5847e35f",
            "0x00000000000000000000000000000000000000000000000000000000000050ba"
          ],
          "data": "0x000000000000000000000000000000000000000000000056142a62b6648d637d000000000000000000000000000000000000000000000000d02ab486cedc00000000000000000000000000000000000000000000000000000000000000000000",
          "blockHash": "0x1963e711d7562bbe6606438926577dacaa4e7e5855148c69e51c10cb4153bab0",
          "blockNumber": "0x63c69b",
          "transactionHash": "0xa2e966eba1b450151ab0e2e210bb2356e05b912a58ee0a95c9e94e53c314659c",
          "transactionIndex": "0x46",
          "logIndex": "0x56",
          "removed": false
        }
      ],
      "logsBloom": "0x00000000000004000000100000400000000000000000802000000000000004000000000000000000001000000010000000000000080000000400000000000000000000000000000000000008200000000000000000000000000000000000000020000000020100000000000000000800000000000800000000000010000000000000000008000000000000010000000000000000000000000000000000000000000000000008000000400000200000000000000000000002000000002000000000008002000000000000080000020000042000000000000000000000800020000001004000002000000000000000000000000002000000800000000000000800",
      "type": "0x2",
      "transactionHash": "0xa2e966eba1b450151ab0e2e210bb2356e05b912a58ee0a95c9e94e53c314659c",
      "transactionIndex": "0x46",
      "blockHash": "0x1963e711d7562bbe6606438926577dacaa4e7e5855148c69e51c10cb4153bab0",
      "blockNumber": "0x63c69b",
      "gasUsed": "0x7a329",
      "effectiveGasPrice": "0x7ff5b5b",
      "from": "0x6a9a26c1d0edf9265fbf6877aa2f05175803031a",
      "to": "0x1238536071e1c677a632429e3655c799b22cda52",
      "contractAddress": null
    },
    {
      "status": "0x1",
      "cumulativeGasUsed": "0x9fd809",
      "logs": [
        {
          "address": "0x565e8d35b56174e35c0fc06435dc9f43bbf86781",
          "topics": [
            "0x8c5be1e5ebec7d5bd14f71427d1e84f3dd0314c0f7b2291e5b200ac8c7c3b925",
            "0x00000000000000000000000060c3d453a448b585a9640cbf798b9258a7a9c730",
            "0x000000000000000000000000b1298dfbb900cf0925e8eb231031829b96f79896"
          ],
          "data": "0x00000000000000000000000000000000000000000000003635c9adc5dea00000",
          "blockHash": "0xf589109909cfc3435951fbd84afa2adfd59069f474da4baa2b45e599d98ce5c5",
          "blockNumber": "0x63c69c",
          "transactionHash": "0x18105f1648187ad96955b3468f40144a33d8a80e3c8f3ca3d1b20d32c094a8d7",
          "transactionIndex": "0x3b",
          "logIndex": "0x52",
          "removed": false
        }
      ],
      "logsBloom": "0x00000000000000000000000000010000000000000000000000000000000000000000000000000000000000000000000000000000000000000000000000200000000000000000000000000000000000000000000000000000000000000000000000000000000000000000000000000000000000000000000000000000000000000000000000000000000000000000000000000000000000000000000000000000020000000000000000000800000000000000000000000200000000000000000000000000000000000000000400000000000000000000000000000000000000000010000000000000000000000000000102000000000400000000000080000001",
      "type": "0x2",
      "transactionHash": "0x18105f1648187ad96955b3468f40144a33d8a80e3c8f3ca3d1b20d32c094a8d7",
      "transactionIndex": "0x3b",
      "blockHash": "0xf589109909cfc3435951fbd84afa2adfd59069f474da4baa2b45e599d98ce5c5",
      "blockNumber": "0x63c69c",
      "gasUsed": "0xb51f",
      "effectiveGasPrice": "0x79f0dc9",
      "from": "0x60c3d453a448b585a9640cbf798b9258a7a9c730",
      "to": "0x565e8d35b56174e35c0fc06435dc9f43bbf86781",
      "contractAddress": null
    },
    {
      "status": "0x1",
      "cumulativeGasUsed": "0x9a0ffb",
      "logs": [
        {
          "address": "0x565e8d35b56174e35c0fc06435dc9f43bbf86781",
          "topics": [
            "0xddf252ad1be2c89b69c2b068fc378daa952ba7f163c4a11628f55a4df523b3ef",
            "0x00000000000000000000000060c3d453a448b585a9640cbf798b9258a7a9c730",
            "0x000000000000000000000000b1298dfbb900cf0925e8eb231031829b96f79896"
          ],
          "data": "0x00000000000000000000000000000000000000000000003635c9adc5dea00000",
          "blockHash": "0xf3f759775f2cd08bc205eece390612b40bb3a858be8351edc78f28697fb36593",
          "blockNumber": "0x63c69d",
          "transactionHash": "0x4096595fb5b8e90a653307866baaf8b709216b0d00799fa4c3eace4ab4b0c6ed",
          "transactionIndex": "0x4e",
          "logIndex": "0x5f",
          "removed": false
        },
        {
          "address": "0xb1298dfbb900cf0925e8eb231031829b96f79896",
          "topics": [
            "0xa3b9472a1399e17e123f3c2e6586c23e504184d504de59cdaa2b375e880c6184",
            "0x544f4b454e5f4400000000000000000000000000000000000000000000000000",
            "0x00000000000000000000000060c3d453a448b585a9640cbf798b9258a7a9c730",
            "0x00000000000000000000000060c3d453a448b585a9640cbf798b9258a7a9c730"
          ],
          "data": "0x00000000000000000000000000000000000000000000003635c9adc5dea00000",
          "blockHash": "0xf3f759775f2cd08bc205eece390612b40bb3a858be8351edc78f28697fb36593",
          "blockNumber": "0x63c69d",
          "transactionHash": "0x4096595fb5b8e90a653307866baaf8b709216b0d00799fa4c3eace4ab4b0c6ed",
          "transactionIndex": "0x4e",
          "logIndex": "0x60",
          "removed": false
        }
      ],
      "logsBloom": "0x00000000000000000000000000010000000000000000000000000000000000000000000000000000000000000000000000080000000000020000000000000000000000000000000000000008001000000000000000000000000000000000000000000000000080000000000000000000000000000000000000000010000008000000008000000000000000000000000000000000000000000000000000000000000000000000000000000800000000000200000000000200000000000000000000000002000000000000000400000000000000000000000400000000000000000000000000000000000000000000200102000000000400000000000080000001",
      "type": "0x2",
      "transactionHash": "0x4096595fb5b8e90a653307866baaf8b709216b0d00799fa4c3eace4ab4b0c6ed",
      "transactionIndex": "0x4e",
      "blockHash": "0xf3f759775f2cd08bc205eece390612b40bb3a858be8351edc78f28697fb36593",
      "blockNumber": "0x63c69d",
      "gasUsed": "0x127b2",
      "effectiveGasPrice": "0x8821138",
      "from": "0x60c3d453a448b585a9640cbf798b9258a7a9c730",
      "to": "0xb1298dfbb900cf0925e8eb231031829b96f79896",
      "contractAddress": null
    }
  ],
  "libraries": [],
  "pending": [],
  "returns": {},
  "timestamp": 1724186245,
  "chain": 11155111,
  "commit": "0a1ad8b"
}