{
  "transactions": [
    {
      "hash": "0xfe552c87db224d1e25ece07b34a87d0ae219ec6a134985a89b0f1dd92426990a",
      "transactionType": "CALL",
      "contractName": null,
      "contractAddress": "0x4232ea2f481e06a39edf378952a57dc93d7a1401",
      "function": "execTransaction(address,uint256,bytes,uint8,uint256,uint256,uint256,address,address,bytes)",
      "arguments": [
        "0x797837Fc728fa98A2e85aA0Df9759B3BaDba11A7",
        "0",
        "0xa9059cbb0000000000000000000000003efdf0da9ca920d7236580683387ef95d4607fbb000000000000000000000000000000000000000000000002b5e3af16b1880000",
        "0",
        "0",
        "0",
        "0",
        "0x0000000000000000000000000000000000000000",
        "0x0000000000000000000000000000000000000000",
        "0x7ca69c97eae1362c59d7e7ecb1c0b17803db2be04aa761ac5826e0d873fb40d042f2b07e29f20318bea6ea696c4f81058c332e64966b5d885b9daabb61ab450a1b"
      ],
      "transaction": {
        "from": "0x3efdf0da9ca920d7236580683387ef95d4607fbb",
        "to": "0x4232ea2f481e06a39edf378952a57dc93d7a1401",
        "gas": "0x1eee3",
        "value": "0x0",
        "input": "0x6a761202000000000000000000000000797837fc728fa98a2e85aa0df9759b3badba11a70000000000000000000000000000000000000000000000000000000000000000000000000000000000000000000000000000000000000000000000000000014000000000000000000000000000000000000000000000000000000000000000000000000000000000000000000000000000000000000000000000000000000000000000000000000000000000000000000000000000000000000000000000000000000000000000000000000000000000000000000000000000000000000000000000000000000000000000000000000000000000000000000000000000000000000000000000000000000000000000000000000000000000000000000000000000000000000000000000000000000000000000000000000000000000000001c00000000000000000000000000000000000000000000000000000000000000044a9059cbb0000000000000000000000003efdf0da9ca920d7236580683387ef95d4607fbb000000000000000000000000000000000000000000000002b5e3af16b18800000000000000000000000000000000000000000000000000000000000000000000000000000000000000000000000000000000000000000000000000417ca69c97eae1362c59d7e7ecb1c0b17803db2be04aa761ac5826e0d873fb40d042f2b07e29f20318bea6ea696c4f81058c332e64966b5d885b9daabb61ab450a1b00000000000000000000000000000000000000000000000000000000000000",
        "nonce": "0x3",
        "chainId": "0xaa36a7"
      },
      "additionalContracts": [],
      "isFixedGasLimit": false
    },
    {
      "hash": "0x6d1add6194c6a7cf4162ae9069a92e90fd093eee1121db27dc93ff5c6a4228c5",
      "transactionType": "CALL",
      "contractName": null,
      "contractAddress": "0x6803dde7737ef1f96faf1c6aceed2f6030cb7e1a",
      "function": "transfer(address,uint256)",
      "arguments": [
        "0x4DEf3F63A2DCFD3078D32F195632c340C9689c57",
        "30000000000000000000"
      ],
      "transaction": {
        "from": "0xaac7ae3504abe22f2d07fd666aed71969888e81f",
        "to": "0x6803dde7737ef1f96faf1c6aceed2f6030cb7e1a",
        "gas": "0x126ee",
        "value": "0x0",
        "input": "0xa9059cbb0000000000000000000000004def3f63a2dcfd3078d32f195632c340c9689c57000000000000000000000000000000000000000000000001a055690d9db80000",
        "nonce": "0x3",
        "chainId": "0xaa36a7"
      },
      "additionalContracts": [],
      "isFixedGasLimit": false
    },
    {
      "hash": "0xfc0889e1760663ccdf35f1f55166284a515334753acfc8e0a63e780fa6dfa01a",
      "transactionType": "CALL",
      "contractName": null,
      "contractAddress": "0x72c18ab51a865e5d24ed69f026a7a962ef7d3899",
      "function": "approve(address,uint256)",
      "arguments": [
        "0x1238536071E1c677A632429e3655c799b22cDA52",
        "15000000000000000000"
      ],
      "transaction": {
        "from": "0x6a9a26c1d0edf9265fbf6877aa2f05175803031a",
        "to": "0x72c18ab51a865e5d24ed69f026a7a962ef7d3899",
        "gas": "0xfa2b",
        "value": "0x0",
        "input": "0x095ea7b30000000000000000000000001238536071e1c677a632429e3655c799b22cda52000000000000000000000000000000000000000000000000d02ab486cedc0000",
        "nonce": "0x4",
        "chainId": "0xaa36a7"
      },
      "additionalContracts": [],
      "isFixedGasLimit": false
    },
    {
      "hash": "0xd9e41486653c6614521be5ee45efc96c95d7ba7e671c04945dfdc6c51029ba2b",
      "transactionType": "CALL",
      "contractName": null,
      "contractAddress": "0x1238536071e1c677a632429e3655c799b22cda52",
      "function": "mint((address,address,uint24,int24,int24,uint256,uint256,uint256,uint256,address,uint256))",
      "arguments": [
        "(0x72c18AB51A865E5d24ED69f026a7a962EF7D3899, 0x95E1DC07EDBF9a59F72e41Fd533f1A5B4f3AbB72, 10000, 46200, 48200, 15000000000000000000, 0, 0, 0, 0x6a9A26C1D0EDF9265fbf6877aa2F05175803031A, 1823444259)"
      ],
      "transaction": {
        "from": "0x6a9a26c1d0edf9265fbf6877aa2f05175803031a",
        "to": "0x1238536071e1c677a632429e3655c799b22cda52",
        "gas": "0x64f1b",
        "value": "0x0",
        "input": "0x8831645600000000000000000000000072c18ab51a865e5d24ed69f026a7a962ef7d389900000000000000000000000095e1dc07edbf9a59f72e41fd533f1a5b4f3abb720000000000000000000000000000000000000000000000000000000000002710000000000000000000000000000000000000000000000000000000000000b478000000000000000000000000000000000000000000000000000000000000bc48000000000000000000000000000000000000000000000000d02ab486cedc00000000000000000000000000000000000000000000000000000000000000000000000000000000000000000000000000000000000000000000000000000000000000000000000000000000000000000000000000000000000000000000000000000000000000000000000000006a9a26c1d0edf9265fbf6877aa2f05175803031a000000000000000000000000000000000000000000000000000000006caf8d23",
        "nonce": "0x5",
        "chainId": "0xaa36a7"
      },
      "additionalContracts": [],
      "isFixedGasLimit": false
    }
  ],
  "receipts": [
    {
      "status": "0x1",
      "cumulativeGasUsed": "0x10342a7",
      "logs": [
        {
          "address": "0x797837fc728fa98a2e85aa0df9759b3badba11a7",
          "topics": [
            "0xddf252ad1be2c89b69c2b068fc378daa952ba7f163c4a11628f55a4df523b3ef",
            "0x0000000000000000000000004232ea2f481e06a39edf378952a57dc93d7a1401",
            "0x0000000000000000000000003efdf0da9ca920d7236580683387ef95d4607fbb"
          ],
          "data": "0x000000000000000000000000000000000000000000000002b5e3af16b1880000",
          "blockHash": "0x139abdfe8c5040505e610de12598f1566f265e10cfb6a70df6b0b1ac7abb2dce",
          "blockNumber": "0x63c719",
          "transactionHash": "0xfe552c87db224d1e25ece07b34a87d0ae219ec6a134985a89b0f1dd92426990a",
          "transactionIndex": "0x3f",
          "logIndex": "0x59",
          "removed": false
        },
        {
          "address": "0x4232ea2f481e06a39edf378952a57dc93d7a1401",
          "topics": [
            "0x442e715f626346e8c54381002da614f62bee8d27386535b2521ec8540898556e"
          ],
          "data": "0x0e94327b28d6c002fd82793e3ecc1749a536b500060c3144ae3b3a3ca412b8e40000000000000000000000000000000000000000000000000000000000000000",
          "blockHash": "0x139abdfe8c5040505e610de12598f1566f265e10cfb6a70df6b0b1ac7abb2dce",
          "blockNumber": "0x63c719",
          "transactionHash": "0xfe552c87db224d1e25ece07b34a87d0ae219ec6a134985a89b0f1dd92426990a",
          "transactionIndex": "0x3f",
          "logIndex": "0x5a",
          "removed": false
        }
      ],
      "logsBloom": "0x00000000400000008000000000000000000000000000000000000000040000000000000002000000000000000000000000000000000000000000000000000002200080000000000001000008000000000000000000000000000000000000000000000000004000000000000080000000000000000000000000000010000000000000000000000000000000000000000000000000000000000000000000000000000000000000000000000000000004000000000000000000000000000000000000000002000000000000000000000000000000000000000100020000000000000000000000000000000000000000000000000000000002040000000000000000",
      "type": "0x2",
      "transactionHash": "0xfe552c87db224d1e25ece07b34a87d0ae219ec6a134985a89b0f1dd92426990a",
      "transactionIndex": "0x3f",
      "blockHash": "0x139abdfe8c5040505e610de12598f1566f265e10cfb6a70df6b0b1ac7abb2dce",
      "blockNumber": "0x63c719",
      "gasUsed": "0x15263",
      "effectiveGasPrice": "0x14756e11",
      "from": "0x3efdf0da9ca920d7236580683387ef95d4607fbb",
      "to": "0x4232ea2f481e06a39edf378952a57dc93d7a1401",
      "contractAddress": null
    },
    {
      "status": "0x1",
      "cumulativeGasUsed": "0xfababf",
      "logs": [
        {
          "address": "0x6803dde7737ef1f96faf1c6aceed2f6030cb7e1a",
          "topics": [
            "0xddf252ad1be2c89b69c2b068fc378daa952ba7f163c4a11628f55a4df523b3ef",
            "0x000000000000000000000000aac7ae3504abe22f2d07fd666aed71969888e81f",
            "0x0000000000000000000000004def3f63a2dcfd3078d32f195632c340c9689c57"
          ],
          "data": "0x000000000000000000000000000000000000000000000001a055690d9db80000",
          "blockHash": "0x62d8fcabcc8f893f7388d1fd3372b70a40cf72e39fedd1a128f6428ab46bf7c9",
          "blockNumber": "0x63c71a",
          "transactionHash": "0x6d1add6194c6a7cf4162ae9069a92e90fd093eee1121db27dc93ff5c6a4228c5",
          "transactionIndex": "0x3f",
          "logIndex": "0x50",
          "removed": false
        }
      ],
      "logsBloom": "0x00000000000000000000000000000000000000000000000000000000000000000000000000000000000000000000000000000000000000040000020000000000000000000000000000000008000000000000000000000000000000000000000000000000000000000000000000000000040000000000000000000110000000000000000000000000000000000000000000000000000000000000000200000000000000000800000000000000000000000000000000000000000040000000000000000002000000000001004000000000000000000000000000000000000000000000000000000000000000000000000000000000000000000000000000000000",
      "type": "0x2",
      "transactionHash": "0x6d1add6194c6a7cf4162ae9069a92e90fd093eee1121db27dc93ff5c6a4228c5",
      "transactionIndex": "0x3f",
      "blockHash": "0x62d8fcabcc8f893f7388d1fd3372b70a40cf72e39fedd1a128f6428ab46bf7c9",
      "blockNumber": "0x63c71a",
      "gasUsed": "0xc9aa",
      "effectiveGasPrice": "0x14bca7e6",
      "from": "0xaac7ae3504abe22f2d07fd666aed71969888e81f",
      "to": "0x6803dde7737ef1f96faf1c6aceed2f6030cb7e1a",
      "contractAddress": null
    },
    {
      "status": "0x1",
      "cumulativeGasUsed": "0x10d8007",
      "logs": [
        {
          "address": "0x72c18ab51a865e5d24ed69f026a7a962ef7d3899",
          "topics": [
            "0x8c5be1e5ebec7d5bd14f71427d1e84f3dd0314c0f7b2291e5b200ac8c7c3b925",
            "0x0000000000000000000000006a9a26c1d0edf9265fbf6877aa2f05175803031a",
            "0x0000000000000000000000001238536071e1c677a632429e3655c799b22cda52"
          ],
          "data": "0x000000000000000000000000000000000000000000000000d02ab486cedc0000",
          "blockHash": "0x208b1aa129ced7ae31c90ffa3d7d260386251d0f9ceea81ed7e14fb6d4731143",
          "blockNumber": "0x63c71b",
          "transactionHash": "0xfc0889e1760663ccdf35f1f55166284a515334753acfc8e0a63e780fa6dfa01a",
          "transactionIndex": "0x52",
          "logIndex": "0x69",
          "removed": false
        }
      ],
      "logsBloom": "0x00000000000000000000000000000000000000000000802000000000000000000000000000000000000000000010000000000000000000000000000000200000000000000000000000000000000000000000000000000000000000000000000000000000000000000000000000000000000000000000000000000000000000000000000000000000000000010000000000000000000000000000000000000000020000000008000000000000000000000000000000000002000000000000000000000000000000000000000000000000002000000000000000000000800000000011000000000000000000000000000000000000000000000000000000000000",
      "type": "0x2",
      "transactionHash": "0xfc0889e1760663ccdf35f1f55166284a515334753acfc8e0a63e780fa6dfa01a",
      "transactionIndex": "0x52",
      "blockHash": "0x208b1aa129ced7ae31c90ffa3d7d260386251d0f9ceea81ed7e14fb6d4731143",
      "blockNumber": "0x63c71b",
      "gasUsed": "0xb51f",
      "effectiveGasPrice": "0x1519352f",
      "from": "0x6a9a26c1d0edf9265fbf6877aa2f05175803031a",
      "to": "0x72c18ab51a865e5d24ed69f026a7a962ef7d3899",
      "contractAddress": null
    },
    {
      "status": "0x1",
      "cumulativeGasUsed": "0x11973c4",
      "logs": [
        {
          "address": "0x72c18ab51a865e5d24ed69f026a7a962ef7d3899",
          "topics": [
            "0xddf252ad1be2c89b69c2b068fc378daa952ba7f163c4a11628f55a4df523b3ef",
            "0x0000000000000000000000006a9a26c1d0edf9265fbf6877aa2f05175803031a",
            "0x000000000000000000000000b4fc88d0a0ba8d5eeacb45fe07b99d039be6ca4b"
          ],
          "data": "0x000000000000000000000000000000000000000000000000d02ab486cedc0000",
          "blockHash": "0x67f336d2548d684bff84445aeec774ee69944eec1597a6377e4c71171fedf583",
          "blockNumber": "0x63c71d",
          "transactionHash": "0xd9e41486653c6614521be5ee45efc96c95d7ba7e671c04945dfdc6c51029ba2b",
          "transactionIndex": "0x5f",
          "logIndex": "0x74",
          "removed": false
        },
        {
          "address": "0xb4fc88d0a0ba8d5eeacb45fe07b99d039be6ca4b",
          "topics": [
            "0x7a53080ba414158be7ec69b987b5fb7d07dee101fe85488f0853ae16239d0bde",
            "0x0000000000000000000000001238536071e1c677a632429e3655c799b22cda52",
            "0x000000000000000000000000000000000000000000000000000000000000b478",
            "0x000000000000000000000000000000000000000000000000000000000000bc48"
          ],
          "data": "0x0000000000000000000000001238536071e1c677a632429e3655c799b22cda52000000000000000000000000000000000000000000000056142a62b6648d637d000000000000000000000000000000000000000000000000d02ab486cedc00000000000000000000000000000000000000000000000000000000000000000000",
          "blockHash": "0x67f336d2548d684bff84445aeec774ee69944eec1597a6377e4c71171fedf583",
          "blockNumber": "0x63c71d",
          "transactionHash": "0xd9e41486653c6614521be5ee45efc96c95d7ba7e671c04945dfdc6c51029ba2b",
          "transactionIndex": "0x5f",
          "logIndex": "0x75",
          "removed": false
        },
        {
          "address": "0x1238536071e1c677a632429e3655c799b22cda52",
          "topics": [
            "0xddf252ad1be2c89b69c2b068fc378daa952ba7f163c4a11628f55a4df523b3ef",
            "0x0000000000000000000000000000000000000000000000000000000000000000",
            "0x0000000000000000000000006a9a26c1d0edf9265fbf6877aa2f05175803031a",
            "0x00000000000000000000000000000000000000000000000000000000000050c0"
          ],
          "data": "0x",
          "blockHash": "0x67f336d2548d684bff84445aeec774ee69944eec1597a6377e4c71171fedf583",
          "blockNumber": "0x63c71d",
          "transactionHash": "0xd9e41486653c6614521be5ee45efc96c95d7ba7e671c04945dfdc6c51029ba2b",
          "transactionIndex": "0x5f",
          "logIndex": "0x76",
          "removed": false
        },
        {
          "address": "0x1238536071e1c677a632429e3655c799b22cda52",
          "topics": [
            "0x3067048beee31b25b2f1681f88dac838c8bba36af25bfb2b7cf7473a5847e35f",
            "0x00000000000000000000000000000000000000000000000000000000000050c0"
          ],
          "data": "0x000000000000000000000000000000000000000000000056142a62b6648d637d000000000000000000000000000000000000000000000000d02ab486cedc00000000000000000000000000000000000000000000000000000000000000000000",
          "blockHash": "0x67f336d2548d684bff84445aeec774ee69944eec1597a6377e4c71171fedf583",
          "blockNumber": "0x63c71d",
          "transactionHash": "0xd9e41486653c6614521be5ee45efc96c95d7ba7e671c04945dfdc6c51029ba2b",
          "transactionIndex": "0x5f",
          "logIndex": "0x77",
          "removed": false
        }
      ],
      "logsBloom": "0x00000000000004000000100000400000000000000000802000000000000004000000000000000000001000000010000000000000080000000400000000000000000000000800000000000008200000000000000000000000000000000000000020000000020100000000000000000800000000000800000000000010000000000000000008000000000000010000000000000000000000000000000000000000000000000008000000400000200000000000000000000002000000002000000000000002000000000000080000020000042000000000000000000020800020000001004000002000004000000000000000000000000000000000000000000800",
      "type": "0x2",
      "transactionHash": "0xd9e41486653c6614521be5ee45efc96c95d7ba7e671c04945dfdc6c51029ba2b",
      "transactionIndex": "0x5f",
      "blockHash": "0x67f336d2548d684bff84445aeec774ee69944eec1597a6377e4c71171fedf583",
      "blockNumber": "0x63c71d",
      "gasUsed": "0x45059",
      "effectiveGasPrice": "0x149af390",
      "from": "0x6a9a26c1d0edf9265fbf6877aa2f05175803031a",
      "to": "0x1238536071e1c677a632429e3655c799b22cda52",
      "contractAddress": null
    }
  ],
  "libraries": [],
  "pending": [],
  "returns": {},
  "timestamp": 1724188022,
  "chain": 11155111,
  "commit": "0a1ad8b"
}